{
  "abi": [
    {
      "inputs": [],
      "stateMutability": "nonpayable",
      "type": "constructor"
    },
    {
      "anonymous": false,
      "inputs": [
        {
          "indexed": false,
          "internalType": "address",
          "name": "previousAdmin",
          "type": "address"
        },
        {
          "indexed": false,
          "internalType": "address",
          "name": "newAdmin",
          "type": "address"
        }
      ],
      "name": "AdminChanged",
      "type": "event"
    },
    {
      "anonymous": false,
      "inputs": [
        {
          "indexed": true,
          "internalType": "address",
          "name": "owner",
          "type": "address"
        },
        {
          "indexed": true,
          "internalType": "address",
          "name": "spender",
          "type": "address"
        },
        {
          "indexed": true,
          "internalType": "uint256",
          "name": "id",
          "type": "uint256"
        }
      ],
      "name": "Approval",
      "type": "event"
    },
    {
      "anonymous": false,
      "inputs": [
        {
          "indexed": true,
          "internalType": "address",
          "name": "owner",
          "type": "address"
        },
        {
          "indexed": true,
          "internalType": "address",
          "name": "operator",
          "type": "address"
        },
        {
          "indexed": false,
          "internalType": "bool",
          "name": "approved",
          "type": "bool"
        }
      ],
      "name": "ApprovalForAll",
      "type": "event"
    },
    {
      "anonymous": false,
      "inputs": [
        {
          "indexed": true,
          "internalType": "address",
          "name": "beacon",
          "type": "address"
        }
      ],
      "name": "BeaconUpgraded",
      "type": "event"
    },
    {
      "anonymous": false,
      "inputs": [
        {
          "indexed": true,
          "internalType": "address",
          "name": "collector",
          "type": "address"
        },
        {
          "indexed": true,
          "internalType": "uint256",
          "name": "profileId",
          "type": "uint256"
        },
        {
          "indexed": true,
          "internalType": "uint256",
          "name": "essenceId",
          "type": "uint256"
        },
        {
          "indexed": false,
          "internalType": "uint256",
          "name": "tokenId",
          "type": "uint256"
        },
        {
          "indexed": false,
          "internalType": "bytes",
          "name": "preData",
          "type": "bytes"
        },
        {
          "indexed": false,
          "internalType": "bytes",
          "name": "postData",
          "type": "bytes"
        }
      ],
      "name": "CollectEssence",
      "type": "event"
    },
    {
      "anonymous": false,
      "inputs": [
        {
          "indexed": true,
          "internalType": "address",
          "name": "to",
          "type": "address"
        },
        {
          "indexed": true,
          "internalType": "uint256",
          "name": "profileId",
          "type": "uint256"
        },
        {
          "indexed": false,
          "internalType": "string",
          "name": "handle",
          "type": "string"
        },
        {
          "indexed": false,
          "internalType": "string",
          "name": "avatar",
          "type": "string"
        },
        {
          "indexed": false,
          "internalType": "string",
          "name": "metadata",
          "type": "string"
        }
      ],
      "name": "CreateProfile",
      "type": "event"
    },
    {
      "anonymous": false,
      "inputs": [
        {
          "indexed": true,
          "internalType": "uint256",
          "name": "profileId",
          "type": "uint256"
        },
        {
          "indexed": true,
          "internalType": "uint256",
          "name": "essenceId",
          "type": "uint256"
        },
        {
          "indexed": true,
          "internalType": "address",
          "name": "essenceNFT",
          "type": "address"
        }
      ],
      "name": "DeployEssenceNFT",
      "type": "event"
    },
    {
      "anonymous": false,
      "inputs": [
        {
          "indexed": true,
          "internalType": "uint256",
          "name": "profileId",
          "type": "uint256"
        },
        {
          "indexed": true,
          "internalType": "address",
          "name": "subscribeNFT",
          "type": "address"
        }
      ],
      "name": "DeploySubscribeNFT",
      "type": "event"
    },
    {
      "anonymous": false,
      "inputs": [
        {
          "indexed": true,
          "internalType": "address",
          "name": "owner",
          "type": "address"
        },
        {
          "indexed": false,
          "internalType": "string",
          "name": "name",
          "type": "string"
        },
        {
          "indexed": false,
          "internalType": "string",
          "name": "symbol",
          "type": "string"
        }
      ],
      "name": "Initialize",
      "type": "event"
    },
    {
      "anonymous": false,
      "inputs": [
        {
          "indexed": false,
          "internalType": "uint8",
          "name": "version",
          "type": "uint8"
        }
      ],
      "name": "Initialized",
      "type": "event"
    },
    {
      "anonymous": false,
      "inputs": [
        {
          "indexed": false,
          "internalType": "address",
          "name": "account",
          "type": "address"
        }
      ],
      "name": "Paused",
      "type": "event"
    },
    {
      "anonymous": false,
      "inputs": [
        {
          "indexed": true,
          "internalType": "uint256",
          "name": "profileId",
          "type": "uint256"
        },
        {
          "indexed": true,
          "internalType": "uint256",
          "name": "essenceId",
          "type": "uint256"
        },
        {
          "indexed": false,
          "internalType": "string",
          "name": "name",
          "type": "string"
        },
        {
          "indexed": false,
          "internalType": "string",
          "name": "symbol",
          "type": "string"
        },
        {
          "indexed": false,
          "internalType": "string",
          "name": "essenceTokenURI",
          "type": "string"
        },
        {
          "indexed": false,
          "internalType": "address",
          "name": "essenceMw",
          "type": "address"
        },
        {
          "indexed": false,
          "internalType": "bytes",
          "name": "prepareReturnData",
          "type": "bytes"
        }
      ],
      "name": "RegisterEssence",
      "type": "event"
    },
    {
      "anonymous": false,
      "inputs": [
        {
          "indexed": true,
          "internalType": "uint256",
          "name": "profileId",
          "type": "uint256"
        },
        {
          "indexed": false,
          "internalType": "string",
          "name": "newAvatar",
          "type": "string"
        }
      ],
      "name": "SetAvatar",
      "type": "event"
    },
    {
      "anonymous": false,
      "inputs": [
        {
          "indexed": true,
          "internalType": "uint256",
          "name": "profileId",
          "type": "uint256"
        },
        {
          "indexed": true,
          "internalType": "uint256",
          "name": "essenceId",
          "type": "uint256"
        },
        {
          "indexed": false,
          "internalType": "string",
          "name": "tokenURI",
          "type": "string"
        },
        {
          "indexed": false,
          "internalType": "address",
          "name": "mw",
          "type": "address"
        },
        {
          "indexed": false,
          "internalType": "bytes",
          "name": "prepareReturnData",
          "type": "bytes"
        }
      ],
      "name": "SetEssenceData",
      "type": "event"
    },
    {
      "anonymous": false,
      "inputs": [
        {
          "indexed": true,
          "internalType": "uint256",
          "name": "profileId",
          "type": "uint256"
        },
        {
          "indexed": false,
          "internalType": "string",
          "name": "newMetadata",
          "type": "string"
        }
      ],
      "name": "SetMetadata",
      "type": "event"
    },
    {
      "anonymous": false,
      "inputs": [
        {
          "indexed": true,
          "internalType": "address",
          "name": "newDescriptor",
          "type": "address"
        }
      ],
      "name": "SetNFTDescriptor",
      "type": "event"
    },
    {
      "anonymous": false,
      "inputs": [
        {
          "indexed": true,
          "internalType": "address",
          "name": "preOwner",
          "type": "address"
        },
        {
          "indexed": true,
          "internalType": "address",
          "name": "newOwner",
          "type": "address"
        }
      ],
      "name": "SetNamespaceOwner",
      "type": "event"
    },
    {
      "anonymous": false,
      "inputs": [
        {
          "indexed": true,
          "internalType": "uint256",
          "name": "profileId",
          "type": "uint256"
        },
        {
          "indexed": true,
          "internalType": "address",
          "name": "operator",
          "type": "address"
        },
        {
          "indexed": false,
          "internalType": "bool",
          "name": "prevApproved",
          "type": "bool"
        },
        {
          "indexed": false,
          "internalType": "bool",
          "name": "approved",
          "type": "bool"
        }
      ],
      "name": "SetOperatorApproval",
      "type": "event"
    },
    {
      "anonymous": false,
      "inputs": [
        {
          "indexed": true,
          "internalType": "address",
          "name": "user",
          "type": "address"
        },
        {
          "indexed": true,
          "internalType": "uint256",
          "name": "profileId",
          "type": "uint256"
        }
      ],
      "name": "SetPrimaryProfile",
      "type": "event"
    },
    {
      "anonymous": false,
      "inputs": [
        {
          "indexed": true,
          "internalType": "uint256",
          "name": "profileId",
          "type": "uint256"
        },
        {
          "indexed": false,
          "internalType": "string",
          "name": "tokenURI",
          "type": "string"
        },
        {
          "indexed": false,
          "internalType": "address",
          "name": "mw",
          "type": "address"
        },
        {
          "indexed": false,
          "internalType": "bytes",
          "name": "prepareReturnData",
          "type": "bytes"
        }
      ],
      "name": "SetSubscribeData",
      "type": "event"
    },
    {
      "anonymous": false,
      "inputs": [
        {
          "indexed": true,
          "internalType": "address",
          "name": "sender",
          "type": "address"
        },
        {
          "indexed": false,
          "internalType": "uint256[]",
          "name": "profileIds",
          "type": "uint256[]"
        },
        {
          "indexed": false,
          "internalType": "bytes[]",
          "name": "preDatas",
          "type": "bytes[]"
        },
        {
          "indexed": false,
          "internalType": "bytes[]",
          "name": "postDatas",
          "type": "bytes[]"
        }
      ],
      "name": "Subscribe",
      "type": "event"
    },
    {
      "anonymous": false,
      "inputs": [
        {
          "indexed": true,
          "internalType": "address",
          "name": "from",
          "type": "address"
        },
        {
          "indexed": true,
          "internalType": "address",
          "name": "to",
          "type": "address"
        },
        {
          "indexed": true,
          "internalType": "uint256",
          "name": "id",
          "type": "uint256"
        }
      ],
      "name": "Transfer",
      "type": "event"
    },
    {
      "anonymous": false,
      "inputs": [
        {
          "indexed": false,
          "internalType": "address",
          "name": "account",
          "type": "address"
        }
      ],
      "name": "Unpaused",
      "type": "event"
    },
    {
      "anonymous": false,
      "inputs": [
        {
          "indexed": true,
          "internalType": "address",
          "name": "implementation",
          "type": "address"
        }
      ],
      "name": "Upgraded",
      "type": "event"
    },
    {
      "inputs": [],
      "name": "DOMAIN_SEPARATOR",
      "outputs": [
        {
          "internalType": "bytes32",
          "name": "",
          "type": "bytes32"
        }
      ],
      "stateMutability": "view",
      "type": "function"
    },
    {
      "inputs": [],
      "name": "ENGINE",
      "outputs": [
        {
          "internalType": "address",
          "name": "",
          "type": "address"
        }
      ],
      "stateMutability": "view",
      "type": "function"
    },
    {
      "inputs": [],
      "name": "ESSENCE_BEACON",
      "outputs": [
        {
          "internalType": "address",
          "name": "",
          "type": "address"
        }
      ],
      "stateMutability": "view",
      "type": "function"
    },
    {
      "inputs": [],
      "name": "SUBSCRIBE_BEACON",
      "outputs": [
        {
          "internalType": "address",
          "name": "",
          "type": "address"
        }
      ],
      "stateMutability": "view",
      "type": "function"
    },
    {
      "inputs": [
        {
          "internalType": "address",
          "name": "spender",
          "type": "address"
        },
        {
          "internalType": "uint256",
          "name": "id",
          "type": "uint256"
        }
      ],
      "name": "approve",
      "outputs": [],
      "stateMutability": "nonpayable",
      "type": "function"
    },
    {
      "inputs": [
        {
          "internalType": "address",
          "name": "owner",
          "type": "address"
        }
      ],
      "name": "balanceOf",
      "outputs": [
        {
          "internalType": "uint256",
          "name": "",
          "type": "uint256"
        }
      ],
      "stateMutability": "view",
      "type": "function"
    },
    {
      "inputs": [
        {
          "internalType": "uint256",
          "name": "tokenId",
          "type": "uint256"
        }
      ],
      "name": "burn",
      "outputs": [],
      "stateMutability": "nonpayable",
      "type": "function"
    },
    {
      "inputs": [
        {
          "components": [
            {
              "internalType": "address",
              "name": "collector",
              "type": "address"
            },
            {
              "internalType": "uint256",
              "name": "profileId",
              "type": "uint256"
            },
            {
              "internalType": "uint256",
              "name": "essenceId",
              "type": "uint256"
            }
          ],
          "internalType": "struct DataTypes.CollectParams",
          "name": "params",
          "type": "tuple"
        },
        {
          "internalType": "bytes",
          "name": "preData",
          "type": "bytes"
        },
        {
          "internalType": "bytes",
          "name": "postData",
          "type": "bytes"
        }
      ],
      "name": "collect",
      "outputs": [
        {
          "internalType": "uint256",
          "name": "tokenId",
          "type": "uint256"
        }
      ],
      "stateMutability": "nonpayable",
      "type": "function"
    },
    {
      "inputs": [
        {
          "components": [
            {
              "internalType": "address",
              "name": "collector",
              "type": "address"
            },
            {
              "internalType": "uint256",
              "name": "profileId",
              "type": "uint256"
            },
            {
              "internalType": "uint256",
              "name": "essenceId",
              "type": "uint256"
            }
          ],
          "internalType": "struct DataTypes.CollectParams",
          "name": "params",
          "type": "tuple"
        },
        {
          "internalType": "bytes",
          "name": "preData",
          "type": "bytes"
        },
        {
          "internalType": "bytes",
          "name": "postData",
          "type": "bytes"
        },
        {
          "internalType": "address",
          "name": "sender",
          "type": "address"
        },
        {
          "components": [
            {
              "internalType": "uint8",
              "name": "v",
              "type": "uint8"
            },
            {
              "internalType": "bytes32",
              "name": "r",
              "type": "bytes32"
            },
            {
              "internalType": "bytes32",
              "name": "s",
              "type": "bytes32"
            },
            {
              "internalType": "uint256",
              "name": "deadline",
              "type": "uint256"
            }
          ],
          "internalType": "struct DataTypes.EIP712Signature",
          "name": "sig",
          "type": "tuple"
        }
      ],
      "name": "collectWithSig",
      "outputs": [
        {
          "internalType": "uint256",
          "name": "tokenId",
          "type": "uint256"
        }
      ],
      "stateMutability": "nonpayable",
      "type": "function"
    },
    {
      "inputs": [
        {
          "components": [
            {
              "internalType": "address",
              "name": "to",
              "type": "address"
            },
            {
              "internalType": "string",
              "name": "handle",
              "type": "string"
            },
            {
              "internalType": "string",
              "name": "avatar",
              "type": "string"
            },
            {
              "internalType": "string",
              "name": "metadata",
              "type": "string"
            },
            {
              "internalType": "address",
              "name": "operator",
              "type": "address"
            }
          ],
          "internalType": "struct DataTypes.CreateProfileParams",
          "name": "params",
          "type": "tuple"
        },
        {
          "internalType": "bytes",
          "name": "preData",
          "type": "bytes"
        },
        {
          "internalType": "bytes",
          "name": "postData",
          "type": "bytes"
        }
      ],
      "name": "createProfile",
      "outputs": [
        {
          "internalType": "uint256",
          "name": "tokenID",
          "type": "uint256"
        }
      ],
      "stateMutability": "payable",
      "type": "function"
    },
    {
      "inputs": [
        {
          "internalType": "uint256",
          "name": "",
          "type": "uint256"
        }
      ],
      "name": "getApproved",
      "outputs": [
        {
          "internalType": "address",
          "name": "",
          "type": "address"
        }
      ],
      "stateMutability": "view",
      "type": "function"
    },
    {
      "inputs": [
        {
          "internalType": "uint256",
          "name": "profileId",
          "type": "uint256"
        }
      ],
      "name": "getAvatar",
      "outputs": [
        {
          "internalType": "string",
          "name": "",
          "type": "string"
        }
      ],
      "stateMutability": "view",
      "type": "function"
    },
    {
      "inputs": [
        {
          "internalType": "uint256",
          "name": "profileId",
          "type": "uint256"
        },
        {
          "internalType": "uint256",
          "name": "essenceId",
          "type": "uint256"
        }
      ],
      "name": "getEssenceMw",
      "outputs": [
        {
          "internalType": "address",
          "name": "",
          "type": "address"
        }
      ],
      "stateMutability": "view",
      "type": "function"
    },
    {
      "inputs": [
        {
          "internalType": "uint256",
          "name": "profileId",
          "type": "uint256"
        },
        {
          "internalType": "uint256",
          "name": "essenceId",
          "type": "uint256"
        }
      ],
      "name": "getEssenceNFT",
      "outputs": [
        {
          "internalType": "address",
          "name": "",
          "type": "address"
        }
      ],
      "stateMutability": "view",
      "type": "function"
    },
    {
      "inputs": [
        {
          "internalType": "uint256",
          "name": "profileId",
          "type": "uint256"
        },
        {
          "internalType": "uint256",
          "name": "essenceId",
          "type": "uint256"
        }
      ],
      "name": "getEssenceNFTTokenURI",
      "outputs": [
        {
          "internalType": "string",
          "name": "",
          "type": "string"
        }
      ],
      "stateMutability": "view",
      "type": "function"
    },
    {
      "inputs": [
        {
          "internalType": "uint256",
          "name": "profileId",
          "type": "uint256"
        }
      ],
      "name": "getHandleByProfileId",
      "outputs": [
        {
          "internalType": "string",
          "name": "",
          "type": "string"
        }
      ],
      "stateMutability": "view",
      "type": "function"
    },
    {
      "inputs": [
        {
          "internalType": "uint256",
          "name": "profileId",
          "type": "uint256"
        }
      ],
      "name": "getMetadata",
      "outputs": [
        {
          "internalType": "string",
          "name": "",
          "type": "string"
        }
      ],
      "stateMutability": "view",
      "type": "function"
    },
    {
      "inputs": [],
      "name": "getNFTDescriptor",
      "outputs": [
        {
          "internalType": "address",
          "name": "",
          "type": "address"
        }
      ],
      "stateMutability": "view",
      "type": "function"
    },
    {
      "inputs": [],
      "name": "getNamespaceOwner",
      "outputs": [
        {
          "internalType": "address",
          "name": "",
          "type": "address"
        }
      ],
      "stateMutability": "view",
      "type": "function"
    },
    {
      "inputs": [
        {
          "internalType": "uint256",
          "name": "profileId",
          "type": "uint256"
        },
        {
          "internalType": "address",
          "name": "operator",
          "type": "address"
        }
      ],
      "name": "getOperatorApproval",
      "outputs": [
        {
          "internalType": "bool",
          "name": "",
          "type": "bool"
        }
      ],
      "stateMutability": "view",
      "type": "function"
    },
    {
      "inputs": [
        {
          "internalType": "address",
          "name": "user",
          "type": "address"
        }
      ],
      "name": "getPrimaryProfile",
      "outputs": [
        {
          "internalType": "uint256",
          "name": "",
          "type": "uint256"
        }
      ],
      "stateMutability": "view",
      "type": "function"
    },
    {
      "inputs": [
        {
          "internalType": "string",
          "name": "handle",
          "type": "string"
        }
      ],
      "name": "getProfileIdByHandle",
      "outputs": [
        {
          "internalType": "uint256",
          "name": "",
          "type": "uint256"
        }
      ],
      "stateMutability": "view",
      "type": "function"
    },
    {
      "inputs": [
        {
          "internalType": "uint256",
          "name": "profileId",
          "type": "uint256"
        }
      ],
      "name": "getSubscribeMw",
      "outputs": [
        {
          "internalType": "address",
          "name": "",
          "type": "address"
        }
      ],
      "stateMutability": "view",
      "type": "function"
    },
    {
      "inputs": [
        {
          "internalType": "uint256",
          "name": "profileId",
          "type": "uint256"
        }
      ],
      "name": "getSubscribeNFT",
      "outputs": [
        {
          "internalType": "address",
          "name": "",
          "type": "address"
        }
      ],
      "stateMutability": "view",
      "type": "function"
    },
    {
      "inputs": [
        {
          "internalType": "uint256",
          "name": "profileId",
          "type": "uint256"
        }
      ],
      "name": "getSubscribeNFTTokenURI",
      "outputs": [
        {
          "internalType": "string",
          "name": "",
          "type": "string"
        }
      ],
      "stateMutability": "view",
      "type": "function"
    },
    {
      "inputs": [
        {
          "internalType": "address",
          "name": "_owner",
          "type": "address"
        },
        {
          "internalType": "string",
          "name": "name",
          "type": "string"
        },
        {
          "internalType": "string",
          "name": "symbol",
          "type": "string"
        }
      ],
      "name": "initialize",
      "outputs": [],
      "stateMutability": "nonpayable",
      "type": "function"
    },
    {
      "inputs": [
        {
          "internalType": "address",
          "name": "",
          "type": "address"
        },
        {
          "internalType": "address",
          "name": "",
          "type": "address"
        }
      ],
      "name": "isApprovedForAll",
      "outputs": [
        {
          "internalType": "bool",
          "name": "",
          "type": "bool"
        }
      ],
      "stateMutability": "view",
      "type": "function"
    },
    {
      "inputs": [],
      "name": "name",
      "outputs": [
        {
          "internalType": "string",
          "name": "",
          "type": "string"
        }
      ],
      "stateMutability": "view",
      "type": "function"
    },
    {
      "inputs": [
        {
          "internalType": "address",
          "name": "",
          "type": "address"
        }
      ],
      "name": "nonces",
      "outputs": [
        {
          "internalType": "uint256",
          "name": "",
          "type": "uint256"
        }
      ],
      "stateMutability": "view",
      "type": "function"
    },
    {
      "inputs": [
        {
          "internalType": "uint256",
          "name": "id",
          "type": "uint256"
        }
      ],
      "name": "ownerOf",
      "outputs": [
        {
          "internalType": "address",
          "name": "owner",
          "type": "address"
        }
      ],
      "stateMutability": "view",
      "type": "function"
    },
    {
      "inputs": [
        {
          "internalType": "bool",
          "name": "toPause",
          "type": "bool"
        }
      ],
      "name": "pause",
      "outputs": [],
      "stateMutability": "nonpayable",
      "type": "function"
    },
    {
      "inputs": [],
      "name": "paused",
      "outputs": [
        {
          "internalType": "bool",
          "name": "",
          "type": "bool"
        }
      ],
      "stateMutability": "view",
      "type": "function"
    },
    {
      "inputs": [
        {
          "internalType": "address",
          "name": "spender",
          "type": "address"
        },
        {
          "internalType": "uint256",
          "name": "tokenId",
          "type": "uint256"
        },
        {
          "components": [
            {
              "internalType": "uint8",
              "name": "v",
              "type": "uint8"
            },
            {
              "internalType": "bytes32",
              "name": "r",
              "type": "bytes32"
            },
            {
              "internalType": "bytes32",
              "name": "s",
              "type": "bytes32"
            },
            {
              "internalType": "uint256",
              "name": "deadline",
              "type": "uint256"
            }
          ],
          "internalType": "struct DataTypes.EIP712Signature",
          "name": "sig",
          "type": "tuple"
        }
      ],
      "name": "permit",
      "outputs": [],
      "stateMutability": "nonpayable",
      "type": "function"
    },
    {
      "inputs": [],
      "name": "proxiableUUID",
      "outputs": [
        {
          "internalType": "bytes32",
          "name": "",
          "type": "bytes32"
        }
      ],
      "stateMutability": "view",
      "type": "function"
    },
    {
      "inputs": [
        {
          "components": [
            {
              "internalType": "uint256",
              "name": "profileId",
              "type": "uint256"
            },
            {
              "internalType": "string",
              "name": "name",
              "type": "string"
            },
            {
              "internalType": "string",
              "name": "symbol",
              "type": "string"
            },
            {
              "internalType": "string",
              "name": "essenceTokenURI",
              "type": "string"
            },
            {
              "internalType": "address",
              "name": "essenceMw",
              "type": "address"
            },
            {
              "internalType": "bool",
              "name": "transferable",
              "type": "bool"
            },
            {
              "internalType": "bool",
              "name": "deployAtRegister",
              "type": "bool"
            }
          ],
          "internalType": "struct DataTypes.RegisterEssenceParams",
          "name": "params",
          "type": "tuple"
        },
        {
          "internalType": "bytes",
          "name": "initData",
          "type": "bytes"
        }
      ],
      "name": "registerEssence",
      "outputs": [
        {
          "internalType": "uint256",
          "name": "",
          "type": "uint256"
        }
      ],
      "stateMutability": "nonpayable",
      "type": "function"
    },
    {
      "inputs": [
        {
          "components": [
            {
              "internalType": "uint256",
              "name": "profileId",
              "type": "uint256"
            },
            {
              "internalType": "string",
              "name": "name",
              "type": "string"
            },
            {
              "internalType": "string",
              "name": "symbol",
              "type": "string"
            },
            {
              "internalType": "string",
              "name": "essenceTokenURI",
              "type": "string"
            },
            {
              "internalType": "address",
              "name": "essenceMw",
              "type": "address"
            },
            {
              "internalType": "bool",
              "name": "transferable",
              "type": "bool"
            },
            {
              "internalType": "bool",
              "name": "deployAtRegister",
              "type": "bool"
            }
          ],
          "internalType": "struct DataTypes.RegisterEssenceParams",
          "name": "params",
          "type": "tuple"
        },
        {
          "internalType": "bytes",
          "name": "initData",
          "type": "bytes"
        },
        {
          "components": [
            {
              "internalType": "uint8",
              "name": "v",
              "type": "uint8"
            },
            {
              "internalType": "bytes32",
              "name": "r",
              "type": "bytes32"
            },
            {
              "internalType": "bytes32",
              "name": "s",
              "type": "bytes32"
            },
            {
              "internalType": "uint256",
              "name": "deadline",
              "type": "uint256"
            }
          ],
          "internalType": "struct DataTypes.EIP712Signature",
          "name": "sig",
          "type": "tuple"
        }
      ],
      "name": "registerEssenceWithSig",
      "outputs": [
        {
          "internalType": "uint256",
          "name": "tokenId",
          "type": "uint256"
        }
      ],
      "stateMutability": "nonpayable",
      "type": "function"
    },
    {
      "inputs": [
        {
          "internalType": "address",
          "name": "from",
          "type": "address"
        },
        {
          "internalType": "address",
          "name": "to",
          "type": "address"
        },
        {
          "internalType": "uint256",
          "name": "id",
          "type": "uint256"
        }
      ],
      "name": "safeTransferFrom",
      "outputs": [],
      "stateMutability": "nonpayable",
      "type": "function"
    },
    {
      "inputs": [
        {
          "internalType": "address",
          "name": "from",
          "type": "address"
        },
        {
          "internalType": "address",
          "name": "to",
          "type": "address"
        },
        {
          "internalType": "uint256",
          "name": "id",
          "type": "uint256"
        },
        {
          "internalType": "bytes",
          "name": "data",
          "type": "bytes"
        }
      ],
      "name": "safeTransferFrom",
      "outputs": [],
      "stateMutability": "nonpayable",
      "type": "function"
    },
    {
      "inputs": [
        {
          "internalType": "address",
          "name": "operator",
          "type": "address"
        },
        {
          "internalType": "bool",
          "name": "approved",
          "type": "bool"
        }
      ],
      "name": "setApprovalForAll",
      "outputs": [],
      "stateMutability": "nonpayable",
      "type": "function"
    },
    {
      "inputs": [
        {
          "internalType": "uint256",
          "name": "profileId",
          "type": "uint256"
        },
        {
          "internalType": "string",
          "name": "avatar",
          "type": "string"
        }
      ],
      "name": "setAvatar",
      "outputs": [],
      "stateMutability": "nonpayable",
      "type": "function"
    },
    {
      "inputs": [
        {
          "internalType": "uint256",
          "name": "profileId",
          "type": "uint256"
        },
        {
          "internalType": "string",
          "name": "avatar",
          "type": "string"
        },
        {
          "components": [
            {
              "internalType": "uint8",
              "name": "v",
              "type": "uint8"
            },
            {
              "internalType": "bytes32",
              "name": "r",
              "type": "bytes32"
            },
            {
              "internalType": "bytes32",
              "name": "s",
              "type": "bytes32"
            },
            {
              "internalType": "uint256",
              "name": "deadline",
              "type": "uint256"
            }
          ],
          "internalType": "struct DataTypes.EIP712Signature",
          "name": "sig",
          "type": "tuple"
        }
      ],
      "name": "setAvatarWithSig",
      "outputs": [],
      "stateMutability": "nonpayable",
      "type": "function"
    },
    {
      "inputs": [
        {
          "internalType": "uint256",
          "name": "profileId",
          "type": "uint256"
        },
        {
          "internalType": "uint256",
          "name": "essenceId",
          "type": "uint256"
        },
        {
          "internalType": "string",
          "name": "uri",
          "type": "string"
        },
        {
          "internalType": "address",
          "name": "mw",
          "type": "address"
        },
        {
          "internalType": "bytes",
          "name": "data",
          "type": "bytes"
        }
      ],
      "name": "setEssenceData",
      "outputs": [],
      "stateMutability": "nonpayable",
      "type": "function"
    },
    {
      "inputs": [
        {
          "internalType": "uint256",
          "name": "profileId",
          "type": "uint256"
        },
        {
          "internalType": "uint256",
          "name": "essenceId",
          "type": "uint256"
        },
        {
          "internalType": "string",
          "name": "uri",
          "type": "string"
        },
        {
          "internalType": "address",
          "name": "mw",
          "type": "address"
        },
        {
          "internalType": "bytes",
          "name": "data",
          "type": "bytes"
        },
        {
          "components": [
            {
              "internalType": "uint8",
              "name": "v",
              "type": "uint8"
            },
            {
              "internalType": "bytes32",
              "name": "r",
              "type": "bytes32"
            },
            {
              "internalType": "bytes32",
              "name": "s",
              "type": "bytes32"
            },
            {
              "internalType": "uint256",
              "name": "deadline",
              "type": "uint256"
            }
          ],
          "internalType": "struct DataTypes.EIP712Signature",
          "name": "sig",
          "type": "tuple"
        }
      ],
      "name": "setEssenceDataWithSig",
      "outputs": [],
      "stateMutability": "nonpayable",
      "type": "function"
    },
    {
      "inputs": [
        {
          "internalType": "uint256",
          "name": "profileId",
          "type": "uint256"
        },
        {
          "internalType": "string",
          "name": "metadata",
          "type": "string"
        }
      ],
      "name": "setMetadata",
      "outputs": [],
      "stateMutability": "nonpayable",
      "type": "function"
    },
    {
      "inputs": [
        {
          "internalType": "uint256",
          "name": "profileId",
          "type": "uint256"
        },
        {
          "internalType": "string",
          "name": "metadata",
          "type": "string"
        },
        {
          "components": [
            {
              "internalType": "uint8",
              "name": "v",
              "type": "uint8"
            },
            {
              "internalType": "bytes32",
              "name": "r",
              "type": "bytes32"
            },
            {
              "internalType": "bytes32",
              "name": "s",
              "type": "bytes32"
            },
            {
              "internalType": "uint256",
              "name": "deadline",
              "type": "uint256"
            }
          ],
          "internalType": "struct DataTypes.EIP712Signature",
          "name": "sig",
          "type": "tuple"
        }
      ],
      "name": "setMetadataWithSig",
      "outputs": [],
      "stateMutability": "nonpayable",
      "type": "function"
    },
    {
      "inputs": [
        {
          "internalType": "address",
          "name": "descriptor",
          "type": "address"
        }
      ],
      "name": "setNFTDescriptor",
      "outputs": [],
      "stateMutability": "nonpayable",
      "type": "function"
    },
    {
      "inputs": [
        {
          "internalType": "address",
          "name": "owner",
          "type": "address"
        }
      ],
      "name": "setNamespaceOwner",
      "outputs": [],
      "stateMutability": "nonpayable",
      "type": "function"
    },
    {
      "inputs": [
        {
          "internalType": "uint256",
          "name": "profileId",
          "type": "uint256"
        },
        {
          "internalType": "address",
          "name": "operator",
          "type": "address"
        },
        {
          "internalType": "bool",
          "name": "approved",
          "type": "bool"
        }
      ],
      "name": "setOperatorApproval",
      "outputs": [],
      "stateMutability": "nonpayable",
      "type": "function"
    },
    {
      "inputs": [
        {
          "internalType": "uint256",
          "name": "profileId",
          "type": "uint256"
        }
      ],
      "name": "setPrimaryProfile",
      "outputs": [],
      "stateMutability": "nonpayable",
      "type": "function"
    },
    {
      "inputs": [
        {
          "internalType": "uint256",
          "name": "profileId",
          "type": "uint256"
        },
        {
          "components": [
            {
              "internalType": "uint8",
              "name": "v",
              "type": "uint8"
            },
            {
              "internalType": "bytes32",
              "name": "r",
              "type": "bytes32"
            },
            {
              "internalType": "bytes32",
              "name": "s",
              "type": "bytes32"
            },
            {
              "internalType": "uint256",
              "name": "deadline",
              "type": "uint256"
            }
          ],
          "internalType": "struct DataTypes.EIP712Signature",
          "name": "sig",
          "type": "tuple"
        }
      ],
      "name": "setPrimaryProfileWithSig",
      "outputs": [],
      "stateMutability": "nonpayable",
      "type": "function"
    },
    {
      "inputs": [
        {
          "internalType": "uint256",
          "name": "profileId",
          "type": "uint256"
        },
        {
          "internalType": "string",
          "name": "uri",
          "type": "string"
        },
        {
          "internalType": "address",
          "name": "mw",
          "type": "address"
        },
        {
          "internalType": "bytes",
          "name": "data",
          "type": "bytes"
        }
      ],
      "name": "setSubscribeData",
      "outputs": [],
      "stateMutability": "nonpayable",
      "type": "function"
    },
    {
      "inputs": [
        {
          "internalType": "uint256",
          "name": "profileId",
          "type": "uint256"
        },
        {
          "internalType": "string",
          "name": "uri",
          "type": "string"
        },
        {
          "internalType": "address",
          "name": "mw",
          "type": "address"
        },
        {
          "internalType": "bytes",
          "name": "data",
          "type": "bytes"
        },
        {
          "components": [
            {
              "internalType": "uint8",
              "name": "v",
              "type": "uint8"
            },
            {
              "internalType": "bytes32",
              "name": "r",
              "type": "bytes32"
            },
            {
              "internalType": "bytes32",
              "name": "s",
              "type": "bytes32"
            },
            {
              "internalType": "uint256",
              "name": "deadline",
              "type": "uint256"
            }
          ],
          "internalType": "struct DataTypes.EIP712Signature",
          "name": "sig",
          "type": "tuple"
        }
      ],
      "name": "setSubscribeDataWithSig",
      "outputs": [],
      "stateMutability": "nonpayable",
      "type": "function"
    },
    {
      "inputs": [
        {
          "components": [
            {
              "internalType": "address",
              "name": "subscriber",
              "type": "address"
            },
            {
              "internalType": "uint256[]",
              "name": "profileIds",
              "type": "uint256[]"
            }
          ],
          "internalType": "struct DataTypes.SubscribeParams",
          "name": "params",
          "type": "tuple"
        },
        {
          "internalType": "bytes[]",
          "name": "preDatas",
          "type": "bytes[]"
        },
        {
          "internalType": "bytes[]",
          "name": "postDatas",
          "type": "bytes[]"
        }
      ],
      "name": "subscribe",
      "outputs": [
        {
          "internalType": "uint256[]",
          "name": "",
          "type": "uint256[]"
        }
      ],
      "stateMutability": "nonpayable",
      "type": "function"
    },
    {
      "inputs": [
        {
          "components": [
            {
              "internalType": "address",
              "name": "subscriber",
              "type": "address"
            },
            {
              "internalType": "uint256[]",
              "name": "profileIds",
              "type": "uint256[]"
            }
          ],
          "internalType": "struct DataTypes.SubscribeParams",
          "name": "params",
          "type": "tuple"
        },
        {
          "internalType": "bytes[]",
          "name": "preDatas",
          "type": "bytes[]"
        },
        {
          "internalType": "bytes[]",
          "name": "postDatas",
          "type": "bytes[]"
        },
        {
          "internalType": "address",
          "name": "sender",
          "type": "address"
        },
        {
          "components": [
            {
              "internalType": "uint8",
              "name": "v",
              "type": "uint8"
            },
            {
              "internalType": "bytes32",
              "name": "r",
              "type": "bytes32"
            },
            {
              "internalType": "bytes32",
              "name": "s",
              "type": "bytes32"
            },
            {
              "internalType": "uint256",
              "name": "deadline",
              "type": "uint256"
            }
          ],
          "internalType": "struct DataTypes.EIP712Signature",
          "name": "sig",
          "type": "tuple"
        }
      ],
      "name": "subscribeWithSig",
      "outputs": [
        {
          "internalType": "uint256[]",
          "name": "",
          "type": "uint256[]"
        }
      ],
      "stateMutability": "nonpayable",
      "type": "function"
    },
    {
      "inputs": [
        {
          "internalType": "bytes4",
          "name": "interfaceId",
          "type": "bytes4"
        }
      ],
      "name": "supportsInterface",
      "outputs": [
        {
          "internalType": "bool",
          "name": "",
          "type": "bool"
        }
      ],
      "stateMutability": "view",
      "type": "function"
    },
    {
      "inputs": [],
      "name": "symbol",
      "outputs": [
        {
          "internalType": "string",
          "name": "",
          "type": "string"
        }
      ],
      "stateMutability": "view",
      "type": "function"
    },
    {
      "inputs": [
        {
          "internalType": "uint256",
          "name": "tokenId",
          "type": "uint256"
        }
      ],
      "name": "tokenURI",
      "outputs": [
        {
          "internalType": "string",
          "name": "",
          "type": "string"
        }
      ],
      "stateMutability": "view",
      "type": "function"
    },
    {
      "inputs": [],
      "name": "totalBurned",
      "outputs": [
        {
          "internalType": "uint256",
          "name": "",
          "type": "uint256"
        }
      ],
      "stateMutability": "view",
      "type": "function"
    },
    {
      "inputs": [],
      "name": "totalMinted",
      "outputs": [
        {
          "internalType": "uint256",
          "name": "",
          "type": "uint256"
        }
      ],
      "stateMutability": "view",
      "type": "function"
    },
    {
      "inputs": [],
      "name": "totalSupply",
      "outputs": [
        {
          "internalType": "uint256",
          "name": "",
          "type": "uint256"
        }
      ],
      "stateMutability": "view",
      "type": "function"
    },
    {
      "inputs": [
        {
          "internalType": "address",
          "name": "from",
          "type": "address"
        },
        {
          "internalType": "address",
          "name": "to",
          "type": "address"
        },
        {
          "internalType": "uint256",
          "name": "id",
          "type": "uint256"
        }
      ],
      "name": "transferFrom",
      "outputs": [],
      "stateMutability": "nonpayable",
      "type": "function"
    },
    {
      "inputs": [
        {
          "internalType": "address",
          "name": "newImplementation",
          "type": "address"
        }
      ],
      "name": "upgradeTo",
      "outputs": [],
      "stateMutability": "nonpayable",
      "type": "function"
    },
    {
      "inputs": [
        {
          "internalType": "address",
          "name": "newImplementation",
          "type": "address"
        },
        {
          "internalType": "bytes",
          "name": "data",
          "type": "bytes"
        }
      ],
      "name": "upgradeToAndCall",
      "outputs": [],
      "stateMutability": "payable",
      "type": "function"
    },
    {
      "inputs": [],
      "name": "version",
      "outputs": [
        {
          "internalType": "uint256",
          "name": "",
          "type": "uint256"
        }
      ],
      "stateMutability": "pure",
      "type": "function"
    }
  ],
  "bytecode": {
    "object": "0x610100604052306080523480156200001657600080fd5b5062000021620001bb565b6000806000336001600160a01b03166338d9abf06040518163ffffffff1660e01b8152600401606060405180830381865afa15801562000065573d6000803e3d6000fd5b505050506040513d601f19601f820116820180604052508101906200008b91906200029d565b919450925090506001600160a01b038316620000df5760405162461bcd60e51b815260206004820152600e60248201526d115391d2539157d393d517d4d15560921b60448201526064015b60405180910390fd5b6001600160a01b038216620001375760405162461bcd60e51b815260206004820152601860248201527f5355425343524942455f424541434f4e5f4e4f545f53455400000000000000006044820152606401620000d6565b6001600160a01b0381166200018f5760405162461bcd60e51b815260206004820152601660248201527f455353454e43455f424541434f4e5f4e4f545f534554000000000000000000006044820152606401620000d6565b6001600160a01b0380841660e05282811660a052811660c052620001b2620001bb565b505050620002e7565b60005462010000900460ff1615620002265760405162461bcd60e51b815260206004820152602760248201527f496e697469616c697a61626c653a20636f6e747261637420697320696e697469604482015266616c697a696e6760c81b6064820152608401620000d6565b60005460ff610100909104811610156200027e576000805461ff00191661ff0017905560405160ff81527f7f26b83ff96e1f2b6a682f133852f6798a09c465da95921460cefb38474024989060200160405180910390a15b565b80516001600160a01b03811681146200029857600080fd5b919050565b600080600060608486031215620002b357600080fd5b620002be8462000280565b9250620002ce6020850162000280565b9150620002de6040850162000280565b90509250925092565b60805160a05160c05160e051615a4f62000383600039600081816106dc015281816129ee01528181612aa801528181612d980152818161307d01528181613408015281816136f90152613956015260008181610555015281816133e001526139290152600081816107ac01526136ca01526000818161127a015281816112ba015281816114f10152818161153101526115c40152615a4f6000f3fe6080604052600436106103c35760003560e01c80635ea97079116101f2578063a574cea41161010d578063d89135cd116100a0578063f0ab96001161006f578063f0ab960014610bb0578063f4954aef14610bd0578063f7727c9f14610bf0578063faf214b314610c1057600080fd5b8063d89135cd14610b0a578063dfa52f0714610b1f578063e5fee47914610b55578063e985e9c514610b7557600080fd5b8063b88d4fde116100dc578063b88d4fde14610a8a578063be10bc6114610aaa578063c87b56dd14610aca578063d0e56c3814610aea57600080fd5b8063a574cea414610a0a578063a92dc7e814610a2a578063a95c1cbf14610a4a578063afa83e6814610a6a57600080fd5b80637ecebe0011610185578063906571471161015457806390657147146109a057806395d89b41146109c0578063a22cb465146109d5578063a2309ff8146109f557600080fd5b80637ecebe00146109135780637ef67f991461094057806387beeb2b146109605780638d54db1b1461098057600080fd5b806370a08231116101c157806370a082311461089357806371fd0a98146108b35780637c08d9fd146108d35780637cad6cd1146108f357600080fd5b80635ea97079146108065780636352211e146108265780636463788d14610846578063687c99691461086657600080fd5b8063303c14f8116102e257806352d1902d11610275578063593aa28311610244578063593aa2831461077a5780635b996c0f1461079a5780635c975abb146107ce5780635e316de4146107e657600080fd5b806352d1902d14610711578063540366441461072657806354fd4d501461074657806356bfd88c1461075a57600080fd5b806342966c68116102b157806342966c681461068c57806342cfa815146106ac5780634785e8d4146106ca5780634f1ef286146106fe57600080fd5b8063303c14f8146106175780633644e515146106375780633659cfe61461064c57806342842e0e1461066c57600080fd5b806317c4d5d21161035a57806320fa728a1161032957806320fa728a146105975780632229f28d146105b75780632307c987146105d757806323b872dd146105f757600080fd5b806317c4d5d21461051057806318160ddd1461052e5780631ec7d10614610543578063206f8e861461057757600080fd5b8063095ea7b311610396578063095ea7b31461048f5780630eee16f4146104af5780631328ec9b146104cf578063166fad6f146104ef57600080fd5b806301ffc9a7146103c857806302329a29146103fd57806306fdde031461041f578063081812fc14610441575b600080fd5b3480156103d457600080fd5b506103e86103e336600461420a565b610c30565b60405190151581526020015b60405180910390f35b34801561040957600080fd5b5061041d610418366004614237565b610c82565b005b34801561042b57600080fd5b50610434610cce565b6040516103f491906142aa565b34801561044d57600080fd5b5061047761045c3660046142bd565b6006602052600090815260409020546001600160a01b031681565b6040516001600160a01b0390911681526020016103f4565b34801561049b57600080fd5b5061041d6104aa3660046142eb565b610d5c565b3480156104bb57600080fd5b5061041d6104ca36600461435f565b610e1d565b3480156104db57600080fd5b506104346104ea3660046142bd565b610e77565b6105026104fd3660046143f6565b610f23565b6040519081526020016103f4565b34801561051c57600080fd5b50600b546001600160a01b0316610477565b34801561053a57600080fd5b50610502610f67565b34801561054f57600080fd5b506104777f000000000000000000000000000000000000000000000000000000000000000081565b34801561058357600080fd5b50610434610592366004614492565b610f7e565b3480156105a357600080fd5b506105026105b23660046144b4565b611040565b3480156105c357600080fd5b5061041d6105d236600461450d565b611075565b3480156105e357600080fd5b506104346105f23660046142bd565b61117b565b34801561060357600080fd5b5061041d6106123660046145ad565b61119f565b34801561062357600080fd5b506104346106323660046142bd565b6111b7565b34801561064357600080fd5b506105026111db565b34801561065857600080fd5b5061041d6106673660046145ee565b611270565b34801561067857600080fd5b5061041d6106873660046145ad565b61134c565b34801561069857600080fd5b5061041d6106a73660046142bd565b611419565b3480156106b857600080fd5b50600c546001600160a01b0316610477565b3480156106d657600080fd5b506104777f000000000000000000000000000000000000000000000000000000000000000081565b61041d61070c3660046146ce565b6114e7565b34801561071d57600080fd5b506105026115b7565b34801561073257600080fd5b5061050261074136600461472f565b61166a565b34801561075257600080fd5b506002610502565b34801561076657600080fd5b506104776107753660046142bd565b6117a3565b34801561078657600080fd5b5061041d6107953660046147c6565b6117cd565b3480156107a657600080fd5b506104777f000000000000000000000000000000000000000000000000000000000000000081565b3480156107da57600080fd5b5060005460ff166103e8565b3480156107f257600080fd5b50610477610801366004614492565b61181f565b34801561081257600080fd5b5061041d610821366004614811565b61185e565b34801561083257600080fd5b506104776108413660046142bd565b61195a565b34801561085257600080fd5b5061041d6108613660046148ba565b611994565b34801561087257600080fd5b5061088661088136600461496e565b611a51565b6040516103f491906149f1565b34801561089f57600080fd5b506105026108ae3660046145ee565b611ae6565b3480156108bf57600080fd5b506105026108ce366004614a47565b611b2a565b3480156108df57600080fd5b5061041d6108ee3660046142bd565b611b82565b3480156108ff57600080fd5b5061041d61090e3660046145ee565b611bcd565b34801561091f57600080fd5b5061050261092e3660046145ee565b600a6020526000908152604090205481565b34801561094c57600080fd5b5061041d61095b366004614aa2565b611c67565b34801561096c57600080fd5b5061041d61097b3660046147c6565b611dbe565b34801561098c57600080fd5b5061041d61099b366004614ae1565b611e0a565b3480156109ac57600080fd5b5061041d6109bb366004614b6e565b611e62565b3480156109cc57600080fd5b50610434612024565b3480156109e157600080fd5b5061041d6109f0366004614bad565b612031565b348015610a0157600080fd5b50600854610502565b348015610a1657600080fd5b50610434610a253660046142bd565b61209d565b348015610a3657600080fd5b50610477610a45366004614492565b6120c1565b348015610a5657600080fd5b5061041d610a65366004614be2565b6120fd565b348015610a7657600080fd5b5061041d610a85366004614c06565b612194565b348015610a9657600080fd5b5061041d610aa5366004614c3b565b6121f5565b348015610ab657600080fd5b50610502610ac5366004614c9c565b6122b0565b348015610ad657600080fd5b50610434610ae53660046142bd565b6122e6565b348015610af657600080fd5b5061041d610b053660046148ba565b61238a565b348015610b1657600080fd5b50600954610502565b348015610b2b57600080fd5b50610502610b3a3660046145ee565b6001600160a01b031660009081526011602052604090205490565b348015610b6157600080fd5b50610502610b70366004614cff565b6123da565b348015610b8157600080fd5b506103e8610b90366004614d5b565b600760209081526000928352604080842090915290825290205460ff1681565b348015610bbc57600080fd5b506103e8610bcb366004614d94565b612563565b348015610bdc57600080fd5b50610477610beb3660046142bd565b61259a565b348015610bfc57600080fd5b5061041d610c0b3660046145ee565b6125c4565b348015610c1c57600080fd5b50610886610c2b366004614db9565b612660565b60006301ffc9a760e01b6001600160e01b031983161480610c6157506380ac58cd60e01b6001600160e01b03198316145b80610c7c5750635b5e139f60e01b6001600160e01b03198316145b92915050565b600c546001600160a01b03163314610cb55760405162461bcd60e51b8152600401610cac90614e63565b60405180910390fd5b8015610cc657610cc3612924565b50565b610cc361296f565b60028054610cdb90614e91565b80601f0160208091040260200160405190810160405280929190818152602001828054610d0790614e91565b8015610d545780601f10610d2957610100808354040283529160200191610d54565b820191906000526020600020905b815481529060010190602001808311610d3757829003601f168201915b505050505081565b6000818152600460205260409020546001600160a01b031633811480610da557506001600160a01b038116600090815260076020908152604080832033845290915290205460ff165b610dc15760405162461bcd60e51b8152600401610cac90614ec5565b60008281526006602052604080822080546001600160a01b0319166001600160a01b0387811691821790925591518593918516917f8c5be1e5ebec7d5bd14f71427d1e84f3dd0314c0f7b2291e5b200ac8c7c3b92591a4505050565b8633610e288261195a565b6001600160a01b03161480610e425750610e428133612563565b610e5e5760405162461bcd60e51b8152600401610cac90614eed565b610e6d888888888888886129b1565b5050505050505050565b6060610e8282612a52565b6000828152600d602052604090206001018054610e9e90614e91565b80601f0160208091040260200160405190810160405280929190818152602001828054610eca90614e91565b8015610f175780601f10610eec57610100808354040283529160200191610f17565b820191906000526020600020905b815481529060010190602001808311610efa57829003601f168201915b50505050509050919050565b6000600260015403610f475760405162461bcd60e51b8152600401610cac90614f24565b6002600155610f598686868686612a86565b600180559695505050505050565b6000600954600854610f799190614f71565b905090565b6060610f8983612a52565b610f938383612c7f565b600083815260136020908152604080832085845290915290206004018054610fba90614e91565b80601f0160208091040260200160405190810160405280929190818152602001828054610fe690614e91565b80156110335780601f1061100857610100808354040283529160200191611033565b820191906000526020600020905b81548152906001019060200180831161101657829003601f168201915b5050505050905092915050565b6000600e60008484604051611056929190614f88565b6040518091039020815260200190815260200160002054905092915050565b60006110808861195a565b905061116d6111667fd9c5314d5ae03cef9734d1bd4ec7fa978f184dad9f305118b925985e3245e7ec8a8a8a6040516110ba929190614f88565b60405180910390208989896040516110d3929190614f88565b60408051918290039091206001600160a01b0389166000908152600a6020529182208054919261110283614f98565b909155506040805160208101979097528601949094526060858101939093526001600160a01b03909116608085015260a084015260c083019190915285013560e0820152610100015b60405160208183030381529060405280519060200120612cf0565b8284612d37565b610e6d888888888888612d5d565b606061118682612a52565b6000828152600d602052604090208054610e9e90614e91565b6111a7612dfb565b6111b2838383612e43565b505050565b60606111c282612a52565b60008281526012602052604090208054610e9e90614e91565b60007f8b73c3c69bb8fe3d512ecc4cf759cc79239f7b179b0ffacaa9a75d522b39400f611206612fe9565b80516020918201206040805192830193909352918101919091527fc89efdaa54c0f20c7adf612882df0950f5a951637e0307cdcb4c672f298b8bc660608201524660808201523060a082015260c00160405160208183030381529060405280519060200120905090565b6001600160a01b037f00000000000000000000000000000000000000000000000000000000000000001630036112b85760405162461bcd60e51b8152600401610cac90614fb1565b7f00000000000000000000000000000000000000000000000000000000000000006001600160a01b03166113016000805160206159d3833981519152546001600160a01b031690565b6001600160a01b0316146113275760405162461bcd60e51b8152600401610cac90614ffd565b6113308161307b565b60408051600080825260208201909252610cc3918391906130e1565b61135783838361119f565b6001600160a01b0382163b156111b257604051630a85bd0160e11b8082523360048301526001600160a01b03858116602484015260448301849052608060648401526000608484015290919084169063150b7a029060a4016020604051808303816000875af11580156113ce573d6000803e3d6000fd5b505050506040513d601f19601f820116820180604052508101906113f29190615049565b6001600160e01b031916146111b25760405162461bcd60e51b8152600401610cac90615066565b60006114248261195a565b9050336001600160a01b038216148061145357506000828152600660205260409020546001600160a01b031633145b8061148157506001600160a01b038116600090815260076020908152604080832033845290915290205460ff165b6114c55760405162461bcd60e51b81526020600482015260156024820152741393d517d3d5d3915497d3d497d054141493d59151605a1b6044820152606401610cac565b6114ce8261324c565b600980549060006114de83614f98565b91905055505050565b6001600160a01b037f000000000000000000000000000000000000000000000000000000000000000016300361152f5760405162461bcd60e51b8152600401610cac90614fb1565b7f00000000000000000000000000000000000000000000000000000000000000006001600160a01b03166115786000805160206159d3833981519152546001600160a01b031690565b6001600160a01b03161461159e5760405162461bcd60e51b8152600401610cac90614ffd565b6115a78261307b565b6115b3828260016130e1565b5050565b6000306001600160a01b037f000000000000000000000000000000000000000000000000000000000000000016146116575760405162461bcd60e51b815260206004820152603860248201527f555550535570677261646561626c653a206d757374206e6f742062652063616c60448201527f6c6564207468726f7567682064656c656761746563616c6c00000000000000006064820152608401610cac565b506000805160206159d383398151915290565b600060026001540361168e5760405162461bcd60e51b8152600401610cac90614f24565b600260015561178661177f7fea88260b574f37c6025ea865bb35216bba291fd9a213b7bf2f3c8e1d30fec8756116c760208c018c6145ee565b8b602001358c604001358c8c6040516116e1929190614f88565b60405180910390208b8b6040516116f9929190614f88565b60408051918290039091206001600160a01b038c166000908152600a6020529182208054919261172883614f98565b909155506040805160208101989098526001600160a01b0390961695870195909552606086810194909452608086019290925260a085015260c084015260e08301919091528501356101008201526101200161114b565b8484612d37565b61179388888888886132fc565b6001805598975050505050505050565b60006117ae82612a52565b506000908152601260205260409020600201546001600160a01b031690565b82336117d88261195a565b6001600160a01b031614806117f257506117f28133612563565b61180e5760405162461bcd60e51b8152600401610cac90614eed565b611819848484613491565b50505050565b600061182a83612a52565b6118348383612c7f565b5060009182526013602090815260408084209284529190529020600101546001600160a01b031690565b60006118698961195a565b90506119406111667f6cee9c173378bdfff054b620059824df11fbdf5d9da6253e0a943257af40f6ff8b8b8b8b6040516118a4929190614f88565b60405180910390208a8a8a6040516118bd929190614f88565b60408051918290039091206001600160a01b038a166000908152600a602052918220805491926118ec83614f98565b9091555060408051602081019890985287019590955260608681019490945260808601929092526001600160a01b031660a085015260c084015260e08301919091528501356101008201526101200161114b565b61194f898989898989896129b1565b505050505050505050565b6000818152600460205260409020546001600160a01b03168061198f5760405162461bcd60e51b8152600401610cac90615090565b919050565b600061199f8561195a565b9050611a3f6111667fbcdc7cebbf58702281923c134b9aa704fa25fb66324f5fb18f295a307c8fa1858787876040516119d9929190614f88565b60408051918290039091206001600160a01b0387166000908152600a60205291822080549192611a0883614f98565b90915550604080516020810195909552840192909252606083810191909152608083019190915285013560a082015260c00161114b565b611a4a85858561353c565b5050505050565b6060600260015403611a755760405162461bcd60e51b8152600401610cac90614f24565b6002600155611a8760208701876145ee565b6001600160a01b0316336001600160a01b03161480611ab05750600c546001600160a01b031633145b611acc5760405162461bcd60e51b8152600401610cac90614ec5565b610f59611adc60208801886145ee565b87878787876135d5565b60006001600160a01b038216611b0e5760405162461bcd60e51b8152600401610cac906150b4565b506001600160a01b031660009081526005602052604090205490565b6000833533611b388261195a565b6001600160a01b03161480611b525750611b528133612563565b611b6e5760405162461bcd60e51b8152600401610cac90614eed565b611b79858585613796565b95945050505050565b8033611b8d8261195a565b6001600160a01b03161480611ba75750611ba78133612563565b611bc35760405162461bcd60e51b8152600401610cac90614eed565b6115b333836139e3565b600c546001600160a01b03163314611bf75760405162461bcd60e51b8152600401610cac90614e63565b6001600160a01b038116611c1d5760405162461bcd60e51b8152600401610cac906150b4565b600b80546001600160a01b0319166001600160a01b0383169081179091556040517fb72b36bb50852d5d293221b9d1357433e4df37b01e636d3587c2bab7e8531ead90600090a250565b6000611c728361195a565b9050836001600160a01b0316816001600160a01b031603611ccb5760405162461bcd60e51b815260206004820152601360248201527221a0a72727aa2fa822a926a4aa2fa7aba722a960691b6044820152606401610cac565b6001600160a01b0381166000908152600a602052604081208054611d6192611166927fc38e80151e418ea1c74df5b4bdd7b03e4feb2ce9d4f9c0e86a6940bf0a3bfef2928992899290611d1d83614f98565b91905055876060013560405160200161114b9594939291909485526001600160a01b0393909316602085015260408401919091526060830152608082015260a00190565b60008381526006602052604080822080546001600160a01b0319166001600160a01b0388811691821790925591518693918516917f8c5be1e5ebec7d5bd14f71427d1e84f3dd0314c0f7b2291e5b200ac8c7c3b92591a450505050565b8233611dc98261195a565b6001600160a01b03161480611de35750611de38133612563565b611dff5760405162461bcd60e51b8152600401610cac90614eed565b61181984848461353c565b8533611e158261195a565b6001600160a01b03161480611e2f5750611e2f8133612563565b611e4b5760405162461bcd60e51b8152600401610cac90614eed565b611e59878787878787612d5d565b50505050505050565b60005462010000900460ff1615808015611e875750600054600161010090910460ff16105b80611ea75750303b158015611ea7575060005460ff610100909104166001145b611f0a5760405162461bcd60e51b815260206004820152602e60248201527f496e697469616c697a61626c653a20636f6e747261637420697320616c72656160448201526d191e481a5b9a5d1a585b1a5e995960921b6064820152608401610cac565b6000805461ff0019166101001790558015611f31576000805462ff00001916620100001790555b6001600160a01b038616611f575760405162461bcd60e51b8152600401610cac906150b4565b600c80546001600160a01b0319166001600160a01b038816179055611f7e85858585613a61565b611f86613a95565b611f8e612924565b856001600160a01b03167f5b98d40fc5d761472c5e9e4eeda87b2e7d3d58f72ed64216d9350fe5bc1b5bf186868686604051611fcd9493929190615103565b60405180910390a2801561201c576000805462ff000019169055604051600181527f7f26b83ff96e1f2b6a682f133852f6798a09c465da95921460cefb38474024989060200160405180910390a15b505050505050565b60038054610cdb90614e91565b3360008181526007602090815260408083206001600160a01b03871680855290835292819020805460ff191686151590811790915590519081529192917f17307eab39ab6107e8899845ad3d59bd9653f200f220920489ca2b5937696c31910160405180910390a35050565b60606120a882612a52565b6000828152600f602052604090208054610e9e90614e91565b60006120cc83612a52565b6120d68383612c7f565b5060009182526013602090815260408084209284529190529020546001600160a01b031690565b60006121088361195a565b6001600160a01b0381166000908152600a60205260408120805492935061218a92611166927f7fa29aed4ed05e5d8d823eb1c3cb8ff12004df1540dc0114eb055841617107179288929161215b83614f98565b90915550604080516020810194909452830191909152606082810191909152850135608082015260a00161114b565b6111b281846139e3565b823361219f8261195a565b6001600160a01b0316146121ea5760405162461bcd60e51b815260206004820152601260248201527127a7262cafa82927a324a622afa7aba722a960711b6044820152606401610cac565b611819848484613ac3565b61220085858561119f565b6001600160a01b0384163b15611a4a57604051630a85bd0160e11b808252906001600160a01b0386169063150b7a02906122469033908a9089908990899060040161512a565b6020604051808303816000875af1158015612265573d6000803e3d6000fd5b505050506040513d601f19601f820116820180604052508101906122899190615049565b6001600160e01b03191614611a4a5760405162461bcd60e51b8152600401610cac90615066565b60006002600154036122d45760405162461bcd60e51b8152600401610cac90614f24565b6002600155610f5986868686866132fc565b60606122f182612a52565b600b54604051637942241360e01b8152600481018490526001600160a01b039091166024820152600d60448201526012606482015273__$f9c35fecb23ee52535b8a8455b4e263abe$__90637942241390608401600060405180830381865af4158015612362573d6000803e3d6000fd5b505050506040513d6000823e601f3d908101601f19168201604052610c7c919081019061515e565b60006123958561195a565b90506123cf6111667f23359961f741a908f9a68b097206ad2f1eb5776fbe35c38d13550918bbb704de8787876040516119d9929190614f88565b611a4a858585613491565b6000806123e7863561195a565b905061254e6125477f7ad27f6e3430dfb3f2dea188e15fba38667221fd3c83e8cf61c61f0d3fbf532c883561241f60208b018b6151cb565b60405161242d929190614f88565b60405180910390208a806040019061244591906151cb565b604051612453929190614f88565b60405190819003902061246960608d018d6151cb565b604051612477929190614f88565b60405190819003902061249060a08e0160808f016145ee565b8d60a00160208101906124a39190614237565b8d8d6040516124b3929190614f88565b60408051918290039091206001600160a01b038c166000908152600a602052918220805491926124e283614f98565b9091555060408051602081019a909a52890197909752606088810196909652608088019490945260a08701929092526001600160a01b031660c0860152151560e08501526101008401526101208301919091528601356101408201526101600161114b565b8285612d37565b612559868686613796565b9695505050505050565b600061256e83612a52565b5060009182526010602090815260408084206001600160a01b0393909316845291905290205460ff1690565b60006125a582612a52565b506000908152601260205260409020600101546001600160a01b031690565b600c546001600160a01b031633146125ee5760405162461bcd60e51b8152600401610cac90614e63565b6001600160a01b0381166126145760405162461bcd60e51b8152600401610cac906150b4565b600c80546001600160a01b0319166001600160a01b03831690811790915560405133907f46e05b7612d0b60892e73d72895fb0752deda3fa69984aca10c3cc72889ef7df90600090a350565b60606002600154036126845760405162461bcd60e51b8152600401610cac90614f24565b6002600155856000816001600160401b038111156126a4576126a461460b565b6040519080825280602002602001820160405280156126cd578160200160208202803683370190505b50905060005b8281101561273a578989828181106126ed576126ed615211565b90506020028101906126ff91906151cb565b60405161270d929190614f88565b604051809103902082828151811061272757612727615211565b60209081029190910101526001016126d3565b50856000816001600160401b038111156127565761275661460b565b60405190808252806020026020018201604052801561277f578160200160208202803683370190505b50905060005b828110156127ec5789898281811061279f5761279f615211565b90506020028101906127b191906151cb565b6040516127bf929190614f88565b60405180910390208282815181106127d9576127d9615211565b6020908102919091010152600101612785565b506129026128fb7f51d9200d31ba31f13fce5204a661ccc3547aff67a045575b07ac73c55494c62c8e80602001906128249190615227565b604051602001612835929190615270565b604051602081830303815290604052805190602001208660405160200161285c919061529c565b6040516020818303038152906040528051906020012085604051602001612883919061529c565b60408051601f1981840301815291815281516020928301206001600160a01b038f166000908152600a909352908220805491926128bf83614f98565b90915550604080516020810196909652850193909352606084810192909252608084015260a083019190915289013560c082015260e00161114b565b8888612d37565b612910878d8d8d8d8d6135d5565b600180559c9b505050505050505050505050565b61292c612dfb565b6000805460ff191660011790556040513381527f62e78cea01bee320cd4e420270b5ea74000d11b0c9f74754ebdbfc544b05a258906020015b60405180910390a1565b612977613b40565b6000805460ff191690556040513381527f5db9ee0a495bf2e6ff9c91a7834c1ba4fdd244a5e8aa4e537bd38aeae4b073aa90602001612965565b60405163c0a180bf60e01b815273__$f9c35fecb23ee52535b8a8455b4e263abe$__9063c0a180bf90612a19908a908a908a908a908a908a908a907f0000000000000000000000000000000000000000000000000000000000000000906013906004016152d2565b60006040518083038186803b158015612a3157600080fd5b505af4158015612a45573d6000803e3d6000fd5b5050505050505050505050565b6000818152600460205260409020546001600160a01b0316610cc35760405162461bcd60e51b8152600401610cac90615090565b60008073__$f9c35fecb23ee52535b8a8455b4e263abe$__637cfe10538888887f00000000000000000000000000000000000000000000000000000000000000006040518563ffffffff1660e01b8152600401612ae6949392919061541b565b602060405180830381865af4158015612b03573d6000803e3d6000fd5b505050506040513d601f19601f82011682018060405250810190612b27919061545b565b90506000612b3860208901896151cb565b604051612b46929190614f88565b60405180910390209050612b84600e6000838152602001908152602001600020546000908152600460205260409020546001600160a01b0316151590565b15612bc05760405162461bcd60e51b815260206004820152600c60248201526b2420a7222622afaa20a5a2a760a11b6044820152606401610cac565b612bd5612bd060208a018a6145ee565b613b89565b60408051606081018252828152602081018490526001600160a01b03851681830152905163e054604160e01b815291945073__$f9c35fecb23ee52535b8a8455b4e263abe$__9163e054604191612c44918c918a918a9190600d90600f90600e90601190601090600401615478565b60006040518083038186803b158015612c5c57600080fd5b505af4158015612c70573d6000803e3d6000fd5b50505050505095945050505050565b600082815260136020908152604080832084845290915290206002018054612ca690614e91565b90506000036115b35760405162461bcd60e51b81526020600482015260166024820152751154d4d15390d157d113d154d7d393d517d1561254d560521b6044820152606401610cac565b6000612cfa6111db565b60405161190160f01b6020820152602281019190915260428101839052606201604051602081830303815290604052805190602001209050919050565b6111b28383612d4960208501856154f6565b846020013585604001358660600135613bb0565b604051630910bd4b60e01b815273__$f9c35fecb23ee52535b8a8455b4e263abe$__90630910bd4b90612dc3908990899089908990899089907f000000000000000000000000000000000000000000000000000000000000000090601290600401615519565b60006040518083038186803b158015612ddb57600080fd5b505af4158015612def573d6000803e3d6000fd5b50505050505050505050565b60005460ff1615612e415760405162461bcd60e51b815260206004820152601060248201526f14185d5cd8589b194e881c185d5cd95960821b6044820152606401610cac565b565b6000818152600460205260409020546001600160a01b03848116911614612e995760405162461bcd60e51b815260206004820152600a60248201526957524f4e475f46524f4d60b01b6044820152606401610cac565b6001600160a01b038216612ee35760405162461bcd60e51b81526020600482015260116024820152701253959053125117d49150d25412515395607a1b6044820152606401610cac565b336001600160a01b0384161480612f1d57506001600160a01b038316600090815260076020908152604080832033845290915290205460ff165b80612f3e57506000818152600660205260409020546001600160a01b031633145b612f5a5760405162461bcd60e51b8152600401610cac90614ec5565b6001600160a01b0380841660008181526005602090815260408083208054600019019055938616808352848320805460010190558583526004825284832080546001600160a01b03199081168317909155600690925284832080549092169091559251849392917fddf252ad1be2c89b69c2b068fc378daa952ba7f163c4a11628f55a4df523b3ef91a4505050565b606060028054612ff890614e91565b80601f016020809104026020016040519081016040528092919081815260200182805461302490614e91565b80156130715780601f1061304657610100808354040283529160200191613071565b820191906000526020600020905b81548152906001019060200180831161305457829003601f168201915b5050505050905090565b7f00000000000000000000000000000000000000000000000000000000000000006001600160a01b03163314610cc35760405162461bcd60e51b815260206004820152600b60248201526a4f4e4c595f454e47494e4560a81b6044820152606401610cac565b7f4910fdfa16fed3260ed0e7147f7cc6da11a60208b5b9406d12a635614ffd91435460ff1615613114576111b283613d19565b826001600160a01b03166352d1902d6040518163ffffffff1660e01b8152600401602060405180830381865afa92505050801561316e575060408051601f3d908101601f1916820190925261316b9181019061556d565b60015b6131d15760405162461bcd60e51b815260206004820152602e60248201527f45524331393637557067726164653a206e657720696d706c656d656e7461746960448201526d6f6e206973206e6f74205555505360901b6064820152608401610cac565b6000805160206159d383398151915281146132405760405162461bcd60e51b815260206004820152602960248201527f45524331393637557067726164653a20756e737570706f727465642070726f786044820152681a58589b195555525160ba1b6064820152608401610cac565b506111b2838383613db5565b6000818152600460205260409020546001600160a01b0316806132815760405162461bcd60e51b8152600401610cac90615090565b6001600160a01b038116600081815260056020908152604080832080546000190190558583526004825280832080546001600160a01b031990811690915560069092528083208054909216909155518492907fddf252ad1be2c89b69c2b068fc378daa952ba7f163c4a11628f55a4df523b3ef908390a45050565b600061330b8660200135612a52565b6040805160e0810190915273__$f9c35fecb23ee52535b8a8455b4e263abe$__90634f634a95908061334060208b018b6145ee565b6001600160a01b03168152602001896020013581526020018960400135815260200188888080601f016020809104026020016040519081016040528093929190818152602001838380828437600092019190915250505090825250604080516020601f8901819004810282018101909252878152918101919088908890819084018382808284376000920191909152505050908252506001600160a01b037f0000000000000000000000000000000000000000000000000000000000000000811660208301527f000000000000000000000000000000000000000000000000000000000000000016604091820152516001600160e01b031960e084901b1681526134509190601390600401615586565b602060405180830381865af415801561346d573d6000803e3d6000fd5b505050506040513d601f19601f82011682018060405250810190612559919061556d565b6107d08111156134e35760405162461bcd60e51b815260206004820152601760248201527f4d455441444154415f494e56414c49445f4c454e4754480000000000000000006044820152606401610cac565b6000838152600f602052604090206134fc90838361415b565b50827fcf080687acfb4df18bbb9959fd7284daa7103f9d1c9164e70999fdedac2a3030838360405161352f92919061560c565b60405180910390a2505050565b6107d08111156135865760405162461bcd60e51b8152602060048201526015602482015274082ac82a882a4be929cac82989288be988a9c8ea89605b1b6044820152606401610cac565b6000838152600d602052604090206135a290600101838361415b565b50827f60f52aedb1db78381295534bb468e00f2962aea6c3bbb89eb141a27599ddac0e838360405161352f92919061560c565b606060005b6135e76020880188615227565b905081101561362e5761361c6136006020890189615227565b8381811061361057613610615211565b90506020020135612a52565b8061362681614f98565b9150506135da565b5073__$f9c35fecb23ee52535b8a8455b4e263abe$__636f4a81cb6040518060c001604052808a6001600160a01b031681526020018980602001906136739190615227565b808060200260200160405190810160405280939291908181526020018383602002808284376000920191909152505050908252506020016136b4888a615643565b81526020016136c38688615643565b81526020017f00000000000000000000000000000000000000000000000000000000000000006001600160a01b031681526020017f00000000000000000000000000000000000000000000000000000000000000006001600160a01b03168152506012600d6040518463ffffffff1660e01b81526004016137469392919061570e565b600060405180830381865af4158015613763573d6000803e3d6000fd5b505050506040513d6000823e601f3d908101601f1916820160405261378b91908101906157eb565b979650505050505050565b600073__$f9c35fecb23ee52535b8a8455b4e263abe$__6391567643604051806101200160405280876000013581526020018780602001906137d891906151cb565b8080601f01602080910402602001604051908101604052809392919081815260200183838082843760009201919091525050509082525060200161381f60408901896151cb565b8080601f01602080910402602001604051908101604052809392919081815260200183838082843760009201919091525050509082525060200161386660608901896151cb565b8080601f016020809104026020016040519081016040528093929190818152602001838380828437600092019190915250505090825250604080516020601f8901819004810282018101909252878152918101919088908890819084018382808284376000920191909152505050908252506020016138eb60a0890160808a016145ee565b6001600160a01b0316815260200161390960c0890160a08a01614237565b1515815260200161392060e0890160c08a01614237565b151581526020017f00000000000000000000000000000000000000000000000000000000000000006001600160a01b03168152507f0000000000000000000000000000000000000000000000000000000000000000600d60136040518563ffffffff1660e01b81526004016139989493929190615870565b602060405180830381865af41580156139b5573d6000803e3d6000fd5b505050506040513d601f19601f820116820180604052508101906139d9919061556d565b90505b9392505050565b6139ec81612a52565b60405163843c5f0560e01b81526001600160a01b0383166004820152602481018290526011604482015273__$f9c35fecb23ee52535b8a8455b4e263abe$__9063843c5f059060640160006040518083038186803b158015613a4d57600080fd5b505af415801561201c573d6000803e3d6000fd5b60005462010000900460ff16613a895760405162461bcd60e51b8152600401610cac9061596b565b61181984848484613dda565b60005462010000900460ff16613abd5760405162461bcd60e51b8152600401610cac9061596b565b60018055565b604051631cba54ed60e11b8152600481018490526001600160a01b038316602482015281151560448201526010606482015273__$f9c35fecb23ee52535b8a8455b4e263abe$__90633974a9da9060840160006040518083038186803b158015613b2c57600080fd5b505af4158015611e59573d6000803e3d6000fd5b60005460ff16612e415760405162461bcd60e51b815260206004820152601460248201527314185d5cd8589b194e881b9bdd081c185d5cd95960621b6044820152606401610cac565b6000613ba882600860008154613b9e90614f98565b9182905550613e1b565b505060085490565b42811015613bf45760405162461bcd60e51b8152602060048201526011602482015270111150511312539157d15610d151511151607a1b6044820152606401610cac565b7f7fffffffffffffffffffffffffffffff5d576e7357a4501ddfe92f46681b20a0821115613c645760405162461bcd60e51b815260206004820152601960248201527f494e56414c49445f5349474e41545552455f535f5641554c45000000000000006044820152606401610cac565b6040805160008082526020820180845289905260ff871692820192909252606081018590526080810184905260019060a0016020604051602081039080840390855afa158015613cb8573d6000803e3d6000fd5b505050602060405103519050856001600160a01b0316816001600160a01b031614611e595760405162461bcd60e51b8152602060048201526011602482015270494e56414c49445f5349474e415455524560781b6044820152606401610cac565b6001600160a01b0381163b613d865760405162461bcd60e51b815260206004820152602d60248201527f455243313936373a206e657720696d706c656d656e746174696f6e206973206e60448201526c1bdd08184818dbdb9d1c9858dd609a1b6064820152608401610cac565b6000805160206159d383398151915280546001600160a01b0319166001600160a01b0392909216919091179055565b613dbe83613ee4565b600082511180613dcb5750805b156111b2576118198383613f24565b60005462010000900460ff16613e025760405162461bcd60e51b8152600401610cac9061596b565b613e0e6002858561415b565b50611a4a6003838361415b565b613e258282613f49565b6001600160a01b0382163b156115b357604051630a85bd0160e11b80825233600483015260006024830181905260448301849052608060648401526084830152906001600160a01b0384169063150b7a029060a4016020604051808303816000875af1158015613e99573d6000803e3d6000fd5b505050506040513d601f19601f82011682018060405250810190613ebd9190615049565b6001600160e01b031916146115b35760405162461bcd60e51b8152600401610cac90615066565b613eed81613d19565b6040516001600160a01b038216907fbc7cd75a20ee27fd9adebab32041f755214dbc6bffa90cc0225b39da2e5c2d3b90600090a250565b60606139dc83836040518060600160405280602781526020016159f360279139614054565b6001600160a01b038216613f935760405162461bcd60e51b81526020600482015260116024820152701253959053125117d49150d25412515395607a1b6044820152606401610cac565b6000818152600460205260409020546001600160a01b031615613fe95760405162461bcd60e51b815260206004820152600e60248201526d1053149150511657d3525395115160921b6044820152606401610cac565b6001600160a01b038216600081815260056020908152604080832080546001019055848352600490915280822080546001600160a01b0319168417905551839291907fddf252ad1be2c89b69c2b068fc378daa952ba7f163c4a11628f55a4df523b3ef908290a45050565b60606001600160a01b0384163b6140bc5760405162461bcd60e51b815260206004820152602660248201527f416464726573733a2064656c65676174652063616c6c20746f206e6f6e2d636f6044820152651b9d1c9858dd60d21b6064820152608401610cac565b600080856001600160a01b0316856040516140d791906159b6565b600060405180830381855af49150503d8060008114614112576040519150601f19603f3d011682016040523d82523d6000602084013e614117565b606091505b5091509150612559828286606083156141315750816139dc565b8251156141415782518084602001fd5b8160405162461bcd60e51b8152600401610cac91906142aa565b82805461416790614e91565b90600052602060002090601f01602090048101928261418957600085556141cf565b82601f106141a25782800160ff198235161785556141cf565b828001600101855582156141cf579182015b828111156141cf5782358255916020019190600101906141b4565b506141db9291506141df565b5090565b5b808211156141db57600081556001016141e0565b6001600160e01b031981168114610cc357600080fd5b60006020828403121561421c57600080fd5b81356139dc816141f4565b8035801515811461198f57600080fd5b60006020828403121561424957600080fd5b6139dc82614227565b60005b8381101561426d578181015183820152602001614255565b838111156118195750506000910152565b60008151808452614296816020860160208601614252565b601f01601f19169290920160200192915050565b6020815260006139dc602083018461427e565b6000602082840312156142cf57600080fd5b5035919050565b6001600160a01b0381168114610cc357600080fd5b600080604083850312156142fe57600080fd5b8235614309816142d6565b946020939093013593505050565b60008083601f84011261432957600080fd5b5081356001600160401b0381111561434057600080fd5b60208301915083602082850101111561435857600080fd5b9250929050565b600080600080600080600060a0888a03121561437a57600080fd5b873596506020880135955060408801356001600160401b038082111561439f57600080fd5b6143ab8b838c01614317565b909750955060608a013591506143c0826142d6565b909350608089013590808211156143d657600080fd5b506143e38a828b01614317565b989b979a50959850939692959293505050565b60008060008060006060868803121561440e57600080fd5b85356001600160401b038082111561442557600080fd5b9087019060a0828a03121561443957600080fd5b9095506020870135908082111561444f57600080fd5b61445b89838a01614317565b9096509450604088013591508082111561447457600080fd5b5061448188828901614317565b969995985093965092949392505050565b600080604083850312156144a557600080fd5b50508035926020909101359150565b600080602083850312156144c757600080fd5b82356001600160401b038111156144dd57600080fd5b6144e985828601614317565b90969095509350505050565b60006080828403121561450757600080fd5b50919050565b6000806000806000806000610100888a03121561452957600080fd5b8735965060208801356001600160401b038082111561454757600080fd5b6145538b838c01614317565b909850965060408a01359150614568826142d6565b9094506060890135908082111561457e57600080fd5b5061458b8a828b01614317565b909450925061459f90508960808a016144f5565b905092959891949750929550565b6000806000606084860312156145c257600080fd5b83356145cd816142d6565b925060208401356145dd816142d6565b929592945050506040919091013590565b60006020828403121561460057600080fd5b81356139dc816142d6565b634e487b7160e01b600052604160045260246000fd5b604051601f8201601f191681016001600160401b03811182821017156146495761464961460b565b604052919050565b60006001600160401b0382111561466a5761466a61460b565b50601f01601f191660200190565b600082601f83011261468957600080fd5b813561469c61469782614651565b614621565b8181528460208386010111156146b157600080fd5b816020850160208301376000918101602001919091529392505050565b600080604083850312156146e157600080fd5b82356146ec816142d6565b915060208301356001600160401b0381111561470757600080fd5b61471385828601614678565b9150509250929050565b60006060828403121561450757600080fd5b6000806000806000806000610140888a03121561474b57600080fd5b614755898961471d565b965060608801356001600160401b038082111561477157600080fd5b61477d8b838c01614317565b909850965060808a013591508082111561479657600080fd5b506147a38a828b01614317565b90955093505060a08801356147b7816142d6565b915061459f8960c08a016144f5565b6000806000604084860312156147db57600080fd5b8335925060208401356001600160401b038111156147f857600080fd5b61480486828701614317565b9497909650939450505050565b600080600080600080600080610120898b03121561482e57600080fd5b883597506020890135965060408901356001600160401b038082111561485357600080fd5b61485f8c838d01614317565b909850965060608b01359150614874826142d6565b90945060808a0135908082111561488a57600080fd5b506148978b828c01614317565b90945092506148ab90508a60a08b016144f5565b90509295985092959890939650565b60008060008060c085870312156148d057600080fd5b8435935060208501356001600160401b038111156148ed57600080fd5b6148f987828801614317565b909450925061490d905086604087016144f5565b905092959194509250565b60006040828403121561450757600080fd5b60008083601f84011261493c57600080fd5b5081356001600160401b0381111561495357600080fd5b6020830191508360208260051b850101111561435857600080fd5b60008060008060006060868803121561498657600080fd5b85356001600160401b038082111561499d57600080fd5b6149a989838a01614918565b965060208801359150808211156149bf57600080fd5b6149cb89838a0161492a565b909650945060408801359150808211156149e457600080fd5b506144818882890161492a565b6020808252825182820181905260009190848201906040850190845b81811015614a2957835183529284019291840191600101614a0d565b50909695505050505050565b600060e0828403121561450757600080fd5b600080600060408486031215614a5c57600080fd5b83356001600160401b0380821115614a7357600080fd5b614a7f87838801614a35565b94506020860135915080821115614a9557600080fd5b5061480486828701614317565b600080600060c08486031215614ab757600080fd5b8335614ac2816142d6565b925060208401359150614ad885604086016144f5565b90509250925092565b60008060008060008060808789031215614afa57600080fd5b8635955060208701356001600160401b0380821115614b1857600080fd5b614b248a838b01614317565b909750955060408901359150614b39826142d6565b90935060608801359080821115614b4f57600080fd5b50614b5c89828a01614317565b979a9699509497509295939492505050565b600080600080600060608688031215614b8657600080fd5b8535614b91816142d6565b945060208601356001600160401b038082111561444f57600080fd5b60008060408385031215614bc057600080fd5b8235614bcb816142d6565b9150614bd960208401614227565b90509250929050565b60008060a08385031215614bf557600080fd5b82359150614bd984602085016144f5565b600080600060608486031215614c1b57600080fd5b833592506020840135614c2d816142d6565b9150614ad860408501614227565b600080600080600060808688031215614c5357600080fd5b8535614c5e816142d6565b94506020860135614c6e816142d6565b93506040860135925060608601356001600160401b03811115614c9057600080fd5b61448188828901614317565b600080600080600060a08688031215614cb457600080fd5b614cbe878761471d565b945060608601356001600160401b0380821115614cda57600080fd5b614ce689838a01614317565b9096509450608088013591508082111561447457600080fd5b60008060008060c08587031215614d1557600080fd5b84356001600160401b0380821115614d2c57600080fd5b614d3888838901614a35565b95506020870135915080821115614d4e57600080fd5b506148f987828801614317565b60008060408385031215614d6e57600080fd5b8235614d79816142d6565b91506020830135614d89816142d6565b809150509250929050565b60008060408385031215614da757600080fd5b823591506020830135614d89816142d6565b6000806000806000806000610100888a031215614dd557600080fd5b87356001600160401b0380821115614dec57600080fd5b614df88b838c01614918565b985060208a0135915080821115614e0e57600080fd5b614e1a8b838c0161492a565b909850965060408a0135915080821115614e3357600080fd5b50614e408a828b0161492a565b9095509350506060880135614e54816142d6565b915061459f8960808a016144f5565b60208082526014908201527327a7262cafa720a6a2a9a820a1a2afa7aba722a960611b604082015260600190565b600181811c90821680614ea557607f821691505b60208210810361450757634e487b7160e01b600052602260045260246000fd5b6020808252600e908201526d1393d517d055551213d49256915160921b604082015260600190565b6020808252601e908201527f4f4e4c595f50524f46494c455f4f574e45525f4f525f4f50455241544f520000604082015260600190565b6020808252601f908201527f5265656e7472616e637947756172643a207265656e7472616e742063616c6c00604082015260600190565b634e487b7160e01b600052601160045260246000fd5b600082821015614f8357614f83614f5b565b500390565b8183823760009101908152919050565b600060018201614faa57614faa614f5b565b5060010190565b6020808252602c908201527f46756e6374696f6e206d7573742062652063616c6c6564207468726f7567682060408201526b19195b1959d85d1958d85b1b60a21b606082015260800190565b6020808252602c908201527f46756e6374696f6e206d7573742062652063616c6c6564207468726f7567682060408201526b6163746976652070726f787960a01b606082015260800190565b60006020828403121561505b57600080fd5b81516139dc816141f4565b60208082526010908201526f155394d0519157d49150d2541251539560821b604082015260600190565b6020808252600a90820152691393d517d3525395115160b21b604082015260600190565b6020808252600c908201526b5a45524f5f4144445245535360a01b604082015260600190565b81835281816020850137506000828201602090810191909152601f909101601f19169091010190565b6040815260006151176040830186886150da565b828103602084015261378b8185876150da565b6001600160a01b038681168252851660208201526040810184905260806060820181905260009061378b90830184866150da565b60006020828403121561517057600080fd5b81516001600160401b0381111561518657600080fd5b8201601f8101841361519757600080fd5b80516151a561469782614651565b8181528560208385010111156151ba57600080fd5b611b79826020830160208601614252565b6000808335601e198436030181126151e257600080fd5b8301803591506001600160401b038211156151fc57600080fd5b60200191503681900382131561435857600080fd5b634e487b7160e01b600052603260045260246000fd5b6000808335601e1984360301811261523e57600080fd5b8301803591506001600160401b0382111561525857600080fd5b6020019150600581901b360382131561435857600080fd5b60006001600160fb1b0383111561528657600080fd5b8260051b80858437600092019182525092915050565b815160009082906020808601845b838110156152c6578151855293820193908201906001016152aa565b50929695505050505050565b89815288602082015260e0604082015260006152f260e08301898b6150da565b6001600160a01b038881166060850152838203608085015261531582888a6150da565b951660a0840152505060c00152979650505050505050565b6000808335601e1984360301811261534457600080fd5b83016020810192503590506001600160401b0381111561536357600080fd5b80360382131561435857600080fd5b6000813561537f816142d6565b6001600160a01b038181168552615399602085018561532d565b925060a060208701526153b060a0870184836150da565b9250506153c0604085018561532d565b86840360408801526153d38482846150da565b935050506153e4606085018561532d565b86840360608801526153f78482846150da565b935050506080840135615409816142d6565b16608094909401939093525090919050565b60608152600061542e6060830187615372565b82810360208401526154418186886150da565b91505060018060a01b038316604083015295945050505050565b60006020828403121561546d57600080fd5b81516139dc816142d6565b600061014080835261548c8184018d615372565b905082810360208401526154a1818b8d6150da565b895160408581019190915260208b01516060860152909901516001600160a01b03166080840152505060a081019590955260c085019390935260e0840191909152610100830152610120909101529392505050565b60006020828403121561550857600080fd5b813560ff811681146139dc57600080fd5b88815260c06020820152600061553360c08301898b6150da565b6001600160a01b038881166040850152838203606085015261555682888a6150da565b95166080840152505060a001529695505050505050565b60006020828403121561557f57600080fd5b5051919050565b60408152600060018060a01b038085511660408401526020850151606084015260408501516080840152606085015160e060a08501526155ca61012085018261427e565b90506080860151603f198583030160c08601526155e7828261427e565b60a0880151841660e087015260c0909701519092166101008501525050506020015290565b6020815260006139d96020830184866150da565b60006001600160401b038211156156395761563961460b565b5060051b60200190565b600061565161469784615620565b80848252602080830192508560051b85013681111561566f57600080fd5b855b818110156156aa5780356001600160401b038111156156905760008081fd5b61569c36828a01614678565b865250938201938201615671565b50919695505050505050565b600082825180855260208086019550808260051b84010181860160005b8481101561570157601f198684030189526156ef83835161427e565b988401989250908301906001016156d3565b5090979650505050505050565b606080825284516001600160a01b03169082015260208085015160c0608084015280516101208401819052600092918201919083906101408601905b8083101561576a578451825293830193600192909201919083019061574a565b5060408901519350605f199150818682030160a087015261578b81856156b6565b9350506060880151818685030160c08701526157a784826156b6565b9350505060808701516157c560e08601826001600160a01b03169052565b5060a096909601516001600160a01b031661010084015294820193909352604001525090565b600060208083850312156157fe57600080fd5b82516001600160401b0381111561581457600080fd5b8301601f8101851361582557600080fd5b805161583361469782615620565b81815260059190911b8201830190838101908783111561585257600080fd5b928401925b8284101561378b57835182529284019290840190615857565b6080815284516080820152600060208601516101208060a08501526158996101a085018361427e565b91506040880151607f19808685030160c08701526158b7848361427e565b935060608a01519150808685030160e08701526158d4848361427e565b935060808a015191506101008187860301818801526158f3858461427e565b945060a08b01519250615910848801846001600160a01b03169052565b60c08b0151151561014088015260e08b015115156101608801528a01516001600160a01b0381166101808801529250615947915050565b506001600160a01b0386166020840152905060408201939093526060015292915050565b6020808252602b908201527f496e697469616c697a61626c653a20636f6e7472616374206973206e6f74206960408201526a6e697469616c697a696e6760a81b606082015260800190565b600082516159c8818460208701614252565b919091019291505056fe360894a13ba1a3210667c828492db98dca3e2076cc3735a920a3ca505d382bbc416464726573733a206c6f772d6c6576656c2064656c65676174652063616c6c206661696c6564a2646970667358221220437fc1beddb28686c7eb048053700c6fa48cec375c950234c6b2dad5ef3bb37864736f6c634300080e0033",
    "linkReferences": {
      "lib/cybercontracts/src/libraries/Actions.sol": {
        "Actions": [
          {
            "start": 9899,
            "length": 20
          },
          {
            "start": 11587,
            "length": 20
          },
          {
            "start": 11790,
            "length": 20
          },
          {
            "start": 12171,
            "length": 20
          },
          {
            "start": 12527,
            "length": 20
          },
          {
            "start": 13979,
            "length": 20
          },
          {
            "start": 14772,
            "length": 20
          },
          {
            "start": 15133,
            "length": 20
          },
          {
            "start": 15771,
            "length": 20
          },
          {
            "start": 15994,
            "length": 20
          }
        ]
      }
    }
  },
  "methodIdentifiers": {
    "DOMAIN_SEPARATOR()": "3644e515",
    "ENGINE()": "4785e8d4",
    "ESSENCE_BEACON()": "1ec7d106",
    "SUBSCRIBE_BEACON()": "5b996c0f",
    "approve(address,uint256)": "095ea7b3",
    "balanceOf(address)": "70a08231",
    "burn(uint256)": "42966c68",
    "collect((address,uint256,uint256),bytes,bytes)": "be10bc61",
    "collectWithSig((address,uint256,uint256),bytes,bytes,address,(uint8,bytes32,bytes32,uint256))": "54036644",
    "createProfile((address,string,string,string,address),bytes,bytes)": "166fad6f",
    "getApproved(uint256)": "081812fc",
    "getAvatar(uint256)": "1328ec9b",
    "getEssenceMw(uint256,uint256)": "5e316de4",
    "getEssenceNFT(uint256,uint256)": "a92dc7e8",
    "getEssenceNFTTokenURI(uint256,uint256)": "206f8e86",
    "getHandleByProfileId(uint256)": "2307c987",
    "getMetadata(uint256)": "a574cea4",
    "getNFTDescriptor()": "17c4d5d2",
    "getNamespaceOwner()": "42cfa815",
    "getOperatorApproval(uint256,address)": "f0ab9600",
    "getPrimaryProfile(address)": "dfa52f07",
    "getProfileIdByHandle(string)": "20fa728a",
    "getSubscribeMw(uint256)": "56bfd88c",
    "getSubscribeNFT(uint256)": "f4954aef",
    "getSubscribeNFTTokenURI(uint256)": "303c14f8",
    "initialize(address,string,string)": "90657147",
    "isApprovedForAll(address,address)": "e985e9c5",
    "name()": "06fdde03",
    "nonces(address)": "7ecebe00",
    "ownerOf(uint256)": "6352211e",
    "pause(bool)": "02329a29",
    "paused()": "5c975abb",
    "permit(address,uint256,(uint8,bytes32,bytes32,uint256))": "7ef67f99",
    "proxiableUUID()": "52d1902d",
    "registerEssence((uint256,string,string,string,address,bool,bool),bytes)": "71fd0a98",
    "registerEssenceWithSig((uint256,string,string,string,address,bool,bool),bytes,(uint8,bytes32,bytes32,uint256))": "e5fee479",
    "safeTransferFrom(address,address,uint256)": "42842e0e",
    "safeTransferFrom(address,address,uint256,bytes)": "b88d4fde",
    "setApprovalForAll(address,bool)": "a22cb465",
    "setAvatar(uint256,string)": "87beeb2b",
    "setAvatarWithSig(uint256,string,(uint8,bytes32,bytes32,uint256))": "6463788d",
    "setEssenceData(uint256,uint256,string,address,bytes)": "0eee16f4",
    "setEssenceDataWithSig(uint256,uint256,string,address,bytes,(uint8,bytes32,bytes32,uint256))": "5ea97079",
    "setMetadata(uint256,string)": "593aa283",
    "setMetadataWithSig(uint256,string,(uint8,bytes32,bytes32,uint256))": "d0e56c38",
    "setNFTDescriptor(address)": "7cad6cd1",
    "setNamespaceOwner(address)": "f7727c9f",
    "setOperatorApproval(uint256,address,bool)": "afa83e68",
    "setPrimaryProfile(uint256)": "7c08d9fd",
    "setPrimaryProfileWithSig(uint256,(uint8,bytes32,bytes32,uint256))": "a95c1cbf",
    "setSubscribeData(uint256,string,address,bytes)": "8d54db1b",
    "setSubscribeDataWithSig(uint256,string,address,bytes,(uint8,bytes32,bytes32,uint256))": "2229f28d",
    "subscribe((address,uint256[]),bytes[],bytes[])": "687c9969",
    "subscribeWithSig((address,uint256[]),bytes[],bytes[],address,(uint8,bytes32,bytes32,uint256))": "faf214b3",
    "supportsInterface(bytes4)": "01ffc9a7",
    "symbol()": "95d89b41",
    "tokenURI(uint256)": "c87b56dd",
    "totalBurned()": "d89135cd",
    "totalMinted()": "a2309ff8",
    "totalSupply()": "18160ddd",
    "transferFrom(address,address,uint256)": "23b872dd",
    "upgradeTo(address)": "3659cfe6",
    "upgradeToAndCall(address,bytes)": "4f1ef286",
    "version()": "54fd4d50"
  },
  "id": 8
}