{
  "abi": [
    {
      "inputs": [
        {
          "internalType": "address",
          "name": "followNFTImpl",
          "type": "address"
        },
        {
          "internalType": "address",
          "name": "legacyCollectNFTImpl",
          "type": "address"
        },
        {
          "internalType": "address",
          "name": "moduleRegistry",
          "type": "address"
        },
        {
          "internalType": "uint256",
          "name": "tokenGuardianCooldown",
          "type": "uint256"
        },
        {
          "components": [
            {
              "internalType": "address",
              "name": "lensHandlesAddress",
              "type": "address"
            },
            {
              "internalType": "address",
              "name": "tokenHandleRegistryAddress",
              "type": "address"
            },
            {
              "internalType": "address",
              "name": "legacyFeeFollowModule",
              "type": "address"
            },
            {
              "internalType": "address",
              "name": "legacyProfileFollowModule",
              "type": "address"
            },
            {
              "internalType": "address",
              "name": "newFeeFollowModule",
              "type": "address"
            }
          ],
          "internalType": "struct Types.MigrationParams",
          "name": "migrationParams",
          "type": "tuple"
        }
      ],
      "stateMutability": "nonpayable",
      "type": "constructor"
    },
    {
      "inputs": [],
      "name": "AlreadyEnabled",
      "type": "error"
    },
    {
      "inputs": [],
      "name": "CallerNotCollectNFT",
      "type": "error"
    },
    {
      "inputs": [],
      "name": "CallerNotFollowNFT",
      "type": "error"
    },
    {
      "inputs": [],
      "name": "DisablingAlreadyTriggered",
      "type": "error"
    },
    {
      "inputs": [],
      "name": "ExecutorInvalid",
      "type": "error"
    },
    {
      "inputs": [],
      "name": "GuardianEnabled",
      "type": "error"
    },
    {
      "inputs": [],
      "name": "InitParamsInvalid",
      "type": "error"
    },
    {
      "inputs": [],
      "name": "InvalidOwner",
      "type": "error"
    },
    {
      "inputs": [],
      "name": "InvalidParameter",
      "type": "error"
    },
    {
      "inputs": [],
      "name": "NonERC721ReceiverImplementer",
      "type": "error"
    },
    {
      "inputs": [],
      "name": "NotEOA",
      "type": "error"
    },
    {
      "inputs": [],
      "name": "NotGovernance",
      "type": "error"
    },
    {
      "inputs": [],
      "name": "NotHub",
      "type": "error"
    },
    {
      "inputs": [],
      "name": "NotMigrationAdmin",
      "type": "error"
    },
    {
      "inputs": [],
      "name": "NotOwnerOrApproved",
      "type": "error"
    },
    {
      "inputs": [],
      "name": "NotProfileOwner",
      "type": "error"
    },
    {
      "inputs": [],
      "name": "NotWhitelisted",
      "type": "error"
    },
    {
      "inputs": [],
      "name": "Paused",
      "type": "error"
    },
    {
      "inputs": [],
      "name": "PublishingPaused",
      "type": "error"
    },
    {
      "inputs": [],
      "name": "TokenDoesNotExist",
      "type": "error"
    },
    {
      "anonymous": false,
      "inputs": [
        {
          "indexed": true,
          "internalType": "address",
          "name": "owner",
          "type": "address"
        },
        {
          "indexed": true,
          "internalType": "address",
          "name": "approved",
          "type": "address"
        },
        {
          "indexed": true,
          "internalType": "uint256",
          "name": "tokenId",
          "type": "uint256"
        }
      ],
      "name": "Approval",
      "type": "event"
    },
    {
      "anonymous": false,
      "inputs": [
        {
          "indexed": true,
          "internalType": "address",
          "name": "owner",
          "type": "address"
        },
        {
          "indexed": true,
          "internalType": "address",
          "name": "operator",
          "type": "address"
        },
        {
          "indexed": false,
          "internalType": "bool",
          "name": "approved",
          "type": "bool"
        }
      ],
      "name": "ApprovalForAll",
      "type": "event"
    },
    {
      "anonymous": false,
      "inputs": [
        {
          "indexed": true,
          "internalType": "uint256",
          "name": "profileId",
          "type": "uint256"
        },
        {
          "indexed": true,
          "internalType": "uint256",
          "name": "pubId",
          "type": "uint256"
        },
        {
          "indexed": true,
          "internalType": "uint256",
          "name": "collectNFTId",
          "type": "uint256"
        },
        {
          "indexed": false,
          "internalType": "address",
          "name": "from",
          "type": "address"
        },
        {
          "indexed": false,
          "internalType": "address",
          "name": "to",
          "type": "address"
        },
        {
          "indexed": false,
          "internalType": "uint256",
          "name": "timestamp",
          "type": "uint256"
        }
      ],
      "name": "CollectNFTTransferred",
      "type": "event"
    },
    {
      "anonymous": false,
      "inputs": [
        {
          "indexed": false,
          "internalType": "address",
          "name": "implementation",
          "type": "address"
        },
        {
          "indexed": false,
          "internalType": "string",
          "name": "version",
          "type": "string"
        },
        {
          "indexed": false,
          "internalType": "bytes20",
          "name": "gitCommit",
          "type": "bytes20"
        },
        {
          "indexed": false,
          "internalType": "uint256",
          "name": "timestamp",
          "type": "uint256"
        }
      ],
      "name": "LensUpgradeVersion",
      "type": "event"
    },
    {
      "anonymous": false,
      "inputs": [
        {
          "indexed": true,
          "internalType": "address",
          "name": "wallet",
          "type": "address"
        },
        {
          "indexed": true,
          "internalType": "bool",
          "name": "enabled",
          "type": "bool"
        },
        {
          "indexed": false,
          "internalType": "uint256",
          "name": "tokenGuardianDisablingTimestamp",
          "type": "uint256"
        },
        {
          "indexed": false,
          "internalType": "uint256",
          "name": "timestamp",
          "type": "uint256"
        }
      ],
      "name": "TokenGuardianStateChanged",
      "type": "event"
    },
    {
      "anonymous": false,
      "inputs": [
        {
          "indexed": true,
          "internalType": "address",
          "name": "from",
          "type": "address"
        },
        {
          "indexed": true,
          "internalType": "address",
          "name": "to",
          "type": "address"
        },
        {
          "indexed": true,
          "internalType": "uint256",
          "name": "tokenId",
          "type": "uint256"
        }
      ],
      "name": "Transfer",
      "type": "event"
    },
    {
      "anonymous": false,
      "inputs": [
        {
          "indexed": true,
          "internalType": "uint16",
          "name": "prevTreasuryFee",
          "type": "uint16"
        },
        {
          "indexed": true,
          "internalType": "uint16",
          "name": "newTreasuryFee",
          "type": "uint16"
        },
        {
          "indexed": false,
          "internalType": "uint256",
          "name": "timestamp",
          "type": "uint256"
        }
      ],
      "name": "TreasuryFeeSet",
      "type": "event"
    },
    {
      "anonymous": false,
      "inputs": [
        {
          "indexed": true,
          "internalType": "address",
          "name": "prevTreasury",
          "type": "address"
        },
        {
          "indexed": true,
          "internalType": "address",
          "name": "newTreasury",
          "type": "address"
        },
        {
          "indexed": false,
          "internalType": "uint256",
          "name": "timestamp",
          "type": "uint256"
        }
      ],
      "name": "TreasurySet",
      "type": "event"
    },
    {
      "anonymous": false,
      "inputs": [
        {
          "indexed": true,
          "internalType": "uint256",
          "name": "unfollowerProfileId",
          "type": "uint256"
        },
        {
          "indexed": false,
          "internalType": "uint256",
          "name": "idOfProfileUnfollowed",
          "type": "uint256"
        },
        {
          "indexed": false,
          "internalType": "address",
          "name": "transactionExecutor",
          "type": "address"
        },
        {
          "indexed": false,
          "internalType": "uint256",
          "name": "timestamp",
          "type": "uint256"
        }
      ],
      "name": "Unfollowed",
      "type": "event"
    },
    {
      "inputs": [],
      "name": "DANGER__disableTokenGuardian",
      "outputs": [],
      "stateMutability": "nonpayable",
      "type": "function"
    },
    {
      "inputs": [],
      "name": "TOKEN_GUARDIAN_COOLDOWN",
      "outputs": [
        {
          "internalType": "uint256",
          "name": "",
          "type": "uint256"
        }
      ],
      "stateMutability": "view",
      "type": "function"
    },
    {
      "inputs": [
        {
          "components": [
            {
              "internalType": "uint256",
              "name": "publicationActedProfileId",
              "type": "uint256"
            },
            {
              "internalType": "uint256",
              "name": "publicationActedId",
              "type": "uint256"
            },
            {
              "internalType": "uint256",
              "name": "actorProfileId",
              "type": "uint256"
            },
            {
              "internalType": "uint256[]",
              "name": "referrerProfileIds",
              "type": "uint256[]"
            },
            {
              "internalType": "uint256[]",
              "name": "referrerPubIds",
              "type": "uint256[]"
            },
            {
              "internalType": "address",
              "name": "actionModuleAddress",
              "type": "address"
            },
            {
              "internalType": "bytes",
              "name": "actionModuleData",
              "type": "bytes"
            }
          ],
          "internalType": "struct Types.PublicationActionParams",
          "name": "publicationActionParams",
          "type": "tuple"
        }
      ],
      "name": "act",
      "outputs": [
        {
          "internalType": "bytes",
          "name": "",
          "type": "bytes"
        }
      ],
      "stateMutability": "nonpayable",
      "type": "function"
    },
    {
      "inputs": [
        {
          "components": [
            {
              "internalType": "uint256",
              "name": "publicationActedProfileId",
              "type": "uint256"
            },
            {
              "internalType": "uint256",
              "name": "publicationActedId",
              "type": "uint256"
            },
            {
              "internalType": "uint256",
              "name": "actorProfileId",
              "type": "uint256"
            },
            {
              "internalType": "uint256[]",
              "name": "referrerProfileIds",
              "type": "uint256[]"
            },
            {
              "internalType": "uint256[]",
              "name": "referrerPubIds",
              "type": "uint256[]"
            },
            {
              "internalType": "address",
              "name": "actionModuleAddress",
              "type": "address"
            },
            {
              "internalType": "bytes",
              "name": "actionModuleData",
              "type": "bytes"
            }
          ],
          "internalType": "struct Types.PublicationActionParams",
          "name": "publicationActionParams",
          "type": "tuple"
        },
        {
          "components": [
            {
              "internalType": "address",
              "name": "signer",
              "type": "address"
            },
            {
              "internalType": "uint8",
              "name": "v",
              "type": "uint8"
            },
            {
              "internalType": "bytes32",
              "name": "r",
              "type": "bytes32"
            },
            {
              "internalType": "bytes32",
              "name": "s",
              "type": "bytes32"
            },
            {
              "internalType": "uint256",
              "name": "deadline",
              "type": "uint256"
            }
          ],
          "internalType": "struct Types.EIP712Signature",
          "name": "signature",
          "type": "tuple"
        }
      ],
      "name": "actWithSig",
      "outputs": [
        {
          "internalType": "bytes",
          "name": "",
          "type": "bytes"
        }
      ],
      "stateMutability": "nonpayable",
      "type": "function"
    },
    {
      "inputs": [
        {
          "internalType": "address",
          "name": "to",
          "type": "address"
        },
        {
          "internalType": "uint256",
          "name": "tokenId",
          "type": "uint256"
        }
      ],
      "name": "approve",
      "outputs": [],
      "stateMutability": "nonpayable",
      "type": "function"
    },
    {
      "inputs": [
        {
          "internalType": "address",
          "name": "owner",
          "type": "address"
        }
      ],
      "name": "balanceOf",
      "outputs": [
        {
          "internalType": "uint256",
          "name": "",
          "type": "uint256"
        }
      ],
      "stateMutability": "view",
      "type": "function"
    },
    {
      "inputs": [
        {
          "internalType": "uint256[]",
          "name": "profileIds",
          "type": "uint256[]"
        }
      ],
      "name": "batchMigrateFollowModules",
      "outputs": [],
      "stateMutability": "nonpayable",
      "type": "function"
    },
    {
      "inputs": [
        {
          "internalType": "uint256[]",
          "name": "followerProfileIds",
          "type": "uint256[]"
        },
        {
          "internalType": "uint256",
          "name": "idOfProfileFollowed",
          "type": "uint256"
        },
        {
          "internalType": "uint256[]",
          "name": "followTokenIds",
          "type": "uint256[]"
        }
      ],
      "name": "batchMigrateFollowers",
      "outputs": [],
      "stateMutability": "nonpayable",
      "type": "function"
    },
    {
      "inputs": [
        {
          "internalType": "uint256",
          "name": "followerProfileId",
          "type": "uint256"
        },
        {
          "internalType": "uint256[]",
          "name": "idsOfProfileFollowed",
          "type": "uint256[]"
        },
        {
          "internalType": "uint256[]",
          "name": "followTokenIds",
          "type": "uint256[]"
        }
      ],
      "name": "batchMigrateFollows",
      "outputs": [],
      "stateMutability": "nonpayable",
      "type": "function"
    },
    {
      "inputs": [
        {
          "internalType": "uint256[]",
          "name": "profileIds",
          "type": "uint256[]"
        }
      ],
      "name": "batchMigrateProfiles",
      "outputs": [],
      "stateMutability": "nonpayable",
      "type": "function"
    },
    {
      "inputs": [
        {
          "internalType": "uint256",
          "name": "tokenId",
          "type": "uint256"
        }
      ],
      "name": "burn",
      "outputs": [],
      "stateMutability": "nonpayable",
      "type": "function"
    },
    {
      "inputs": [
        {
          "internalType": "uint256",
          "name": "delegatorProfileId",
          "type": "uint256"
        },
        {
          "internalType": "address[]",
          "name": "delegatedExecutors",
          "type": "address[]"
        },
        {
          "internalType": "bool[]",
          "name": "approvals",
          "type": "bool[]"
        },
        {
          "internalType": "uint64",
          "name": "configNumber",
          "type": "uint64"
        },
        {
          "internalType": "bool",
          "name": "switchToGivenConfig",
          "type": "bool"
        }
      ],
      "name": "changeDelegatedExecutorsConfig",
      "outputs": [],
      "stateMutability": "nonpayable",
      "type": "function"
    },
    {
      "inputs": [
        {
          "internalType": "uint256",
          "name": "delegatorProfileId",
          "type": "uint256"
        },
        {
          "internalType": "address[]",
          "name": "delegatedExecutors",
          "type": "address[]"
        },
        {
          "internalType": "bool[]",
          "name": "approvals",
          "type": "bool[]"
        }
      ],
      "name": "changeDelegatedExecutorsConfig",
      "outputs": [],
      "stateMutability": "nonpayable",
      "type": "function"
    },
    {
      "inputs": [
        {
          "internalType": "uint256",
          "name": "delegatorProfileId",
          "type": "uint256"
        },
        {
          "internalType": "address[]",
          "name": "delegatedExecutors",
          "type": "address[]"
        },
        {
          "internalType": "bool[]",
          "name": "approvals",
          "type": "bool[]"
        },
        {
          "internalType": "uint64",
          "name": "configNumber",
          "type": "uint64"
        },
        {
          "internalType": "bool",
          "name": "switchToGivenConfig",
          "type": "bool"
        },
        {
          "components": [
            {
              "internalType": "address",
              "name": "signer",
              "type": "address"
            },
            {
              "internalType": "uint8",
              "name": "v",
              "type": "uint8"
            },
            {
              "internalType": "bytes32",
              "name": "r",
              "type": "bytes32"
            },
            {
              "internalType": "bytes32",
              "name": "s",
              "type": "bytes32"
            },
            {
              "internalType": "uint256",
              "name": "deadline",
              "type": "uint256"
            }
          ],
          "internalType": "struct Types.EIP712Signature",
          "name": "signature",
          "type": "tuple"
        }
      ],
      "name": "changeDelegatedExecutorsConfigWithSig",
      "outputs": [],
      "stateMutability": "nonpayable",
      "type": "function"
    },
    {
      "inputs": [
        {
          "components": [
            {
              "internalType": "uint256",
              "name": "publicationCollectedProfileId",
              "type": "uint256"
            },
            {
              "internalType": "uint256",
              "name": "publicationCollectedId",
              "type": "uint256"
            },
            {
              "internalType": "uint256",
              "name": "collectorProfileId",
              "type": "uint256"
            },
            {
              "internalType": "uint256",
              "name": "referrerProfileId",
              "type": "uint256"
            },
            {
              "internalType": "uint256",
              "name": "referrerPubId",
              "type": "uint256"
            },
            {
              "internalType": "bytes",
              "name": "collectModuleData",
              "type": "bytes"
            }
          ],
          "internalType": "struct Types.LegacyCollectParams",
          "name": "collectParams",
          "type": "tuple"
        }
      ],
      "name": "collectLegacy",
      "outputs": [
        {
          "internalType": "uint256",
          "name": "",
          "type": "uint256"
        }
      ],
      "stateMutability": "nonpayable",
      "type": "function"
    },
    {
      "inputs": [
        {
          "components": [
            {
              "internalType": "uint256",
              "name": "publicationCollectedProfileId",
              "type": "uint256"
            },
            {
              "internalType": "uint256",
              "name": "publicationCollectedId",
              "type": "uint256"
            },
            {
              "internalType": "uint256",
              "name": "collectorProfileId",
              "type": "uint256"
            },
            {
              "internalType": "uint256",
              "name": "referrerProfileId",
              "type": "uint256"
            },
            {
              "internalType": "uint256",
              "name": "referrerPubId",
              "type": "uint256"
            },
            {
              "internalType": "bytes",
              "name": "collectModuleData",
              "type": "bytes"
            }
          ],
          "internalType": "struct Types.LegacyCollectParams",
          "name": "collectParams",
          "type": "tuple"
        },
        {
          "components": [
            {
              "internalType": "address",
              "name": "signer",
              "type": "address"
            },
            {
              "internalType": "uint8",
              "name": "v",
              "type": "uint8"
            },
            {
              "internalType": "bytes32",
              "name": "r",
              "type": "bytes32"
            },
            {
              "internalType": "bytes32",
              "name": "s",
              "type": "bytes32"
            },
            {
              "internalType": "uint256",
              "name": "deadline",
              "type": "uint256"
            }
          ],
          "internalType": "struct Types.EIP712Signature",
          "name": "signature",
          "type": "tuple"
        }
      ],
      "name": "collectLegacyWithSig",
      "outputs": [
        {
          "internalType": "uint256",
          "name": "",
          "type": "uint256"
        }
      ],
      "stateMutability": "nonpayable",
      "type": "function"
    },
    {
      "inputs": [
        {
          "components": [
            {
              "internalType": "uint256",
              "name": "profileId",
              "type": "uint256"
            },
            {
              "internalType": "string",
              "name": "contentURI",
              "type": "string"
            },
            {
              "internalType": "uint256",
              "name": "pointedProfileId",
              "type": "uint256"
            },
            {
              "internalType": "uint256",
              "name": "pointedPubId",
              "type": "uint256"
            },
            {
              "internalType": "uint256[]",
              "name": "referrerProfileIds",
              "type": "uint256[]"
            },
            {
              "internalType": "uint256[]",
              "name": "referrerPubIds",
              "type": "uint256[]"
            },
            {
              "internalType": "bytes",
              "name": "referenceModuleData",
              "type": "bytes"
            },
            {
              "internalType": "address[]",
              "name": "actionModules",
              "type": "address[]"
            },
            {
              "internalType": "bytes[]",
              "name": "actionModulesInitDatas",
              "type": "bytes[]"
            },
            {
              "internalType": "address",
              "name": "referenceModule",
              "type": "address"
            },
            {
              "internalType": "bytes",
              "name": "referenceModuleInitData",
              "type": "bytes"
            }
          ],
          "internalType": "struct Types.CommentParams",
          "name": "commentParams",
          "type": "tuple"
        }
      ],
      "name": "comment",
      "outputs": [
        {
          "internalType": "uint256",
          "name": "",
          "type": "uint256"
        }
      ],
      "stateMutability": "nonpayable",
      "type": "function"
    },
    {
      "inputs": [
        {
          "components": [
            {
              "internalType": "uint256",
              "name": "profileId",
              "type": "uint256"
            },
            {
              "internalType": "string",
              "name": "contentURI",
              "type": "string"
            },
            {
              "internalType": "uint256",
              "name": "pointedProfileId",
              "type": "uint256"
            },
            {
              "internalType": "uint256",
              "name": "pointedPubId",
              "type": "uint256"
            },
            {
              "internalType": "uint256[]",
              "name": "referrerProfileIds",
              "type": "uint256[]"
            },
            {
              "internalType": "uint256[]",
              "name": "referrerPubIds",
              "type": "uint256[]"
            },
            {
              "internalType": "bytes",
              "name": "referenceModuleData",
              "type": "bytes"
            },
            {
              "internalType": "address[]",
              "name": "actionModules",
              "type": "address[]"
            },
            {
              "internalType": "bytes[]",
              "name": "actionModulesInitDatas",
              "type": "bytes[]"
            },
            {
              "internalType": "address",
              "name": "referenceModule",
              "type": "address"
            },
            {
              "internalType": "bytes",
              "name": "referenceModuleInitData",
              "type": "bytes"
            }
          ],
          "internalType": "struct Types.CommentParams",
          "name": "commentParams",
          "type": "tuple"
        },
        {
          "components": [
            {
              "internalType": "address",
              "name": "signer",
              "type": "address"
            },
            {
              "internalType": "uint8",
              "name": "v",
              "type": "uint8"
            },
            {
              "internalType": "bytes32",
              "name": "r",
              "type": "bytes32"
            },
            {
              "internalType": "bytes32",
              "name": "s",
              "type": "bytes32"
            },
            {
              "internalType": "uint256",
              "name": "deadline",
              "type": "uint256"
            }
          ],
          "internalType": "struct Types.EIP712Signature",
          "name": "signature",
          "type": "tuple"
        }
      ],
      "name": "commentWithSig",
      "outputs": [
        {
          "internalType": "uint256",
          "name": "",
          "type": "uint256"
        }
      ],
      "stateMutability": "nonpayable",
      "type": "function"
    },
    {
      "inputs": [
        {
          "components": [
            {
              "internalType": "address",
              "name": "to",
              "type": "address"
            },
            {
              "internalType": "address",
              "name": "followModule",
              "type": "address"
            },
            {
              "internalType": "bytes",
              "name": "followModuleInitData",
              "type": "bytes"
            }
          ],
          "internalType": "struct Types.CreateProfileParams",
          "name": "createProfileParams",
          "type": "tuple"
        }
      ],
      "name": "createProfile",
      "outputs": [
        {
          "internalType": "uint256",
          "name": "",
          "type": "uint256"
        }
      ],
      "stateMutability": "nonpayable",
      "type": "function"
    },
    {
      "inputs": [
        {
          "internalType": "uint256",
          "name": "profileId",
          "type": "uint256"
        },
        {
          "internalType": "uint256",
          "name": "pubId",
          "type": "uint256"
        },
        {
          "internalType": "uint256",
          "name": "collectNFTId",
          "type": "uint256"
        },
        {
          "internalType": "address",
          "name": "from",
          "type": "address"
        },
        {
          "internalType": "address",
          "name": "to",
          "type": "address"
        }
      ],
      "name": "emitCollectNFTTransferEvent",
      "outputs": [],
      "stateMutability": "nonpayable",
      "type": "function"
    },
    {
      "inputs": [
        {
          "internalType": "uint256",
          "name": "unfollowerProfileId",
          "type": "uint256"
        },
        {
          "internalType": "uint256",
          "name": "idOfProfileUnfollowed",
          "type": "uint256"
        },
        {
          "internalType": "address",
          "name": "transactionExecutor",
          "type": "address"
        }
      ],
      "name": "emitUnfollowedEvent",
      "outputs": [],
      "stateMutability": "nonpayable",
      "type": "function"
    },
    {
      "inputs": [],
      "name": "emitVersion",
      "outputs": [],
      "stateMutability": "nonpayable",
      "type": "function"
    },
    {
      "inputs": [],
      "name": "enableTokenGuardian",
      "outputs": [],
      "stateMutability": "nonpayable",
      "type": "function"
    },
    {
      "inputs": [
        {
          "internalType": "uint256",
          "name": "tokenId",
          "type": "uint256"
        }
      ],
      "name": "exists",
      "outputs": [
        {
          "internalType": "bool",
          "name": "",
          "type": "bool"
        }
      ],
      "stateMutability": "view",
      "type": "function"
    },
    {
      "inputs": [
        {
          "internalType": "uint256",
          "name": "followerProfileId",
          "type": "uint256"
        },
        {
          "internalType": "uint256[]",
          "name": "idsOfProfilesToFollow",
          "type": "uint256[]"
        },
        {
          "internalType": "uint256[]",
          "name": "followTokenIds",
          "type": "uint256[]"
        },
        {
          "internalType": "bytes[]",
          "name": "datas",
          "type": "bytes[]"
        }
      ],
      "name": "follow",
      "outputs": [
        {
          "internalType": "uint256[]",
          "name": "",
          "type": "uint256[]"
        }
      ],
      "stateMutability": "nonpayable",
      "type": "function"
    },
    {
      "inputs": [
        {
          "internalType": "uint256",
          "name": "followerProfileId",
          "type": "uint256"
        },
        {
          "internalType": "uint256[]",
          "name": "idsOfProfilesToFollow",
          "type": "uint256[]"
        },
        {
          "internalType": "uint256[]",
          "name": "followTokenIds",
          "type": "uint256[]"
        },
        {
          "internalType": "bytes[]",
          "name": "datas",
          "type": "bytes[]"
        },
        {
          "components": [
            {
              "internalType": "address",
              "name": "signer",
              "type": "address"
            },
            {
              "internalType": "uint8",
              "name": "v",
              "type": "uint8"
            },
            {
              "internalType": "bytes32",
              "name": "r",
              "type": "bytes32"
            },
            {
              "internalType": "bytes32",
              "name": "s",
              "type": "bytes32"
            },
            {
              "internalType": "uint256",
              "name": "deadline",
              "type": "uint256"
            }
          ],
          "internalType": "struct Types.EIP712Signature",
          "name": "signature",
          "type": "tuple"
        }
      ],
      "name": "followWithSig",
      "outputs": [
        {
          "internalType": "uint256[]",
          "name": "",
          "type": "uint256[]"
        }
      ],
      "stateMutability": "nonpayable",
      "type": "function"
    },
    {
      "inputs": [
        {
          "internalType": "uint256",
          "name": "tokenId",
          "type": "uint256"
        }
      ],
      "name": "getApproved",
      "outputs": [
        {
          "internalType": "address",
          "name": "",
          "type": "address"
        }
      ],
      "stateMutability": "view",
      "type": "function"
    },
    {
      "inputs": [
        {
          "internalType": "uint256",
          "name": "profileId",
          "type": "uint256"
        },
        {
          "internalType": "uint256",
          "name": "pubId",
          "type": "uint256"
        }
      ],
      "name": "getContentURI",
      "outputs": [
        {
          "internalType": "string",
          "name": "",
          "type": "string"
        }
      ],
      "stateMutability": "view",
      "type": "function"
    },
    {
      "inputs": [
        {
          "internalType": "uint256",
          "name": "delegatorProfileId",
          "type": "uint256"
        }
      ],
      "name": "getDelegatedExecutorsConfigNumber",
      "outputs": [
        {
          "internalType": "uint64",
          "name": "",
          "type": "uint64"
        }
      ],
      "stateMutability": "view",
      "type": "function"
    },
    {
      "inputs": [
        {
          "internalType": "uint256",
          "name": "delegatorProfileId",
          "type": "uint256"
        }
      ],
      "name": "getDelegatedExecutorsMaxConfigNumberSet",
      "outputs": [
        {
          "internalType": "uint64",
          "name": "",
          "type": "uint64"
        }
      ],
      "stateMutability": "view",
      "type": "function"
    },
    {
      "inputs": [
        {
          "internalType": "uint256",
          "name": "delegatorProfileId",
          "type": "uint256"
        }
      ],
      "name": "getDelegatedExecutorsPrevConfigNumber",
      "outputs": [
        {
          "internalType": "uint64",
          "name": "",
          "type": "uint64"
        }
      ],
      "stateMutability": "view",
      "type": "function"
    },
    {
      "inputs": [],
      "name": "getDomainSeparator",
      "outputs": [
        {
          "internalType": "bytes32",
          "name": "",
          "type": "bytes32"
        }
      ],
      "stateMutability": "view",
      "type": "function"
    },
    {
      "inputs": [],
      "name": "getFollowNFTImpl",
      "outputs": [
        {
          "internalType": "address",
          "name": "",
          "type": "address"
        }
      ],
      "stateMutability": "view",
      "type": "function"
    },
    {
      "inputs": [],
      "name": "getGitCommit",
      "outputs": [
        {
          "internalType": "bytes20",
          "name": "",
          "type": "bytes20"
        }
      ],
      "stateMutability": "pure",
      "type": "function"
    },
    {
      "inputs": [],
      "name": "getGovernance",
      "outputs": [
        {
          "internalType": "address",
          "name": "",
          "type": "address"
        }
      ],
      "stateMutability": "view",
      "type": "function"
    },
    {
      "inputs": [],
      "name": "getLegacyCollectNFTImpl",
      "outputs": [
        {
          "internalType": "address",
          "name": "",
          "type": "address"
        }
      ],
      "stateMutability": "view",
      "type": "function"
    },
    {
      "inputs": [],
      "name": "getModuleRegistry",
      "outputs": [
        {
          "internalType": "address",
          "name": "",
          "type": "address"
        }
      ],
      "stateMutability": "view",
      "type": "function"
    },
    {
      "inputs": [
        {
          "internalType": "uint256",
          "name": "profileId",
          "type": "uint256"
        }
      ],
      "name": "getProfile",
      "outputs": [
        {
          "components": [
            {
              "internalType": "uint256",
              "name": "pubCount",
              "type": "uint256"
            },
            {
              "internalType": "address",
              "name": "followModule",
              "type": "address"
            },
            {
              "internalType": "address",
              "name": "followNFT",
              "type": "address"
            },
            {
              "internalType": "string",
              "name": "__DEPRECATED__handle",
              "type": "string"
            },
            {
              "internalType": "string",
              "name": "__DEPRECATED__imageURI",
              "type": "string"
            },
            {
              "internalType": "string",
              "name": "__DEPRECATED__followNFTURI",
              "type": "string"
            },
            {
              "internalType": "string",
              "name": "metadataURI",
              "type": "string"
            }
          ],
          "internalType": "struct Types.Profile",
          "name": "",
          "type": "tuple"
        }
      ],
      "stateMutability": "view",
      "type": "function"
    },
    {
      "inputs": [
        {
          "internalType": "bytes32",
          "name": "handleHash",
          "type": "bytes32"
        }
      ],
      "name": "getProfileIdByHandleHash",
      "outputs": [
        {
          "internalType": "uint256",
          "name": "",
          "type": "uint256"
        }
      ],
      "stateMutability": "view",
      "type": "function"
    },
    {
      "inputs": [
        {
          "internalType": "uint256",
          "name": "profileId",
          "type": "uint256"
        },
        {
          "internalType": "uint256",
          "name": "pubId",
          "type": "uint256"
        }
      ],
      "name": "getPublication",
      "outputs": [
        {
          "components": [
            {
              "internalType": "uint256",
              "name": "pointedProfileId",
              "type": "uint256"
            },
            {
              "internalType": "uint256",
              "name": "pointedPubId",
              "type": "uint256"
            },
            {
              "internalType": "string",
              "name": "contentURI",
              "type": "string"
            },
            {
              "internalType": "address",
              "name": "referenceModule",
              "type": "address"
            },
            {
              "internalType": "address",
              "name": "__DEPRECATED__collectModule",
              "type": "address"
            },
            {
              "internalType": "address",
              "name": "__DEPRECATED__collectNFT",
              "type": "address"
            },
            {
              "internalType": "enum Types.PublicationType",
              "name": "pubType",
              "type": "uint8"
            },
            {
              "internalType": "uint256",
              "name": "rootProfileId",
              "type": "uint256"
            },
            {
              "internalType": "uint256",
              "name": "rootPubId",
              "type": "uint256"
            }
          ],
          "internalType": "struct Types.PublicationMemory",
          "name": "",
          "type": "tuple"
        }
      ],
      "stateMutability": "pure",
      "type": "function"
    },
    {
      "inputs": [
        {
          "internalType": "uint256",
          "name": "profileId",
          "type": "uint256"
        },
        {
          "internalType": "uint256",
          "name": "pubId",
          "type": "uint256"
        }
      ],
      "name": "getPublicationType",
      "outputs": [
        {
          "internalType": "enum Types.PublicationType",
          "name": "",
          "type": "uint8"
        }
      ],
      "stateMutability": "view",
      "type": "function"
    },
    {
      "inputs": [],
      "name": "getState",
      "outputs": [
        {
          "internalType": "enum Types.ProtocolState",
          "name": "",
          "type": "uint8"
        }
      ],
      "stateMutability": "view",
      "type": "function"
    },
    {
      "inputs": [
        {
          "internalType": "address",
          "name": "wallet",
          "type": "address"
        }
      ],
      "name": "getTokenGuardianDisablingTimestamp",
      "outputs": [
        {
          "internalType": "uint256",
          "name": "",
          "type": "uint256"
        }
      ],
      "stateMutability": "view",
      "type": "function"
    },
    {
      "inputs": [],
      "name": "getTreasury",
      "outputs": [
        {
          "internalType": "address",
          "name": "",
          "type": "address"
        }
      ],
      "stateMutability": "view",
      "type": "function"
    },
    {
      "inputs": [],
      "name": "getTreasuryData",
      "outputs": [
        {
          "internalType": "address",
          "name": "",
          "type": "address"
        },
        {
          "internalType": "uint16",
          "name": "",
          "type": "uint16"
        }
      ],
      "stateMutability": "view",
      "type": "function"
    },
    {
      "inputs": [],
      "name": "getTreasuryFee",
      "outputs": [
        {
          "internalType": "uint16",
          "name": "",
          "type": "uint16"
        }
      ],
      "stateMutability": "view",
      "type": "function"
    },
    {
      "inputs": [],
      "name": "getVersion",
      "outputs": [
        {
          "internalType": "string",
          "name": "",
          "type": "string"
        }
      ],
      "stateMutability": "pure",
      "type": "function"
    },
    {
      "inputs": [
        {
          "internalType": "uint8",
          "name": "increment",
          "type": "uint8"
        }
      ],
      "name": "incrementNonce",
      "outputs": [],
      "stateMutability": "nonpayable",
      "type": "function"
    },
    {
      "inputs": [
        {
          "internalType": "uint256",
          "name": "profileId",
          "type": "uint256"
        },
        {
          "internalType": "uint256",
          "name": "pubId",
          "type": "uint256"
        },
        {
          "internalType": "address",
          "name": "module",
          "type": "address"
        }
      ],
      "name": "isActionModuleEnabledInPublication",
      "outputs": [
        {
          "internalType": "bool",
          "name": "",
          "type": "bool"
        }
      ],
      "stateMutability": "view",
      "type": "function"
    },
    {
      "inputs": [
        {
          "internalType": "address",
          "name": "owner",
          "type": "address"
        },
        {
          "internalType": "address",
          "name": "operator",
          "type": "address"
        }
      ],
      "name": "isApprovedForAll",
      "outputs": [
        {
          "internalType": "bool",
          "name": "",
          "type": "bool"
        }
      ],
      "stateMutability": "view",
      "type": "function"
    },
    {
      "inputs": [
        {
          "internalType": "uint256",
          "name": "profileId",
          "type": "uint256"
        },
        {
          "internalType": "uint256",
          "name": "byProfileId",
          "type": "uint256"
        }
      ],
      "name": "isBlocked",
      "outputs": [
        {
          "internalType": "bool",
          "name": "",
          "type": "bool"
        }
      ],
      "stateMutability": "view",
      "type": "function"
    },
    {
      "inputs": [
        {
          "internalType": "uint256",
          "name": "delegatorProfileId",
          "type": "uint256"
        },
        {
          "internalType": "address",
          "name": "delegatedExecutor",
          "type": "address"
        }
      ],
      "name": "isDelegatedExecutorApproved",
      "outputs": [
        {
          "internalType": "bool",
          "name": "",
          "type": "bool"
        }
      ],
      "stateMutability": "view",
      "type": "function"
    },
    {
      "inputs": [
        {
          "internalType": "uint256",
          "name": "delegatorProfileId",
          "type": "uint256"
        },
        {
          "internalType": "address",
          "name": "delegatedExecutor",
          "type": "address"
        },
        {
          "internalType": "uint64",
          "name": "configNumber",
          "type": "uint64"
        }
      ],
      "name": "isDelegatedExecutorApproved",
      "outputs": [
        {
          "internalType": "bool",
          "name": "",
          "type": "bool"
        }
      ],
      "stateMutability": "view",
      "type": "function"
    },
    {
      "inputs": [
        {
          "internalType": "uint256",
          "name": "followerProfileId",
          "type": "uint256"
        },
        {
          "internalType": "uint256",
          "name": "followedProfileId",
          "type": "uint256"
        }
      ],
      "name": "isFollowing",
      "outputs": [
        {
          "internalType": "bool",
          "name": "",
          "type": "bool"
        }
      ],
      "stateMutability": "view",
      "type": "function"
    },
    {
      "inputs": [
        {
          "internalType": "address",
          "name": "profileCreator",
          "type": "address"
        }
      ],
      "name": "isProfileCreatorWhitelisted",
      "outputs": [
        {
          "internalType": "bool",
          "name": "",
          "type": "bool"
        }
      ],
      "stateMutability": "view",
      "type": "function"
    },
    {
      "inputs": [
        {
          "internalType": "uint256",
          "name": "tokenId",
          "type": "uint256"
        }
      ],
      "name": "mintTimestampOf",
      "outputs": [
        {
          "internalType": "uint256",
          "name": "",
          "type": "uint256"
        }
      ],
      "stateMutability": "view",
      "type": "function"
    },
    {
      "inputs": [
        {
          "components": [
            {
              "internalType": "uint256",
              "name": "profileId",
              "type": "uint256"
            },
            {
              "internalType": "string",
              "name": "metadataURI",
              "type": "string"
            },
            {
              "internalType": "uint256",
              "name": "pointedProfileId",
              "type": "uint256"
            },
            {
              "internalType": "uint256",
              "name": "pointedPubId",
              "type": "uint256"
            },
            {
              "internalType": "uint256[]",
              "name": "referrerProfileIds",
              "type": "uint256[]"
            },
            {
              "internalType": "uint256[]",
              "name": "referrerPubIds",
              "type": "uint256[]"
            },
            {
              "internalType": "bytes",
              "name": "referenceModuleData",
              "type": "bytes"
            }
          ],
          "internalType": "struct Types.MirrorParams",
          "name": "mirrorParams",
          "type": "tuple"
        }
      ],
      "name": "mirror",
      "outputs": [
        {
          "internalType": "uint256",
          "name": "",
          "type": "uint256"
        }
      ],
      "stateMutability": "nonpayable",
      "type": "function"
    },
    {
      "inputs": [
        {
          "components": [
            {
              "internalType": "uint256",
              "name": "profileId",
              "type": "uint256"
            },
            {
              "internalType": "string",
              "name": "metadataURI",
              "type": "string"
            },
            {
              "internalType": "uint256",
              "name": "pointedProfileId",
              "type": "uint256"
            },
            {
              "internalType": "uint256",
              "name": "pointedPubId",
              "type": "uint256"
            },
            {
              "internalType": "uint256[]",
              "name": "referrerProfileIds",
              "type": "uint256[]"
            },
            {
              "internalType": "uint256[]",
              "name": "referrerPubIds",
              "type": "uint256[]"
            },
            {
              "internalType": "bytes",
              "name": "referenceModuleData",
              "type": "bytes"
            }
          ],
          "internalType": "struct Types.MirrorParams",
          "name": "mirrorParams",
          "type": "tuple"
        },
        {
          "components": [
            {
              "internalType": "address",
              "name": "signer",
              "type": "address"
            },
            {
              "internalType": "uint8",
              "name": "v",
              "type": "uint8"
            },
            {
              "internalType": "bytes32",
              "name": "r",
              "type": "bytes32"
            },
            {
              "internalType": "bytes32",
              "name": "s",
              "type": "bytes32"
            },
            {
              "internalType": "uint256",
              "name": "deadline",
              "type": "uint256"
            }
          ],
          "internalType": "struct Types.EIP712Signature",
          "name": "signature",
          "type": "tuple"
        }
      ],
      "name": "mirrorWithSig",
      "outputs": [
        {
          "internalType": "uint256",
          "name": "",
          "type": "uint256"
        }
      ],
      "stateMutability": "nonpayable",
      "type": "function"
    },
    {
      "inputs": [],
      "name": "name",
      "outputs": [
        {
          "internalType": "string",
          "name": "",
          "type": "string"
        }
      ],
      "stateMutability": "view",
      "type": "function"
    },
    {
      "inputs": [
        {
          "internalType": "address",
          "name": "signer",
          "type": "address"
        }
      ],
      "name": "nonces",
      "outputs": [
        {
          "internalType": "uint256",
          "name": "",
          "type": "uint256"
        }
      ],
      "stateMutability": "view",
      "type": "function"
    },
    {
      "inputs": [
        {
          "internalType": "uint256",
          "name": "tokenId",
          "type": "uint256"
        }
      ],
      "name": "ownerOf",
      "outputs": [
        {
          "internalType": "address",
          "name": "",
          "type": "address"
        }
      ],
      "stateMutability": "view",
      "type": "function"
    },
    {
      "inputs": [
        {
          "components": [
            {
              "internalType": "uint256",
              "name": "profileId",
              "type": "uint256"
            },
            {
              "internalType": "string",
              "name": "contentURI",
              "type": "string"
            },
            {
              "internalType": "address[]",
              "name": "actionModules",
              "type": "address[]"
            },
            {
              "internalType": "bytes[]",
              "name": "actionModulesInitDatas",
              "type": "bytes[]"
            },
            {
              "internalType": "address",
              "name": "referenceModule",
              "type": "address"
            },
            {
              "internalType": "bytes",
              "name": "referenceModuleInitData",
              "type": "bytes"
            }
          ],
          "internalType": "struct Types.PostParams",
          "name": "postParams",
          "type": "tuple"
        }
      ],
      "name": "post",
      "outputs": [
        {
          "internalType": "uint256",
          "name": "",
          "type": "uint256"
        }
      ],
      "stateMutability": "nonpayable",
      "type": "function"
    },
    {
      "inputs": [
        {
          "components": [
            {
              "internalType": "uint256",
              "name": "profileId",
              "type": "uint256"
            },
            {
              "internalType": "string",
              "name": "contentURI",
              "type": "string"
            },
            {
              "internalType": "address[]",
              "name": "actionModules",
              "type": "address[]"
            },
            {
              "internalType": "bytes[]",
              "name": "actionModulesInitDatas",
              "type": "bytes[]"
            },
            {
              "internalType": "address",
              "name": "referenceModule",
              "type": "address"
            },
            {
              "internalType": "bytes",
              "name": "referenceModuleInitData",
              "type": "bytes"
            }
          ],
          "internalType": "struct Types.PostParams",
          "name": "postParams",
          "type": "tuple"
        },
        {
          "components": [
            {
              "internalType": "address",
              "name": "signer",
              "type": "address"
            },
            {
              "internalType": "uint8",
              "name": "v",
              "type": "uint8"
            },
            {
              "internalType": "bytes32",
              "name": "r",
              "type": "bytes32"
            },
            {
              "internalType": "bytes32",
              "name": "s",
              "type": "bytes32"
            },
            {
              "internalType": "uint256",
              "name": "deadline",
              "type": "uint256"
            }
          ],
          "internalType": "struct Types.EIP712Signature",
          "name": "signature",
          "type": "tuple"
        }
      ],
      "name": "postWithSig",
      "outputs": [
        {
          "internalType": "uint256",
          "name": "",
          "type": "uint256"
        }
      ],
      "stateMutability": "nonpayable",
      "type": "function"
    },
    {
      "inputs": [
        {
          "components": [
            {
              "internalType": "uint256",
              "name": "profileId",
              "type": "uint256"
            },
            {
              "internalType": "string",
              "name": "contentURI",
              "type": "string"
            },
            {
              "internalType": "uint256",
              "name": "pointedProfileId",
              "type": "uint256"
            },
            {
              "internalType": "uint256",
              "name": "pointedPubId",
              "type": "uint256"
            },
            {
              "internalType": "uint256[]",
              "name": "referrerProfileIds",
              "type": "uint256[]"
            },
            {
              "internalType": "uint256[]",
              "name": "referrerPubIds",
              "type": "uint256[]"
            },
            {
              "internalType": "bytes",
              "name": "referenceModuleData",
              "type": "bytes"
            },
            {
              "internalType": "address[]",
              "name": "actionModules",
              "type": "address[]"
            },
            {
              "internalType": "bytes[]",
              "name": "actionModulesInitDatas",
              "type": "bytes[]"
            },
            {
              "internalType": "address",
              "name": "referenceModule",
              "type": "address"
            },
            {
              "internalType": "bytes",
              "name": "referenceModuleInitData",
              "type": "bytes"
            }
          ],
          "internalType": "struct Types.QuoteParams",
          "name": "quoteParams",
          "type": "tuple"
        }
      ],
      "name": "quote",
      "outputs": [
        {
          "internalType": "uint256",
          "name": "",
          "type": "uint256"
        }
      ],
      "stateMutability": "nonpayable",
      "type": "function"
    },
    {
      "inputs": [
        {
          "components": [
            {
              "internalType": "uint256",
              "name": "profileId",
              "type": "uint256"
            },
            {
              "internalType": "string",
              "name": "contentURI",
              "type": "string"
            },
            {
              "internalType": "uint256",
              "name": "pointedProfileId",
              "type": "uint256"
            },
            {
              "internalType": "uint256",
              "name": "pointedPubId",
              "type": "uint256"
            },
            {
              "internalType": "uint256[]",
              "name": "referrerProfileIds",
              "type": "uint256[]"
            },
            {
              "internalType": "uint256[]",
              "name": "referrerPubIds",
              "type": "uint256[]"
            },
            {
              "internalType": "bytes",
              "name": "referenceModuleData",
              "type": "bytes"
            },
            {
              "internalType": "address[]",
              "name": "actionModules",
              "type": "address[]"
            },
            {
              "internalType": "bytes[]",
              "name": "actionModulesInitDatas",
              "type": "bytes[]"
            },
            {
              "internalType": "address",
              "name": "referenceModule",
              "type": "address"
            },
            {
              "internalType": "bytes",
              "name": "referenceModuleInitData",
              "type": "bytes"
            }
          ],
          "internalType": "struct Types.QuoteParams",
          "name": "quoteParams",
          "type": "tuple"
        },
        {
          "components": [
            {
              "internalType": "address",
              "name": "signer",
              "type": "address"
            },
            {
              "internalType": "uint8",
              "name": "v",
              "type": "uint8"
            },
            {
              "internalType": "bytes32",
              "name": "r",
              "type": "bytes32"
            },
            {
              "internalType": "bytes32",
              "name": "s",
              "type": "bytes32"
            },
            {
              "internalType": "uint256",
              "name": "deadline",
              "type": "uint256"
            }
          ],
          "internalType": "struct Types.EIP712Signature",
          "name": "signature",
          "type": "tuple"
        }
      ],
      "name": "quoteWithSig",
      "outputs": [
        {
          "internalType": "uint256",
          "name": "",
          "type": "uint256"
        }
      ],
      "stateMutability": "nonpayable",
      "type": "function"
    },
    {
      "inputs": [
        {
          "internalType": "uint256",
          "name": "tokenId",
          "type": "uint256"
        },
        {
          "internalType": "uint256",
          "name": "salePrice",
          "type": "uint256"
        }
      ],
      "name": "royaltyInfo",
      "outputs": [
        {
          "internalType": "address",
          "name": "",
          "type": "address"
        },
        {
          "internalType": "uint256",
          "name": "",
          "type": "uint256"
        }
      ],
      "stateMutability": "view",
      "type": "function"
    },
    {
      "inputs": [
        {
          "internalType": "address",
          "name": "from",
          "type": "address"
        },
        {
          "internalType": "address",
          "name": "to",
          "type": "address"
        },
        {
          "internalType": "uint256",
          "name": "tokenId",
          "type": "uint256"
        }
      ],
      "name": "safeTransferFrom",
      "outputs": [],
      "stateMutability": "nonpayable",
      "type": "function"
    },
    {
      "inputs": [
        {
          "internalType": "address",
          "name": "from",
          "type": "address"
        },
        {
          "internalType": "address",
          "name": "to",
          "type": "address"
        },
        {
          "internalType": "uint256",
          "name": "tokenId",
          "type": "uint256"
        },
        {
          "internalType": "bytes",
          "name": "_data",
          "type": "bytes"
        }
      ],
      "name": "safeTransferFrom",
      "outputs": [],
      "stateMutability": "nonpayable",
      "type": "function"
    },
    {
      "inputs": [
        {
          "internalType": "address",
          "name": "operator",
          "type": "address"
        },
        {
          "internalType": "bool",
          "name": "approved",
          "type": "bool"
        }
      ],
      "name": "setApprovalForAll",
      "outputs": [],
      "stateMutability": "nonpayable",
      "type": "function"
    },
    {
      "inputs": [
        {
          "internalType": "uint256",
          "name": "byProfileId",
          "type": "uint256"
        },
        {
          "internalType": "uint256[]",
          "name": "idsOfProfilesToSetBlockStatus",
          "type": "uint256[]"
        },
        {
          "internalType": "bool[]",
          "name": "blockStatus",
          "type": "bool[]"
        }
      ],
      "name": "setBlockStatus",
      "outputs": [],
      "stateMutability": "nonpayable",
      "type": "function"
    },
    {
      "inputs": [
        {
          "internalType": "uint256",
          "name": "byProfileId",
          "type": "uint256"
        },
        {
          "internalType": "uint256[]",
          "name": "idsOfProfilesToSetBlockStatus",
          "type": "uint256[]"
        },
        {
          "internalType": "bool[]",
          "name": "blockStatus",
          "type": "bool[]"
        },
        {
          "components": [
            {
              "internalType": "address",
              "name": "signer",
              "type": "address"
            },
            {
              "internalType": "uint8",
              "name": "v",
              "type": "uint8"
            },
            {
              "internalType": "bytes32",
              "name": "r",
              "type": "bytes32"
            },
            {
              "internalType": "bytes32",
              "name": "s",
              "type": "bytes32"
            },
            {
              "internalType": "uint256",
              "name": "deadline",
              "type": "uint256"
            }
          ],
          "internalType": "struct Types.EIP712Signature",
          "name": "signature",
          "type": "tuple"
        }
      ],
      "name": "setBlockStatusWithSig",
      "outputs": [],
      "stateMutability": "nonpayable",
      "type": "function"
    },
    {
      "inputs": [
        {
          "internalType": "address",
          "name": "newEmergencyAdmin",
          "type": "address"
        }
      ],
      "name": "setEmergencyAdmin",
      "outputs": [],
      "stateMutability": "nonpayable",
      "type": "function"
    },
    {
      "inputs": [
        {
          "internalType": "uint256",
          "name": "profileId",
          "type": "uint256"
        },
        {
          "internalType": "address",
          "name": "followModule",
          "type": "address"
        },
        {
          "internalType": "bytes",
          "name": "followModuleInitData",
          "type": "bytes"
        }
      ],
      "name": "setFollowModule",
      "outputs": [],
      "stateMutability": "nonpayable",
      "type": "function"
    },
    {
      "inputs": [
        {
          "internalType": "uint256",
          "name": "profileId",
          "type": "uint256"
        },
        {
          "internalType": "address",
          "name": "followModule",
          "type": "address"
        },
        {
          "internalType": "bytes",
          "name": "followModuleInitData",
          "type": "bytes"
        },
        {
          "components": [
            {
              "internalType": "address",
              "name": "signer",
              "type": "address"
            },
            {
              "internalType": "uint8",
              "name": "v",
              "type": "uint8"
            },
            {
              "internalType": "bytes32",
              "name": "r",
              "type": "bytes32"
            },
            {
              "internalType": "bytes32",
              "name": "s",
              "type": "bytes32"
            },
            {
              "internalType": "uint256",
              "name": "deadline",
              "type": "uint256"
            }
          ],
          "internalType": "struct Types.EIP712Signature",
          "name": "signature",
          "type": "tuple"
        }
      ],
      "name": "setFollowModuleWithSig",
      "outputs": [],
      "stateMutability": "nonpayable",
      "type": "function"
    },
    {
      "inputs": [
        {
          "internalType": "address",
          "name": "newGovernance",
          "type": "address"
        }
      ],
      "name": "setGovernance",
      "outputs": [],
      "stateMutability": "nonpayable",
      "type": "function"
    },
    {
      "inputs": [
        {
          "internalType": "address[]",
          "name": "migrationAdmins",
          "type": "address[]"
        },
        {
          "internalType": "bool",
          "name": "whitelisted",
          "type": "bool"
        }
      ],
      "name": "setMigrationAdmins",
      "outputs": [],
      "stateMutability": "nonpayable",
      "type": "function"
    },
    {
      "inputs": [
        {
          "internalType": "uint256",
          "name": "profileId",
          "type": "uint256"
        },
        {
          "internalType": "string",
          "name": "metadataURI",
          "type": "string"
        }
      ],
      "name": "setProfileMetadataURI",
      "outputs": [],
      "stateMutability": "nonpayable",
      "type": "function"
    },
    {
      "inputs": [
        {
          "internalType": "uint256",
          "name": "profileId",
          "type": "uint256"
        },
        {
          "internalType": "string",
          "name": "metadataURI",
          "type": "string"
        },
        {
          "components": [
            {
              "internalType": "address",
              "name": "signer",
              "type": "address"
            },
            {
              "internalType": "uint8",
              "name": "v",
              "type": "uint8"
            },
            {
              "internalType": "bytes32",
              "name": "r",
              "type": "bytes32"
            },
            {
              "internalType": "bytes32",
              "name": "s",
              "type": "bytes32"
            },
            {
              "internalType": "uint256",
              "name": "deadline",
              "type": "uint256"
            }
          ],
          "internalType": "struct Types.EIP712Signature",
          "name": "signature",
          "type": "tuple"
        }
      ],
      "name": "setProfileMetadataURIWithSig",
      "outputs": [],
      "stateMutability": "nonpayable",
      "type": "function"
    },
    {
      "inputs": [
        {
          "internalType": "uint256",
          "name": "royaltiesInBasisPoints",
          "type": "uint256"
        }
      ],
      "name": "setRoyalty",
      "outputs": [],
      "stateMutability": "nonpayable",
      "type": "function"
    },
    {
      "inputs": [
        {
          "internalType": "enum Types.ProtocolState",
          "name": "newState",
          "type": "uint8"
        }
      ],
      "name": "setState",
      "outputs": [],
      "stateMutability": "nonpayable",
      "type": "function"
    },
    {
      "inputs": [
        {
          "internalType": "address",
          "name": "newTreasury",
          "type": "address"
        }
      ],
      "name": "setTreasury",
      "outputs": [],
      "stateMutability": "nonpayable",
      "type": "function"
    },
    {
      "inputs": [
        {
          "internalType": "uint16",
          "name": "newTreasuryFee",
          "type": "uint16"
        }
      ],
      "name": "setTreasuryFee",
      "outputs": [],
      "stateMutability": "nonpayable",
      "type": "function"
    },
    {
      "inputs": [
        {
          "internalType": "bytes4",
          "name": "interfaceId",
          "type": "bytes4"
        }
      ],
      "name": "supportsInterface",
      "outputs": [
        {
          "internalType": "bool",
          "name": "",
          "type": "bool"
        }
      ],
      "stateMutability": "view",
      "type": "function"
    },
    {
      "inputs": [],
      "name": "symbol",
      "outputs": [
        {
          "internalType": "string",
          "name": "",
          "type": "string"
        }
      ],
      "stateMutability": "view",
      "type": "function"
    },
    {
      "inputs": [
        {
          "internalType": "uint256",
          "name": "tokenId",
          "type": "uint256"
        }
      ],
      "name": "tokenDataOf",
      "outputs": [
        {
          "components": [
            {
              "internalType": "address",
              "name": "owner",
              "type": "address"
            },
            {
              "internalType": "uint96",
              "name": "mintTimestamp",
              "type": "uint96"
            }
          ],
          "internalType": "struct Types.TokenData",
          "name": "",
          "type": "tuple"
        }
      ],
      "stateMutability": "view",
      "type": "function"
    },
    {
      "inputs": [
        {
          "internalType": "uint256",
          "name": "tokenId",
          "type": "uint256"
        }
      ],
      "name": "tokenURI",
      "outputs": [
        {
          "internalType": "string",
          "name": "",
          "type": "string"
        }
      ],
      "stateMutability": "view",
      "type": "function"
    },
    {
      "inputs": [],
      "name": "totalSupply",
      "outputs": [
        {
          "internalType": "uint256",
          "name": "",
          "type": "uint256"
        }
      ],
      "stateMutability": "view",
      "type": "function"
    },
    {
      "inputs": [
        {
          "internalType": "address",
          "name": "from",
          "type": "address"
        },
        {
          "internalType": "address",
          "name": "to",
          "type": "address"
        },
        {
          "internalType": "uint256",
          "name": "tokenId",
          "type": "uint256"
        }
      ],
      "name": "transferFrom",
      "outputs": [],
      "stateMutability": "nonpayable",
      "type": "function"
    },
    {
      "inputs": [
        {
          "internalType": "uint256",
          "name": "unfollowerProfileId",
          "type": "uint256"
        },
        {
          "internalType": "uint256[]",
          "name": "idsOfProfilesToUnfollow",
          "type": "uint256[]"
        }
      ],
      "name": "unfollow",
      "outputs": [],
      "stateMutability": "nonpayable",
      "type": "function"
    },
    {
      "inputs": [
        {
          "internalType": "uint256",
          "name": "unfollowerProfileId",
          "type": "uint256"
        },
        {
          "internalType": "uint256[]",
          "name": "idsOfProfilesToUnfollow",
          "type": "uint256[]"
        },
        {
          "components": [
            {
              "internalType": "address",
              "name": "signer",
              "type": "address"
            },
            {
              "internalType": "uint8",
              "name": "v",
              "type": "uint8"
            },
            {
              "internalType": "bytes32",
              "name": "r",
              "type": "bytes32"
            },
            {
              "internalType": "bytes32",
              "name": "s",
              "type": "bytes32"
            },
            {
              "internalType": "uint256",
              "name": "deadline",
              "type": "uint256"
            }
          ],
          "internalType": "struct Types.EIP712Signature",
          "name": "signature",
          "type": "tuple"
        }
      ],
      "name": "unfollowWithSig",
      "outputs": [],
      "stateMutability": "nonpayable",
      "type": "function"
    },
    {
      "inputs": [
        {
          "internalType": "address",
          "name": "profileCreator",
          "type": "address"
        },
        {
          "internalType": "bool",
          "name": "whitelist",
          "type": "bool"
        }
      ],
      "name": "whitelistProfileCreator",
      "outputs": [],
      "stateMutability": "nonpayable",
      "type": "function"
    }
  ],
  "bytecode": {
    "object": "0x6101a06040523480156200001257600080fd5b506040516200655e3803806200655e8339810160408190526200003591620000a8565b608091825260408101516001600160a01b0390811660a0526060820151811660c05291810151821660e05280518216610100526020015181166101205292831661014052908216610160521661018052620001aa565b80516001600160a01b0381168114620000a357600080fd5b919050565b6000806000806000858703610120811215620000c357600080fd5b620000ce876200008b565b9550620000de602088016200008b565b9450620000ee604088016200008b565b93506060870151925060a0607f19820112156200010a57600080fd5b5060405160a081016001600160401b03811182821017156200013c57634e487b7160e01b600052604160045260246000fd5b6040526200014d608088016200008b565b81526200015d60a088016200008b565b60208201526200017060c088016200008b565b60408201526200018360e088016200008b565b60608201526200019761010088016200008b565b6080820152809150509295509295909350565b60805160a05160c05160e0516101005161012051610140516101605161018051616335620002296000396000610b8c015260006108af015260006105e301526000612318015260006122f6015260006120de015260006120bc0152600061209a01526000818161098301528181610f330152610f7f01526163356000f3fe608060405234801561001057600080fd5b50600436106104195760003560e01c8063809d894711610229578063809d894714610823578063815ed04a1461083657806386e2947b1461084957806386ee73d71461085c5780638c28cc1d146108875780638e15512a1461089a5780638f5c291c146108ad578063907cd7d2146108d357806395d89b41146108e657806397e2adf2146108ee57806398f965d11461091b578063a22cb46514610945578063a652db4914610958578063a72742741461096b578063a88fae831461097e578063ab033ea9146109a5578063ac11641d146109b8578063ae56d75a146109c0578063ae900c00146109d3578063af05dd22146109e6578063b273b4a714610a12578063b42df51a14610a25578063b5a3149614610a38578063b7902e7314610a4b578063b88d4fde14610a5e578063c0da9bcd14610a71578063c1f4b40a14610ab1578063c5d5d96a14610ac4578063c6d4594414610ad7578063c86642c714610aea578063c87b56dd14610afd578063ce30bb4f14610b10578063d575b53914610b23578063d9efd1d114610b36578063e6a402b514610b49578063e72dfde914610b5c578063e985e9c514610b6f578063ed24911d14610b82578063edec795214610b8a578063efe4fd8314610bb0578063f08f4f6414610bc3578063f0ba35f014610be3578063f0f4426014610bf6578063f3bc61f114610c09578063f90604d114610c32578063fb827e8214610c4557600080fd5b806301ffc9a71461041e57806306fdde0314610446578063081812fc1461045b57806308ed395c1461047b578063095ea7b31461049b5780630d8e6e2c146104b057806318160ddd146104d15780631865c57d146104e357806319e14070146104f85780631e9df6731461051857806320905506146105205780632248f76d1461053357806323b872dd1461053b578063289b3c0d1461054e57806328ab6fb41461055657806329070c6d146105695780632a55205a1461058a5780632cf03735146105bc5780633502ac4b146105e157806335da339414610607578063365ae23a1461061a5780633b19e84a1461062d5780634209a2e11461063e57806342842e0e1461065157806342966c68146106645780634727ce3a1461067757806347720ebb1461068a5780634926c4ed1461069d5780634b7312a9146106b05780634bde5ec4146106d05780634d7b35a0146106e35780634f558e79146106f657806350ddf35c1461070957806351c3659c1461071c578063560a4db11461072f57806356de96db146107425780636352211e1461075557806365f29f271461076857806366b0dcd31461077b5780636d0fd6581461078e5780636dea40b3146107a157806370a08231146107b45780637385ebc9146107c75780637e341e1e146107e75780637ecebe00146107fa575b600080fd5b61043161042c366004614497565b610c58565b60405190151581526020015b60405180910390f35b61044e610c78565b60405161043d9190614504565b61046e610469366004614517565b610d0a565b60405161043d919061453d565b61048e610489366004614551565b610d4e565b60405161043d919061459d565b6104ae6104a93660046145cb565b610d61565b005b6040805180820190915260058152640322e302e360dc1b602082015261044e565b6008545b60405190815260200161043d565b6104eb610db1565b60405161043d9190614607565b6104d5610506366004614517565b60009081526012602052604090205490565b6104ae610dc1565b6104ae61052e36600461462e565b610e59565b6104ae610ed9565b6104ae610549366004614667565b610fb7565b61046e610fee565b6104ae6105643660046146a8565b610ff9565b601e54600160a01b900461ffff1660405161ffff909116815260200161043d565b61059d610598366004614551565b611084565b604080516001600160a01b03909316835260208301919091520161043d565b6040517303c5a06d284470dd897bd8e83eb87404224cce0360601b815260200161043d565b7f000000000000000000000000000000000000000000000000000000000000000061046e565b6104ae6106153660046146e1565b6110af565b6104ae61062836600461470f565b611121565b601e546001600160a01b031661046e565b6104ae61064c366004614517565b61115b565b6104ae61065f366004614667565b611170565b6104ae610672366004614517565b61118b565b6104d5610685366004614742565b6111d4565b610431610698366004614551565b61130d565b6104ae6106ab3660046147e3565b61139b565b6106c36106be366004614891565b6114db565b60405161043d9190614934565b6104316106de3660046146a8565b6115b5565b6106c36106f1366004614978565b6115ea565b610431610704366004614517565b611755565b6104d5610717366004614517565b611760565b6104ae61072a366004614a1e565b6117ae565b6104d561073d366004614abc565b61186c565b6104ae610750366004614af6565b61193e565b61046e610763366004614517565b611975565b6104d5610776366004614b2a565b6119ab565b6104d5610789366004614742565b611af4565b6104ae61079c366004614bb9565b611b6f565b6104ae6107af366004614c17565b611cac565b6104d56107c23660046146e1565b611d2b565b6107da6107d5366004614551565b611d70565b60405161043d9190614c72565b6104316107f5366004614d13565b611d82565b6104d56108083660046146e1565b6001600160a01b03166000908152600a602052604090205490565b6104ae610831366004614d38565b611dfd565b6104ae610844366004614d77565b611f02565b6104ae610857366004614dc2565b611fb6565b61086f61086a366004614517565b612049565b6040516001600160401b03909116815260200161043d565b6104ae610895366004614e18565b612067565b6104ae6108a8366004614ec2565b612106565b7f000000000000000000000000000000000000000000000000000000000000000061046e565b6104d56108e1366004614f72565b61216b565b61044e61226a565b6104316108fc366004614551565b6000908152601b60209081526040808320938352929052205460ff1690565b601e54604080516001600160a01b0383168152600160a01b90920461ffff1660208301520161043d565b6104ae61095336600461462e565b612279565b6104ae610966366004614fa7565b6122b2565b6104ae610979366004614e18565b6122c3565b6104d57f000000000000000000000000000000000000000000000000000000000000000081565b6104ae6109b33660046146e1565b612340565b6104ae61237f565b61086f6109ce366004614517565b612543565b6104ae6109e1366004614fcb565b612568565b6104316109f43660046146e1565b6001600160a01b03166000908152600d602052604090205460ff1690565b6104d5610a20366004615044565b6125d6565b6104d5610a33366004614b2a565b612651565b61044e610a46366004614551565b612733565b6104d5610a59366004614f72565b6127b5565b6104ae610a6c36600461509f565b612929565b610a84610a7f366004614517565b612962565b6040805182516001600160a01b031681526020928301516001600160601b0316928101929092520161043d565b6104ae610abf366004615148565b6129db565b61044e610ad23660046151b5565b612a93565b6104ae610ae53660046151e9565b612b65565b61044e610af8366004615273565b612cac565b61044e610b0b366004614517565b612e02565b6104ae610b1e3660046152a8565b612ea2565b61086f610b31366004614517565b612fab565b6104ae610b44366004615148565b612fd0565b6104d5610b57366004615273565b613019565b610431610b6a36600461531a565b613118565b610431610b7d366004615358565b613159565b6104d5613187565b7f000000000000000000000000000000000000000000000000000000000000000061046e565b6104ae610bbe366004615386565b613191565b610bd6610bd1366004614517565b61320e565b60405161043d91906153c4565b6104d5610bf1366004615044565b6134fb565b6104ae610c043660046146e1565b613576565b6104d5610c173660046146e1565b6001600160a01b031660009081526019602052604090205490565b6104d5610c403660046151b5565b613587565b6104ae610c53366004615148565b613602565b6000610c6382613683565b80610c725750610c7282613724565b92915050565b606060008054610c8790615469565b80601f0160208091040260200160405190810160405280929190818152602001828054610cb390615469565b8015610d005780601f10610cd557610100808354040283529160200191610d00565b820191906000526020600020905b815481529060010190602001808311610ce357829003601f168201915b5050505050905090565b6000610d158261375a565b610d325760405163677510db60e11b815260040160405180910390fd5b506000908152600460205260409020546001600160a01b031690565b6000610d5a8383613777565b9392505050565b6001600160a01b03821615801590610d855750610d85610d8082611975565b6137ff565b15610da357604051638043dfaf60e01b815260040160405180910390fd5b610dad8282613859565b5050565b6000610dbc600c5490565b905090565b610dca336138e0565b15610de857604051635d04968b60e11b815260040160405180910390fd5b336000908152601960205260408120549003610e1757604051637952fbad60e11b815260040160405180910390fd5b33600081815260196020908152604080832083905580519283524291830191909152600192916000805160206162e083398151915291015b60405180910390a3565b610e616138ef565b6040516310482a8360e11b81526001600160a01b0383166004820152811515602482015273__$e67970783d2fff8cfeceae35aaa48551ed$__906320905506906044015b60006040518083038186803b158015610ebd57600080fd5b505af4158015610ed1573d6000803e3d6000fd5b505050505050565b610ee2336138e0565b15610f0057604051635d04968b60e11b815260040160405180910390fd5b3360009081526019602052604090205415610f2e5760405163a78da0a160e01b815260040160405180910390fd5b610f587f0000000000000000000000000000000000000000000000000000000000000000426154b3565b336000818152601960205260408120929092556000805160206162e0833981519152610fa47f0000000000000000000000000000000000000000000000000000000000000000426154b3565b6040805191825242602083015201610e4f565b610fc13382613925565b610fde57604051636d8a29e760e11b815260040160405180910390fd5b610fe983838361397c565b505050565b6000610dbc60175490565b6000828152601360205260409020600201546001600160a01b03163381146110345760405163646785d560e11b815260040160405180910390fd5b604080518481526001600160a01b03841660208201524281830152905185917f9bbadc4d29f8416b3b1ed6fe7b42cc3588aaca742ac8c1661b3bb0a4c5ab1673919081900360600190a250505050565b600080611099601e546001600160a01b031690565b6110a38585613a5e565b915091505b9250929050565b6110b76138ef565b604051630d768ce560e21b815273__$e67970783d2fff8cfeceae35aaa48551ed$__906335da3394906110ee90849060040161453d565b60006040518083038186803b15801561110657600080fd5b505af415801561111a573d6000803e3d6000fd5b5050505050565b604051631b2d711d60e11b815260ff8216600482015273__$affd5470c63c13e2c3e361b934752d7fb0$__9063365ae23a906024016110ee565b61116481613a80565b61116d81613a88565b50565b610fe983838360405180602001604052806000815250612929565b6002600c5460028111156111a1576111a1614573565b036111bf576040516313d0ff5960e31b815260040160405180910390fd5b33816111cb8282613ab4565b610fe983613aee565b60006002600c5460028111156111ec576111ec614573565b0361120a576040516313d0ff5960e31b815260040160405180910390fd5b33826040013561121a8282613b6a565b73__$394d02775ae496b474c19626ee6613132f$__632cb637a985336112438860400135611975565b306001600160a01b0316638f5c291c6040518163ffffffff1660e01b8152600401602060405180830381865afa158015611281573d6000803e3d6000fd5b505050506040513d601f19601f820116820180604052508101906112a591906154c6565b6040518563ffffffff1660e01b81526004016112c494939291906155a1565b602060405180830381865af41580156112e1573d6000803e3d6000fd5b505050506040513d601f19601f8201168201806040525081019061130591906155dd565b949350505050565b6000818152601360205260408120600201546001600160a01b031680158015906113055750604051634d71688d60e01b8152600481018590526001600160a01b03821690634d71688d90602401602060405180830381865afa158015611377573d6000803e3d6000fd5b505050506040513d601f19601f8201168201806040525081019061130591906155f6565b6002600c5460028111156113b1576113b1614573565b036113cf576040516313d0ff5960e31b815260040160405180910390fd5b6113dc60208201826146e1565b886113e78282613ab4565b6040516311c43c6760e21b815273__$affd5470c63c13e2c3e361b934752d7fb0$__90634710f19c9061142c9086908e908e908e908e908e908e908e906004016156df565b60006040518083038186803b15801561144457600080fd5b505af4158015611458573d6000803e3d6000fd5b5050604051636b72375560e11b815273__$0415abb8d82f6aa41880dfdfa0816ed74b$__925063d6e46eaa915061149f908d908d908d908d908d908d908d90600401615744565b60006040518083038186803b1580156114b757600080fd5b505af41580156114cb573d6000803e3d6000fd5b5050505050505050505050505050565b60606002600c5460028111156114f3576114f3614573565b03611511576040516313d0ff5960e31b815260040160405180910390fd5b338861151d8282613b6a565b604051637c87ed4760e11b815273__$10dd128643e24017f13c476280069c8fed$__9063f90fda8e90611562908d9033908e908e908e908e908e908e90600401615825565b600060405180830381865af415801561157f573d6000803e3d6000fd5b505050506040513d6000823e601f3d908101601f191682016040526115a79190810190615878565b9a9950505050505050505050565b60006115c18484613b95565b6001600160a01b0383166000908152600891909101602052604090205460ff1690509392505050565b60606002600c54600281111561160257611602614573565b03611620576040516313d0ff5960e31b815260040160405180910390fd5b61162d60208301836146e1565b896116388282613b6a565b6040516361469d8360e11b815273__$affd5470c63c13e2c3e361b934752d7fb0$__9063c28d3b069061167d9087908f908f908f908f908f908f908f90600401615908565b60006040518083038186803b15801561169557600080fd5b505af41580156116a9573d6000803e3d6000fd5b5073__$10dd128643e24017f13c476280069c8fed$__925063f90fda8e91508d90506116d860208801886146e1565b8d8d8d8d8d8d6040518963ffffffff1660e01b8152600401611701989796959493929190615825565b600060405180830381865af415801561171e573d6000803e3d6000fd5b505050506040513d6000823e601f3d908101601f191682016040526117469190810190615878565b9b9a5050505050505050505050565b6000610c728261375a565b600081815260026020526040812054600160a01b90046001600160601b031680820361179f5760405163677510db60e11b815260040160405180910390fd5b6001600160601b031692915050565b6002600c5460028111156117c4576117c4614573565b036117e2576040516313d0ff5960e31b815260040160405180910390fd5b33876117ee8282613ab4565b604051636b72375560e11b815273__$0415abb8d82f6aa41880dfdfa0816ed74b$__9063d6e46eaa90611831908c908c908c908c908c908c908c90600401615744565b60006040518083038186803b15801561184957600080fd5b505af415801561185d573d6000803e3d6000fd5b50505050505050505050505050565b60006002600c54600281111561188457611884614573565b036118a2576040516313d0ff5960e31b815260040160405180910390fd5b6118ab33613bb1565b60168054600101908190556118cc6118c660208501856146e1565b82613bea565b60405163c814e32560e01b815273__$0415abb8d82f6aa41880dfdfa0816ed74b$__9063c814e32590611905908690859060040161595b565b60006040518083038186803b15801561191d57600080fd5b505af4158015611931573d6000803e3d6000fd5b509293505050505b919050565b60405163138ebbc560e31b815273__$e67970783d2fff8cfeceae35aaa48551ed$__90639c75de28906110ee908490600401614607565b6000818152600260205260408120546001600160a01b031680610c725760405163677510db60e11b815260040160405180910390fd5b600080600c5460028111156119c2576119c2614573565b146119e057604051630f392a3b60e31b815260040160405180910390fd5b6119ed60208301836146e1565b83356119f98282613b6a565b6040516321987a0760e21b815273__$affd5470c63c13e2c3e361b934752d7fb0$__90638661e81c90611a329087908990600401615b40565b60006040518083038186803b158015611a4a57600080fd5b505af4158015611a5e573d6000803e3d6000fd5b5073__$4dfb375b377fd725e75e14aec3e5a3b95a$__925063c533aed09150879050611a8d60208801886146e1565b6040518363ffffffff1660e01b8152600401611aaa929190615b60565b602060405180830381865af4158015611ac7573d6000803e3d6000fd5b505050506040513d601f19601f82011682018060405250810190611aeb91906155dd565b95945050505050565b600080600c546002811115611b0b57611b0b614573565b14611b2957604051630f392a3b60e31b815260040160405180910390fd5b338235611b368282613b6a565b604051632ab91fb760e21b815273__$4dfb375b377fd725e75e14aec3e5a3b95a$__9063aae47edc906112c49087903390600401615c43565b6002600c546002811115611b8557611b85614573565b03611ba3576040516313d0ff5960e31b815260040160405180910390fd5b611bb060208201826146e1565b84611bbb8282613b6a565b604051638e51a9eb60e01b815273__$affd5470c63c13e2c3e361b934752d7fb0$__90638e51a9eb90611bf89086908a908a908a90600401615c56565b60006040518083038186803b158015611c1057600080fd5b505af4158015611c24573d6000803e3d6000fd5b5073__$0415abb8d82f6aa41880dfdfa0816ed74b$__925063f67311d791508890508787611c5560208901896146e1565b6040518563ffffffff1660e01b8152600401611c749493929190615c7d565b60006040518083038186803b158015611c8c57600080fd5b505af4158015611ca0573d6000803e3d6000fd5b50505050505050505050565b6002600c546002811115611cc257611cc2614573565b03611ce0576040516313d0ff5960e31b815260040160405180910390fd5b3384611cec8282613b6a565b604051636fea4acf60e11b815273__$0415abb8d82f6aa41880dfdfa0816ed74b$__9063dfd4959e90611c749089908990899089903390600401615cb0565b60006001600160a01b038216611d5457604051630309cb8760e51b815260040160405180910390fd5b506001600160a01b031660009081526003602052604090205490565b611d78614434565b610d5a8383613c97565b604051620781fd60e01b815260009073__$0415abb8d82f6aa41880dfdfa0816ed74b$__90620781fd90611dbc9086908690600401615cee565b602060405180830381865af4158015611dd9573d6000803e3d6000fd5b505050506040513d601f19601f82011682018060405250810190610d5a91906155f6565b6002600c546002811115611e1357611e13614573565b03611e31576040516313d0ff5960e31b815260040160405180910390fd5b611e3e60208201826146e1565b84611e498282613b6a565b604051636a96d4d360e11b815273__$affd5470c63c13e2c3e361b934752d7fb0$__9063d52da9a690611e869086908a908a908a90600401615d05565b60006040518083038186803b158015611e9e57600080fd5b505af4158015611eb2573d6000803e3d6000fd5b5073__$10dd128643e24017f13c476280069c8fed$__925063bdddeb0c9150889050611ee160208701876146e1565b88886040518563ffffffff1660e01b8152600401611c749493929190615d2c565b6002600c546002811115611f1857611f18614573565b03611f36576040516313d0ff5960e31b815260040160405180910390fd5b3383611f428282613b6a565b604051632f777ac360e21b815273__$10dd128643e24017f13c476280069c8fed$__9063bdddeb0c90611f7f908890339089908990600401615d2c565b60006040518083038186803b158015611f9757600080fd5b505af4158015611fab573d6000803e3d6000fd5b505050505050505050565b6000611fc28686613b95565b600501546001600160a01b03169050338114611ff15760405163c6d1651b60e01b815260040160405180910390fd5b604080516001600160a01b03858116825284166020820152428183015290518591879189917f68edb7ec2c37d21b3b72233960b487f2966f4ac82b7430d39f24d1f8d6f99106919081900360600190a4505050505050565b600061205482613df9565b600101546001600160401b031692915050565b60405163709a16e760e11b815273__$7054274042c5c54eed07f36d10d0ec20fb$__9063e1342dce90610ea590859085907f0000000000000000000000000000000000000000000000000000000000000000907f0000000000000000000000000000000000000000000000000000000000000000907f000000000000000000000000000000000000000000000000000000000000000090600401615d57565b61210e6138ef565b60005b8251811015610fe95781601d600085848151811061213157612131615d95565b6020908102919091018101516001600160a01b03168252810191909152604001600020805460ff1916911515919091179055600101612111565b600080600c54600281111561218257612182614573565b146121a057604051630f392a3b60e31b815260040160405180910390fd5b6121ad60208301836146e1565b83356121b98282613b6a565b604051630ac1ffc960e21b815273__$affd5470c63c13e2c3e361b934752d7fb0$__90632b07ff24906121f29087908990600401615dab565b60006040518083038186803b15801561220a57600080fd5b505af415801561221e573d6000803e3d6000fd5b5073__$4dfb375b377fd725e75e14aec3e5a3b95a$__925063aae47edc915087905061224d60208801886146e1565b6040518363ffffffff1660e01b8152600401611aaa929190615c43565b606060018054610c8790615469565b80801561228a575061228a336137ff565b156122a857604051638043dfaf60e01b815260040160405180910390fd5b610dad8282613e0a565b6122ba6138ef565b61116d81613e3e565b6040516318b79fb560e01b815273__$7054274042c5c54eed07f36d10d0ec20fb$__906318b79fb590610ea590859085907f0000000000000000000000000000000000000000000000000000000000000000907f000000000000000000000000000000000000000000000000000000000000000090600401615dcb565b6123486138ef565b60405163ab033ea960e01b815273__$e67970783d2fff8cfeceae35aaa48551ed$__9063ab033ea9906110ee90849060040161453d565b60408051600481526024810182526020810180516001600160e01b03166303e1469160e61b179052905160009130916123b89190615e00565b600060405180830381855af49150503d80600081146123f3576040519150601f19603f3d011682016040523d82523d6000602084013e6123f8565b606091505b5060408051600481526024810182526020810180516001600160e01b0316635c60da1b60e01b17905290519193506000925030916124369190615e00565b600060405180830381855af49150503d8060008114612471576040519150601f19603f3d011682016040523d82523d6000602084013e612476565b606091505b509150508180602001905181019061248e91906154c6565b6001600160a01b0316336001600160a01b0316146124bf576040516313bd2e8360e31b815260040160405180910390fd5b7f1ac53e0fe87e82f3d54f8bb8042dee65a6f997a3a15e75730153b8c546c0d280818060200190518101906124f491906154c6565b60408051808201825260058152640322e302e360dc1b602082015290516125379291907303c5a06d284470dd897bd8e83eb87404224cce0360601b904290615e1c565b60405180910390a15050565b600061254e82613df9565b60010154600160801b90046001600160401b031692915050565b336000908152601d602052604090205460ff1661259857604051631c1b2a3d60e31b815260040160405180910390fd5b604051622ba40360ea1b815273__$7054274042c5c54eed07f36d10d0ec20fb$__9063ae900c0090611f7f9088908890889088908890600401615e5d565b600080600c5460028111156125ed576125ed614573565b1461260b57604051630f392a3b60e31b815260040160405180910390fd5b3382356126188282613b6a565b60405163453a522f60e11b815273__$4dfb375b377fd725e75e14aec3e5a3b95a$__90638a74a45e906112c49087903390600401615b60565b600080600c54600281111561266857612668614573565b1461268657604051630f392a3b60e31b815260040160405180910390fd5b61269360208301836146e1565b833561269f8282613b6a565b6040516307f4a07d60e01b815273__$affd5470c63c13e2c3e361b934752d7fb0$__906307f4a07d906126d89087908990600401615b40565b60006040518083038186803b1580156126f057600080fd5b505af4158015612704573d6000803e3d6000fd5b5073__$4dfb375b377fd725e75e14aec3e5a3b95a$__9250638a74a45e9150879050611a8d60208801886146e1565b604051635ad18a4b60e11b8152600481018390526024810182905260609073__$4dfb375b377fd725e75e14aec3e5a3b95a$__9063b5a3149690604401600060405180830381865af415801561278d573d6000803e3d6000fd5b505050506040513d6000823e601f3d908101601f19168201604052610d5a9190810190615ec6565b60006002600c5460028111156127cd576127cd614573565b036127eb576040516313d0ff5960e31b815260040160405180910390fd5b6127f860208301836146e1565b83604001356128078282613b6a565b604051636dd1225960e01b815273__$affd5470c63c13e2c3e361b934752d7fb0$__90636dd12259906128409087908990600401615f0e565b60006040518083038186803b15801561285857600080fd5b505af415801561286c573d6000803e3d6000fd5b5073__$394d02775ae496b474c19626ee6613132f$__9250632cb637a9915087905061289b60208801886146e1565b6128a88960400135611975565b306001600160a01b0316638f5c291c6040518163ffffffff1660e01b8152600401602060405180830381865afa1580156128e6573d6000803e3d6000fd5b505050506040513d601f19601f8201168201806040525081019061290a91906154c6565b6040518563ffffffff1660e01b8152600401611aaa94939291906155a1565b6129333383613925565b61295057604051636d8a29e760e11b815260040160405180910390fd5b61295c84848484613edb565b50505050565b604080518082019091526000808252602082015261297f8261375a565b61299c5760405163677510db60e11b815260040160405180910390fd5b506000908152600260209081526040918290208251808401909352546001600160a01b0381168352600160a01b90046001600160601b03169082015290565b6002600c5460028111156129f1576129f1614573565b03612a0f576040516313d0ff5960e31b815260040160405180910390fd5b3385612a1b8282613ab4565b6040516360fa5a0560e11b815273__$0415abb8d82f6aa41880dfdfa0816ed74b$__9063c1f4b40a90612a5a908a908a908a908a908a90600401615f2e565b60006040518083038186803b158015612a7257600080fd5b505af4158015612a86573d6000803e3d6000fd5b5050505050505050505050565b60606002600c546002811115612aab57612aab614573565b03612ac9576040516313d0ff5960e31b815260040160405180910390fd5b338260400135612ad98282613b6a565b73__$7ae620b62c5400e97341727eee05a51e1e$__63596fecad8533612b028860400135611975565b6040518463ffffffff1660e01b8152600401612b2093929190615ffa565b600060405180830381865af4158015612b3d573d6000803e3d6000fd5b505050506040513d6000823e601f3d908101601f191682016040526113059190810190615ec6565b6002600c546002811115612b7b57612b7b614573565b03612b99576040516313d0ff5960e31b815260040160405180910390fd5b612ba660208201826146e1565b86612bb18282613b6a565b60405163fd668e4360e01b815273__$affd5470c63c13e2c3e361b934752d7fb0$__9063fd668e4390612bf29086908c908c908c908c908c9060040161602d565b60006040518083038186803b158015612c0a57600080fd5b505af4158015612c1e573d6000803e3d6000fd5b5073__$0415abb8d82f6aa41880dfdfa0816ed74b$__9250631c00f39591508a905089898989612c5160208b018b6146e1565b6040518763ffffffff1660e01b8152600401612c7296959493929190616077565b60006040518083038186803b158015612c8a57600080fd5b505af4158015612c9e573d6000803e3d6000fd5b505050505050505050505050565b60606002600c546002811115612cc457612cc4614573565b03612ce2576040516313d0ff5960e31b815260040160405180910390fd5b612cef60208301836146e1565b8360400135612cfe8282613b6a565b60405163c127a83360e01b815273__$affd5470c63c13e2c3e361b934752d7fb0$__9063c127a83390612d3790879089906004016160c0565b60006040518083038186803b158015612d4f57600080fd5b505af4158015612d63573d6000803e3d6000fd5b5073__$7ae620b62c5400e97341727eee05a51e1e$__925063596fecad9150879050612d9260208801886146e1565b612d9f8960400135611975565b6040518463ffffffff1660e01b8152600401612dbd93929190615ffa565b600060405180830381865af4158015612dda573d6000803e3d6000fd5b505050506040513d6000823e601f3d908101601f19168201604052611aeb9190810190615ec6565b6060612e0d8261375a565b612e2a5760405163677510db60e11b815260040160405180910390fd5b604051633bb3a24d60e01b81526004810183905273__$75baad7a32568987ae64f2aa9b66bf3a04$__90633bb3a24d90602401600060405180830381865af4158015612e7a573d6000803e3d6000fd5b505050506040513d6000823e601f3d908101601f19168201604052610c729190810190615ec6565b6002600c546002811115612eb857612eb8614573565b03612ed6576040516313d0ff5960e31b815260040160405180910390fd5b612ee360208201826146e1565b85612eee8282613b6a565b60405163bfc9012160e01b815273__$affd5470c63c13e2c3e361b934752d7fb0$__9063bfc9012190612f2d9086908b908b908b908b906004016160e0565b60006040518083038186803b158015612f4557600080fd5b505af4158015612f59573d6000803e3d6000fd5b5073__$0415abb8d82f6aa41880dfdfa0816ed74b$__925063dfd4959e9150899050888888612f8b60208a018a6146e1565b6040518663ffffffff1660e01b8152600401612a5a959493929190615cb0565b6000612fb682613df9565b60010154600160401b90046001600160401b031692915050565b612fda3386613b6a565b60405163d9efd1d160e01b815273__$7054274042c5c54eed07f36d10d0ec20fb$__9063d9efd1d190611f7f9088908890889088908890600401616119565b600080600c54600281111561303057613030614573565b1461304e57604051630f392a3b60e31b815260040160405180910390fd5b61305b60208301836146e1565b83356130678282613b6a565b604051638989384f60e01b815273__$affd5470c63c13e2c3e361b934752d7fb0$__90638989384f906130a090879089906004016161da565b60006040518083038186803b1580156130b857600080fd5b505af41580156130cc573d6000803e3d6000fd5b5073__$4dfb375b377fd725e75e14aec3e5a3b95a$__9250633c20a73091508790506130fb60208801886146e1565b6040518363ffffffff1660e01b8152600401611aaa9291906161fa565b600061312384613df9565b6001600160401b0383166000908152602091825260408082206001600160a01b0387168352909252205460ff1690509392505050565b6001600160a01b03918216600090815260056020908152604080832093909416825291909152205460ff1690565b6000610dbc613f0f565b6002600c5460028111156131a7576131a7614573565b036131c5576040516313d0ff5960e31b815260040160405180910390fd5b33836131d18282613b6a565b60405163f67311d760e01b815273__$0415abb8d82f6aa41880dfdfa0816ed74b$__9063f67311d790611f7f908890889088903390600401615c7d565b6132606040518060e001604052806000815260200160006001600160a01b0316815260200160006001600160a01b03168152602001606081526020016060815260200160608152602001606081525090565b600082815260136020908152604091829020825160e0810184528154815260018201546001600160a01b03908116938201939093526002820154909216928201929092526003820180549192916060840191906132bc90615469565b80601f01602080910402602001604051908101604052809291908181526020018280546132e890615469565b80156133355780601f1061330a57610100808354040283529160200191613335565b820191906000526020600020905b81548152906001019060200180831161331857829003601f168201915b5050505050815260200160048201805461334e90615469565b80601f016020809104026020016040519081016040528092919081815260200182805461337a90615469565b80156133c75780601f1061339c576101008083540402835291602001916133c7565b820191906000526020600020905b8154815290600101906020018083116133aa57829003601f168201915b505050505081526020016005820180546133e090615469565b80601f016020809104026020016040519081016040528092919081815260200182805461340c90615469565b80156134595780601f1061342e57610100808354040283529160200191613459565b820191906000526020600020905b81548152906001019060200180831161343c57829003601f168201915b5050505050815260200160068201805461347290615469565b80601f016020809104026020016040519081016040528092919081815260200182805461349e90615469565b80156134eb5780601f106134c0576101008083540402835291602001916134eb565b820191906000526020600020905b8154815290600101906020018083116134ce57829003601f168201915b5050505050815250509050919050565b600080600c54600281111561351257613512614573565b1461353057604051630f392a3b60e31b815260040160405180910390fd5b33823561353d8282613b6a565b604051630c533aed60e41b815273__$4dfb375b377fd725e75e14aec3e5a3b95a$__9063c533aed0906112c49087903390600401615b60565b61357e6138ef565b61116d81614063565b600080600c54600281111561359e5761359e614573565b146135bc57604051630f392a3b60e31b815260040160405180910390fd5b3382356135c98282613b6a565b6040516303c20a7360e41b815273__$4dfb375b377fd725e75e14aec3e5a3b95a$__90633c20a730906112c490879033906004016161fa565b6002600c54600281111561361857613618614573565b03613636576040516313d0ff5960e31b815260040160405180910390fd5b33856136428282613b6a565b604051631c00f39560e01b815273__$0415abb8d82f6aa41880dfdfa0816ed74b$__90631c00f39590612a5a908a908a908a908a908a903390600401616077565b60006001600160e01b031982166380ac58cd60e01b14806136b457506001600160e01b0319821663c744eb3560e01b145b806136cf57506001600160e01b03198216630852cd8d60e31b145b806136ea57506001600160e01b031982166393ea2f1d60e01b145b8061370557506001600160e01b03198216635b5e139f60e01b145b80610c7257506301ffc9a760e01b6001600160e01b0319831614610c72565b60006001600160e01b0319821663152a902d60e11b1480610c7257506001600160e01b031982166301ffc9a760e01b1492915050565b6000908152600260205260409020546001600160a01b0316151590565b6000806137848484613b95565b6005810154909150600160a01b900460ff168060048111156137a8576137a8614573565b60ff16600003611305578154156137e15760048201546001600160a01b03166137d657600392505050610c72565b600292505050610c72565b60048201546001600160a01b03161561130557600192505050610c72565b6000613813826001600160a01b03166138e0565b158015610c7257506001600160a01b0382166000908152601960205260409020541580610c725750506001600160a01b0316600090815260196020526040902054421090565b600061386482611975565b9050806001600160a01b0316836001600160a01b03160361389857604051630309cb8760e51b815260040160405180910390fd5b336001600160a01b038216148015906138b857506138b68133613159565b155b156138d657604051636d8a29e760e11b815260040160405180910390fd5b610fe983836140de565b6001600160a01b03163b151590565b6017546001600160a01b0316336001600160a01b03161461392357604051632d5be4cb60e21b815260040160405180910390fd5b565b60008061393183611975565b9050806001600160a01b0316846001600160a01b0316148061396c5750836001600160a01b031661396184610d0a565b6001600160a01b0316145b8061130557506113058185613159565b826001600160a01b031661398f82611975565b6001600160a01b0316146139b6576040516349e27cff60e01b815260040160405180910390fd5b6001600160a01b0382166139dd57604051630309cb8760e51b815260040160405180910390fd5b6139e883838361414c565b6139f36000826140de565b6001600160a01b038084166000818152600360209081526040808320805460001901905593861680835284832080546001019055858352600290915283822080546001600160a01b031916821790559251849392916000805160206162c083398151915291a4505050565b6000612710613a6c601c5490565b613a76908461620d565b610d5a919061623a565b61116d6138ef565b612710811115613aab57604051630309cb8760e51b815260040160405180910390fd5b61116d81601c55565b613abd81611975565b6001600160a01b0316826001600160a01b031614610dad5760405163f194fae560e01b815260040160405180910390fd5b6000613af982611975565b9050613b078160008461414c565b613b126000836140de565b6001600160a01b038116600081815260036020908152604080832080546000199081019091556008805490910190558583526002909152808220829055518492906000805160206162c0833981519152908390a45050565b613b7381611975565b6001600160a01b0316826001600160a01b031614610dad57610dad8282614231565b6000918252601460209081526040808420909152908252902090565b6001600160a01b0381166000908152600d602052604090205460ff1661116d57604051630b094f2760e31b815260040160405180910390fd5b6001600160a01b0382161580613c045750613c048161375a565b15613c2257604051630309cb8760e51b815260040160405180910390fd5b613c2e6000838361414c565b6001600160a01b03821660008181526003602090815260408083208054600190810190915560088054909101905584835260029091528082206001600160601b034216600160a01b028417905551839291906000805160206162c0833981519152908290a45050565b613c9f614434565b600083600052601460205260406000206020528260005260406000209050613cc5614434565b81604051806101200160405290816000820154815260200160018201548152602001600282018054613cf690615469565b80601f0160208091040260200160405190810160405280929190818152602001828054613d2290615469565b8015613d6f5780601f10613d4457610100808354040283529160200191613d6f565b820191906000526020600020905b815481529060010190602001808311613d5257829003601f168201915b505050918352505060038201546001600160a01b0390811660208301526004808401548216604084015260058401549182166060840152608090920191600160a01b90910460ff1690811115613dc757613dc7614573565b6004811115613dd857613dd8614573565b81526006820154602082015260079091015460409091015295945050505050565b6000908152601a6020526040902090565b336001600160a01b03831603613e3357604051630309cb8760e51b815260040160405180910390fd5b610dad3383836142c6565b613e4b600261271061624e565b61ffff168161ffff1610613e72576040516348be0eb360e01b815260040160405180910390fd5b6000601e805461ffff848116600160a01b81810261ffff60a01b198516178555604051949550909204169182907f6076e665d0cd29a9fb0391c62a1c3c1c6d18531bf470fce88abbc7f33b855f7f90613ece9042815260200190565b60405180910390a3505050565b613ee684848461397c565b613ef28484848461432b565b61295c576040516342eac10f60e11b815260040160405180910390fd5b60003073db46d1dc155634fbc732f92e853b10b288ad5a1d148015613f345750608946145b15613f5e57507fbf9544cf7d7a0338fc4f071be35409a61e51e9caef559305410ad74e16a05f2d90565b7f8b73c3c69bb8fe3d512ecc4cf759cc79239f7b179b0ffacaa9a75d522b39400f306001600160a01b03166306fdde036040518163ffffffff1660e01b8152600401600060405180830381865afa158015613fbd573d6000803e3d6000fd5b505050506040513d6000823e601f3d908101601f19168201604052613fe59190810190615ec6565b805160209182012060408051808201825260018152601960f91b90840152805192830193909352918101919091527fad7c5bef027816a800da1736444fb58a807ef4c9603b7848673f7e3a68eb14a560608201524660808201523060a082015260c00160405160208183030381529060405280519060200120905090565b6001600160a01b03811661408a576040516348be0eb360e01b815260040160405180910390fd5b601e80546001600160a01b031981166001600160a01b03848116918217845560405142815292169182907f8df20312a19939ae72e29e4500356a05238ef5e6794a3323c184d97bb615d4fe90602001613ece565b600081815260046020526040902080546001600160a01b0319166001600160a01b038416908117909155819061411382611975565b6001600160a01b03167f8c5be1e5ebec7d5bd14f71427d1e84f3dd0314c0f7b2291e5b200ac8c7c3b92560405160405180910390a45050565b6002600c54600281111561416257614162614573565b03614180576040516313d0ff5960e31b815260040160405180910390fd5b6001600160a01b0383161580159061419c575061419c836137ff565b156141ba57604051638043dfaf60e01b815260040160405180910390fd5b6001600160a01b03831615610fe957604051630979d3fb60e11b81526004810182905273__$0415abb8d82f6aa41880dfdfa0816ed74b$__906312f3a7f69060240160006040518083038186803b15801561421457600080fd5b505af4158015614228573d6000803e3d6000fd5b50505050505050565b604051620781fd60e01b815273__$0415abb8d82f6aa41880dfdfa0816ed74b$__90620781fd906142689084908690600401615cee565b602060405180830381865af4158015614285573d6000803e3d6000fd5b505050506040513d601f19601f820116820180604052508101906142a991906155f6565b610dad57604051631a29be6960e21b815260040160405180910390fd5b6001600160a01b03838116600081815260056020908152604080832094871680845294825291829020805460ff191686151590811790915591519182527f17307eab39ab6107e8899845ad3d59bd9653f200f220920489ca2b5937696c319101613ece565b600061433f846001600160a01b03166138e0565b1561442957604051630a85bd0160e11b81526001600160a01b0385169063150b7a029061437690339089908890889060040161626f565b6020604051808303816000875af19250505080156143b1575060408051601f3d908101601f191682019092526143ae918101906162a2565b60015b61440f573d8080156143df576040519150601f19603f3d011682016040523d82523d6000602084013e6143e4565b606091505b508051600003614407576040516342eac10f60e11b815260040160405180910390fd5b805181602001fd5b6001600160e01b031916630a85bd0160e11b149050611305565b506001949350505050565b604080516101208101825260008082526020820181905260609282018390529181018290526080810182905260a081018290529060c0820190815260200160008152602001600081525090565b6001600160e01b03198116811461116d57600080fd5b6000602082840312156144a957600080fd5b8135610d5a81614481565b60005b838110156144cf5781810151838201526020016144b7565b50506000910152565b600081518084526144f08160208601602086016144b4565b601f01601f19169290920160200192915050565b602081526000610d5a60208301846144d8565b60006020828403121561452957600080fd5b5035919050565b6001600160a01b03169052565b6001600160a01b0391909116815260200190565b6000806040838503121561456457600080fd5b50508035926020909101359150565b634e487b7160e01b600052602160045260246000fd5b6005811061459957614599614573565b9052565b60208101610c728284614589565b6001600160a01b038116811461116d57600080fd5b8035611939816145ab565b600080604083850312156145de57600080fd5b82356145e9816145ab565b946020939093013593505050565b6003811061459957614599614573565b60208101610c7282846145f7565b801515811461116d57600080fd5b803561193981614615565b6000806040838503121561464157600080fd5b823561464c816145ab565b9150602083013561465c81614615565b809150509250929050565b60008060006060848603121561467c57600080fd5b8335614687816145ab565b92506020840135614697816145ab565b929592945050506040919091013590565b6000806000606084860312156146bd57600080fd5b833592506020840135915060408401356146d6816145ab565b809150509250925092565b6000602082840312156146f357600080fd5b8135610d5a816145ab565b803560ff8116811461193957600080fd5b60006020828403121561472157600080fd5b610d5a826146fe565b600060c0828403121561473c57600080fd5b50919050565b60006020828403121561475457600080fd5b81356001600160401b0381111561476a57600080fd5b6113058482850161472a565b60008083601f84011261478857600080fd5b5081356001600160401b0381111561479f57600080fd5b6020830191508360208260051b85010111156110a857600080fd5b80356001600160401b038116811461193957600080fd5b600060a0828403121561473c57600080fd5b600080600080600080600080610140898b03121561480057600080fd5b8835975060208901356001600160401b038082111561481e57600080fd5b61482a8c838d01614776565b909950975060408b013591508082111561484357600080fd5b506148508b828c01614776565b9096509450614863905060608a016147ba565b9250608089013561487381614615565b91506148828a60a08b016147d1565b90509295985092959890939650565b60008060008060008060006080888a0312156148ac57600080fd5b8735965060208801356001600160401b03808211156148ca57600080fd5b6148d68b838c01614776565b909850965060408a01359150808211156148ef57600080fd5b6148fb8b838c01614776565b909650945060608a013591508082111561491457600080fd5b506149218a828b01614776565b989b979a50959850939692959293505050565b6020808252825182820181905260009190848201906040850190845b8181101561496c57835183529284019291840191600101614950565b50909695505050505050565b600080600080600080600080610120898b03121561499557600080fd5b8835975060208901356001600160401b03808211156149b357600080fd5b6149bf8c838d01614776565b909950975060408b01359150808211156149d857600080fd5b6149e48c838d01614776565b909750955060608b01359150808211156149fd57600080fd5b50614a0a8b828c01614776565b909450925061488290508a60808b016147d1565b600080600080600080600060a0888a031215614a3957600080fd5b8735965060208801356001600160401b0380821115614a5757600080fd5b614a638b838c01614776565b909850965060408a0135915080821115614a7c57600080fd5b50614a898a828b01614776565b9095509350614a9c9050606089016147ba565b91506080880135614aac81614615565b8091505092959891949750929550565b600060208284031215614ace57600080fd5b81356001600160401b03811115614ae457600080fd5b820160608185031215610d5a57600080fd5b600060208284031215614b0857600080fd5b813560038110610d5a57600080fd5b6000610160828403121561473c57600080fd5b60008060c08385031215614b3d57600080fd5b82356001600160401b03811115614b5357600080fd5b614b5f85828601614b17565b925050614b6f84602085016147d1565b90509250929050565b60008083601f840112614b8a57600080fd5b5081356001600160401b03811115614ba157600080fd5b6020830191508360208285010111156110a857600080fd5b60008060008060e08587031215614bcf57600080fd5b8435935060208501356001600160401b03811115614bec57600080fd5b614bf887828801614b78565b9094509250614c0c905086604087016147d1565b905092959194509250565b60008060008060608587031215614c2d57600080fd5b843593506020850135614c3f816145ab565b925060408501356001600160401b03811115614c5a57600080fd5b614c6687828801614b78565b95989497509550505050565b60208152815160208201526020820151604082015260006040830151610120806060850152614ca56101408501836144d8565b91506060850151614cb96080860182614530565b506080850151614ccc60a0860182614530565b5060a0850151614cdf60c0860182614530565b5060c0850151614cf260e0860182614589565b5060e085015161010085810191909152909401519390920192909252919050565b60008060408385031215614d2657600080fd5b82359150602083013561465c816145ab565b60008060008060e08587031215614d4e57600080fd5b8435935060208501356001600160401b03811115614d6b57600080fd5b614bf887828801614776565b600080600060408486031215614d8c57600080fd5b8335925060208401356001600160401b03811115614da957600080fd5b614db586828701614776565b9497909650939450505050565b600080600080600060a08688031215614dda57600080fd5b8535945060208601359350604086013592506060860135614dfa816145ab565b91506080860135614e0a816145ab565b809150509295509295909350565b60008060208385031215614e2b57600080fd5b82356001600160401b03811115614e4157600080fd5b614e4d85828601614776565b90969095509350505050565b634e487b7160e01b600052604160045260246000fd5b604051601f8201601f191681016001600160401b0381118282101715614e9757614e97614e59565b604052919050565b60006001600160401b03821115614eb857614eb8614e59565b5060051b60200190565b60008060408385031215614ed557600080fd5b82356001600160401b03811115614eeb57600080fd5b8301601f81018513614efc57600080fd5b80356020614f11614f0c83614e9f565b614e6f565b82815260059290921b83018101918181019088841115614f3057600080fd5b938201935b83851015614f57578435614f48816145ab565b82529382019390820190614f35565b9550614f669050868201614623565b93505050509250929050565b60008060c08385031215614f8557600080fd5b82356001600160401b03811115614f9b57600080fd5b614b5f8582860161472a565b600060208284031215614fb957600080fd5b813561ffff81168114610d5a57600080fd5b600080600080600060608688031215614fe357600080fd5b85356001600160401b0380821115614ffa57600080fd5b61500689838a01614776565b909750955060208801359450604088013591508082111561502657600080fd5b5061503388828901614776565b969995985093965092949392505050565b60006020828403121561505657600080fd5b81356001600160401b0381111561506c57600080fd5b61130584828501614b17565b60006001600160401b0382111561509157615091614e59565b50601f01601f191660200190565b600080600080608085870312156150b557600080fd5b84356150c0816145ab565b935060208501356150d0816145ab565b92506040850135915060608501356001600160401b038111156150f257600080fd5b8501601f8101871361510357600080fd5b8035615111614f0c82615078565b81815288602083850101111561512657600080fd5b8160208401602083013760006020838301015280935050505092959194509250565b60008060008060006060868803121561516057600080fd5b8535945060208601356001600160401b038082111561517e57600080fd5b61518a89838a01614776565b9096509450604088013591508082111561502657600080fd5b600060e0828403121561473c57600080fd5b6000602082840312156151c757600080fd5b81356001600160401b038111156151dd57600080fd5b611305848285016151a3565b600080600080600080610100878903121561520357600080fd5b8635955060208701356001600160401b038082111561522157600080fd5b61522d8a838b01614776565b9097509550604089013591508082111561524657600080fd5b5061525389828a01614776565b9094509250615267905088606089016147d1565b90509295509295509295565b60008060c0838503121561528657600080fd5b82356001600160401b0381111561529c57600080fd5b614b5f858286016151a3565b600080600080600061010086880312156152c157600080fd5b8535945060208601356152d3816145ab565b935060408601356001600160401b038111156152ee57600080fd5b6152fa88828901614b78565b909450925061530e905087606088016147d1565b90509295509295909350565b60008060006060848603121561532f57600080fd5b833592506020840135615341816145ab565b915061534f604085016147ba565b90509250925092565b6000806040838503121561536b57600080fd5b8235615376816145ab565b9150602083013561465c816145ab565b60008060006040848603121561539b57600080fd5b8335925060208401356001600160401b038111156153b857600080fd5b614db586828701614b78565b602081528151602082015260018060a01b036020830151166040820152600060408301516153f56060840182614530565b50606083015160e060808401526154106101008401826144d8565b90506080840151601f19808584030160a086015261542e83836144d8565b925060a08601519150808584030160c086015261544b83836144d8565b925060c08601519150808584030160e086015250611aeb82826144d8565b600181811c9082168061547d57607f821691505b60208210810361473c57634e487b7160e01b600052602260045260246000fd5b634e487b7160e01b600052601160045260246000fd5b80820180821115610c7257610c7261549d565b6000602082840312156154d857600080fd5b8151610d5a816145ab565b6000808335601e198436030181126154fa57600080fd5b83016020810192503590506001600160401b0381111561551957600080fd5b8036038213156110a857600080fd5b81835281816020850137506000828201602090810191909152601f909101601f19169091010190565b8035825260208101356020830152604081013560408301526060810135606083015260808101356080830152600061558c60a08301836154e3565b60c060a0860152611aeb60c086018284615528565b6080815260006155b46080830187615551565b6001600160a01b0395861660208401529385166040830152509216606090920191909152919050565b6000602082840312156155ef57600080fd5b5051919050565b60006020828403121561560857600080fd5b8151610d5a81614615565b803561561e816145ab565b6001600160a01b0316825260ff615637602083016146fe565b1660208301526040810135604083015260608101356060830152608081013560808301525050565b8183526000602080850194508260005b8581101561569d578135615682816145ab565b6001600160a01b03168752958201959082019060010161566f565b509495945050505050565b8183526000602080850194508260005b8581101561569d5781356156cb81614615565b1515875295820195908201906001016156b8565b60006101406156ee838c615613565b8960a08401528060c0840152615707818401898b61565f565b905082810360e084015261571c8187896156a8565b6001600160401b03959095166101008401525050901515610120909101529695505050505050565b87815260a06020820152600061575e60a08301888a61565f565b82810360408401526157718187896156a8565b6001600160401b03959095166060840152505090151560809091015295945050505050565b81835260006001600160fb1b038311156157af57600080fd5b8260051b80836020870137939093016020019392505050565b81835260006020808501808196508560051b810191508460005b878110156158185782840389526157f982886154e3565b615804868284615528565b9a87019a95505050908401906001016157e2565b5091979650505050505050565b8881526001600160a01b038816602082015260a060408201819052600090615850908301888a615796565b8281036060840152615863818789615796565b905082810360808401526117468185876157c8565b6000602080838503121561588b57600080fd5b82516001600160401b038111156158a157600080fd5b8301601f810185136158b257600080fd5b80516158c0614f0c82614e9f565b81815260059190911b820183019083810190878311156158df57600080fd5b928401925b828410156158fd578351825292840192908401906158e4565b979650505050505050565b6000610120615917838c615613565b8960a08401528060c0840152615930818401898b615796565b905082810360e0840152615945818789615796565b90508281036101008401526117468185876157c8565b604081526000833561596c816145ab565b6001600160a01b03908116604084015260208501359061598b826145ab565b16606083015261599e60408501856154e3565b606060808501526159b360a085018284615528565b925050508260208301529392505050565b6000808335601e198436030181126159db57600080fd5b83016020810192503590506001600160401b038111156159fa57600080fd5b8060051b36038213156110a857600080fd5b600061016082358452615a2260208401846154e3565b826020870152615a358387018284615528565b925050506040830135604085015260608301356060850152615a5a60808401846159c4565b8583036080870152615a6d838284615796565b92505050615a7e60a08401846159c4565b85830360a0870152615a91838284615796565b92505050615aa260c08401846154e3565b85830360c0870152615ab5838284615528565b92505050615ac660e08401846159c4565b85830360e0870152615ad983828461565f565b92505050610100615aec818501856159c4565b86840383880152615afe8482846157c8565b9350505050610120615b118185016145c0565b615b1d82870182614530565b5050610140615b2e818501856154e3565b868403838801526158fd848284615528565b615b4a8184615613565b60c060a0820152600061130560c0830184615a0c565b604081526000615b736040830185615a0c565b905060018060a01b03831660208301529392505050565b803582526000615b9d60208301836154e3565b60c06020860152615bb260c086018284615528565b915050615bc260408401846159c4565b8583036040870152615bd583828461565f565b92505050615be660608401846159c4565b8583036060870152615bf98382846157c8565b925050506080830135615c0b816145ab565b6001600160a01b03166080850152615c2660a08401846154e3565b85830360a0870152615c39838284615528565b9695505050505050565b604081526000615b736040830185615b8a565b615c608186615613565b8360a082015260e060c08201526000615c3960e083018486615528565b848152606060208201526000615c97606083018587615528565b905060018060a01b038316604083015295945050505050565b858152600060018060a01b03808716602084015260806040840152615cd9608084018688615528565b91508084166060840152509695505050505050565b9182526001600160a01b0316602082015260400190565b615d0f8186615613565b8360a082015260e060c08201526000615c3960e083018486615796565b8481526001600160a01b0384166020820152606060408201819052600090615c399083018486615796565b608081526000615d6b608083018789615796565b6001600160a01b039586166020840152938516604083015250921660609092019190915292915050565b634e487b7160e01b600052603260045260246000fd5b615db58184615613565b60c060a0820152600061130560c0830184615b8a565b606081526000615ddf606083018688615796565b6001600160a01b039485166020840152929093166040909101529392505050565b60008251615e128184602087016144b4565b9190910192915050565b6001600160a01b0385168152608060208201819052600090615e40908301866144d8565b6001600160601b0319949094166040830152506060015292915050565b606081526000615e71606083018789615796565b8560208401528281036040840152615e8a818587615796565b98975050505050505050565b6000615ea4614f0c84615078565b9050828152838383011115615eb857600080fd5b610d5a8360208301846144b4565b600060208284031215615ed857600080fd5b81516001600160401b03811115615eee57600080fd5b8201601f81018413615eff57600080fd5b61130584825160208401615e96565b615f188184615613565b60c060a0820152600061130560c0830184615551565b858152606060208201526000615f4860608301868861565f565b8281036040840152615e8a8185876156a8565b8035825260208101356020830152604081013560408301526000615f8260608301836159c4565b60e06060860152615f9760e086018284615796565b915050615fa760808401846159c4565b8583036080870152615fba838284615796565b9250505060a0830135615fcc816145ab565b6001600160a01b031660a0850152615fe760c08401846154e3565b85830360c0870152615c39838284615528565b60608152600061600d6060830186615f5b565b6001600160a01b0394851660208401529290931660409091015292915050565b600061010061603c838a615613565b8760a08401528060c08401526160558184018789615796565b905082810360e084015261606a8185876156a8565b9998505050505050505050565b868152608060208201526000616091608083018789615796565b82810360408401526160a48186886156a8565b91505060018060a01b0383166060830152979650505050505050565b6160ca8184615613565b60c060a0820152600061130560c0830184615f5b565b60006101006160ef8389615613565b60a083018790526001600160a01b03861660c084015260e08301819052615e8a8184018587615528565b858152606060208201526000616133606083018688615796565b8281036040840152615e8a818587615796565b80358252600061615960208301836154e3565b60e0602086015261616e60e086018284615528565b915050604083013560408501526060830135606085015261619260808401846159c4565b85830360808701526161a5838284615796565b925050506161b660a08401846159c4565b85830360a08701526161c9838284615796565b92505050615fe760c08401846154e3565b6161e48184615613565b60c060a0820152600061130560c0830184616146565b604081526000615b736040830185616146565b8082028115828204841417610c7257610c7261549d565b634e487b7160e01b600052601260045260246000fd5b60008261624957616249616224565b500490565b600061ffff8084168061626357616263616224565b92169190910492915050565b6001600160a01b0385811682528416602082015260408101839052608060608201819052600090615c39908301846144d8565b6000602082840312156162b457600080fd5b8151610d5a8161448156feddf252ad1be2c89b69c2b068fc378daa952ba7f163c4a11628f55a4df523b3ef035adf3bbe16b317cf4a3e05c966ea6571d1af00147c5f121bd1514b1e322a06a26469706673582212203e2799adbeb33efa87b0f57e9df1274a1a6e179ea5a1198610b4bf7a8545dc0e64736f6c63430008150033",
    "linkReferences": {
      "contracts/libraries/ActionLib.sol": {
        "ActionLib": [
          {
            "start": 11524,
            "length": 20
          },
          {
            "start": 12175,
            "length": 20
          }
        ]
      },
      "contracts/libraries/FollowLib.sol": {
        "FollowLib": [
          {
            "start": 5973,
            "length": 20
          },
          {
            "start": 6357,
            "length": 20
          },
          {
            "start": 8414,
            "length": 20
          },
          {
            "start": 8570,
            "length": 20
          }
        ]
      },
      "contracts/libraries/GovernanceLib.sol": {
        "GovernanceLib": [
          {
            "start": 4272,
            "length": 20
          },
          {
            "start": 4847,
            "length": 20
          },
          {
            "start": 7030,
            "length": 20
          },
          {
            "start": 9600,
            "length": 20
          }
        ]
      },
      "contracts/libraries/LegacyCollectLib.sol": {
        "LegacyCollectLib": [
          {
            "start": 5189,
            "length": 20
          },
          {
            "start": 10904,
            "length": 20
          }
        ]
      },
      "contracts/libraries/MetaTxLib.sol": {
        "MetaTxLib": [
          {
            "start": 4962,
            "length": 20
          },
          {
            "start": 5663,
            "length": 20
          },
          {
            "start": 6256,
            "length": 20
          },
          {
            "start": 7217,
            "length": 20
          },
          {
            "start": 7667,
            "length": 20
          },
          {
            "start": 8321,
            "length": 20
          },
          {
            "start": 9201,
            "length": 20
          },
          {
            "start": 10455,
            "length": 20
          },
          {
            "start": 10815,
            "length": 20
          },
          {
            "start": 11753,
            "length": 20
          },
          {
            "start": 12086,
            "length": 20
          },
          {
            "start": 12582,
            "length": 20
          },
          {
            "start": 12959,
            "length": 20
          }
        ]
      },
      "contracts/libraries/MigrationLib.sol": {
        "MigrationLib": [
          {
            "start": 8863,
            "length": 20
          },
          {
            "start": 9467,
            "length": 20
          },
          {
            "start": 10191,
            "length": 20
          },
          {
            "start": 12818,
            "length": 20
          }
        ]
      },
      "contracts/libraries/ProfileLib.sol": {
        "ProfileLib": [
          {
            "start": 5778,
            "length": 20
          },
          {
            "start": 6694,
            "length": 20
          },
          {
            "start": 6916,
            "length": 20
          },
          {
            "start": 7760,
            "length": 20
          },
          {
            "start": 7972,
            "length": 20
          },
          {
            "start": 8124,
            "length": 20
          },
          {
            "start": 11347,
            "length": 20
          },
          {
            "start": 11850,
            "length": 20
          },
          {
            "start": 12677,
            "length": 20
          },
          {
            "start": 13321,
            "length": 20
          },
          {
            "start": 14458,
            "length": 20
          },
          {
            "start": 17416,
            "length": 20
          },
          {
            "start": 17512,
            "length": 20
          }
        ]
      },
      "contracts/libraries/PublicationLib.sol": {
        "PublicationLib": [
          {
            "start": 7306,
            "length": 20
          },
          {
            "start": 7534,
            "length": 20
          },
          {
            "start": 9290,
            "length": 20
          },
          {
            "start": 10320,
            "length": 20
          },
          {
            "start": 10544,
            "length": 20
          },
          {
            "start": 10620,
            "length": 20
          },
          {
            "start": 13048,
            "length": 20
          },
          {
            "start": 14197,
            "length": 20
          },
          {
            "start": 14337,
            "length": 20
          }
        ]
      },
      "contracts/libraries/token-uris/ProfileTokenURILib.sol": {
        "ProfileTokenURILib": [
          {
            "start": 12393,
            "length": 20
          }
        ]
      }
    }
  },
  "methodIdentifiers": {
    "DANGER__disableTokenGuardian()": "2248f76d",
    "TOKEN_GUARDIAN_COOLDOWN()": "a88fae83",
    "act((uint256,uint256,uint256,uint256[],uint256[],address,bytes))": "c5d5d96a",
    "actWithSig((uint256,uint256,uint256,uint256[],uint256[],address,bytes),(address,uint8,bytes32,bytes32,uint256))": "c86642c7",
    "approve(address,uint256)": "095ea7b3",
    "balanceOf(address)": "70a08231",
    "batchMigrateFollowModules(uint256[])": "8c28cc1d",
    "batchMigrateFollowers(uint256[],uint256,uint256[])": "ae900c00",
    "batchMigrateFollows(uint256,uint256[],uint256[])": "d9efd1d1",
    "batchMigrateProfiles(uint256[])": "a7274274",
    "burn(uint256)": "42966c68",
    "changeDelegatedExecutorsConfig(uint256,address[],bool[])": "c1f4b40a",
    "changeDelegatedExecutorsConfig(uint256,address[],bool[],uint64,bool)": "51c3659c",
    "changeDelegatedExecutorsConfigWithSig(uint256,address[],bool[],uint64,bool,(address,uint8,bytes32,bytes32,uint256))": "4926c4ed",
    "collectLegacy((uint256,uint256,uint256,uint256,uint256,bytes))": "4727ce3a",
    "collectLegacyWithSig((uint256,uint256,uint256,uint256,uint256,bytes),(address,uint8,bytes32,bytes32,uint256))": "b7902e73",
    "comment((uint256,string,uint256,uint256,uint256[],uint256[],bytes,address[],bytes[],address,bytes))": "b273b4a7",
    "commentWithSig((uint256,string,uint256,uint256,uint256[],uint256[],bytes,address[],bytes[],address,bytes),(address,uint8,bytes32,bytes32,uint256))": "b42df51a",
    "createProfile((address,address,bytes))": "560a4db1",
    "emitCollectNFTTransferEvent(uint256,uint256,uint256,address,address)": "86e2947b",
    "emitUnfollowedEvent(uint256,uint256,address)": "28ab6fb4",
    "emitVersion()": "ac11641d",
    "enableTokenGuardian()": "1e9df673",
    "exists(uint256)": "4f558e79",
    "follow(uint256,uint256[],uint256[],bytes[])": "4b7312a9",
    "followWithSig(uint256,uint256[],uint256[],bytes[],(address,uint8,bytes32,bytes32,uint256))": "4d7b35a0",
    "getApproved(uint256)": "081812fc",
    "getContentURI(uint256,uint256)": "b5a31496",
    "getDelegatedExecutorsConfigNumber(uint256)": "86ee73d7",
    "getDelegatedExecutorsMaxConfigNumberSet(uint256)": "ae56d75a",
    "getDelegatedExecutorsPrevConfigNumber(uint256)": "d575b539",
    "getDomainSeparator()": "ed24911d",
    "getFollowNFTImpl()": "3502ac4b",
    "getGitCommit()": "2cf03735",
    "getGovernance()": "289b3c0d",
    "getLegacyCollectNFTImpl()": "8f5c291c",
    "getModuleRegistry()": "edec7952",
    "getProfile(uint256)": "f08f4f64",
    "getProfileIdByHandleHash(bytes32)": "19e14070",
    "getPublication(uint256,uint256)": "7385ebc9",
    "getPublicationType(uint256,uint256)": "08ed395c",
    "getState()": "1865c57d",
    "getTokenGuardianDisablingTimestamp(address)": "f3bc61f1",
    "getTreasury()": "3b19e84a",
    "getTreasuryData()": "98f965d1",
    "getTreasuryFee()": "29070c6d",
    "getVersion()": "0d8e6e2c",
    "incrementNonce(uint8)": "365ae23a",
    "isActionModuleEnabledInPublication(uint256,uint256,address)": "4bde5ec4",
    "isApprovedForAll(address,address)": "e985e9c5",
    "isBlocked(uint256,uint256)": "97e2adf2",
    "isDelegatedExecutorApproved(uint256,address)": "7e341e1e",
    "isDelegatedExecutorApproved(uint256,address,uint64)": "e72dfde9",
    "isFollowing(uint256,uint256)": "47720ebb",
    "isProfileCreatorWhitelisted(address)": "af05dd22",
    "mintTimestampOf(uint256)": "50ddf35c",
    "mirror((uint256,string,uint256,uint256,uint256[],uint256[],bytes))": "f90604d1",
    "mirrorWithSig((uint256,string,uint256,uint256,uint256[],uint256[],bytes),(address,uint8,bytes32,bytes32,uint256))": "e6a402b5",
    "name()": "06fdde03",
    "nonces(address)": "7ecebe00",
    "ownerOf(uint256)": "6352211e",
    "post((uint256,string,address[],bytes[],address,bytes))": "66b0dcd3",
    "postWithSig((uint256,string,address[],bytes[],address,bytes),(address,uint8,bytes32,bytes32,uint256))": "907cd7d2",
    "quote((uint256,string,uint256,uint256,uint256[],uint256[],bytes,address[],bytes[],address,bytes))": "f0ba35f0",
    "quoteWithSig((uint256,string,uint256,uint256,uint256[],uint256[],bytes,address[],bytes[],address,bytes),(address,uint8,bytes32,bytes32,uint256))": "65f29f27",
    "royaltyInfo(uint256,uint256)": "2a55205a",
    "safeTransferFrom(address,address,uint256)": "42842e0e",
    "safeTransferFrom(address,address,uint256,bytes)": "b88d4fde",
    "setApprovalForAll(address,bool)": "a22cb465",
    "setBlockStatus(uint256,uint256[],bool[])": "fb827e82",
    "setBlockStatusWithSig(uint256,uint256[],bool[],(address,uint8,bytes32,bytes32,uint256))": "c6d45944",
    "setEmergencyAdmin(address)": "35da3394",
    "setFollowModule(uint256,address,bytes)": "6dea40b3",
    "setFollowModuleWithSig(uint256,address,bytes,(address,uint8,bytes32,bytes32,uint256))": "ce30bb4f",
    "setGovernance(address)": "ab033ea9",
    "setMigrationAdmins(address[],bool)": "8e15512a",
    "setProfileMetadataURI(uint256,string)": "efe4fd83",
    "setProfileMetadataURIWithSig(uint256,string,(address,uint8,bytes32,bytes32,uint256))": "6d0fd658",
    "setRoyalty(uint256)": "4209a2e1",
    "setState(uint8)": "56de96db",
    "setTreasury(address)": "f0f44260",
    "setTreasuryFee(uint16)": "a652db49",
    "supportsInterface(bytes4)": "01ffc9a7",
    "symbol()": "95d89b41",
    "tokenDataOf(uint256)": "c0da9bcd",
    "tokenURI(uint256)": "c87b56dd",
    "totalSupply()": "18160ddd",
    "transferFrom(address,address,uint256)": "23b872dd",
    "unfollow(uint256,uint256[])": "815ed04a",
    "unfollowWithSig(uint256,uint256[],(address,uint8,bytes32,bytes32,uint256))": "809d8947",
    "whitelistProfileCreator(address,bool)": "20905506"
  },
  "id": 1
}