{
  "abi": [
    {
      "inputs": [
        {
          "internalType": "address",
          "name": "actionConfig",
          "type": "address"
        },
        {
          "internalType": "address",
          "name": "monetizer",
          "type": "address"
        }
      ],
      "stateMutability": "nonpayable",
      "type": "constructor"
    },
    {
      "inputs": [],
      "name": "CollectModuleAlreadyRegistered",
      "type": "error"
    },
    {
      "inputs": [],
      "name": "CollectModuleNotRegistered",
      "type": "error"
    },
    {
      "inputs": [],
      "name": "InvalidMonetizer",
      "type": "error"
    },
    {
      "inputs": [],
      "name": "NotCollectModule",
      "type": "error"
    },
    {
      "anonymous": false,
      "inputs": [
        {
          "indexed": true,
          "internalType": "address",
          "name": "previousOwner",
          "type": "address"
        },
        {
          "indexed": true,
          "internalType": "address",
          "name": "newOwner",
          "type": "address"
        }
      ],
      "name": "OwnershipTransferred",
      "type": "event"
    },
    {
      "inputs": [],
      "name": "ACTION_CONFIG",
      "outputs": [
        {
          "internalType": "contract ActionConfig",
          "name": "",
          "type": "address"
        }
      ],
      "stateMutability": "view",
      "type": "function"
    },
    {
      "inputs": [
        {
          "internalType": "bytes32",
          "name": "assetId",
          "type": "bytes32"
        }
      ],
      "name": "getAssetCollectData",
      "outputs": [
        {
          "components": [
            {
              "internalType": "address",
              "name": "collectModule",
              "type": "address"
            },
            {
              "internalType": "address",
              "name": "collectNFT",
              "type": "address"
            }
          ],
          "internalType": "struct CollectAction.CollectData",
          "name": "",
          "type": "tuple"
        }
      ],
      "stateMutability": "view",
      "type": "function"
    },
    {
      "inputs": [
        {
          "internalType": "bytes32",
          "name": "assetId",
          "type": "bytes32"
        }
      ],
      "name": "getDappTreasuryData",
      "outputs": [
        {
          "internalType": "address",
          "name": "",
          "type": "address"
        },
        {
          "internalType": "uint256",
          "name": "",
          "type": "uint256"
        }
      ],
      "stateMutability": "view",
      "type": "function"
    },
    {
      "inputs": [],
      "name": "getDataverseTreasuryData",
      "outputs": [
        {
          "internalType": "address",
          "name": "",
          "type": "address"
        },
        {
          "internalType": "uint256",
          "name": "",
          "type": "uint256"
        }
      ],
      "stateMutability": "view",
      "type": "function"
    },
    {
      "inputs": [
        {
          "internalType": "bytes32",
          "name": "assetId",
          "type": "bytes32"
        },
        {
          "internalType": "bytes",
          "name": "data",
          "type": "bytes"
        }
      ],
      "name": "initializeAction",
      "outputs": [],
      "stateMutability": "nonpayable",
      "type": "function"
    },
    {
      "inputs": [
        {
          "internalType": "address",
          "name": "",
          "type": "address"
        }
      ],
      "name": "isCollectModuleRegistered",
      "outputs": [
        {
          "internalType": "bool",
          "name": "",
          "type": "bool"
        }
      ],
      "stateMutability": "view",
      "type": "function"
    },
    {
      "inputs": [
        {
          "internalType": "bytes32",
          "name": "assetId",
          "type": "bytes32"
        },
        {
          "internalType": "address",
          "name": "account",
          "type": "address"
        }
      ],
      "name": "isCollected",
      "outputs": [
        {
          "internalType": "bool",
          "name": "",
          "type": "bool"
        }
      ],
      "stateMutability": "view",
      "type": "function"
    },
    {
      "inputs": [],
      "name": "monetizer",
      "outputs": [
        {
          "internalType": "address",
          "name": "",
          "type": "address"
        }
      ],
      "stateMutability": "view",
      "type": "function"
    },
    {
      "inputs": [],
      "name": "owner",
      "outputs": [
        {
          "internalType": "address",
          "name": "",
          "type": "address"
        }
      ],
      "stateMutability": "view",
      "type": "function"
    },
    {
      "inputs": [
        {
          "internalType": "bytes32",
          "name": "assetId",
          "type": "bytes32"
        },
        {
          "internalType": "address",
          "name": "collector",
          "type": "address"
        },
        {
          "internalType": "bytes",
          "name": "data",
          "type": "bytes"
        }
      ],
      "name": "processAction",
      "outputs": [
        {
          "internalType": "bytes",
          "name": "",
          "type": "bytes"
        }
      ],
      "stateMutability": "nonpayable",
      "type": "function"
    },
    {
      "inputs": [
        {
          "internalType": "address",
          "name": "collectModule",
          "type": "address"
        }
      ],
      "name": "registerCollectModule",
      "outputs": [],
      "stateMutability": "nonpayable",
      "type": "function"
    },
    {
      "inputs": [],
      "name": "renounceOwnership",
      "outputs": [],
      "stateMutability": "nonpayable",
      "type": "function"
    },
    {
      "inputs": [
        {
          "internalType": "bytes4",
          "name": "interfaceId",
          "type": "bytes4"
        }
      ],
      "name": "supportsInterface",
      "outputs": [
        {
          "internalType": "bool",
          "name": "",
          "type": "bool"
        }
      ],
      "stateMutability": "view",
      "type": "function"
    },
    {
      "inputs": [
        {
          "internalType": "address",
          "name": "newOwner",
          "type": "address"
        }
      ],
      "name": "transferOwnership",
      "outputs": [],
      "stateMutability": "nonpayable",
      "type": "function"
    }
  ],
  "bytecode": {
    "object": "0x608060405234801561001057600080fd5b5060405162002ee538038062002ee5833981016040819052610031916100dc565b818161003c33610070565b600180546001600160a01b039384166001600160a01b031991821617909155600280549290931691161790555061010f9050565b600080546001600160a01b038381166001600160a01b0319831681178455604051919092169283917f8be0079c531659141344cd1fd0a4f28419497f9722a3daafe3b4186f6b6457e09190a35050565b80516001600160a01b03811681146100d757600080fd5b919050565b600080604083850312156100ef57600080fd5b6100f8836100c0565b9150610106602084016100c0565b90509250929050565b612dc6806200011f6000396000f3fe60806040523480156200001157600080fd5b5060043610620000fc5760003560e01c80638e8b8c971162000097578063db86aeea116200006e578063db86aeea146200028f578063dd4c9b4c14620002a6578063f2fde38b14620002bd578063f32ffcbc14620002d457600080fd5b80638e8b8c97146200023b57806395197b511462000252578063ce79d4bd146200026957600080fd5b806369288f8311620000d857806369288f8314620001dc578063715018a6146200020957806379e5593614620002155780638da5cb5b146200022957600080fd5b8062b2a76b146200010157806301ffc9a7146200018a57806320dd9ac214620001b2575b600080fd5b6200015e6200011236600462000ab2565b604080518082019091526000808252602082015250600090815260046020908152604091829020825180840190935280546001600160a01b039081168452600190910154169082015290565b6040805182516001600160a01b0390811682526020938401511692810192909252015b60405180910390f35b620001a16200019b36600462000acc565b620002fa565b604051901515815260200162000181565b620001bc62000332565b604080516001600160a01b03909316835260208301919091520162000181565b600154620001f0906001600160a01b031681565b6040516001600160a01b03909116815260200162000181565b62000213620003ab565b005b600254620001f0906001600160a01b031681565b6000546001600160a01b0316620001f0565b620002136200024c36600462000b15565b620003c3565b620001bc6200026336600462000ab2565b620004b2565b620002806200027a36600462000b81565b620005b2565b60405162000181919062000c37565b62000213620002a036600462000c4c565b620007a7565b620001a1620002b736600462000c9c565b620008ae565b62000213620002ce36600462000b15565b62000975565b620001a1620002e536600462000b15565b60036020526000908152604090205460ff1681565b60006001600160e01b0319821663280ee6f160e21b14806200032c57506301ffc9a760e01b6001600160e01b03198316145b92915050565b6001546040805163106ecd6160e11b8152815160009384936001600160a01b03909116926320dd9ac292600480830193928290030181865afa1580156200037d573d6000803e3d6000fd5b505050506040513d601f19601f82011682018060405250810190620003a3919062000ccf565b915091509091565b620003b5620009f8565b620003c1600062000a54565b565b6001600160a01b03811660009081526003602052604090205460ff1615620003fe576040516361f25b1560e11b815260040160405180910390fd5b6040516301ffc9a760e01b815263ebe695f560e01b60048201526001600160a01b038216906301ffc9a790602401602060405180830381865afa1580156200044a573d6000803e3d6000fd5b505050506040513d601f19601f8201168201806040525081019062000470919062000d00565b6200048e5760405163ceeb1f8f60e01b815260040160405180910390fd5b6001600160a01b03166000908152600360205260409020805460ff19166001179055565b6002546040516259879d60e71b815260048101839052600091829182916001600160a01b031690632cc3ce8090602401600060405180830381865afa15801562000500573d6000803e3d6000fd5b505050506040513d6000823e601f3d908101601f191682016040526200052a919081019062000f20565b6001548151604080840151905163221dee9160e21b81529394506001600160a01b0390921692638877ba44926200056592916004016200101e565b6040805180830381865afa15801562000582573d6000803e3d6000fd5b505050506040513d601f19601f82011682018060405250810190620005a8919062000ccf565b9250925050915091565b6002546060906001600160a01b03163314620005e157604051636a429a5960e01b815260040160405180910390fd5b6000858152600460205260409020600101546001600160a01b03166200065d576040516200060f9062000aa4565b604051809103906000f0801580156200062c573d6000803e3d6000fd5b50600086815260046020526040902060010180546001600160a01b0319166001600160a01b03929092169190911790555b6000858152600460208190526040808320600101549051631f5dd69760e11b81526001600160a01b0388811693820193909352911690633ebbad2e906024016020604051808303816000875af1158015620006bc573d6000803e3d6000fd5b505050506040513d601f19601f82011682018060405250810190620006e2919062001042565b60008781526004602081905260408083205490516385f4220f60e01b815293945091926001600160a01b03909216916385f4220f916200072b918b918b918b918b91016200105c565b6000604051808303816000875af11580156200074b573d6000803e3d6000fd5b505050506040513d6000823e601f3d908101601f19168201604052620007759190810190620010a3565b905081816040516020016200078c929190620010dc565b60405160208183030381529060405292505050949350505050565b6002546001600160a01b03163314620007d357604051636a429a5960e01b815260040160405180910390fd5b600080620007e483850185620010f7565b6001600160a01b038216600090815260036020526040902054919350915060ff16620008235760405163309d38b360e21b815260040160405180910390fd5b60008581526004602081905260409182902080546001600160a01b0319166001600160a01b03861690811790915591516337095bfd60e11b8152636e12b7fa9162000873918991869101620010dc565b600060405180830381600087803b1580156200088e57600080fd5b505af1158015620008a3573d6000803e3d6000fd5b505050505050505050565b6000828152600460205260408120600101546001600160a01b0316620008d7575060006200032c565b6000838152600460208190526040918290206001015491516370a0823160e01b81526001600160a01b03858116928201929092529116906370a0823190602401602060405180830381865afa15801562000935573d6000803e3d6000fd5b505050506040513d601f19601f820116820180604052508101906200095b919062001042565b6000036200096c575060006200032c565b50600192915050565b6200097f620009f8565b6001600160a01b038116620009ea5760405162461bcd60e51b815260206004820152602660248201527f4f776e61626c653a206e6577206f776e657220697320746865207a65726f206160448201526564647265737360d01b60648201526084015b60405180910390fd5b620009f58162000a54565b50565b6000546001600160a01b03163314620003c15760405162461bcd60e51b815260206004820181905260248201527f4f776e61626c653a2063616c6c6572206973206e6f7420746865206f776e65726044820152606401620009e1565b600080546001600160a01b038381166001600160a01b0319831681178455604051919092169283917f8be0079c531659141344cd1fd0a4f28419497f9722a3daafe3b4186f6b6457e09190a35050565b611c02806200118f83390190565b60006020828403121562000ac557600080fd5b5035919050565b60006020828403121562000adf57600080fd5b81356001600160e01b03198116811462000af857600080fd5b9392505050565b6001600160a01b0381168114620009f557600080fd5b60006020828403121562000b2857600080fd5b813562000af88162000aff565b60008083601f84011262000b4857600080fd5b50813567ffffffffffffffff81111562000b6157600080fd5b60208301915083602082850101111562000b7a57600080fd5b9250929050565b6000806000806060858703121562000b9857600080fd5b84359350602085013562000bac8162000aff565b9250604085013567ffffffffffffffff81111562000bc957600080fd5b62000bd78782880162000b35565b95989497509550505050565b60005b8381101562000c0057818101518382015260200162000be6565b50506000910152565b6000815180845262000c2381602086016020860162000be3565b601f01601f19169290920160200192915050565b60208152600062000af8602083018462000c09565b60008060006040848603121562000c6257600080fd5b83359250602084013567ffffffffffffffff81111562000c8157600080fd5b62000c8f8682870162000b35565b9497909650939450505050565b6000806040838503121562000cb057600080fd5b82359150602083013562000cc48162000aff565b809150509250929050565b6000806040838503121562000ce357600080fd5b825162000cf08162000aff565b6020939093015192949293505050565b60006020828403121562000d1357600080fd5b8151801515811462000af857600080fd5b634e487b7160e01b600052604160045260246000fd5b60405160c0810167ffffffffffffffff8111828210171562000d605762000d6062000d24565b60405290565b604051601f8201601f1916810167ffffffffffffffff8111828210171562000d925762000d9262000d24565b604052919050565b600067ffffffffffffffff82111562000db75762000db762000d24565b50601f01601f191660200190565b600082601f83011262000dd757600080fd5b815162000dee62000de88262000d9a565b62000d66565b81815284602083860101111562000e0457600080fd5b62000e1782602083016020870162000be3565b949350505050565b600067ffffffffffffffff82111562000e3c5762000e3c62000d24565b5060051b60200190565b600082601f83011262000e5857600080fd5b8151602062000e6b62000de88362000e1f565b82815260059290921b8401810191818101908684111562000e8b57600080fd5b8286015b8481101562000eb357805162000ea58162000aff565b835291830191830162000e8f565b509695505050505050565b600082601f83011262000ed057600080fd5b8151602062000ee362000de88362000e1f565b82815260059290921b8401810191818101908684111562000f0357600080fd5b8286015b8481101562000eb3578051835291830191830162000f07565b60006020828403121562000f3357600080fd5b815167ffffffffffffffff8082111562000f4c57600080fd5b9083019060c0828603121562000f6157600080fd5b62000f6b62000d3a565b82518281111562000f7b57600080fd5b62000f898782860162000dc5565b82525060208301518281111562000f9f57600080fd5b62000fad8782860162000dc5565b602083015250604083015160408201526060830151606082015260808301518281111562000fda57600080fd5b62000fe88782860162000e46565b60808301525060a0830151828111156200100157600080fd5b6200100f8782860162000ebe565b60a08301525095945050505050565b60408152600062001033604083018562000c09565b90508260208301529392505050565b6000602082840312156200105557600080fd5b5051919050565b8481526001600160a01b03841660208201526060604082018190528101829052818360808301376000818301608090810191909152601f909201601f191601019392505050565b600060208284031215620010b657600080fd5b815167ffffffffffffffff811115620010ce57600080fd5b62000e178482850162000dc5565b82815260406020820152600062000e17604083018462000c09565b600080604083850312156200110b57600080fd5b8235620011188162000aff565b9150602083013567ffffffffffffffff8111156200113557600080fd5b8301601f810185136200114757600080fd5b80356200115862000de88262000d9a565b8181528660208385010111156200116e57600080fd5b81602084016020830137600060208383010152809350505050925092905056fe60806040526000600b553480156200001657600080fd5b506040518060400160405280600b81526020016a10dbdb1b1958dd0813919560aa1b8152506040518060400160405280600281526020016121a760f11b815250816000908162000067919062000194565b50600162000076828262000194565b505050620000936200008d6200009960201b60201c565b6200009d565b62000260565b3390565b600a80546001600160a01b038381166001600160a01b0319831681179093556040519116919082907f8be0079c531659141344cd1fd0a4f28419497f9722a3daafe3b4186f6b6457e090600090a35050565b634e487b7160e01b600052604160045260246000fd5b600181811c908216806200011a57607f821691505b6020821081036200013b57634e487b7160e01b600052602260045260246000fd5b50919050565b601f8211156200018f57600081815260208120601f850160051c810160208610156200016a5750805b601f850160051c820191505b818110156200018b5782815560010162000176565b5050505b505050565b81516001600160401b03811115620001b057620001b0620000ef565b620001c881620001c1845462000105565b8462000141565b602080601f831160018114620002005760008415620001e75750858301515b600019600386901b1c1916600185901b1785556200018b565b600085815260208120601f198616915b82811015620002315788860151825594840194600190910190840162000210565b5085821015620002505787850151600019600388901b60f8161c191681555b5050505050600190811b01905550565b61199280620002706000396000f3fe608060405234801561001057600080fd5b506004361061012c5760003560e01c80636352211e116100ad578063a22cb46511610071578063a22cb46514610266578063b88d4fde14610279578063c87b56dd1461028c578063e985e9c51461029f578063f2fde38b146102db57600080fd5b80636352211e1461021f57806370a0823114610232578063715018a6146102455780638da5cb5b1461024d57806395d89b411461025e57600080fd5b806323b872dd116100f457806323b872dd146101c05780632f745c59146101d35780633ebbad2e146101e657806342842e0e146101f95780634f6ccce71461020c57600080fd5b806301ffc9a71461013157806306fdde0314610159578063081812fc1461016e578063095ea7b31461019957806318160ddd146101ae575b600080fd5b61014461013f3660046114b5565b6102ee565b60405190151581526020015b60405180910390f35b610161610319565b6040516101509190611522565b61018161017c366004611535565b6103ab565b6040516001600160a01b039091168152602001610150565b6101ac6101a7366004611565565b6103d2565b005b6008545b604051908152602001610150565b6101ac6101ce36600461158f565b6104ec565b6101b26101e1366004611565565b61051d565b6101b26101f43660046115cb565b6105b3565b6101ac61020736600461158f565b6105e4565b6101b261021a366004611535565b6105ff565b61018161022d366004611535565b610692565b6101b26102403660046115cb565b6106f2565b6101ac610778565b600a546001600160a01b0316610181565b61016161078c565b6101ac6102743660046115e6565b61079b565b6101ac610287366004611638565b6107aa565b61016161029a366004611535565b6107e2565b6101446102ad366004611714565b6001600160a01b03918216600090815260056020908152604080832093909416825291909152205460ff1690565b6101ac6102e93660046115cb565b610856565b60006001600160e01b0319821663780e9d6360e01b14806103135750610313826108cf565b92915050565b60606000805461032890611747565b80601f016020809104026020016040519081016040528092919081815260200182805461035490611747565b80156103a15780601f10610376576101008083540402835291602001916103a1565b820191906000526020600020905b81548152906001019060200180831161038457829003601f168201915b5050505050905090565b60006103b68261091f565b506000908152600460205260409020546001600160a01b031690565b60006103dd82610692565b9050806001600160a01b0316836001600160a01b03160361044f5760405162461bcd60e51b815260206004820152602160248201527f4552433732313a20617070726f76616c20746f2063757272656e74206f776e656044820152603960f91b60648201526084015b60405180910390fd5b336001600160a01b038216148061046b575061046b81336102ad565b6104dd5760405162461bcd60e51b815260206004820152603d60248201527f4552433732313a20617070726f76652063616c6c6572206973206e6f7420746f60448201527f6b656e206f776e6572206f7220617070726f76656420666f7220616c6c0000006064820152608401610446565b6104e7838361097e565b505050565b6104f633826109ec565b6105125760405162461bcd60e51b815260040161044690611781565b6104e7838383610a6b565b6000610528836106f2565b821061058a5760405162461bcd60e51b815260206004820152602b60248201527f455243373231456e756d657261626c653a206f776e657220696e646578206f7560448201526a74206f6620626f756e647360a81b6064820152608401610446565b506001600160a01b03919091166000908152600660209081526040808320938352929052205490565b60006105bd610bdc565b50600b8054906105df908390839060006105d6836117e4565b91905055610c36565b919050565b6104e7838383604051806020016040528060008152506107aa565b600061060a60085490565b821061066d5760405162461bcd60e51b815260206004820152602c60248201527f455243373231456e756d657261626c653a20676c6f62616c20696e646578206f60448201526b7574206f6620626f756e647360a01b6064820152608401610446565b60088281548110610680576106806117fd565b90600052602060002001549050919050565b6000818152600260205260408120546001600160a01b0316806103135760405162461bcd60e51b8152602060048201526018602482015277115490cdcc8c4e881a5b9d985b1a59081d1bdad95b88125160421b6044820152606401610446565b60006001600160a01b03821661075c5760405162461bcd60e51b815260206004820152602960248201527f4552433732313a2061646472657373207a65726f206973206e6f7420612076616044820152683634b21037bbb732b960b91b6064820152608401610446565b506001600160a01b031660009081526003602052604090205490565b610780610bdc565b61078a6000610c50565b565b60606001805461032890611747565b6107a6338383610ca2565b5050565b6107b433836109ec565b6107d05760405162461bcd60e51b815260040161044690611781565b6107dc84848484610d70565b50505050565b60606107ed8261091f565b600061080460408051602081019091526000815290565b90506000815111610824576040518060200160405280600081525061084f565b8061082e84610da3565b60405160200161083f929190611813565b6040516020818303038152906040525b9392505050565b61085e610bdc565b6001600160a01b0381166108c35760405162461bcd60e51b815260206004820152602660248201527f4f776e61626c653a206e6577206f776e657220697320746865207a65726f206160448201526564647265737360d01b6064820152608401610446565b6108cc81610c50565b50565b60006001600160e01b031982166380ac58cd60e01b148061090057506001600160e01b03198216635b5e139f60e01b145b8061031357506301ffc9a760e01b6001600160e01b0319831614610313565b6000818152600260205260409020546001600160a01b03166108cc5760405162461bcd60e51b8152602060048201526018602482015277115490cdcc8c4e881a5b9d985b1a59081d1bdad95b88125160421b6044820152606401610446565b600081815260046020526040902080546001600160a01b0319166001600160a01b03841690811790915581906109b382610692565b6001600160a01b03167f8c5be1e5ebec7d5bd14f71427d1e84f3dd0314c0f7b2291e5b200ac8c7c3b92560405160405180910390a45050565b6000806109f883610692565b9050806001600160a01b0316846001600160a01b03161480610a3f57506001600160a01b0380821660009081526005602090815260408083209388168352929052205460ff165b80610a635750836001600160a01b0316610a58846103ab565b6001600160a01b0316145b949350505050565b826001600160a01b0316610a7e82610692565b6001600160a01b031614610aa45760405162461bcd60e51b815260040161044690611842565b6001600160a01b038216610b065760405162461bcd60e51b8152602060048201526024808201527f4552433732313a207472616e7366657220746f20746865207a65726f206164646044820152637265737360e01b6064820152608401610446565b610b138383836001610e36565b826001600160a01b0316610b2682610692565b6001600160a01b031614610b4c5760405162461bcd60e51b815260040161044690611842565b600081815260046020908152604080832080546001600160a01b03199081169091556001600160a01b0387811680865260038552838620805460001901905590871680865283862080546001019055868652600290945282852080549092168417909155905184937fddf252ad1be2c89b69c2b068fc378daa952ba7f163c4a11628f55a4df523b3ef91a4505050565b600a546001600160a01b0316331461078a5760405162461bcd60e51b815260206004820181905260248201527f4f776e61626c653a2063616c6c6572206973206e6f7420746865206f776e65726044820152606401610446565b6107a6828260405180602001604052806000815250610f6a565b600a80546001600160a01b038381166001600160a01b0319831681179093556040519116919082907f8be0079c531659141344cd1fd0a4f28419497f9722a3daafe3b4186f6b6457e090600090a35050565b816001600160a01b0316836001600160a01b031603610d035760405162461bcd60e51b815260206004820152601960248201527f4552433732313a20617070726f766520746f2063616c6c6572000000000000006044820152606401610446565b6001600160a01b03838116600081815260056020908152604080832094871680845294825291829020805460ff191686151590811790915591519182527f17307eab39ab6107e8899845ad3d59bd9653f200f220920489ca2b5937696c31910160405180910390a3505050565b610d7b848484610a6b565b610d8784848484610f9d565b6107dc5760405162461bcd60e51b815260040161044690611887565b60606000610db08361109e565b600101905060008167ffffffffffffffff811115610dd057610dd0611622565b6040519080825280601f01601f191660200182016040528015610dfa576020820181803683370190505b5090508181016020015b600019016f181899199a1a9b1b9c1cb0b131b232b360811b600a86061a8153600a8504945084610e0457509392505050565b6001811115610ea55760405162461bcd60e51b815260206004820152603560248201527f455243373231456e756d657261626c653a20636f6e7365637574697665207472604482015274185b9cd9995c9cc81b9bdd081cdd5c1c1bdc9d1959605a1b6064820152608401610446565b816001600160a01b038516610f0157610efc81600880546000838152600960205260408120829055600182018355919091527ff3f7a9fe364faab93b216da50a3214154f22a0a2b415b23a84c8169e8b636ee30155565b610f24565b836001600160a01b0316856001600160a01b031614610f2457610f248582611176565b6001600160a01b038416610f4057610f3b81611213565b610f63565b846001600160a01b0316846001600160a01b031614610f6357610f6384826112c2565b5050505050565b610f748383611306565b610f816000848484610f9d565b6104e75760405162461bcd60e51b815260040161044690611887565b60006001600160a01b0384163b1561109357604051630a85bd0160e11b81526001600160a01b0385169063150b7a0290610fe19033908990889088906004016118d9565b6020604051808303816000875af192505050801561101c575060408051601f3d908101601f1916820190925261101991810190611916565b60015b611079573d80801561104a576040519150601f19603f3d011682016040523d82523d6000602084013e61104f565b606091505b5080516000036110715760405162461bcd60e51b815260040161044690611887565b805181602001fd5b6001600160e01b031916630a85bd0160e11b149050610a63565b506001949350505050565b60008072184f03e93ff9f4daa797ed6e38ed64bf6a1f0160401b83106110dd5772184f03e93ff9f4daa797ed6e38ed64bf6a1f0160401b830492506040015b6d04ee2d6d415b85acef81000000008310611109576d04ee2d6d415b85acef8100000000830492506020015b662386f26fc10000831061112757662386f26fc10000830492506010015b6305f5e100831061113f576305f5e100830492506008015b612710831061115357612710830492506004015b60648310611165576064830492506002015b600a83106103135760010192915050565b60006001611183846106f2565b61118d9190611933565b6000838152600760205260409020549091508082146111e0576001600160a01b03841660009081526006602090815260408083208584528252808320548484528184208190558352600790915290208190555b5060009182526007602090815260408084208490556001600160a01b039094168352600681528383209183525290812055565b60085460009061122590600190611933565b6000838152600960205260408120546008805493945090928490811061124d5761124d6117fd565b90600052602060002001549050806008838154811061126e5761126e6117fd565b60009182526020808320909101929092558281526009909152604080822084905585825281205560088054806112a6576112a6611946565b6001900381819060005260206000200160009055905550505050565b60006112cd836106f2565b6001600160a01b039093166000908152600660209081526040808320868452825280832085905593825260079052919091209190915550565b6001600160a01b03821661135c5760405162461bcd60e51b815260206004820181905260248201527f4552433732313a206d696e7420746f20746865207a65726f20616464726573736044820152606401610446565b6000818152600260205260409020546001600160a01b0316156113c15760405162461bcd60e51b815260206004820152601c60248201527f4552433732313a20746f6b656e20616c7265616479206d696e746564000000006044820152606401610446565b6113cf600083836001610e36565b6000818152600260205260409020546001600160a01b0316156114345760405162461bcd60e51b815260206004820152601c60248201527f4552433732313a20746f6b656e20616c7265616479206d696e746564000000006044820152606401610446565b6001600160a01b038216600081815260036020908152604080832080546001019055848352600290915280822080546001600160a01b0319168417905551839291907fddf252ad1be2c89b69c2b068fc378daa952ba7f163c4a11628f55a4df523b3ef908290a45050565b6001600160e01b0319811681146108cc57600080fd5b6000602082840312156114c757600080fd5b813561084f8161149f565b60005b838110156114ed5781810151838201526020016114d5565b50506000910152565b6000815180845261150e8160208601602086016114d2565b601f01601f19169290920160200192915050565b60208152600061084f60208301846114f6565b60006020828403121561154757600080fd5b5035919050565b80356001600160a01b03811681146105df57600080fd5b6000806040838503121561157857600080fd5b6115818361154e565b946020939093013593505050565b6000806000606084860312156115a457600080fd5b6115ad8461154e565b92506115bb6020850161154e565b9150604084013590509250925092565b6000602082840312156115dd57600080fd5b61084f8261154e565b600080604083850312156115f957600080fd5b6116028361154e565b91506020830135801515811461161757600080fd5b809150509250929050565b634e487b7160e01b600052604160045260246000fd5b6000806000806080858703121561164e57600080fd5b6116578561154e565b93506116656020860161154e565b925060408501359150606085013567ffffffffffffffff8082111561168957600080fd5b818701915087601f83011261169d57600080fd5b8135818111156116af576116af611622565b604051601f8201601f19908116603f011681019083821181831017156116d7576116d7611622565b816040528281528a60208487010111156116f057600080fd5b82602086016020830137600060208483010152809550505050505092959194509250565b6000806040838503121561172757600080fd5b6117308361154e565b915061173e6020840161154e565b90509250929050565b600181811c9082168061175b57607f821691505b60208210810361177b57634e487b7160e01b600052602260045260246000fd5b50919050565b6020808252602d908201527f4552433732313a2063616c6c6572206973206e6f7420746f6b656e206f776e6560408201526c1c881bdc88185c1c1c9bdd9959609a1b606082015260800190565b634e487b7160e01b600052601160045260246000fd5b6000600182016117f6576117f66117ce565b5060010190565b634e487b7160e01b600052603260045260246000fd5b600083516118258184602088016114d2565b8351908301906118398183602088016114d2565b01949350505050565b60208082526025908201527f4552433732313a207472616e736665722066726f6d20696e636f72726563742060408201526437bbb732b960d91b606082015260800190565b60208082526032908201527f4552433732313a207472616e7366657220746f206e6f6e20455243373231526560408201527131b2b4bb32b91034b6b83632b6b2b73a32b960711b606082015260800190565b6001600160a01b038581168252841660208201526040810183905260806060820181905260009061190c908301846114f6565b9695505050505050565b60006020828403121561192857600080fd5b815161084f8161149f565b81810381811115610313576103136117ce565b634e487b7160e01b600052603160045260246000fdfea2646970667358221220f9589c993ada29724d91a329a99a2a05a75b1534a047c5a44541e4009648d70a64736f6c63430008150033a2646970667358221220e5d1089a883ea9006342cac22da00e56a22f71440c3f854fb6183bf1c643818b64736f6c63430008150033",
    "linkReferences": {}
  },
  "methodIdentifiers": {
    "ACTION_CONFIG()": "69288f83",
    "getAssetCollectData(bytes32)": "00b2a76b",
    "getDappTreasuryData(bytes32)": "95197b51",
    "getDataverseTreasuryData()": "20dd9ac2",
    "initializeAction(bytes32,bytes)": "db86aeea",
    "isCollectModuleRegistered(address)": "f32ffcbc",
    "isCollected(bytes32,address)": "dd4c9b4c",
    "monetizer()": "79e55936",
    "owner()": "8da5cb5b",
    "processAction(bytes32,address,bytes)": "ce79d4bd",
    "registerCollectModule(address)": "8e8b8c97",
    "renounceOwnership()": "715018a6",
    "supportsInterface(bytes4)": "01ffc9a7",
    "transferOwnership(address)": "f2fde38b"
  },
  "id": 2
}