{
  "abi": [
    {
      "inputs": [
        {
          "internalType": "address",
          "name": "dappTableRegistry",
          "type": "address"
        }
      ],
      "stateMutability": "nonpayable",
      "type": "constructor"
    },
    {
      "inputs": [],
      "name": "ActionAlreadyExists",
      "type": "error"
    },
    {
      "inputs": [],
      "name": "ActionInvalid",
      "type": "error"
    },
    {
      "inputs": [],
      "name": "ActionNotExists",
      "type": "error"
    },
    {
      "inputs": [],
      "name": "ArrayLengthNotEqual",
      "type": "error"
    },
    {
      "inputs": [],
      "name": "CollectParamsMismatch",
      "type": "error"
    },
    {
      "inputs": [],
      "name": "DuplicatePublish",
      "type": "error"
    },
    {
      "inputs": [],
      "name": "InvalidShortString",
      "type": "error"
    },
    {
      "inputs": [],
      "name": "NotAssetOwner",
      "type": "error"
    },
    {
      "inputs": [],
      "name": "ResourceNotExists",
      "type": "error"
    },
    {
      "inputs": [],
      "name": "SignatureExpired",
      "type": "error"
    },
    {
      "inputs": [],
      "name": "SignatureMismatch",
      "type": "error"
    },
    {
      "inputs": [
        {
          "internalType": "string",
          "name": "str",
          "type": "string"
        }
      ],
      "name": "StringTooLong",
      "type": "error"
    },
    {
      "anonymous": false,
      "inputs": [
        {
          "indexed": true,
          "internalType": "address",
          "name": "owner",
          "type": "address"
        },
        {
          "indexed": true,
          "internalType": "address",
          "name": "approved",
          "type": "address"
        },
        {
          "indexed": true,
          "internalType": "uint256",
          "name": "tokenId",
          "type": "uint256"
        }
      ],
      "name": "Approval",
      "type": "event"
    },
    {
      "anonymous": false,
      "inputs": [
        {
          "indexed": true,
          "internalType": "address",
          "name": "owner",
          "type": "address"
        },
        {
          "indexed": true,
          "internalType": "address",
          "name": "operator",
          "type": "address"
        },
        {
          "indexed": false,
          "internalType": "bool",
          "name": "approved",
          "type": "bool"
        }
      ],
      "name": "ApprovalForAll",
      "type": "event"
    },
    {
      "anonymous": false,
      "inputs": [
        {
          "indexed": true,
          "internalType": "bytes32",
          "name": "assetId",
          "type": "bytes32"
        },
        {
          "indexed": true,
          "internalType": "address",
          "name": "actor",
          "type": "address"
        },
        {
          "indexed": false,
          "internalType": "address[]",
          "name": "actions",
          "type": "address[]"
        },
        {
          "indexed": false,
          "internalType": "bytes[]",
          "name": "actionProcessDatas",
          "type": "bytes[]"
        },
        {
          "indexed": false,
          "internalType": "bytes[]",
          "name": "actionReturnDatas",
          "type": "bytes[]"
        }
      ],
      "name": "AssetActed",
      "type": "event"
    },
    {
      "anonymous": false,
      "inputs": [
        {
          "indexed": true,
          "internalType": "bytes32",
          "name": "assetId",
          "type": "bytes32"
        },
        {
          "indexed": true,
          "internalType": "address",
          "name": "publisher",
          "type": "address"
        },
        {
          "indexed": true,
          "internalType": "uint256",
          "name": "publicationId",
          "type": "uint256"
        },
        {
          "indexed": false,
          "internalType": "string",
          "name": "resourceId",
          "type": "string"
        },
        {
          "indexed": false,
          "internalType": "bytes",
          "name": "data",
          "type": "bytes"
        },
        {
          "indexed": false,
          "internalType": "address[]",
          "name": "actions",
          "type": "address[]"
        },
        {
          "indexed": false,
          "internalType": "bytes[]",
          "name": "actionInitDatas",
          "type": "bytes[]"
        },
        {
          "indexed": false,
          "internalType": "bytes32[]",
          "name": "images",
          "type": "bytes32[]"
        }
      ],
      "name": "AssetPublished",
      "type": "event"
    },
    {
      "anonymous": false,
      "inputs": [],
      "name": "EIP712DomainChanged",
      "type": "event"
    },
    {
      "anonymous": false,
      "inputs": [
        {
          "indexed": true,
          "internalType": "address",
          "name": "from",
          "type": "address"
        },
        {
          "indexed": true,
          "internalType": "address",
          "name": "to",
          "type": "address"
        },
        {
          "indexed": true,
          "internalType": "uint256",
          "name": "tokenId",
          "type": "uint256"
        }
      ],
      "name": "Transfer",
      "type": "event"
    },
    {
      "inputs": [],
      "name": "DAPP_TABLE_REGISTRY",
      "outputs": [
        {
          "internalType": "contract IDappTableRegistry",
          "name": "",
          "type": "address"
        }
      ],
      "stateMutability": "view",
      "type": "function"
    },
    {
      "inputs": [
        {
          "components": [
            {
              "internalType": "bytes32",
              "name": "assetId",
              "type": "bytes32"
            },
            {
              "internalType": "address[]",
              "name": "actions",
              "type": "address[]"
            },
            {
              "internalType": "bytes[]",
              "name": "actionProcessDatas",
              "type": "bytes[]"
            }
          ],
          "internalType": "struct IDataMonetizer.ActParams",
          "name": "actParams",
          "type": "tuple"
        }
      ],
      "name": "act",
      "outputs": [
        {
          "internalType": "bytes[]",
          "name": "",
          "type": "bytes[]"
        }
      ],
      "stateMutability": "nonpayable",
      "type": "function"
    },
    {
      "inputs": [
        {
          "components": [
            {
              "internalType": "bytes32",
              "name": "assetId",
              "type": "bytes32"
            },
            {
              "internalType": "address[]",
              "name": "actions",
              "type": "address[]"
            },
            {
              "internalType": "bytes[]",
              "name": "actionProcessDatas",
              "type": "bytes[]"
            }
          ],
          "internalType": "struct IDataMonetizer.ActParams",
          "name": "actParams",
          "type": "tuple"
        },
        {
          "components": [
            {
              "internalType": "address",
              "name": "signer",
              "type": "address"
            },
            {
              "internalType": "uint8",
              "name": "v",
              "type": "uint8"
            },
            {
              "internalType": "bytes32",
              "name": "r",
              "type": "bytes32"
            },
            {
              "internalType": "bytes32",
              "name": "s",
              "type": "bytes32"
            },
            {
              "internalType": "uint256",
              "name": "deadline",
              "type": "uint256"
            }
          ],
          "internalType": "struct IDataMonetizer.EIP712Signature",
          "name": "signature",
          "type": "tuple"
        }
      ],
      "name": "actWithSig",
      "outputs": [
        {
          "internalType": "bytes[]",
          "name": "",
          "type": "bytes[]"
        }
      ],
      "stateMutability": "nonpayable",
      "type": "function"
    },
    {
      "inputs": [
        {
          "components": [
            {
              "internalType": "bytes32",
              "name": "assetId",
              "type": "bytes32"
            },
            {
              "internalType": "address[]",
              "name": "actions",
              "type": "address[]"
            },
            {
              "internalType": "bytes[]",
              "name": "actionInitDatas",
              "type": "bytes[]"
            }
          ],
          "internalType": "struct IDataMonetizer.AddActionsParams",
          "name": "addActionsParams",
          "type": "tuple"
        }
      ],
      "name": "addActions",
      "outputs": [],
      "stateMutability": "nonpayable",
      "type": "function"
    },
    {
      "inputs": [
        {
          "components": [
            {
              "internalType": "bytes32",
              "name": "assetId",
              "type": "bytes32"
            },
            {
              "internalType": "address[]",
              "name": "actions",
              "type": "address[]"
            },
            {
              "internalType": "bytes[]",
              "name": "actionInitDatas",
              "type": "bytes[]"
            }
          ],
          "internalType": "struct IDataMonetizer.AddActionsParams",
          "name": "addActionsParams",
          "type": "tuple"
        },
        {
          "components": [
            {
              "internalType": "address",
              "name": "signer",
              "type": "address"
            },
            {
              "internalType": "uint8",
              "name": "v",
              "type": "uint8"
            },
            {
              "internalType": "bytes32",
              "name": "r",
              "type": "bytes32"
            },
            {
              "internalType": "bytes32",
              "name": "s",
              "type": "bytes32"
            },
            {
              "internalType": "uint256",
              "name": "deadline",
              "type": "uint256"
            }
          ],
          "internalType": "struct IDataMonetizer.EIP712Signature",
          "name": "signature",
          "type": "tuple"
        }
      ],
      "name": "addActionsWithSig",
      "outputs": [],
      "stateMutability": "nonpayable",
      "type": "function"
    },
    {
      "inputs": [
        {
          "components": [
            {
              "internalType": "bytes32",
              "name": "assetId",
              "type": "bytes32"
            },
            {
              "internalType": "bytes32[]",
              "name": "images",
              "type": "bytes32[]"
            }
          ],
          "internalType": "struct IDataMonetizer.AddImagesParams",
          "name": "addImagesParams",
          "type": "tuple"
        }
      ],
      "name": "addImages",
      "outputs": [],
      "stateMutability": "nonpayable",
      "type": "function"
    },
    {
      "inputs": [
        {
          "components": [
            {
              "internalType": "bytes32",
              "name": "assetId",
              "type": "bytes32"
            },
            {
              "internalType": "bytes32[]",
              "name": "images",
              "type": "bytes32[]"
            }
          ],
          "internalType": "struct IDataMonetizer.AddImagesParams",
          "name": "addImagesParams",
          "type": "tuple"
        },
        {
          "components": [
            {
              "internalType": "address",
              "name": "signer",
              "type": "address"
            },
            {
              "internalType": "uint8",
              "name": "v",
              "type": "uint8"
            },
            {
              "internalType": "bytes32",
              "name": "r",
              "type": "bytes32"
            },
            {
              "internalType": "bytes32",
              "name": "s",
              "type": "bytes32"
            },
            {
              "internalType": "uint256",
              "name": "deadline",
              "type": "uint256"
            }
          ],
          "internalType": "struct IDataMonetizer.EIP712Signature",
          "name": "signature",
          "type": "tuple"
        }
      ],
      "name": "addImagesWithSig",
      "outputs": [],
      "stateMutability": "nonpayable",
      "type": "function"
    },
    {
      "inputs": [
        {
          "internalType": "address",
          "name": "to",
          "type": "address"
        },
        {
          "internalType": "uint256",
          "name": "tokenId",
          "type": "uint256"
        }
      ],
      "name": "approve",
      "outputs": [],
      "stateMutability": "nonpayable",
      "type": "function"
    },
    {
      "inputs": [
        {
          "internalType": "address",
          "name": "owner",
          "type": "address"
        }
      ],
      "name": "balanceOf",
      "outputs": [
        {
          "internalType": "uint256",
          "name": "",
          "type": "uint256"
        }
      ],
      "stateMutability": "view",
      "type": "function"
    },
    {
      "inputs": [],
      "name": "eip712Domain",
      "outputs": [
        {
          "internalType": "bytes1",
          "name": "fields",
          "type": "bytes1"
        },
        {
          "internalType": "string",
          "name": "name",
          "type": "string"
        },
        {
          "internalType": "string",
          "name": "version",
          "type": "string"
        },
        {
          "internalType": "uint256",
          "name": "chainId",
          "type": "uint256"
        },
        {
          "internalType": "address",
          "name": "verifyingContract",
          "type": "address"
        },
        {
          "internalType": "bytes32",
          "name": "salt",
          "type": "bytes32"
        },
        {
          "internalType": "uint256[]",
          "name": "extensions",
          "type": "uint256[]"
        }
      ],
      "stateMutability": "view",
      "type": "function"
    },
    {
      "inputs": [
        {
          "internalType": "uint256",
          "name": "tokenId",
          "type": "uint256"
        }
      ],
      "name": "getApproved",
      "outputs": [
        {
          "internalType": "address",
          "name": "",
          "type": "address"
        }
      ],
      "stateMutability": "view",
      "type": "function"
    },
    {
      "inputs": [
        {
          "internalType": "bytes32",
          "name": "assetId",
          "type": "bytes32"
        }
      ],
      "name": "getAsset",
      "outputs": [
        {
          "components": [
            {
              "internalType": "string",
              "name": "resourceId",
              "type": "string"
            },
            {
              "internalType": "bytes",
              "name": "data",
              "type": "bytes"
            },
            {
              "internalType": "uint256",
              "name": "publishAt",
              "type": "uint256"
            },
            {
              "internalType": "uint256",
              "name": "publicationId",
              "type": "uint256"
            },
            {
              "internalType": "address[]",
              "name": "actions",
              "type": "address[]"
            },
            {
              "internalType": "bytes32[]",
              "name": "images",
              "type": "bytes32[]"
            }
          ],
          "internalType": "struct IDataMonetizer.Asset",
          "name": "",
          "type": "tuple"
        }
      ],
      "stateMutability": "view",
      "type": "function"
    },
    {
      "inputs": [
        {
          "internalType": "bytes32",
          "name": "assetId",
          "type": "bytes32"
        }
      ],
      "name": "getAssetOwner",
      "outputs": [
        {
          "internalType": "address",
          "name": "",
          "type": "address"
        }
      ],
      "stateMutability": "view",
      "type": "function"
    },
    {
      "inputs": [],
      "name": "getDomainSeparator",
      "outputs": [
        {
          "internalType": "bytes32",
          "name": "",
          "type": "bytes32"
        }
      ],
      "stateMutability": "view",
      "type": "function"
    },
    {
      "inputs": [
        {
          "internalType": "address",
          "name": "signer",
          "type": "address"
        }
      ],
      "name": "getSigNonce",
      "outputs": [
        {
          "internalType": "uint256",
          "name": "",
          "type": "uint256"
        }
      ],
      "stateMutability": "view",
      "type": "function"
    },
    {
      "inputs": [
        {
          "internalType": "bytes32",
          "name": "assetId",
          "type": "bytes32"
        }
      ],
      "name": "getTokenAsset",
      "outputs": [
        {
          "components": [
            {
              "internalType": "string",
              "name": "resourceId",
              "type": "string"
            },
            {
              "internalType": "string",
              "name": "fileId",
              "type": "string"
            },
            {
              "internalType": "uint256",
              "name": "publishAt",
              "type": "uint256"
            },
            {
              "internalType": "uint256",
              "name": "publicationId",
              "type": "uint256"
            },
            {
              "internalType": "address[]",
              "name": "actions",
              "type": "address[]"
            },
            {
              "internalType": "bytes32[]",
              "name": "images",
              "type": "bytes32[]"
            }
          ],
          "internalType": "struct IDataToken.TokenAsset",
          "name": "",
          "type": "tuple"
        }
      ],
      "stateMutability": "view",
      "type": "function"
    },
    {
      "inputs": [
        {
          "internalType": "address",
          "name": "owner",
          "type": "address"
        },
        {
          "internalType": "address",
          "name": "operator",
          "type": "address"
        }
      ],
      "name": "isApprovedForAll",
      "outputs": [
        {
          "internalType": "bool",
          "name": "",
          "type": "bool"
        }
      ],
      "stateMutability": "view",
      "type": "function"
    },
    {
      "inputs": [],
      "name": "name",
      "outputs": [
        {
          "internalType": "string",
          "name": "",
          "type": "string"
        }
      ],
      "stateMutability": "view",
      "type": "function"
    },
    {
      "inputs": [
        {
          "internalType": "uint256",
          "name": "tokenId",
          "type": "uint256"
        }
      ],
      "name": "ownerOf",
      "outputs": [
        {
          "internalType": "address",
          "name": "",
          "type": "address"
        }
      ],
      "stateMutability": "view",
      "type": "function"
    },
    {
      "inputs": [
        {
          "components": [
            {
              "internalType": "string",
              "name": "resourceId",
              "type": "string"
            },
            {
              "internalType": "bytes",
              "name": "data",
              "type": "bytes"
            },
            {
              "internalType": "address[]",
              "name": "actions",
              "type": "address[]"
            },
            {
              "internalType": "bytes[]",
              "name": "actionInitDatas",
              "type": "bytes[]"
            },
            {
              "internalType": "bytes32[]",
              "name": "images",
              "type": "bytes32[]"
            }
          ],
          "internalType": "struct IDataMonetizer.PublishParams",
          "name": "publishParams",
          "type": "tuple"
        }
      ],
      "name": "publish",
      "outputs": [
        {
          "internalType": "bytes32",
          "name": "",
          "type": "bytes32"
        }
      ],
      "stateMutability": "nonpayable",
      "type": "function"
    },
    {
      "inputs": [
        {
          "components": [
            {
              "internalType": "string",
              "name": "resourceId",
              "type": "string"
            },
            {
              "internalType": "bytes",
              "name": "data",
              "type": "bytes"
            },
            {
              "internalType": "address[]",
              "name": "actions",
              "type": "address[]"
            },
            {
              "internalType": "bytes[]",
              "name": "actionInitDatas",
              "type": "bytes[]"
            },
            {
              "internalType": "bytes32[]",
              "name": "images",
              "type": "bytes32[]"
            }
          ],
          "internalType": "struct IDataMonetizer.PublishParams",
          "name": "publishParams",
          "type": "tuple"
        },
        {
          "components": [
            {
              "internalType": "address",
              "name": "signer",
              "type": "address"
            },
            {
              "internalType": "uint8",
              "name": "v",
              "type": "uint8"
            },
            {
              "internalType": "bytes32",
              "name": "r",
              "type": "bytes32"
            },
            {
              "internalType": "bytes32",
              "name": "s",
              "type": "bytes32"
            },
            {
              "internalType": "uint256",
              "name": "deadline",
              "type": "uint256"
            }
          ],
          "internalType": "struct IDataMonetizer.EIP712Signature",
          "name": "signature",
          "type": "tuple"
        }
      ],
      "name": "publishWithSig",
      "outputs": [
        {
          "internalType": "bytes32",
          "name": "",
          "type": "bytes32"
        }
      ],
      "stateMutability": "nonpayable",
      "type": "function"
    },
    {
      "inputs": [
        {
          "internalType": "address",
          "name": "from",
          "type": "address"
        },
        {
          "internalType": "address",
          "name": "to",
          "type": "address"
        },
        {
          "internalType": "uint256",
          "name": "tokenId",
          "type": "uint256"
        }
      ],
      "name": "safeTransferFrom",
      "outputs": [],
      "stateMutability": "nonpayable",
      "type": "function"
    },
    {
      "inputs": [
        {
          "internalType": "address",
          "name": "from",
          "type": "address"
        },
        {
          "internalType": "address",
          "name": "to",
          "type": "address"
        },
        {
          "internalType": "uint256",
          "name": "tokenId",
          "type": "uint256"
        },
        {
          "internalType": "bytes",
          "name": "data",
          "type": "bytes"
        }
      ],
      "name": "safeTransferFrom",
      "outputs": [],
      "stateMutability": "nonpayable",
      "type": "function"
    },
    {
      "inputs": [
        {
          "internalType": "address",
          "name": "operator",
          "type": "address"
        },
        {
          "internalType": "bool",
          "name": "approved",
          "type": "bool"
        }
      ],
      "name": "setApprovalForAll",
      "outputs": [],
      "stateMutability": "nonpayable",
      "type": "function"
    },
    {
      "inputs": [
        {
          "internalType": "bytes4",
          "name": "interfaceId",
          "type": "bytes4"
        }
      ],
      "name": "supportsInterface",
      "outputs": [
        {
          "internalType": "bool",
          "name": "",
          "type": "bool"
        }
      ],
      "stateMutability": "view",
      "type": "function"
    },
    {
      "inputs": [],
      "name": "symbol",
      "outputs": [
        {
          "internalType": "string",
          "name": "",
          "type": "string"
        }
      ],
      "stateMutability": "view",
      "type": "function"
    },
    {
      "inputs": [
        {
          "internalType": "uint256",
          "name": "index",
          "type": "uint256"
        }
      ],
      "name": "tokenByIndex",
      "outputs": [
        {
          "internalType": "uint256",
          "name": "",
          "type": "uint256"
        }
      ],
      "stateMutability": "view",
      "type": "function"
    },
    {
      "inputs": [
        {
          "internalType": "address",
          "name": "owner",
          "type": "address"
        },
        {
          "internalType": "uint256",
          "name": "index",
          "type": "uint256"
        }
      ],
      "name": "tokenOfOwnerByIndex",
      "outputs": [
        {
          "internalType": "uint256",
          "name": "",
          "type": "uint256"
        }
      ],
      "stateMutability": "view",
      "type": "function"
    },
    {
      "inputs": [
        {
          "internalType": "uint256",
          "name": "tokenId",
          "type": "uint256"
        }
      ],
      "name": "tokenURI",
      "outputs": [
        {
          "internalType": "string",
          "name": "",
          "type": "string"
        }
      ],
      "stateMutability": "view",
      "type": "function"
    },
    {
      "inputs": [],
      "name": "totalSupply",
      "outputs": [
        {
          "internalType": "uint256",
          "name": "",
          "type": "uint256"
        }
      ],
      "stateMutability": "view",
      "type": "function"
    },
    {
      "inputs": [
        {
          "internalType": "address",
          "name": "from",
          "type": "address"
        },
        {
          "internalType": "address",
          "name": "to",
          "type": "address"
        },
        {
          "internalType": "uint256",
          "name": "tokenId",
          "type": "uint256"
        }
      ],
      "name": "transferFrom",
      "outputs": [],
      "stateMutability": "nonpayable",
      "type": "function"
    }
  ],
  "bytecode": {
    "object": "0x610160346200049d57601f19620047bf38819003601f81810184168501946001600160401b0394939092838710868811176200048757808492604098895283396020938491810103126200049d57516001600160a01b03811691908290036200049d578551936200007085620004a2565b6009855283850193682230ba30aa37b5b2b760b91b85528751906200009582620004a2565b60019283835281830190603160f81b82528a5195620000b487620004a2565b600f87526e141d589b1a58d85d1a5bdb88139195608a1b848801528b51620000dc81620004a2565b6002815261282760f11b8582015287518c8111620004875760009889548981811c911680156200047c575b88821014620004685790818584931162000415575b508790858311600114620003b4578b92620003a8575b5050600019600383901b1c191690881b1788555b8051928c8411620003945787548881811c9116801562000389575b87821014620003755790818486959493116200031e575b5086928411600114620002bd57508892620002b1575b5050600019600383901b1c191690851b1784555b620001ad88620004be565b96610120978852620001bf846200069b565b98610140998a52519020928360e0525190209861010099808b524660a0528151928301937f8b73c3c69bb8fe3d512ecc4cf759cc79239f7b179b0ffacaa9a75d522b39400f85528284015260608301524660808301523060a083015260a0825260c0820198828a10908a11176200029d578890525190206080523060c052600c55600e55600d80546001600160a01b031916919091179055613f6b938462000854853960805184612848015260a05184612903015260c05184612812015260e05184612897015251836128bd01525182610978015251816109a20152f35b634e487b7160e01b85526041600452602485fd5b0151905038806200018e565b888a52868a20899590939291168a5b88828210620003075750508411620002ed575b505050811b018455620001a2565b015160001960f88460031b161c19169055388080620002df565b8385015186558b97909501949384019301620002cc565b9091929350888a52868a208480870160051c8201928988106200036b575b9187968c92969594930160051c01915b8281106200035c57505062000178565b8c81558796508b91016200034c565b925081926200033c565b634e487b7160e01b8a52602260045260248afd5b90607f169062000161565b634e487b7160e01b89526041600452602489fd5b01519050388062000132565b90868b9416918c8052898d20928d5b8b828210620003fe5750508411620003e4575b505050811b01885562000146565b015160001960f88460031b161c19169055388080620003d6565b8385015186558e97909501949384019301620003c3565b9091508a8052878b208580850160051c8201928a86106200045e575b918c91869594930160051c01915b8281106200044f5750506200011c565b8d81558594508c91016200043f565b9250819262000431565b634e487b7160e01b8b52602260045260248bfd5b90607f169062000107565b634e487b7160e01b600052604160045260246000fd5b600080fd5b604081019081106001600160401b038211176200048757604052565b8051602090818110156200055b5750601f825111620004fa5780825192015190808310620004eb57501790565b82600019910360031b1b161790565b90604051809263305a27a960e01b82528060048301528251908160248401526000935b82851062000541575050604492506000838284010152601f80199101168101030190fd5b84810182015186860160440152938101938593506200051d565b906001600160401b0382116200048757600a54926001938481811c9116801562000690575b838210146200067a57601f811162000640575b5081601f8411600114620005d45750928293918392600094620005c8575b50501b916000199060031b1c191617600a5560ff90565b015192503880620005b1565b919083601f198116600a60005284600020946000905b888383106200062557505050106200060b575b505050811b01600a5560ff90565b015160001960f88460031b161c19169055388080620005fd565b858701518855909601959485019487935090810190620005ea565b600a60005284601f84600020920160051c820191601f860160051c015b8281106200066d57505062000593565b600081550185906200065d565b634e487b7160e01b600052602260045260246000fd5b90607f169062000580565b805160209081811015620007295750601f825111620006c85780825192015190808310620004eb57501790565b90604051809263305a27a960e01b82528060048301528251908160248401526000935b8285106200070f575050604492506000838284010152601f80199101168101030190fd5b8481018201518686016044015293810193859350620006eb565b906001600160401b0382116200048757600b54926001938481811c9116801562000848575b838210146200067a57601f81116200080e575b5081601f8411600114620007a2575092829391839260009462000796575b50501b916000199060031b1c191617600b5560ff90565b0151925038806200077f565b919083601f198116600b60005284600020946000905b88838310620007f35750505010620007d9575b505050811b01600b5560ff90565b015160001960f88460031b161c19169055388080620007cb565b858701518855909601959485019487935090810190620007b8565b600b60005284601f84600020920160051c820191601f860160051c015b8281106200083b57505062000761565b600081550185906200082b565b90607f16906200074e56fe608060408181526004918236101561001657600080fd5b60009260e08435811c92836301ffc9a7146119745750826305ac0ab41461193b57826306fdde031461188b578263081812fc1461186a578263095ea7b3146116fb57826318160ddd146116db57826323b872dd146116b6578263262975841461142c5782632cc3ce80146113925782632f745c59146112e557826335d8c2b7146112b857826342842e0e146112835782634f6ccce7146111ef5782635b01a55214610d285782635b88200614610aab5782636352211e14610a7957826370a0823114610a5257826384b0196e1461095f5782638fd5b3681461091e57826395d89b4114610836578263a22cb4651461076a578263a9d298b114610740578263b88d4fde146106cb578263b9348ed81461055e57508163c2bb05a71461052b578163c87b56dd146104c0578163d7499c4114610467578163dd482d3e1461023057508063e03e0163146101ef578063e985e9c5146101a25763ed24911d1461017c57600080fd5b3461019e578160031936011261019e5760209061019761280f565b9051908152f35b5080fd5b503461019e578060031936011261019e5760ff816020936101c1611a14565b6101c9611a2f565b6001600160a01b0391821683526005875283832091168252855220549151911615158152f35b503461019e5761022c9061021461020536611d03565b61020d612929565b33906138cc565b906001600c5551918291602083526020830190611b17565b0390f35b905034610463576003199160c03684011261045f5781356001600160401b0380821161045b578282850195833603011261045b5760a036602319011261045b57825190608082019081118282101761044857610328929160519185528181526103076024602093837075696e7432353620646561646c696e652960781b606087809701927f416464496d61676573576974685369672862797465733332206173736574496484527f2c627974657333325b5d20696d616765732c75696e74323536206e6f6e63652c8c8201520152209401886129d2565b8651632a9b7f2760e01b815288810184905295869283926024840191612aeb565b038173__$eb08931da2d0e33e8a6d7df35e46c67175$__5af492831561043e578793610409575b506001600160a01b03926103c9926103ba9290918561036c612b0f565b168a52600f8252868a209081549161038383612b39565b905587519283019384528935888401526060830152608082015260a43560a082015260a081526103b281611bdd565b519020612bfc565b6103c336612b48565b90613dd6565b90806103d3612b0f565b92169116036103fc57836103f9846103f46103ec612b0f565b913690612de8565b613d17565b80f35b51630e751dc360e31b8152fd5b9080935081813d8311610437575b6104218183611c72565b810103126104335751916103c961034f565b8680fd5b503d610417565b84513d89823e3d90fd5b634e487b7160e01b875260418552602487fd5b8580fd5b8380fd5b8280fd5b8284346104bd57600319906020368301126104bd578335916001600160401b03831161019e5760a09083360301126104bd57506020926104b1916104a9612929565b339101612f54565b906001600c5551908152f35b80fd5b83833461019e57602036600319011261019e576104fe6104f961022c9435600052600260205260018060a01b0360406000205416151590565b611f8a565b81815161050a81611c3c565b5280519161051783611c3c565b825251918291602083526020830190611a7c565b83346104bd5761055661053d36611d03565b610545612929565b61055133913690612d12565b613bd4565b6001600c5580f35b9150913461045f57602092836003193601126106c757803561057e611d34565b508086526010855261059d6105a4600185892001855192838092611da0565b0382611c72565b805181019086818184019303126106bf5786810151906001600160401b0382116106c3570181603f820112156106bf5791866106918660c09a6105f78298968861022c9c9b876106ae9b01519101611e35565b94815260108452209261067d8761065e600561065060028901549960038a01549861059d6106358c88519861062b8a611bdd565b5192838092611da0565b865285019687528c85019a8b52606085019889528901611e6c565b976080840198895201611ec4565b9960a082019a8b5289519d8d8f9e938f948552519301528c0190611a7c565b9051601f1997888c840301908c0152611a7c565b9251606089015251608088015251838783030160a0880152611b6c565b9151908483030160c0850152611ba9565b8780fd5b8880fd5b8480fd5b84823461019e57608036600319011261019e576106e6611a14565b906106ef611a2f565b91604435606435936001600160401b03851161045b5761071861073b946103f996369101611ce5565b9261072b6107268433612110565b612037565b6107368383836121d8565b612553565b6120ec565b5050503461019e578160031936011261019e57600d5490516001600160a01b039091168152602090f35b84828534610463578060031936011261046357610785611a14565b90602435918215158093036106c7576001600160a01b0316923384146107f45750338452600560205280842083855260205280842060ff1981541660ff8416179055519081527f17307eab39ab6107e8899845ad3d59bd9653f200f220920489ca2b5937696c3160203392a380f35b6020606492519162461bcd60e51b8352820152601960248201527f4552433732313a20617070726f766520746f2063616c6c6572000000000000006044820152fd5b8385346104bd57806003193601126104bd57815191828260019384549461085c86611d66565b918285526020968783821691826000146108f757505060011461089c575b50505061022c929161088d910385611c72565b51928284938452830190611a7c565b91908693508083527fb10e2d527612073b26eecdfd717e6a320cf44b4afac2b0732d9fcbe2b7fa0cf65b8284106108df575050508201018161088d61022c61087a565b8054848a0186015288955087949093019281016108c6565b60ff19168782015293151560051b8601909301935084925061088d915061022c905061087a565b84828534610463576003199060203683011261045f578235916001600160401b0383116106c7578236030112610463576103f46103f9923392369101612de8565b8385346104bd57806003193601126104bd57919061099c7f0000000000000000000000000000000000000000000000000000000000000000612658565b926109c67f0000000000000000000000000000000000000000000000000000000000000000612752565b610a048351936109d585611c3c565b8385526020926109f78251988998600f60f81b8a5280878b0152890190611a7c565b9187830390880152611a7c565b904660608601523060808601528260a086015284820360c08601528080855193848152019401925b828110610a3b57505050500390f35b835185528695509381019392810192600101610a2c565b5050503461019e57602036600319011261019e57602090610197610a74611a14565b611f13565b508284346104bd5760203660031901126104bd5750610a9a60209235611fd6565b90516001600160a01b039091168152f35b5090503461046357610abc36611ad6565b919092610ac7612929565b848151610ad381611c0e565b606b8152606b6020916a3620646561646c696e652960a81b6080848301927f416464416374696f6e735769746853696728627974657333322061737365744984527f642c616464726573735b5d20616374696f6e732c62797465735b5d2061637469888201527f6f6e496e697444617461732c75696e74323536206e6f6e63652c75696e7432356060820152015220610ba173__$eb08931da2d0e33e8a6d7df35e46c67175$__83610b87818b018b6129d2565b88516333983acb60e01b81529485928392908c8401612a07565b0381845af4908115610ced5784908692610cf7575b610be49350610bc7888c018c6129d2565b8951639e22d70d60e01b8152958693928492839291838f01612a82565b03915af4918215610ced5791889493918a938792610cb3575b5093610c6e610c8696946080946103b294610c7c988c60018060a01b039c8d610c258c612b25565b168152600f88522092835493610c3a85612b39565b90558d5196870190815293356020850152604084015260608301526080820152949093013560a085015291829060c0850190565b03601f198101835282611c72565b6103c33687612ba3565b9080610c9186612b25565b92169116036103fc578461055685610551610cab87612b25565b913690612d12565b9295509250508281813d8311610ce6575b610cce8183611c72565b810103126106c7575187938992909190610c6e610bfd565b503d610cc4565b86513d87823e3d90fd5b915082813d8311610d21575b610d0d8183611c72565b810103126106c75783610be4925191610bb6565b503d610d03565b9391503461019e576003199160c0368401126104bd578135906001600160401b03908183116104bd5760a08385019584360301126104bd5760a03660231901126104bd5790859291610d78612929565b835197610d8489611bdd565b60868952608660209965646c696e652960d01b60a08c8301927f5075626c6973685769746853696728737472696e67207265736f75726365496484527f2c627974657320646174612c616464726573735b5d20616374696f6e732c62798a8201527f7465735b5d20616374696f6e496e697444617461732c627974657333325b5d2060608201527f696d616765732c75696e74323536206e6f6e63652c75696e743235362064656160808201520152209373__$eb08931da2d0e33e8a6d7df35e46c67175$__908a8089610e79610e5b8d8061297f565b9b519b8c94859463d19ac5b760e01b865285015260248401916129b1565b0381855af49687156111e557908b898b8d9594889b6111a3575b5090610ec5610ea78493602487019061297f565b97519788948594638d849f4360e01b865285015260248401916129b1565b0381855af492831561119957908c8c8b8d969594899661115e575b50610ef2610f0c9760448601906129d2565b9790925197889384936333983acb60e01b85528401612a07565b0381855af49384156110ca57908d8d8c8e979695948a97611120575b50610f3a610f549860648601906129d2565b989092519889938493639e22d70d60e01b85528401612a82565b0381855af494851561111657918b8f928f97969594908f918b986110d4575b5091610f8885926084610faa969501906129d2565b94909951998a9586948594632a9b7f2760e01b86528501526024840191612aeb565b03915af49384156110ca5791869593918d95938f99989461108b575b506001600160a01b039a8b610fd9612b0f565b168852600f8a5286882096875497610ff089612b39565b905580519a8b019b8c528a01526060890152608088015260a087015260c086015284015261010060a4358185015283526101208301918383109083111761107857508652519020611044906103ba90612bfc565b908061104e612b0f565b921691160361106a57506104b190611064612b0f565b90612f54565b8251630e751dc360e31b8152fd5b634e487b7160e01b815260418652602490fd5b929496979883919650809294503d83116110c3575b6110aa8183611c72565b8101031261045b57918b93918d97969593519238610fc6565b503d6110a0565b8c513d88823e3d90fd5b9493959697509750505081813d831161110f575b6110f28183611c72565b8101031261043357518c94909392918e918c908e90610f88610f73565b503d6110e8565b8d513d89823e3d90fd5b94965050509092945081813d8311611157575b61113d8183611c72565b8101031261045b57518a93909290918d8d8c610f3a610f28565b503d611133565b949650505090925081813d8311611192575b61117a8183611c72565b810103126106c75751899290918c8c8b610ef2610ee0565b503d611170565b8b513d87823e3d90fd5b94969798999a50505090925081813d83116111de575b6111c38183611c72565b810103126106c75751959493929189918b898b610ec5610e93565b503d6111b9565b8a513d86823e3d90fd5b838286346104bd5760203660031901126104bd575080359060085482101561122b5760208361121d846125dc565b91905490519160031b1c8152f35b608490602084519162461bcd60e51b8352820152602c60248201527f455243373231456e756d657261626c653a20676c6f62616c20696e646578206f60448201526b7574206f6620626f756e647360a01b6064820152fd5b5050503461019e5761073b6103f99161129b36611aa1565b919251926112a884611c3c565b86845261072b6107268433612110565b5090503461046357602036600319011261046357600382602094610a9a9335815260108652200154611fd6565b508284346104bd57816003193601126104bd57611300611a14565b6024359061130d81611f13565b82101561133b576001600160a01b031682526006602090815283832091835290815290829020548251908152f35b835162461bcd60e51b8152602081870152602b60248201527f455243373231456e756d657261626c653a206f776e657220696e646578206f7560448201526a74206f6620626f756e647360a81b6064820152608490fd5b9291503461045f57602036600319011261045f5791816106ae60209461022c9460c0976113bd611d34565b508235815260108852208351916113d383611bdd565b84516113e38161059d8186611da0565b835261069185516113fb8161059d8160018801611da0565b89850190815261067d60028501549588810196875261065e6005610650600389015497606085019889528901611e6c565b8385833461019e5761143d36611ad6565b9091611447612929565b84519361145385611c0e565b6067855260676020956661646c696e652960c81b6080888301927f41637457697468536967286279746573333220617373657449642c616464726584527f73735b5d20616374696f6e732c62797465735b5d20616374696f6e50726f63658b8201527f737344617461732c75696e74323536206e6f6e63652c75696e74323536206465606082015201522073__$eb08931da2d0e33e8a6d7df35e46c67175$__61151d87611503818901896129d2565b8b516333983acb60e01b81529384928392908a8401612a07565b0381855af490811561167d5788908592611687575b50611560926115438b8a018a6129d2565b8c51639e22d70d60e01b81529586939284928392918c8401612a82565b03915af491821561167d578987938a938a938892611642575b50608093836115ea979693610c6e936115f49a6103b29760018060a01b039d8e6115a28d612b25565b168152600f895220938454946115b786612b39565b90555196870190815293356020850152604084015260608301526080820152949093013560a085015291829060c0850190565b6103c33686612ba3565b90806115ff85612b25565b9216911603611634575061022c9161161961161f92612b25565b906138cc565b926001600c5551928284938452830190611b17565b8451630e751dc360e31b8152fd5b9493509450505081813d8311611676575b61165d8183611c72565b8101031261045f57518591889188918b91906080611579565b503d611653565b89513d86823e3d90fd5b809250813d83116116af575b61169d8183611c72565b8101031261045f575187611560611532565b503d611693565b84346104bd576103f96116c836611aa1565b916116d66107268433612110565b6121d8565b5050503461019e578160031936011261019e576020906008549051908152f35b50905034610463578160031936011261046357611716611a14565b6024359290916001600160a01b039190828061173187611fd6565b1694169380851461181d578033149081156117fe575b501561179657848652602052842080546001600160a01b0319168317905561176e83611fd6565b167f8c5be1e5ebec7d5bd14f71427d1e84f3dd0314c0f7b2291e5b200ac8c7c3b9258480a480f35b6020608492519162461bcd60e51b8352820152603d60248201527f4552433732313a20617070726f76652063616c6c6572206973206e6f7420746f60448201527f6b656e206f776e6572206f7220617070726f76656420666f7220616c6c0000006064820152fd5b90508652600560205281862033875260205260ff828720541638611747565b506020608492519162461bcd60e51b8352820152602160248201527f4552433732313a20617070726f76616c20746f2063757272656e74206f776e656044820152603960f91b6064820152fd5b508284346104bd5760203660031901126104bd5750610a9a60209235611ff9565b8385346104bd57806003193601126104bd57815191828283546118ad81611d66565b908184526020956001918783821691826000146108f75750506001146118e05750505061022c929161088d910385611c72565b91908693508280527f290decd9548b62a8d60345a988386fc84ba6bc95484008f6362f93160ef3e5635b828410611923575050508201018161088d61022c61087a565b8054848a01860152889550879490930192810161190a565b5050503461019e57602036600319011261019e5760209181906001600160a01b03611964611a14565b168152600f845220549051908152f35b85908334610463576020366003190112610463573563ffffffff60e01b81168091036104635760209250637062619d60e01b81149081156119b7575b5015158152f35b63780e9d6360e01b8114915081156119d1575b50836119b0565b6380ac58cd60e01b811491508115611a03575b81156119f2575b50836119ca565b6301ffc9a760e01b149050836119eb565b635b5e139f60e01b811491506119e4565b600435906001600160a01b0382168203611a2a57565b600080fd5b602435906001600160a01b0382168203611a2a57565b35906001600160a01b0382168203611a2a57565b60005b838110611a6c5750506000910152565b8181015183820152602001611a5c565b90602091611a9581518092818552858086019101611a59565b601f01601f1916010190565b6060906003190112611a2a576001600160a01b03906004358281168103611a2a57916024359081168103611a2a579060443590565b9060031960c081840112611a2a57600435906001600160401b038211611a2a576060908285030112611a2a5760a090600401926023190112611a2a57602490565b90815180825260208092019182818360051b82019501936000915b848310611b425750505050505090565b9091929394958480611b5c83856001950387528a51611a7c565b9801930193019194939290611b32565b90815180825260208080930193019160005b828110611b8c575050505090565b83516001600160a01b031685529381019392810192600101611b7e565b90815180825260208080930193019160005b828110611bc9575050505090565b835185529381019392810192600101611bbb565b60c081019081106001600160401b03821117611bf857604052565b634e487b7160e01b600052604160045260246000fd5b60a081019081106001600160401b03821117611bf857604052565b6001600160401b038111611bf857604052565b602081019081106001600160401b03821117611bf857604052565b604081019081106001600160401b03821117611bf857604052565b90601f801991011681019081106001600160401b03821117611bf857604052565b6001600160401b038111611bf857601f01601f191660200190565b929192611cba82611c93565b91611cc86040519384611c72565b829481845281830111611a2a578281602093846000960137010152565b9080601f83011215611a2a57816020611d0093359101611cae565b90565b60031990602081830112611a2a57600435916001600160401b038311611a2a5782606092030112611a2a5760040190565b60405190611d4182611bdd565b606060a083828152826020820152600060408201526000838201528260808201520152565b90600182811c92168015611d96575b6020831014611d8057565b634e487b7160e01b600052602260045260246000fd5b91607f1691611d75565b805460009392611daf82611d66565b918282526020936001918281169081600014611e165750600114611dd5575b5050505050565b90939495506000929192528360002092846000945b838610611e0257505050500101903880808080611dce565b805485870183015294019385908201611dea565b60ff19168685015250505090151560051b010191503880808080611dce565b90929192611e4281611c93565b91611e506040519384611c72565b829482845282820111611a2a576020611e6a930190611a59565b565b9060405191828154918282526020928383019160005283600020936000905b828210611ea157505050611e6a92500383611c72565b85546001600160a01b031684526001958601958895509381019390910190611e8b565b9060405191828154918282526020928383019160005283600020936000905b828210611ef957505050611e6a92500383611c72565b855484526001958601958895509381019390910190611ee3565b6001600160a01b03168015611f3357600052600360205260406000205490565b60405162461bcd60e51b815260206004820152602960248201527f4552433732313a2061646472657373207a65726f206973206e6f7420612076616044820152683634b21037bbb732b960b91b6064820152608490fd5b15611f9157565b60405162461bcd60e51b815260206004820152601860248201527f4552433732313a20696e76616c696420746f6b656e20494400000000000000006044820152606490fd5b6000908152600260205260409020546001600160a01b0316611d00811515611f8a565b60008181526002602052604090205461201c906001600160a01b03161515611f8a565b6000908152600460205260409020546001600160a01b031690565b1561203e57565b60405162461bcd60e51b815260206004820152602d60248201527f4552433732313a2063616c6c6572206973206e6f7420746f6b656e206f776e6560448201526c1c881bdc88185c1c1c9bdd9959609a1b6064820152608490fd5b60809060208152603260208201527f4552433732313a207472616e7366657220746f206e6f6e20455243373231526560408201527131b2b4bb32b91034b6b83632b6b2b73a32b960711b60608201520190565b156120f357565b60405162461bcd60e51b81528061210c60048201612099565b0390fd5b906001600160a01b03808061212484611fd6565b16931691838314938415612157575b508315612141575b50505090565b61214d91929350611ff9565b161438808061213b565b909350600052600560205260406000208260005260205260ff604060002054169238612133565b1561218557565b60405162461bcd60e51b815260206004820152602560248201527f4552433732313a207472616e736665722066726f6d20696e636f72726563742060448201526437bbb732b960d91b6064820152608490fd5b6121fc916121e584611fd6565b6001600160a01b039384841693918516841461217e565b8382169384156123e85783918261232f575090506008549085600052600960205281604060002055600160401b821015611bf85761227c92866122606122498560018997016008556125dc565b819391549060031b91821b91600019901b19161790565b90555b8286036122fc575b5061227586611fd6565b161461217e565b7fddf252ad1be2c89b69c2b068fc378daa952ba7f163c4a11628f55a4df523b3ef60008481526004602052604081206bffffffffffffffffffffffff60a01b9081815416905583825260036020526040822060001981540190558482526040822060018154019055858252600260205284604083209182541617905580a4565b61230590611f13565b6040600087815260066020528181208382526020528882822055888152600760205220553861226b565b858303612341575b5061227c92612263565b61234c919250611f13565b6000198101919082116123d25761227c928492600090888252602090600782526040918284205482810361239b575b508a84528383812055868452600681528284209184525281205592612337565b878552600682528385208386528252838520548886526006835284862082875283528085872055855260078252838520553861237b565b634e487b7160e01b600052601160045260246000fd5b60405162461bcd60e51b8152602060048201526024808201527f4552433732313a207472616e7366657220746f20746865207a65726f206164646044820152637265737360e01b6064820152608490fd5b91929091803b1561254a57612486936040519081630a85bd0160e11b9384825233600483015260009687602484015260448301526080606483015281878160209a8b966084830190611a7c565b03926001600160a01b03165af184918161250a575b506124f9575050503d6000146124f1573d6124b581611c93565b906124c36040519283611c72565b81528091833d92013e5b805191826124ee5760405162461bcd60e51b81528061210c60048201612099565b01fd5b5060606124cd565b6001600160e01b0319161492509050565b9091508581813d8311612543575b6125228183611c72565b810103126106c757516001600160e01b0319811681036106c757903861249b565b503d612518565b50915050600190565b9293919290803b156125d2576125a79460018060a01b039460405192839187630a85bd0160e11b9687855233600486015216602484015260448301526080606483015281806020998a956084830190611a7c565b03916000988991165af184918161250a57506124f9575050503d6000146124f1573d6124b581611c93565b5050915050600190565b6008548110156126135760086000527ff3f7a9fe364faab93b216da50a3214154f22a0a2b415b23a84c8169e8b636ee30190600090565b634e487b7160e01b600052603260045260246000fd5b80548210156126135760005260206000200190600090565b6001600160401b038111611bf85760051b60200190565b60ff81146126965760ff811690601f8211612684576040519161267a83611c57565b8252602082015290565b604051632cd44ac360e21b8152600490fd5b50604051600a548160006126a983611d66565b80835260209360019081811690811561273257506001146126d3575b5050611d0092500382611c72565b90939150600a6000527fc65a7bb8d6351c1cf70c95a316cc6a92839c986682d98bc35f958f4883f9d2a8936000915b81831061271a575050611d00935082010138806126c5565b85548784018501529485019486945091830191612702565b915050611d0094925060ff191682840152151560051b82010138806126c5565b60ff81146127745760ff811690601f8211612684576040519161267a83611c57565b50604051600b5481600061278783611d66565b80835260209360019081811690811561273257506001146127b0575050611d0092500382611c72565b90939150600b6000527f0175b7a638427703f0dbe7bb9bbf987a2551717b34e79f33b5b1008d1fa01db9936000915b8183106127f7575050611d00935082010138806126c5565b855487840185015294850194869450918301916127df565b307f00000000000000000000000000000000000000000000000000000000000000006001600160a01b03161480612900575b1561286a577f000000000000000000000000000000000000000000000000000000000000000090565b60405160208101907f8b73c3c69bb8fe3d512ecc4cf759cc79239f7b179b0ffacaa9a75d522b39400f82527f000000000000000000000000000000000000000000000000000000000000000060408201527f000000000000000000000000000000000000000000000000000000000000000060608201524660808201523060a082015260a081526128fa81611bdd565b51902090565b507f00000000000000000000000000000000000000000000000000000000000000004614612841565b6002600c541461293a576002600c55565b60405162461bcd60e51b815260206004820152601f60248201527f5265656e7472616e637947756172643a207265656e7472616e742063616c6c006044820152606490fd5b903590601e1981360301821215611a2a57018035906001600160401b038211611a2a57602001918136038313611a2a57565b908060209392818452848401376000828201840152601f01601f1916010190565b903590601e1981360301821215611a2a57018035906001600160401b038211611a2a57602001918160051b36038313611a2a57565b90916040602092828482018583525201929160005b828110612a2a575050505090565b909192938280600192838060a01b03612a4289611a45565b16815201950193929101612a1c565b9035601e1982360301811215611a2a5701602081359101916001600160401b038211611a2a578136038313611a2a57565b9160208181850182865252604084019360408360051b82010194846000925b858410612ab2575050505050505090565b909192939495968580612ada600193603f19868203018852612ad48c88612a51565b906129b1565b990194019401929594939190612aa1565b81835290916001600160fb1b038311611a2a5760209260051b809284830137010190565b6024356001600160a01b0381168103611a2a5790565b356001600160a01b0381168103611a2a5790565b60001981146123d25760010190565b60a0906023190112611a2a5760405190612b6182611c0e565b816024356001600160a01b0381168103611a2a57815260443560ff81168103611a2a57602082015260643560408201526084356060820152608060a435910152565b91908260a0910312611a2a57604051612bbb81611c0e565b8092612bc681611a45565b8252602081013560ff81168103611a2a576080918291602085015260408101356040850152606081013560608501520135910152565b604290612c0761280f565b906040519161190160f01b8352600283015260228201522090565b9291612c2d82612641565b91612c3b6040519384611c72565b829481845260208094019160051b8101928311611a2a57905b828210612c615750505050565b838091612c6d84611a45565b815201910190612c54565b9080601f83011215611a2a57816020611d0093359101612c22565b81601f82011215611a2a57803591602091612cad84612641565b93612cbb6040519586611c72565b808552838086019160051b83010192808411611a2a57848301915b848310612ce65750505050505090565b82356001600160401b038111611a2a578691612d0784848094890101611ce5565b815201920191612cd6565b919091606081840312611a2a57604051906001600160401b03906060830182811184821017611bf8576040528294813584526020820135838111611a2a5781612d5c918401612c78565b60208501526040820135928311611a2a57604092612d7a9201612c93565b910152565b9291612d8a82612641565b91612d986040519384611c72565b829481845260208094019160051b8101928311611a2a57905b828210612dbe5750505050565b81358152908301908301612db1565b9080601f83011215611a2a57816020611d0093359101612d7f565b919091604081840312611a2a5760408051916001600160401b0391830182811184821017611bf8576040528294813584526020820135928311611a2a57602092612d7a9201612dcd565b818110612e3d575050565b60008155600101612e32565b9190601f8111612e5857505050565b611e6a926000526020600020906020601f840160051c83019310612e84575b601f0160051c0190612e32565b9091508190612e77565b91908110156126135760051b0190565b9082101561261357612eb59160051b81019061297f565b9091565b91908082526020809201929160005b828110612ed6575050505090565b909192938280600192838060a01b03612eee89611a45565b16815201950193929101612ec8565b90808352602080930192838260051b810194846000925b858410612f25575050505050505090565b909192939495968580612f438385600195038852612ad48c88612a51565b990194019401929594939190612f14565b91612f9b6020612f6e612f67868061297f565b3691611cae565b60018060a01b03600d54166040518080958194634c0beab360e11b83528660048401526024830190611a7c565b03915afa9081156135a957600091613889575b501561387757612fd3612fce612fc760408601866129d2565b3691612c22565b613e4c565b60a083360312611a2a57604051612fe981611c0e565b83356001600160401b038111611a2a57840136601f82011215611a2a57613017903690602081359101611cae565b815260208401356001600160401b038111611a2a576130399036908601611ce5565b602082015260408401356001600160401b038111611a2a5761305e9036908601612c78565b604082015260608401356001600160401b038111611a2a576130839036908601612c93565b60608201526001600160401b03608085013511611a2a576130aa3660808601358601612dcd565b60808201526040519060806020830152816131036130ed6130d7845160a080860152610140850190611a7c565b6020850151848203609f190160c0860152611a7c565b6040840151838203609f190160e0850152611b6c565b606083015190609f1983820301610100840152815180825260208201916020808360051b8301019401926000915b83831061384457505050505061315b906080613184940151609f1984830301610120850152611ba9565b6001600160a01b038616604083015230606083015242608083015203601f198101835282611c72565b6020815191012090600e5461319881612b39565b600e556040516131a781611c3c565b600081526001600160a01b03851615613800576000828152600260205260409020546131df906001600160a01b031615155b15613d8a565b60085482600052600960205280604060002055600160401b811015611bf8576132d8918361321961224984600161073b96016008556125dc565b905561322487611f13565b6001600160a01b0388811660009081526006602090815260408083208584528252808320899055888352600782528083209490945560029052919091205461326e911615156131d9565b6001600160a01b0387166000818152600360209081526040808320805460010190558783526002909152812080546001600160a01b031916831790558591907fddf252ad1be2c89b69c2b068fc378daa952ba7f163c4a11628f55a4df523b3ef8180a48387612439565b6133586132e5868061297f565b919061332b61334c8961331b613334613301602084018461297f565b61330e60408601866129d2565b94909560808101906129d2565b9790986040519b612f678d611bdd565b8a523691611cae565b60208801524260408801528760608801523691612c22565b60808501523691612d7f565b60a082015283600052601060205260406000209080518051906001600160401b038211611bf8576133938261338d8654611d66565b86612e49565b602090601f8311600114613794576133c4929160009183613717575b50508160011b916000199060031b1c19161790565b82555b60208101518051906001600160401b038211611bf8576133f7826133ee6001870154611d66565b60018701612e49565b602090601f8311600114613722576134279291600091836137175750508160011b916000199060031b1c19161790565b60018301555b604081015160028301556060810151600383015560808101518051906001600160401b038211611bf857600160401b8211611bf85760209060048501548360048701558084106136f7575b500160048401600052602060002060005b8381106136da575050505060a00151908151916001600160401b038311611bf857600160401b8311611bf85760058201548360058401558084106136ad575b506020600591019101600052602060002060005b838110613699575050505060005b6134f760408701876129d2565b90508110156135b5578061352861352361351460408a018a6129d2565b6001600160a01b039491612e8e565b612b25565b16906135418161353b60608a018a6129d2565b90612e9e565b90833b15611a2a5761357b9360009283604051809781958294636dc3577560e11b84528d60048501526040602485015260448401916129b1565b03925af19182156135a9576135959261359a575b50612b39565b6134ea565b6135a390611c29565b3861358f565b6040513d6000823e3d90fd5b509180939491946135c6838061297f565b90916135d5602086018661297f565b919095604081016135e690826129d2565b906135f460608401846129d2565b92909360808101613604916129d2565b9a9096604051998a9960a08b5260a08b019061361f926129b1565b9089820360208b0152613631926129b1565b90878203604089015261364392612eb9565b90858203606087015261365592612efd565b83810360808501526001600160a01b039091169561367292612aeb565b037fb7ebe4ef080ae99bbacdf111d6d2f1181768b49863b7f71ad31d1b9c996fb11c91a490565b6001906020845194019381840155016134dc565b600583016000526020600020908482015b81830181106136ce5750506134c8565b600081556001016136be565b82516001600160a01b031681830155602090920191600101613489565b613711906004870160005284846000209182019101612e32565b38613478565b0151905038806133af565b9190600185016000526020600020906000935b601f1984168510613779576001945083601f19811610613760575b505050811b01600183015561342d565b015160001960f88460031b161c19169055388080613750565b81810151835560209485019460019093019290910190613735565b9190846000526020600020906000935b601f19841685106137e5576001945083601f198116106137cc575b505050811b0182556133c7565b015160001960f88460031b161c191690553880806137bf565b818101518355602094850194600190930192909101906137a4565b606460405162461bcd60e51b815260206004820152602060248201527f4552433732313a206d696e7420746f20746865207a65726f20616464726573736044820152fd5b91939695509193602080613864600193601f198682030187528a51611a7c565b9801930193019092879596949293613131565b604051635ec8173560e01b8152600490fd5b6138ab915060203d6020116138b1575b6138a38183611c72565b810190613e34565b38612fae565b503d613899565b80518210156126135760209160051b010190565b9091602091828101916138df83836129d2565b6040929150838301906138f282866129d2565b91905003613bc35792906000965b61390a86846129d2565b90508810156139c957600094855b8435806000526010808b5260049081896000200154841015613996576139639184916139538f613523908f61394d908e6129d2565b90612e8e565b946000528d528960002001612629565b905460039190911b1c6001600160a01b0390811691161461398d575b61398890612b39565b613918565b6001965061397f565b50505050919294979097156139b8576139ae90612b39565b9693919093613900565b8351632b52c85160e21b8152600490fd5b91909593929496506139db87826129d2565b9790506139e788612641565b976139f48751998a611c72565b808952613a03601f1991612641565b018560005b828110613bb3575050508760005b613a2083856129d2565b9050811015613b2a5787600061353b88888389613a97613a6789613a448d856129d2565b6001600160a01b0399918a91613a5f91613523918691612e8e565b1697856129d2565b98519889978896879563ce79d4bd60e01b87523560048701521660248501526060604485015260648401916129b1565b03925af1908115613b1f57600091613aca575b5090613ac591613aba828d6138b8565b5261358f818c6138b8565b613a16565b903d8082843e613ada8184611c72565b820191898184031261019e578051906001600160401b03821161046357019082601f830112156104bd5750613ac59291818a613b1893519101611e35565b9091613aaa565b89513d6000823e3d90fd5b509794957f8f7df4b117f95d3eb363b9748409ed3e2278f6683efbf8f05304a62802dd57859493613b93613b6f9498613b66613bae958b6129d2565b9690978b6129d2565b90613b868651998a9960608b5260608b0191612eb9565b9288840390890152612efd565b848103928501929092526001600160a01b0316963595611b17565b0390a3565b606082828d010152018690613a08565b82516318c2d3e960e31b8152600490fd5b9190613be1908351613ef6565b602091828101613bf18151613e4c565b805151916040948582019384515103613d065760005b835151811015613cfd5782516000526010825260049081886000200160018060a01b039081613c378489516138b8565b511690805490600160401b821015613ce85790613c5991600182018155612629565b83829392549160031b92831b921b1916179055613c778287516138b8565b511691845190613c888389516138b8565b5193803b15611a2a57600092838c93613cbf855198899687958694636dc3577560e11b865285015260248401526044830190611a7c565b03925af1918215613cdd57613cd89261359a5750612b39565b613c07565b88513d6000823e3d90fd5b604186634e487b7160e01b6000525260246000fd5b50505050509050565b85516318c2d3e960e31b8152600490fd5b90613d23908251613ef6565b60005b60209081830191825151821015613d8457601090845160005252613d5381600560406000200193516138b8565b518254600160401b811015611bf85761224981613d7f956001613d7894018155612629565b9055612b39565b613d26565b50505050565b15613d9157565b60405162461bcd60e51b815260206004820152601c60248201527f4552433732313a20746f6b656e20616c7265616479206d696e746564000000006044820152606490fd5b60808201514211613e225760806000918360ff60208096015116906060604082015191015191604051938452868401526040830152606082015282805260015afa156135a95760005190565b604051630819bdcd60e01b8152600490fd5b90816020910312611a2a57518015158103611a2a5790565b90600091825b8151811015613ef0576001600160a01b03613e6d82846138b8565b5116604080516301ffc9a760e01b81528060049363280ee6f160e21b8583015281602460209485935afa918215613ee6578892613ec9575b505015613ebc575050613eb790612b39565b613e52565b5163251cb21f60e01b8152fd5b613edf9250803d106138b1576138a38183611c72565b3880613ea5565b83513d8a823e3d90fd5b50509050565b6000526010602052613f0f600360406000200154611fd6565b6001600160a01b03918216911603613f2357565b604051637d387f3960e01b8152600490fdfea26469706673582212202f286111b64aa04aea7e784227527e38b84f180d1d4b51b2392a2cf3656d730c64736f6c63430008150033",
    "linkReferences": {
      "node_modules/dataverse-contracts-test/contracts/monetizer/libraries/EIP712Encoder.sol": {
        "EIP712Encoder": [
          {
            "start": 2944,
            "length": 20
          },
          {
            "start": 5051,
            "length": 20
          },
          {
            "start": 5771,
            "length": 20
          },
          {
            "start": 7476,
            "length": 20
          }
        ]
      }
    }
  },
  "methodIdentifiers": {
    "DAPP_TABLE_REGISTRY()": "a9d298b1",
    "act((bytes32,address[],bytes[]))": "e03e0163",
    "actWithSig((bytes32,address[],bytes[]),(address,uint8,bytes32,bytes32,uint256))": "26297584",
    "addActions((bytes32,address[],bytes[]))": "c2bb05a7",
    "addActionsWithSig((bytes32,address[],bytes[]),(address,uint8,bytes32,bytes32,uint256))": "5b882006",
    "addImages((bytes32,bytes32[]))": "8fd5b368",
    "addImagesWithSig((bytes32,bytes32[]),(address,uint8,bytes32,bytes32,uint256))": "dd482d3e",
    "approve(address,uint256)": "095ea7b3",
    "balanceOf(address)": "70a08231",
    "eip712Domain()": "84b0196e",
    "getApproved(uint256)": "081812fc",
    "getAsset(bytes32)": "2cc3ce80",
    "getAssetOwner(bytes32)": "35d8c2b7",
    "getDomainSeparator()": "ed24911d",
    "getSigNonce(address)": "05ac0ab4",
    "getTokenAsset(bytes32)": "b9348ed8",
    "isApprovedForAll(address,address)": "e985e9c5",
    "name()": "06fdde03",
    "ownerOf(uint256)": "6352211e",
    "publish((string,bytes,address[],bytes[],bytes32[]))": "d7499c41",
    "publishWithSig((string,bytes,address[],bytes[],bytes32[]),(address,uint8,bytes32,bytes32,uint256))": "5b01a552",
    "safeTransferFrom(address,address,uint256)": "42842e0e",
    "safeTransferFrom(address,address,uint256,bytes)": "b88d4fde",
    "setApprovalForAll(address,bool)": "a22cb465",
    "supportsInterface(bytes4)": "01ffc9a7",
    "symbol()": "95d89b41",
    "tokenByIndex(uint256)": "4f6ccce7",
    "tokenOfOwnerByIndex(address,uint256)": "2f745c59",
    "tokenURI(uint256)": "c87b56dd",
    "totalSupply()": "18160ddd",
    "transferFrom(address,address,uint256)": "23b872dd"
  },
  "id": 0
}