{
  "abi": [
    {
      "inputs": [],
      "stateMutability": "nonpayable",
      "type": "constructor"
    },
    {
      "inputs": [],
      "name": "ActionAlreadyExists",
      "type": "error"
    },
    {
      "inputs": [],
      "name": "ActionInvalid",
      "type": "error"
    },
    {
      "inputs": [],
      "name": "ActionNotExists",
      "type": "error"
    },
    {
      "inputs": [],
      "name": "ArrayLengthNotEqual",
      "type": "error"
    },
    {
      "inputs": [],
      "name": "ERC721EnumerableForbiddenBatchMint",
      "type": "error"
    },
    {
      "inputs": [
        {
          "internalType": "address",
          "name": "sender",
          "type": "address"
        },
        {
          "internalType": "uint256",
          "name": "tokenId",
          "type": "uint256"
        },
        {
          "internalType": "address",
          "name": "owner",
          "type": "address"
        }
      ],
      "name": "ERC721IncorrectOwner",
      "type": "error"
    },
    {
      "inputs": [
        {
          "internalType": "address",
          "name": "operator",
          "type": "address"
        },
        {
          "internalType": "uint256",
          "name": "tokenId",
          "type": "uint256"
        }
      ],
      "name": "ERC721InsufficientApproval",
      "type": "error"
    },
    {
      "inputs": [
        {
          "internalType": "address",
          "name": "approver",
          "type": "address"
        }
      ],
      "name": "ERC721InvalidApprover",
      "type": "error"
    },
    {
      "inputs": [
        {
          "internalType": "address",
          "name": "operator",
          "type": "address"
        }
      ],
      "name": "ERC721InvalidOperator",
      "type": "error"
    },
    {
      "inputs": [
        {
          "internalType": "address",
          "name": "owner",
          "type": "address"
        }
      ],
      "name": "ERC721InvalidOwner",
      "type": "error"
    },
    {
      "inputs": [
        {
          "internalType": "address",
          "name": "receiver",
          "type": "address"
        }
      ],
      "name": "ERC721InvalidReceiver",
      "type": "error"
    },
    {
      "inputs": [
        {
          "internalType": "address",
          "name": "sender",
          "type": "address"
        }
      ],
      "name": "ERC721InvalidSender",
      "type": "error"
    },
    {
      "inputs": [
        {
          "internalType": "uint256",
          "name": "tokenId",
          "type": "uint256"
        }
      ],
      "name": "ERC721NonexistentToken",
      "type": "error"
    },
    {
      "inputs": [
        {
          "internalType": "address",
          "name": "owner",
          "type": "address"
        },
        {
          "internalType": "uint256",
          "name": "index",
          "type": "uint256"
        }
      ],
      "name": "ERC721OutOfBoundsIndex",
      "type": "error"
    },
    {
      "inputs": [],
      "name": "InitializeActionFailed",
      "type": "error"
    },
    {
      "inputs": [],
      "name": "InvalidShortString",
      "type": "error"
    },
    {
      "inputs": [],
      "name": "NotAssetOwner",
      "type": "error"
    },
    {
      "inputs": [],
      "name": "ProcessActionFailed",
      "type": "error"
    },
    {
      "inputs": [],
      "name": "ReentrancyGuardReentrantCall",
      "type": "error"
    },
    {
      "inputs": [],
      "name": "ResourceNotExists",
      "type": "error"
    },
    {
      "inputs": [],
      "name": "SignatureExpired",
      "type": "error"
    },
    {
      "inputs": [],
      "name": "SignatureMismatch",
      "type": "error"
    },
    {
      "inputs": [
        {
          "internalType": "string",
          "name": "str",
          "type": "string"
        }
      ],
      "name": "StringTooLong",
      "type": "error"
    },
    {
      "anonymous": false,
      "inputs": [
        {
          "indexed": true,
          "internalType": "address",
          "name": "owner",
          "type": "address"
        },
        {
          "indexed": true,
          "internalType": "address",
          "name": "approved",
          "type": "address"
        },
        {
          "indexed": true,
          "internalType": "uint256",
          "name": "tokenId",
          "type": "uint256"
        }
      ],
      "name": "Approval",
      "type": "event"
    },
    {
      "anonymous": false,
      "inputs": [
        {
          "indexed": true,
          "internalType": "address",
          "name": "owner",
          "type": "address"
        },
        {
          "indexed": true,
          "internalType": "address",
          "name": "operator",
          "type": "address"
        },
        {
          "indexed": false,
          "internalType": "bool",
          "name": "approved",
          "type": "bool"
        }
      ],
      "name": "ApprovalForAll",
      "type": "event"
    },
    {
      "anonymous": false,
      "inputs": [
        {
          "indexed": true,
          "internalType": "bytes32",
          "name": "assetId",
          "type": "bytes32"
        },
        {
          "indexed": true,
          "internalType": "address",
          "name": "actor",
          "type": "address"
        },
        {
          "indexed": false,
          "internalType": "uint256",
          "name": "actAt",
          "type": "uint256"
        },
        {
          "indexed": false,
          "internalType": "address[]",
          "name": "actions",
          "type": "address[]"
        },
        {
          "indexed": false,
          "internalType": "bytes[]",
          "name": "actionProcessDatas",
          "type": "bytes[]"
        },
        {
          "indexed": false,
          "internalType": "bytes[]",
          "name": "actionReturnDatas",
          "type": "bytes[]"
        }
      ],
      "name": "AssetActed",
      "type": "event"
    },
    {
      "anonymous": false,
      "inputs": [
        {
          "indexed": true,
          "internalType": "bytes32",
          "name": "assetId",
          "type": "bytes32"
        },
        {
          "indexed": false,
          "internalType": "address[]",
          "name": "actions",
          "type": "address[]"
        },
        {
          "indexed": false,
          "internalType": "bytes[]",
          "name": "actionInitDatas",
          "type": "bytes[]"
        }
      ],
      "name": "AssetActionsAdded",
      "type": "event"
    },
    {
      "anonymous": false,
      "inputs": [
        {
          "indexed": true,
          "internalType": "bytes32",
          "name": "assetId",
          "type": "bytes32"
        },
        {
          "indexed": true,
          "internalType": "address",
          "name": "publisher",
          "type": "address"
        },
        {
          "indexed": true,
          "internalType": "uint256",
          "name": "publicationId",
          "type": "uint256"
        },
        {
          "indexed": false,
          "internalType": "uint256",
          "name": "publishAt",
          "type": "uint256"
        },
        {
          "indexed": false,
          "internalType": "bytes",
          "name": "data",
          "type": "bytes"
        },
        {
          "indexed": false,
          "internalType": "address[]",
          "name": "actions",
          "type": "address[]"
        },
        {
          "indexed": false,
          "internalType": "bytes[]",
          "name": "actionInitDatas",
          "type": "bytes[]"
        }
      ],
      "name": "AssetPublished",
      "type": "event"
    },
    {
      "anonymous": false,
      "inputs": [],
      "name": "EIP712DomainChanged",
      "type": "event"
    },
    {
      "anonymous": false,
      "inputs": [
        {
          "indexed": true,
          "internalType": "address",
          "name": "from",
          "type": "address"
        },
        {
          "indexed": true,
          "internalType": "address",
          "name": "to",
          "type": "address"
        },
        {
          "indexed": true,
          "internalType": "uint256",
          "name": "tokenId",
          "type": "uint256"
        }
      ],
      "name": "Transfer",
      "type": "event"
    },
    {
      "inputs": [
        {
          "components": [
            {
              "internalType": "bytes32",
              "name": "assetId",
              "type": "bytes32"
            },
            {
              "internalType": "address[]",
              "name": "actions",
              "type": "address[]"
            },
            {
              "internalType": "bytes[]",
              "name": "actionProcessDatas",
              "type": "bytes[]"
            }
          ],
          "internalType": "struct IDataMonetizer.ActParams",
          "name": "actParams",
          "type": "tuple"
        }
      ],
      "name": "act",
      "outputs": [
        {
          "internalType": "bytes[]",
          "name": "",
          "type": "bytes[]"
        }
      ],
      "stateMutability": "payable",
      "type": "function"
    },
    {
      "inputs": [
        {
          "components": [
            {
              "internalType": "bytes32",
              "name": "assetId",
              "type": "bytes32"
            },
            {
              "internalType": "address[]",
              "name": "actions",
              "type": "address[]"
            },
            {
              "internalType": "bytes[]",
              "name": "actionProcessDatas",
              "type": "bytes[]"
            }
          ],
          "internalType": "struct IDataMonetizer.ActParams",
          "name": "actParams",
          "type": "tuple"
        },
        {
          "components": [
            {
              "internalType": "address",
              "name": "signer",
              "type": "address"
            },
            {
              "internalType": "uint8",
              "name": "v",
              "type": "uint8"
            },
            {
              "internalType": "bytes32",
              "name": "r",
              "type": "bytes32"
            },
            {
              "internalType": "bytes32",
              "name": "s",
              "type": "bytes32"
            },
            {
              "internalType": "uint256",
              "name": "deadline",
              "type": "uint256"
            }
          ],
          "internalType": "struct IDataMonetizer.EIP712Signature",
          "name": "signature",
          "type": "tuple"
        }
      ],
      "name": "actWithSig",
      "outputs": [
        {
          "internalType": "bytes[]",
          "name": "",
          "type": "bytes[]"
        }
      ],
      "stateMutability": "payable",
      "type": "function"
    },
    {
      "inputs": [
        {
          "components": [
            {
              "internalType": "bytes32",
              "name": "assetId",
              "type": "bytes32"
            },
            {
              "internalType": "address[]",
              "name": "actions",
              "type": "address[]"
            },
            {
              "internalType": "bytes[]",
              "name": "actionInitDatas",
              "type": "bytes[]"
            }
          ],
          "internalType": "struct IDataMonetizer.AddActionsParams",
          "name": "addActionsParams",
          "type": "tuple"
        }
      ],
      "name": "addActions",
      "outputs": [],
      "stateMutability": "nonpayable",
      "type": "function"
    },
    {
      "inputs": [
        {
          "components": [
            {
              "internalType": "bytes32",
              "name": "assetId",
              "type": "bytes32"
            },
            {
              "internalType": "address[]",
              "name": "actions",
              "type": "address[]"
            },
            {
              "internalType": "bytes[]",
              "name": "actionInitDatas",
              "type": "bytes[]"
            }
          ],
          "internalType": "struct IDataMonetizer.AddActionsParams",
          "name": "addActionsParams",
          "type": "tuple"
        },
        {
          "components": [
            {
              "internalType": "address",
              "name": "signer",
              "type": "address"
            },
            {
              "internalType": "uint8",
              "name": "v",
              "type": "uint8"
            },
            {
              "internalType": "bytes32",
              "name": "r",
              "type": "bytes32"
            },
            {
              "internalType": "bytes32",
              "name": "s",
              "type": "bytes32"
            },
            {
              "internalType": "uint256",
              "name": "deadline",
              "type": "uint256"
            }
          ],
          "internalType": "struct IDataMonetizer.EIP712Signature",
          "name": "signature",
          "type": "tuple"
        }
      ],
      "name": "addActionsWithSig",
      "outputs": [],
      "stateMutability": "nonpayable",
      "type": "function"
    },
    {
      "inputs": [
        {
          "internalType": "address",
          "name": "to",
          "type": "address"
        },
        {
          "internalType": "uint256",
          "name": "tokenId",
          "type": "uint256"
        }
      ],
      "name": "approve",
      "outputs": [],
      "stateMutability": "nonpayable",
      "type": "function"
    },
    {
      "inputs": [
        {
          "internalType": "address",
          "name": "owner",
          "type": "address"
        }
      ],
      "name": "balanceOf",
      "outputs": [
        {
          "internalType": "uint256",
          "name": "",
          "type": "uint256"
        }
      ],
      "stateMutability": "view",
      "type": "function"
    },
    {
      "inputs": [],
      "name": "eip712Domain",
      "outputs": [
        {
          "internalType": "bytes1",
          "name": "fields",
          "type": "bytes1"
        },
        {
          "internalType": "string",
          "name": "name",
          "type": "string"
        },
        {
          "internalType": "string",
          "name": "version",
          "type": "string"
        },
        {
          "internalType": "uint256",
          "name": "chainId",
          "type": "uint256"
        },
        {
          "internalType": "address",
          "name": "verifyingContract",
          "type": "address"
        },
        {
          "internalType": "bytes32",
          "name": "salt",
          "type": "bytes32"
        },
        {
          "internalType": "uint256[]",
          "name": "extensions",
          "type": "uint256[]"
        }
      ],
      "stateMutability": "view",
      "type": "function"
    },
    {
      "inputs": [
        {
          "internalType": "uint256",
          "name": "tokenId",
          "type": "uint256"
        }
      ],
      "name": "getApproved",
      "outputs": [
        {
          "internalType": "address",
          "name": "",
          "type": "address"
        }
      ],
      "stateMutability": "view",
      "type": "function"
    },
    {
      "inputs": [
        {
          "internalType": "bytes32",
          "name": "assetId",
          "type": "bytes32"
        }
      ],
      "name": "getAsset",
      "outputs": [
        {
          "components": [
            {
              "internalType": "bytes",
              "name": "data",
              "type": "bytes"
            },
            {
              "internalType": "uint256",
              "name": "publishAt",
              "type": "uint256"
            },
            {
              "internalType": "uint256",
              "name": "publicationId",
              "type": "uint256"
            },
            {
              "internalType": "address[]",
              "name": "actions",
              "type": "address[]"
            }
          ],
          "internalType": "struct IDataMonetizer.Asset",
          "name": "",
          "type": "tuple"
        }
      ],
      "stateMutability": "view",
      "type": "function"
    },
    {
      "inputs": [
        {
          "internalType": "bytes32",
          "name": "assetId",
          "type": "bytes32"
        }
      ],
      "name": "getAssetOwner",
      "outputs": [
        {
          "internalType": "address",
          "name": "",
          "type": "address"
        }
      ],
      "stateMutability": "view",
      "type": "function"
    },
    {
      "inputs": [],
      "name": "getDomainSeparator",
      "outputs": [
        {
          "internalType": "bytes32",
          "name": "",
          "type": "bytes32"
        }
      ],
      "stateMutability": "view",
      "type": "function"
    },
    {
      "inputs": [
        {
          "internalType": "address",
          "name": "signer",
          "type": "address"
        }
      ],
      "name": "getSigNonce",
      "outputs": [
        {
          "internalType": "uint256",
          "name": "",
          "type": "uint256"
        }
      ],
      "stateMutability": "view",
      "type": "function"
    },
    {
      "inputs": [
        {
          "internalType": "bytes32",
          "name": "assetId",
          "type": "bytes32"
        }
      ],
      "name": "getTokenAsset",
      "outputs": [
        {
          "components": [
            {
              "internalType": "string",
              "name": "resourceId",
              "type": "string"
            },
            {
              "internalType": "string",
              "name": "fileId",
              "type": "string"
            },
            {
              "internalType": "uint256",
              "name": "publishAt",
              "type": "uint256"
            },
            {
              "internalType": "uint256",
              "name": "publicationId",
              "type": "uint256"
            },
            {
              "internalType": "address[]",
              "name": "actions",
              "type": "address[]"
            }
          ],
          "internalType": "struct IDataToken.TokenAsset",
          "name": "",
          "type": "tuple"
        }
      ],
      "stateMutability": "view",
      "type": "function"
    },
    {
      "inputs": [
        {
          "internalType": "address",
          "name": "owner",
          "type": "address"
        },
        {
          "internalType": "address",
          "name": "operator",
          "type": "address"
        }
      ],
      "name": "isApprovedForAll",
      "outputs": [
        {
          "internalType": "bool",
          "name": "",
          "type": "bool"
        }
      ],
      "stateMutability": "view",
      "type": "function"
    },
    {
      "inputs": [],
      "name": "name",
      "outputs": [
        {
          "internalType": "string",
          "name": "",
          "type": "string"
        }
      ],
      "stateMutability": "view",
      "type": "function"
    },
    {
      "inputs": [
        {
          "internalType": "uint256",
          "name": "tokenId",
          "type": "uint256"
        }
      ],
      "name": "ownerOf",
      "outputs": [
        {
          "internalType": "address",
          "name": "",
          "type": "address"
        }
      ],
      "stateMutability": "view",
      "type": "function"
    },
    {
      "inputs": [
        {
          "components": [
            {
              "internalType": "bytes",
              "name": "data",
              "type": "bytes"
            },
            {
              "internalType": "address[]",
              "name": "actions",
              "type": "address[]"
            },
            {
              "internalType": "bytes[]",
              "name": "actionInitDatas",
              "type": "bytes[]"
            }
          ],
          "internalType": "struct IDataMonetizer.PublishParams",
          "name": "publishParams",
          "type": "tuple"
        }
      ],
      "name": "publish",
      "outputs": [
        {
          "internalType": "bytes32",
          "name": "",
          "type": "bytes32"
        }
      ],
      "stateMutability": "payable",
      "type": "function"
    },
    {
      "inputs": [
        {
          "components": [
            {
              "internalType": "bytes",
              "name": "data",
              "type": "bytes"
            },
            {
              "internalType": "address[]",
              "name": "actions",
              "type": "address[]"
            },
            {
              "internalType": "bytes[]",
              "name": "actionInitDatas",
              "type": "bytes[]"
            }
          ],
          "internalType": "struct IDataMonetizer.PublishParams",
          "name": "publishParams",
          "type": "tuple"
        },
        {
          "components": [
            {
              "internalType": "address",
              "name": "signer",
              "type": "address"
            },
            {
              "internalType": "uint8",
              "name": "v",
              "type": "uint8"
            },
            {
              "internalType": "bytes32",
              "name": "r",
              "type": "bytes32"
            },
            {
              "internalType": "bytes32",
              "name": "s",
              "type": "bytes32"
            },
            {
              "internalType": "uint256",
              "name": "deadline",
              "type": "uint256"
            }
          ],
          "internalType": "struct IDataMonetizer.EIP712Signature",
          "name": "signature",
          "type": "tuple"
        }
      ],
      "name": "publishWithSig",
      "outputs": [
        {
          "internalType": "bytes32",
          "name": "",
          "type": "bytes32"
        }
      ],
      "stateMutability": "payable",
      "type": "function"
    },
    {
      "inputs": [
        {
          "internalType": "address",
          "name": "from",
          "type": "address"
        },
        {
          "internalType": "address",
          "name": "to",
          "type": "address"
        },
        {
          "internalType": "uint256",
          "name": "tokenId",
          "type": "uint256"
        }
      ],
      "name": "safeTransferFrom",
      "outputs": [],
      "stateMutability": "nonpayable",
      "type": "function"
    },
    {
      "inputs": [
        {
          "internalType": "address",
          "name": "from",
          "type": "address"
        },
        {
          "internalType": "address",
          "name": "to",
          "type": "address"
        },
        {
          "internalType": "uint256",
          "name": "tokenId",
          "type": "uint256"
        },
        {
          "internalType": "bytes",
          "name": "data",
          "type": "bytes"
        }
      ],
      "name": "safeTransferFrom",
      "outputs": [],
      "stateMutability": "nonpayable",
      "type": "function"
    },
    {
      "inputs": [
        {
          "internalType": "address",
          "name": "operator",
          "type": "address"
        },
        {
          "internalType": "bool",
          "name": "approved",
          "type": "bool"
        }
      ],
      "name": "setApprovalForAll",
      "outputs": [],
      "stateMutability": "nonpayable",
      "type": "function"
    },
    {
      "inputs": [
        {
          "internalType": "bytes4",
          "name": "interfaceId",
          "type": "bytes4"
        }
      ],
      "name": "supportsInterface",
      "outputs": [
        {
          "internalType": "bool",
          "name": "",
          "type": "bool"
        }
      ],
      "stateMutability": "view",
      "type": "function"
    },
    {
      "inputs": [],
      "name": "symbol",
      "outputs": [
        {
          "internalType": "string",
          "name": "",
          "type": "string"
        }
      ],
      "stateMutability": "view",
      "type": "function"
    },
    {
      "inputs": [
        {
          "internalType": "uint256",
          "name": "index",
          "type": "uint256"
        }
      ],
      "name": "tokenByIndex",
      "outputs": [
        {
          "internalType": "uint256",
          "name": "",
          "type": "uint256"
        }
      ],
      "stateMutability": "view",
      "type": "function"
    },
    {
      "inputs": [
        {
          "internalType": "address",
          "name": "owner",
          "type": "address"
        },
        {
          "internalType": "uint256",
          "name": "index",
          "type": "uint256"
        }
      ],
      "name": "tokenOfOwnerByIndex",
      "outputs": [
        {
          "internalType": "uint256",
          "name": "",
          "type": "uint256"
        }
      ],
      "stateMutability": "view",
      "type": "function"
    },
    {
      "inputs": [
        {
          "internalType": "uint256",
          "name": "tokenId",
          "type": "uint256"
        }
      ],
      "name": "tokenURI",
      "outputs": [
        {
          "internalType": "string",
          "name": "",
          "type": "string"
        }
      ],
      "stateMutability": "view",
      "type": "function"
    },
    {
      "inputs": [],
      "name": "totalSupply",
      "outputs": [
        {
          "internalType": "uint256",
          "name": "",
          "type": "uint256"
        }
      ],
      "stateMutability": "view",
      "type": "function"
    },
    {
      "inputs": [
        {
          "internalType": "address",
          "name": "from",
          "type": "address"
        },
        {
          "internalType": "address",
          "name": "to",
          "type": "address"
        },
        {
          "internalType": "uint256",
          "name": "tokenId",
          "type": "uint256"
        }
      ],
      "name": "transferFrom",
      "outputs": [],
      "stateMutability": "nonpayable",
      "type": "function"
    }
  ],
  "bytecode": {
    "object": "0x6101606040526000600d553480156200001757600080fd5b50604051806040016040528060098152602001682230ba30aa37b5b2b760b91b815250604051806040016040528060018152602001603160f81b81525081816040518060400160405280600f81526020016e141d589b1a58d85d1a5bdb88139195608a1b81525060405180604001604052806002815260200161282760f11b8152508160009081620000aa9190620002aa565b506001620000b98282620002aa565b50620000cb9150839050600a62000180565b61012052620000dc81600b62000180565b61014052815160208084019190912060e052815190820120610100524660a0526200016a60e05161010051604080517f8b73c3c69bb8fe3d512ecc4cf759cc79239f7b179b0ffacaa9a75d522b39400f60208201529081019290925260608201524660808201523060a082015260009060c00160405160208183030381529060405280519060200120905090565b60805250503060c05250506001600c55620003eb565b6000602083511015620001a0576200019883620001b9565b9050620001b3565b81620001ad8482620002aa565b5060ff90505b92915050565b600080829050601f81511115620001f0578260405163305a27a960e01b8152600401620001e7919062000376565b60405180910390fd5b8051620001fd82620003c6565b179392505050565b634e487b7160e01b600052604160045260246000fd5b600181811c908216806200023057607f821691505b6020821081036200025157634e487b7160e01b600052602260045260246000fd5b50919050565b601f821115620002a557600081815260208120601f850160051c81016020861015620002805750805b601f850160051c820191505b81811015620002a1578281556001016200028c565b5050505b505050565b81516001600160401b03811115620002c657620002c662000205565b620002de81620002d784546200021b565b8462000257565b602080601f831160018114620003165760008415620002fd5750858301515b600019600386901b1c1916600185901b178555620002a1565b600085815260208120601f198616915b82811015620003475788860151825594840194600190910190840162000326565b5085821015620003665787850151600019600388901b60f8161c191681555b5050505050600190811b01905550565b600060208083528351808285015260005b81811015620003a55785810183015185820160400152820162000387565b506000604082860101526040601f19601f8301168501019250505092915050565b80516020808301519190811015620002515760001960209190910360031b1b16919050565b60805160a05160c05160e051610100516101205161014051613b66620004466000396000611a5a01526000611a2d015260006120dc015260006120b40152600061200f01526000612039015260006120630152613b666000f3fe6080604052600436106101b75760003560e01c80636352211e116100ec578063b9348ed81161008a578063c97bdc6a11610064578063c97bdc6a14610510578063e03e016314610523578063e985e9c514610536578063ed24911d1461055657600080fd5b8063b9348ed8146104a3578063c2bb05a7146104d0578063c87b56dd146104f057600080fd5b806395d89b41116100c657806395d89b411461043b578063a22cb46514610450578063adcec4a014610470578063b88d4fde1461048357600080fd5b80636352211e146103d357806370a08231146103f357806384b0196e1461041357600080fd5b8063262975841161015957806335d8c2b71161013357806335d8c2b71461035357806342842e0e146103735780634f6ccce7146103935780635b882006146103b357600080fd5b806326297584146102e65780632cc3ce80146103065780632f745c591461033357600080fd5b8063081812fc11610195578063081812fc14610257578063095ea7b31461028f57806318160ddd146102b157806323b872dd146102c657600080fd5b806301ffc9a7146101bc57806305ac0ab4146101f157806306fdde0314610235575b600080fd5b3480156101c857600080fd5b506101dc6101d7366004612a3b565b61056b565b60405190151581526020015b60405180910390f35b3480156101fd57600080fd5b5061022761020c366004612a6f565b6001600160a01b03166000908152600e602052604090205490565b6040519081526020016101e8565b34801561024157600080fd5b5061024a610596565b6040516101e89190612ada565b34801561026357600080fd5b50610277610272366004612aed565b610628565b6040516001600160a01b0390911681526020016101e8565b34801561029b57600080fd5b506102af6102aa366004612b06565b610651565b005b3480156102bd57600080fd5b50600854610227565b3480156102d257600080fd5b506102af6102e1366004612b30565b610660565b6102f96102f4366004612b96565b6106f0565b6040516101e89190612c3c565b34801561031257600080fd5b50610326610321366004612aed565b61093f565b6040516101e89190612c93565b34801561033f57600080fd5b5061022761034e366004612b06565b610a91565b34801561035f57600080fd5b5061027761036e366004612aed565b610af6565b34801561037f57600080fd5b506102af61038e366004612b30565b610b11565b34801561039f57600080fd5b506102276103ae366004612aed565b610b31565b3480156103bf57600080fd5b506102af6103ce366004612b96565b610b8a565b3480156103df57600080fd5b506102776103ee366004612aed565b610dbd565b3480156103ff57600080fd5b5061022761040e366004612a6f565b610dc8565b34801561041f57600080fd5b50610428610e10565b6040516101e89796959493929190612ce9565b34801561044757600080fd5b5061024a610e56565b34801561045c57600080fd5b506102af61046b366004612d8d565b610e65565b61022761047e366004612b96565b610e70565b34801561048f57600080fd5b506102af61049e366004612eaf565b610fa2565b3480156104af57600080fd5b506104c36104be366004612aed565b610fb9565b6040516101e89190612f16565b3480156104dc57600080fd5b506102af6104eb366004612f82565b61113f565b3480156104fc57600080fd5b5061024a61050b366004612aed565b611166565b61022761051e366004612f82565b6111db565b6102f9610531366004612f82565b611200565b34801561054257600080fd5b506101dc610551366004612fb6565b611214565b34801561056257600080fd5b50610227611242565b60006001600160e01b031982166365016f0960e11b1480610590575061059082611251565b92915050565b6060600080546105a590612fe0565b80601f01602080910402602001604051908101604052809291908181526020018280546105d190612fe0565b801561061e5780601f106105f35761010080835404028352916020019161061e565b820191906000526020600020905b81548152906001019060200180831161060157829003601f168201915b5050505050905090565b600061063382611276565b506000828152600460205260409020546001600160a01b0316610590565b61065c8282336112af565b5050565b6001600160a01b03821661068f57604051633250574960e11b8152600060048201526024015b60405180910390fd5b600061069c8383336112bc565b9050836001600160a01b0316816001600160a01b0316146106ea576040516364283d7b60e01b81526001600160a01b0380861660048301526024820184905282166044820152606401610686565b50505050565b60606106fa611391565b60006108dc6108c86040518060a0016040528060678152602001613aca6067913980519060200120866000013573__$6c61c5cc6e1093b0f32cad1abb45f40f23$__6333983acb8980602001906107519190613014565b6040518363ffffffff1660e01b815260040161076e929190613064565b602060405180830381865af415801561078b573d6000803e3d6000fd5b505050506040513d601f19601f820116820180604052508101906107af91906130b0565b73__$6c61c5cc6e1093b0f32cad1abb45f40f23$__639e22d70d6107d660408c018c613014565b6040518363ffffffff1660e01b81526004016107f3929190613137565b602060405180830381865af4158015610810573d6000803e3d6000fd5b505050506040513d601f19601f8201168201806040525081019061083491906130b0565b600e600061084560208c018c612a6f565b6001600160a01b031681526020810191909152604001600090812080549161086c836131b3565b9190505589608001356040516020016108ad96959493929190958652602086019490945260408501929092526060840152608083015260a082015260c00190565b604051602081830303815290604052805190602001206113bb565b6108d7368690038601866131cc565b6113e8565b90506001600160a01b0381166108f56020850185612a6f565b6001600160a01b03161461091c57604051630e751dc360e31b815260040160405180910390fd5b6109328461092d6020860186612a6f565b611480565b9150506105906001600c55565b61096a6040518060800160405280606081526020016000815260200160008152602001606081525090565b6000828152600f60205260409081902081516080810190925280548290829061099290612fe0565b80601f01602080910402602001604051908101604052809291908181526020018280546109be90612fe0565b8015610a0b5780601f106109e057610100808354040283529160200191610a0b565b820191906000526020600020905b8154815290600101906020018083116109ee57829003601f168201915b50505050508152602001600182015481526020016002820154815260200160038201805480602002602001604051908101604052809291908181526020018280548015610a8157602002820191906000526020600020905b81546001600160a01b03168152600190910190602001808311610a63575b5050505050815250509050919050565b6000610a9c83610dc8565b8210610acd5760405163295f44f760e21b81526001600160a01b038416600482015260248101839052604401610686565b506001600160a01b03919091166000908152600660209081526040808320938352929052205490565b6000818152600f602052604081206002015461059090610dbd565b610b2c83838360405180602001604052806000815250610fa2565b505050565b6000610b3c60085490565b8210610b655760405163295f44f760e21b81526000600482015260248101839052604401610686565b60088281548110610b7857610b78613251565b90600052602060002001549050919050565b610b92611391565b6000610d54610d456040518060a00160405280606b8152602001613a5f606b913980519060200120856000013573__$6c61c5cc6e1093b0f32cad1abb45f40f23$__6333983acb888060200190610be99190613014565b6040518363ffffffff1660e01b8152600401610c06929190613064565b602060405180830381865af4158015610c23573d6000803e3d6000fd5b505050506040513d601f19601f82011682018060405250810190610c4791906130b0565b73__$6c61c5cc6e1093b0f32cad1abb45f40f23$__639e22d70d610c6e60408b018b613014565b6040518363ffffffff1660e01b8152600401610c8b929190613137565b602060405180830381865af4158015610ca8573d6000803e3d6000fd5b505050506040513d601f19601f82011682018060405250810190610ccc91906130b0565b600e6000610cdd60208b018b612a6f565b6001600160a01b0316815260208101919091526040016000908120805491610d04836131b3565b9190505588608001356040516020016108ad96959493929190958652602086019490945260408501929092526060840152608083015260a082015260c00190565b6108d7368590038501856131cc565b90506001600160a01b038116610d6d6020840184612a6f565b6001600160a01b031614610d9457604051630e751dc360e31b815260040160405180910390fd5b610db2610da08461336b565b610dad6020850185612a6f565b611809565b5061065c6001600c55565b600061059082611276565b60006001600160a01b038216610df4576040516322718ad960e21b815260006004820152602401610686565b506001600160a01b031660009081526003602052604090205490565b600060608060008060006060610e24611a26565b610e2c611a53565b60408051600080825260208201909252600f60f81b9b939a50919850469750309650945092509050565b6060600180546105a590612fe0565b61065c338383611a80565b6000610e7a611391565b6000610f4c6108c86040518060a00160405280606381526020016139fc60639139805160209091012073__$6c61c5cc6e1093b0f32cad1abb45f40f23$__638d849f43610ec789806133e1565b6040518363ffffffff1660e01b8152600401610ee4929190613427565b602060405180830381865af4158015610f01573d6000803e3d6000fd5b505050506040513d601f19601f82011682018060405250810190610f2591906130b0565b73__$6c61c5cc6e1093b0f32cad1abb45f40f23$__6333983acb61075160208b018b613014565b90506001600160a01b038116610f656020850185612a6f565b6001600160a01b031614610f8c57604051630e751dc360e31b815260040160405180910390fd5b61093284610f9d6020860186612a6f565b611b1f565b610fad848484610660565b6106ea84848484611e47565b610feb6040518060a0016040528060608152602001606081526020016000815260200160008152602001606081525090565b6000828152600f60205260408120805482919061100790612fe0565b80601f016020809104026020016040519081016040528092919081815260200182805461103390612fe0565b80156110805780601f1061105557610100808354040283529160200191611080565b820191906000526020600020905b81548152906001019060200180831161106357829003601f168201915b5050505050806020019051810190611098919061348b565b6040805160a08101825283815260208082018490526000898152600f80835284822060018101548587015260028101546060860152918b905282526003018054845181840281018401909552808552959750939550909360808501939183018282801561112e57602002820191906000526020600020905b81546001600160a01b03168152600190910190602001808311611110575b505050505081525092505050919050565b611147611391565b6111596111538261336b565b33611809565b6111636001600c55565b50565b606061117182611276565b50600061118960408051602081019091526000815290565b905060008151116111a957604051806020016040528060008152506111d4565b806111b384611f70565b6040516020016111c49291906134ee565b6040516020818303038152906040525b9392505050565b60006111e5611391565b6111ef8233611b1f565b90506111fb6001600c55565b919050565b606061120a611391565b6111ef8233611480565b6001600160a01b03918216600090815260056020908152604080832093909416825291909152205460ff1690565b600061124c612002565b905090565b60006001600160e01b0319821663780e9d6360e01b148061059057506105908261212d565b6000818152600260205260408120546001600160a01b03168061059057604051637e27328960e01b815260048101849052602401610686565b610b2c838383600161217d565b6000806112ca858585612283565b90506001600160a01b0381166113275761132284600880546000838152600960205260408120829055600182018355919091527ff3f7a9fe364faab93b216da50a3214154f22a0a2b415b23a84c8169e8b636ee30155565b61134a565b846001600160a01b0316816001600160a01b03161461134a5761134a818561237c565b6001600160a01b038516611366576113618461240d565b611389565b846001600160a01b0316816001600160a01b0316146113895761138985856124bc565b949350505050565b6002600c54036113b457604051633ee5aeb560e01b815260040160405180910390fd5b6002600c55565b60006105906113c8612002565b8360405161190160f01b8152600281019290925260228201526042902090565b6000428260800151101561140f57604051630819bdcd60e01b815260040160405180910390fd5b602080830151604080850151606080870151835160008082529681018086528a905260ff90951693850193909352830152608082015260019060a0016020604051602081039080840390855afa15801561146d573d6000803e3d6000fd5b5050604051601f19015195945050505050565b606061148f6040840184613014565b905061149e6020850185613014565b9050146114be576040516318c2d3e960e31b815260040160405180910390fd5b60005b6114ce6020850185613014565b90508110156115b6576000805b85356000908152600f60205260409020600301548110156115865785356000908152600f6020526040902060030180548290811061151b5761151b613251565b600091825260209182902001546001600160a01b03169061153e90880188613014565b8581811061154e5761154e613251565b90506020020160208101906115639190612a6f565b6001600160a01b03160361157657600191505b61157f816131b3565b90506114db565b50806115a557604051632b52c85160e21b815260040160405180910390fd5b506115af816131b3565b90506114c1565b506115c46020840184613014565b90506001600160401b038111156115dd576115dd612dc4565b60405190808252806020026020018201604052801561161057816020015b60608152602001906001900390816115fb5790505b50905060005b6116236020850185613014565b905081101561179f5760008061163c6020870187613014565b8481811061164c5761164c613251565b90506020020160208101906116619190612a6f565b6001600160a01b03163463ce79d4bd60e01b88358861168360408c018c613014565b8981811061169357611693613251565b90506020028101906116a591906133e1565b6040516024016116b8949392919061351d565b60408051601f198184030181529181526020820180516001600160e01b03166001600160e01b03199094169390931790925290516116f69190613552565b60006040518083038185875af1925050503d8060008114611733576040519150601f19603f3d011682016040523d82523d6000602084013e611738565b606091505b50915091508161175b5760405163d0a0e22560e01b815260040160405180910390fd5b8080602001905181019061176f919061356e565b84848151811061178157611781613251565b6020026020010181905250505080611798906131b3565b9050611616565b506001600160a01b03821683357f08811d58bb5109a088c920f90db784a88b462bcbcb7cc7aa359a38cf9d377ca3426117db6020880188613014565b6117e860408a018a613014565b886040516117fb96959493929190613642565b60405180910390a392915050565b8151611815908261250c565b6118228260200151612546565b8160400151518260200151511461184c576040516318c2d3e960e31b815260040160405180910390fd5b60005b8260200151518110156119dc57600f6000846000015181526020019081526020016000206003018360200151828151811061188c5761188c613251565b602090810291909101810151825460018101845560009384528284200180546001600160a01b0319166001600160a01b039092169190911790558401518051839081106118db576118db613251565b60200260200101516001600160a01b03163463db86aeea60e01b86600001518760400151868151811061191057611910613251565b6020026020010151604051602401611929929190613690565b60408051601f198184030181529181526020820180516001600160e01b03166001600160e01b03199094169390931790925290516119679190613552565b60006040518083038185875af1925050503d80600081146119a4576040519150601f19603f3d011682016040523d82523d6000602084013e6119a9565b606091505b50509050806119cb5760405163d840c6d960e01b815260040160405180910390fd5b506119d5816131b3565b905061184f565b5081600001517e67ace43f65e366bebbd59b5a6037e773324300314768487976539a2c5e78f483602001518460400151604051611a1a9291906136a9565b60405180910390a25050565b606061124c7f0000000000000000000000000000000000000000000000000000000000000000600a61260c565b606061124c7f0000000000000000000000000000000000000000000000000000000000000000600b61260c565b6001600160a01b038216611ab257604051630b61174360e31b81526001600160a01b0383166004820152602401610686565b6001600160a01b03838116600081815260056020908152604080832094871680845294825291829020805460ff191686151590811790915591519182527f17307eab39ab6107e8899845ad3d59bd9653f200f220920489ca2b5937696c31910160405180910390a3505050565b6000611b68611b316020850185613014565b8080602002602001604051908101604052809392919081815260200183836020028082843760009201919091525061254692505050565b6000611b7c611b76856136ce565b846126b7565b90506000611b89846126ee565b604080516080810190915290915080611ba287806133e1565b8080601f0160208091040260200160405190810160405280939291908181526020018383808284376000920191909152505050908252504260208083019190915260408201849052606090910190611bfc90880188613014565b808060200260200160405190810160405280939291908181526020018383602002808284376000920182905250939094525050848152600f6020526040902082519091508190611c4c908261376f565b5060208281015160018301556040830151600283015560608301518051611c7992600385019201906129ab565b5090505060005b611c8d6020870187613014565b9050811015611dd1576000611ca56020880188613014565b83818110611cb557611cb5613251565b9050602002016020810190611cca9190612a6f565b6001600160a01b031634636dc3577560e11b86611cea60408c018c613014565b87818110611cfa57611cfa613251565b9050602002810190611d0c91906133e1565b604051602401611d1e9392919061382e565b60408051601f198184030181529181526020820180516001600160e01b03166001600160e01b0319909416939093179092529051611d5c9190613552565b60006040518083038185875af1925050503d8060008114611d99576040519150601f19603f3d011682016040523d82523d6000602084013e611d9e565b606091505b5050905080611dc05760405163d840c6d960e01b815260040160405180910390fd5b50611dca816131b3565b9050611c80565b50806001600160a01b038516837f9330feff209cec97e87601ad923fb4697bba4ea3f409d9a21114b589a5c93c6142611e0a8a806133e1565b611e1760208d018d613014565b611e2460408f018f613014565b604051611e379796959493929190613848565b60405180910390a4509392505050565b6001600160a01b0383163b156106ea57604051630a85bd0160e11b81526001600160a01b0384169063150b7a0290611e89903390889087908790600401613898565b6020604051808303816000875af1925050508015611ec4575060408051601f3d908101601f19168201909252611ec1918101906138cb565b60015b611f2d573d808015611ef2576040519150601f19603f3d011682016040523d82523d6000602084013e611ef7565b606091505b508051600003611f2557604051633250574960e11b81526001600160a01b0385166004820152602401610686565b805181602001fd5b6001600160e01b03198116630a85bd0160e11b14611f6957604051633250574960e11b81526001600160a01b0385166004820152602401610686565b5050505050565b60606000611f7d8361270f565b60010190506000816001600160401b03811115611f9c57611f9c612dc4565b6040519080825280601f01601f191660200182016040528015611fc6576020820181803683370190505b5090508181016020015b600019016f181899199a1a9b1b9c1cb0b131b232b360811b600a86061a8153600a8504945084611fd057509392505050565b6000306001600160a01b037f00000000000000000000000000000000000000000000000000000000000000001614801561205b57507f000000000000000000000000000000000000000000000000000000000000000046145b1561208557507f000000000000000000000000000000000000000000000000000000000000000090565b61124c604080517f8b73c3c69bb8fe3d512ecc4cf759cc79239f7b179b0ffacaa9a75d522b39400f60208201527f0000000000000000000000000000000000000000000000000000000000000000918101919091527f000000000000000000000000000000000000000000000000000000000000000060608201524660808201523060a082015260009060c00160405160208183030381529060405280519060200120905090565b60006001600160e01b031982166380ac58cd60e01b148061215e57506001600160e01b03198216635b5e139f60e01b145b8061059057506301ffc9a760e01b6001600160e01b0319831614610590565b808061219157506001600160a01b03821615155b156122535760006121a184611276565b90506001600160a01b038316158015906121cd5750826001600160a01b0316816001600160a01b031614155b80156121e057506121de8184611214565b155b156122095760405163a9fbf51f60e01b81526001600160a01b0384166004820152602401610686565b81156122515783856001600160a01b0316826001600160a01b03167f8c5be1e5ebec7d5bd14f71427d1e84f3dd0314c0f7b2291e5b200ac8c7c3b92560405160405180910390a45b505b5050600090815260046020526040902080546001600160a01b0319166001600160a01b0392909216919091179055565b6000828152600260205260408120546001600160a01b03908116908316156122b0576122b08184866127e7565b6001600160a01b038116156122ee576122cd60008560008061217d565b6001600160a01b038116600090815260036020526040902080546000190190555b6001600160a01b0385161561231d576001600160a01b0385166000908152600360205260409020805460010190555b60008481526002602052604080822080546001600160a01b0319166001600160a01b0389811691821790925591518793918516917fddf252ad1be2c89b69c2b068fc378daa952ba7f163c4a11628f55a4df523b3ef91a4949350505050565b600061238783610dc8565b6000838152600760205260409020549091508082146123da576001600160a01b03841660009081526006602090815260408083208584528252808320548484528184208190558352600790915290208190555b5060009182526007602090815260408084208490556001600160a01b039094168352600681528383209183525290812055565b60085460009061241f906001906138e8565b6000838152600960205260408120546008805493945090928490811061244757612447613251565b90600052602060002001549050806008838154811061246857612468613251565b60009182526020808320909101929092558281526009909152604080822084905585825281205560088054806124a0576124a06138fb565b6001900381819060005260206000200160009055905550505050565b600060016124c984610dc8565b6124d391906138e8565b6001600160a01b039093166000908152600660209081526040808320868452825280832085905593825260079052919091209190915550565b806001600160a01b031661251f83610af6565b6001600160a01b03161461065c57604051637d387f3960e01b815260040160405180910390fd5b60005b815181101561065c5781818151811061256457612564613251565b60209081029190910101516040516301ffc9a760e01b8152631066d55960e11b60048201526001600160a01b03909116906301ffc9a790602401602060405180830381865afa1580156125bb573d6000803e3d6000fd5b505050506040513d601f19601f820116820180604052508101906125df9190613911565b6125fc5760405163251cb21f60e01b815260040160405180910390fd5b612605816131b3565b9050612549565b606060ff83146126265761261f8361284b565b9050610590565b81805461263290612fe0565b80601f016020809104026020016040519081016040528092919081815260200182805461265e90612fe0565b80156126ab5780601f10612680576101008083540402835291602001916126ab565b820191906000526020600020905b81548152906001019060200180831161268e57829003601f168201915b50505050509050610590565b6000828230426040516020016126d0949392919061392e565b60405160208183030381529060405280519060200120905092915050565b600d8054906111fb90839083906000612706836131b3565b9190505561288a565b60008072184f03e93ff9f4daa797ed6e38ed64bf6a1f0160401b831061274e5772184f03e93ff9f4daa797ed6e38ed64bf6a1f0160401b830492506040015b6d04ee2d6d415b85acef8100000000831061277a576d04ee2d6d415b85acef8100000000830492506020015b662386f26fc10000831061279857662386f26fc10000830492506010015b6305f5e10083106127b0576305f5e100830492506008015b61271083106127c457612710830492506004015b606483106127d6576064830492506002015b600a83106105905760010192915050565b6127f28383836128a4565b610b2c576001600160a01b03831661282057604051637e27328960e01b815260048101829052602401610686565b60405163177e802f60e01b81526001600160a01b038316600482015260248101829052604401610686565b6060600061285883612907565b604080516020808252818301909252919250600091906020820181803683375050509182525060208101929092525090565b61065c82826040518060200160405280600081525061292f565b60006001600160a01b038316158015906113895750826001600160a01b0316846001600160a01b031614806128de57506128de8484611214565b806113895750506000908152600460205260409020546001600160a01b03908116911614919050565b600060ff8216601f81111561059057604051632cd44ac360e21b815260040160405180910390fd5b6129398383612946565b610b2c6000848484611e47565b6001600160a01b03821661297057604051633250574960e11b815260006004820152602401610686565b600061297e838360006112bc565b90506001600160a01b03811615610b2c576040516339e3563760e11b815260006004820152602401610686565b828054828255906000526020600020908101928215612a00579160200282015b82811115612a0057825182546001600160a01b0319166001600160a01b039091161782556020909201916001909101906129cb565b50612a0c929150612a10565b5090565b5b80821115612a0c5760008155600101612a11565b6001600160e01b03198116811461116357600080fd5b600060208284031215612a4d57600080fd5b81356111d481612a25565b80356001600160a01b03811681146111fb57600080fd5b600060208284031215612a8157600080fd5b6111d482612a58565b60005b83811015612aa5578181015183820152602001612a8d565b50506000910152565b60008151808452612ac6816020860160208601612a8a565b601f01601f19169290920160200192915050565b6020815260006111d46020830184612aae565b600060208284031215612aff57600080fd5b5035919050565b60008060408385031215612b1957600080fd5b612b2283612a58565b946020939093013593505050565b600080600060608486031215612b4557600080fd5b612b4e84612a58565b9250612b5c60208501612a58565b9150604084013590509250925092565b600060608284031215612b7e57600080fd5b50919050565b600060a08284031215612b7e57600080fd5b60008060c08385031215612ba957600080fd5b82356001600160401b03811115612bbf57600080fd5b612bcb85828601612b6c565b925050612bdb8460208501612b84565b90509250929050565b600082825180855260208086019550808260051b84010181860160005b84811015612c2f57601f19868403018952612c1d838351612aae565b98840198925090830190600101612c01565b5090979650505050505050565b6020815260006111d46020830184612be4565b600081518084526020808501945080840160005b83811015612c885781516001600160a01b031687529582019590820190600101612c63565b509495945050505050565b602081526000825160806020840152612caf60a0840182612aae565b905060208401516040840152604084015160608401526060840151601f19848303016080850152612ce08282612c4f565b95945050505050565b60ff60f81b881681526000602060e081840152612d0960e084018a612aae565b8381036040850152612d1b818a612aae565b606085018990526001600160a01b038816608086015260a0850187905284810360c0860152855180825283870192509083019060005b81811015612d6d57835183529284019291840191600101612d51565b50909c9b505050505050505050505050565b801515811461116357600080fd5b60008060408385031215612da057600080fd5b612da983612a58565b91506020830135612db981612d7f565b809150509250929050565b634e487b7160e01b600052604160045260246000fd5b604051606081016001600160401b0381118282101715612dfc57612dfc612dc4565b60405290565b604051601f8201601f191681016001600160401b0381118282101715612e2a57612e2a612dc4565b604052919050565b60006001600160401b03821115612e4b57612e4b612dc4565b50601f01601f191660200190565b600082601f830112612e6a57600080fd5b8135612e7d612e7882612e32565b612e02565b818152846020838601011115612e9257600080fd5b816020850160208301376000918101602001919091529392505050565b60008060008060808587031215612ec557600080fd5b612ece85612a58565b9350612edc60208601612a58565b92506040850135915060608501356001600160401b03811115612efe57600080fd5b612f0a87828801612e59565b91505092959194509250565b602081526000825160a06020840152612f3260c0840182612aae565b90506020840151601f1980858403016040860152612f508383612aae565b9250604086015160608601526060860151608086015260808601519150808584030160a086015250612ce08282612c4f565b600060208284031215612f9457600080fd5b81356001600160401b03811115612faa57600080fd5b61138984828501612b6c565b60008060408385031215612fc957600080fd5b612fd283612a58565b9150612bdb60208401612a58565b600181811c90821680612ff457607f821691505b602082108103612b7e57634e487b7160e01b600052602260045260246000fd5b6000808335601e1984360301811261302b57600080fd5b8301803591506001600160401b0382111561304557600080fd5b6020019150600581901b360382131561305d57600080fd5b9250929050565b60208082528181018390526000908460408401835b868110156130a5576001600160a01b0361309284612a58565b1682529183019190830190600101613079565b509695505050505050565b6000602082840312156130c257600080fd5b5051919050565b81835281816020850137506000828201602090810191909152601f909101601f19169091010190565b6000808335601e1984360301811261310957600080fd5b83016020810192503590506001600160401b0381111561312857600080fd5b80360382131561305d57600080fd5b60208082528181018390526000906040600585901b8401810190840186845b8781101561319057868403603f19018352613171828a6130f2565b61317c8682846130c9565b955050509184019190840190600101613156565b5091979650505050505050565b634e487b7160e01b600052601160045260246000fd5b6000600182016131c5576131c561319d565b5060010190565b600060a082840312156131de57600080fd5b60405160a081018181106001600160401b038211171561320057613200612dc4565b60405261320c83612a58565b8152602083013560ff8116811461322257600080fd5b806020830152506040830135604082015260608301356060820152608083013560808201528091505092915050565b634e487b7160e01b600052603260045260246000fd5b60006001600160401b0382111561328057613280612dc4565b5060051b60200190565b600082601f83011261329b57600080fd5b813560206132ab612e7883613267565b82815260059290921b840181019181810190868411156132ca57600080fd5b8286015b848110156130a5576132df81612a58565b83529183019183016132ce565b600082601f8301126132fd57600080fd5b8135602061330d612e7883613267565b82815260059290921b8401810191818101908684111561332c57600080fd5b8286015b848110156130a55780356001600160401b0381111561334f5760008081fd5b61335d8986838b0101612e59565b845250918301918301613330565b60006060823603121561337d57600080fd5b613385612dda565b8235815260208301356001600160401b03808211156133a357600080fd5b6133af3683870161328a565b602084015260408501359150808211156133c857600080fd5b506133d5368286016132ec565b60408301525092915050565b6000808335601e198436030181126133f857600080fd5b8301803591506001600160401b0382111561341257600080fd5b60200191503681900382131561305d57600080fd5b6020815260006113896020830184866130c9565b6000613449612e7884612e32565b905082815283838301111561345d57600080fd5b6111d4836020830184612a8a565b600082601f83011261347c57600080fd5b6111d48383516020850161343b565b6000806040838503121561349e57600080fd5b82516001600160401b03808211156134b557600080fd5b6134c18683870161346b565b935060208501519150808211156134d757600080fd5b506134e48582860161346b565b9150509250929050565b60008351613500818460208801612a8a565b835190830190613514818360208801612a8a565b01949350505050565b8481526001600160a01b038416602082015260606040820181905260009061354890830184866130c9565b9695505050505050565b60008251613564818460208701612a8a565b9190910192915050565b60006020828403121561358057600080fd5b81516001600160401b0381111561359657600080fd5b8201601f810184136135a757600080fd5b6113898482516020840161343b565b8183526000602080850194508260005b85811015612c88576001600160a01b036135df83612a58565b16875295820195908201906001016135c6565b81835260006020808501808196508560051b810191508460005b8781101561319057828403895261362382886130f2565b61362e8682846130c9565b9a87019a955050509084019060010161360c565b86815260806020820152600061365c6080830187896135b6565b828103604084015261366f8186886135f2565b905082810360608401526136838185612be4565b9998505050505050505050565b8281526040602082015260006113896040830184612aae565b6040815260006136bc6040830185612c4f565b8281036020840152612ce08185612be4565b6000606082360312156136e057600080fd5b6136e8612dda565b82356001600160401b03808211156136ff57600080fd5b61370b36838701612e59565b835260208501359150808211156133a357600080fd5b601f821115610b2c57600081815260208120601f850160051c810160208610156137485750805b601f850160051c820191505b8181101561376757828155600101613754565b505050505050565b81516001600160401b0381111561378857613788612dc4565b61379c816137968454612fe0565b84613721565b602080601f8311600181146137d157600084156137b95750858301515b600019600386901b1c1916600185901b178555613767565b600085815260208120601f198616915b82811015613800578886015182559484019460019091019084016137e1565b508582101561381e5787850151600019600388901b60f8161c191681555b5050505050600190811b01905550565b838152604060208201526000612ce06040830184866130c9565b87815260806020820152600061386260808301888a6130c9565b82810360408401526138758187896135b6565b9050828103606084015261388a8185876135f2565b9a9950505050505050505050565b6001600160a01b038581168252841660208201526040810183905260806060820181905260009061354890830184612aae565b6000602082840312156138dd57600080fd5b81516111d481612a25565b818103818111156105905761059061319d565b634e487b7160e01b600052603160045260246000fd5b60006020828403121561392357600080fd5b81516111d481612d7f565b60808152600085516060608084015261394a60e0840182612aae565b9050602080880151607f19808685030160a08701526139698483612c4f565b60408b015187820390920160c08801528151808252909450908301915082840190600581901b8501840160005b828110156139c457601f198783030184526139b2828651612aae565b94860194938601939150600101613996565b506001600160a01b038b168589015295506139de92505050565b50506001600160a01b03939093166040820152606001529291505056fe5075626c6973685769746853696728627974657320646174612c616464726573735b5d20616374696f6e732c62797465735b5d20616374696f6e496e697444617461732c75696e74323536206e6f6e63652c75696e7432353620646561646c696e6529416464416374696f6e7357697468536967286279746573333220617373657449642c616464726573735b5d20616374696f6e732c62797465735b5d20616374696f6e496e697444617461732c75696e74323536206e6f6e63652c75696e7432353620646561646c696e652941637457697468536967286279746573333220617373657449642c616464726573735b5d20616374696f6e732c62797465735b5d20616374696f6e50726f6365737344617461732c75696e74323536206e6f6e63652c75696e7432353620646561646c696e6529a26469706673582212200b6817d7724f4a9653d5ee1bc125535fe19f104a6be17ea1f2f92ffe3a83abb864736f6c63430008150033",
    "linkReferences": {
      "contracts/libraries/EIP712Encoder.sol": {
        "EIP712Encoder": [
          {
            "start": 2927,
            "length": 20
          },
          {
            "start": 3063,
            "length": 20
          },
          {
            "start": 4103,
            "length": 20
          },
          {
            "start": 4239,
            "length": 20
          },
          {
            "start": 4843,
            "length": 20
          },
          {
            "start": 4973,
            "length": 20
          }
        ]
      }
    }
  },
  "methodIdentifiers": {
    "act((bytes32,address[],bytes[]))": "e03e0163",
    "actWithSig((bytes32,address[],bytes[]),(address,uint8,bytes32,bytes32,uint256))": "26297584",
    "addActions((bytes32,address[],bytes[]))": "c2bb05a7",
    "addActionsWithSig((bytes32,address[],bytes[]),(address,uint8,bytes32,bytes32,uint256))": "5b882006",
    "approve(address,uint256)": "095ea7b3",
    "balanceOf(address)": "70a08231",
    "eip712Domain()": "84b0196e",
    "getApproved(uint256)": "081812fc",
    "getAsset(bytes32)": "2cc3ce80",
    "getAssetOwner(bytes32)": "35d8c2b7",
    "getDomainSeparator()": "ed24911d",
    "getSigNonce(address)": "05ac0ab4",
    "getTokenAsset(bytes32)": "b9348ed8",
    "isApprovedForAll(address,address)": "e985e9c5",
    "name()": "06fdde03",
    "ownerOf(uint256)": "6352211e",
    "publish((bytes,address[],bytes[]))": "c97bdc6a",
    "publishWithSig((bytes,address[],bytes[]),(address,uint8,bytes32,bytes32,uint256))": "adcec4a0",
    "safeTransferFrom(address,address,uint256)": "42842e0e",
    "safeTransferFrom(address,address,uint256,bytes)": "b88d4fde",
    "setApprovalForAll(address,bool)": "a22cb465",
    "supportsInterface(bytes4)": "01ffc9a7",
    "symbol()": "95d89b41",
    "tokenByIndex(uint256)": "4f6ccce7",
    "tokenOfOwnerByIndex(address,uint256)": "2f745c59",
    "tokenURI(uint256)": "c87b56dd",
    "totalSupply()": "18160ddd",
    "transferFrom(address,address,uint256)": "23b872dd"
  },
  "id": 3
}