{
  "abi": [
    {
      "inputs": [],
      "stateMutability": "nonpayable",
      "type": "constructor"
    },
    {
      "inputs": [],
      "name": "ActionAlreadyExists",
      "type": "error"
    },
    {
      "inputs": [],
      "name": "ActionInvalid",
      "type": "error"
    },
    {
      "inputs": [],
      "name": "ActionNotExists",
      "type": "error"
    },
    {
      "inputs": [],
      "name": "ArrayLengthNotEqual",
      "type": "error"
    },
    {
      "inputs": [],
      "name": "ERC721EnumerableForbiddenBatchMint",
      "type": "error"
    },
    {
      "inputs": [
        {
          "internalType": "address",
          "name": "sender",
          "type": "address"
        },
        {
          "internalType": "uint256",
          "name": "tokenId",
          "type": "uint256"
        },
        {
          "internalType": "address",
          "name": "owner",
          "type": "address"
        }
      ],
      "name": "ERC721IncorrectOwner",
      "type": "error"
    },
    {
      "inputs": [
        {
          "internalType": "address",
          "name": "operator",
          "type": "address"
        },
        {
          "internalType": "uint256",
          "name": "tokenId",
          "type": "uint256"
        }
      ],
      "name": "ERC721InsufficientApproval",
      "type": "error"
    },
    {
      "inputs": [
        {
          "internalType": "address",
          "name": "approver",
          "type": "address"
        }
      ],
      "name": "ERC721InvalidApprover",
      "type": "error"
    },
    {
      "inputs": [
        {
          "internalType": "address",
          "name": "operator",
          "type": "address"
        }
      ],
      "name": "ERC721InvalidOperator",
      "type": "error"
    },
    {
      "inputs": [
        {
          "internalType": "address",
          "name": "owner",
          "type": "address"
        }
      ],
      "name": "ERC721InvalidOwner",
      "type": "error"
    },
    {
      "inputs": [
        {
          "internalType": "address",
          "name": "receiver",
          "type": "address"
        }
      ],
      "name": "ERC721InvalidReceiver",
      "type": "error"
    },
    {
      "inputs": [
        {
          "internalType": "address",
          "name": "sender",
          "type": "address"
        }
      ],
      "name": "ERC721InvalidSender",
      "type": "error"
    },
    {
      "inputs": [
        {
          "internalType": "uint256",
          "name": "tokenId",
          "type": "uint256"
        }
      ],
      "name": "ERC721NonexistentToken",
      "type": "error"
    },
    {
      "inputs": [
        {
          "internalType": "address",
          "name": "owner",
          "type": "address"
        },
        {
          "internalType": "uint256",
          "name": "index",
          "type": "uint256"
        }
      ],
      "name": "ERC721OutOfBoundsIndex",
      "type": "error"
    },
    {
      "inputs": [],
      "name": "InitializeActionFailed",
      "type": "error"
    },
    {
      "inputs": [],
      "name": "InvalidShortString",
      "type": "error"
    },
    {
      "inputs": [],
      "name": "NotAssetOwner",
      "type": "error"
    },
    {
      "inputs": [],
      "name": "ProcessActionFailed",
      "type": "error"
    },
    {
      "inputs": [],
      "name": "ReentrancyGuardReentrantCall",
      "type": "error"
    },
    {
      "inputs": [],
      "name": "ResourceNotExists",
      "type": "error"
    },
    {
      "inputs": [],
      "name": "SignatureExpired",
      "type": "error"
    },
    {
      "inputs": [],
      "name": "SignatureMismatch",
      "type": "error"
    },
    {
      "inputs": [
        {
          "internalType": "string",
          "name": "str",
          "type": "string"
        }
      ],
      "name": "StringTooLong",
      "type": "error"
    },
    {
      "anonymous": false,
      "inputs": [
        {
          "indexed": true,
          "internalType": "address",
          "name": "owner",
          "type": "address"
        },
        {
          "indexed": true,
          "internalType": "address",
          "name": "approved",
          "type": "address"
        },
        {
          "indexed": true,
          "internalType": "uint256",
          "name": "tokenId",
          "type": "uint256"
        }
      ],
      "name": "Approval",
      "type": "event"
    },
    {
      "anonymous": false,
      "inputs": [
        {
          "indexed": true,
          "internalType": "address",
          "name": "owner",
          "type": "address"
        },
        {
          "indexed": true,
          "internalType": "address",
          "name": "operator",
          "type": "address"
        },
        {
          "indexed": false,
          "internalType": "bool",
          "name": "approved",
          "type": "bool"
        }
      ],
      "name": "ApprovalForAll",
      "type": "event"
    },
    {
      "anonymous": false,
      "inputs": [
        {
          "indexed": true,
          "internalType": "bytes32",
          "name": "assetId",
          "type": "bytes32"
        },
        {
          "indexed": true,
          "internalType": "address",
          "name": "actor",
          "type": "address"
        },
        {
          "indexed": false,
          "internalType": "address[]",
          "name": "actions",
          "type": "address[]"
        },
        {
          "indexed": false,
          "internalType": "bytes[]",
          "name": "actionProcessDatas",
          "type": "bytes[]"
        },
        {
          "indexed": false,
          "internalType": "bytes[]",
          "name": "actionReturnDatas",
          "type": "bytes[]"
        }
      ],
      "name": "AssetActed",
      "type": "event"
    },
    {
      "anonymous": false,
      "inputs": [
        {
          "indexed": true,
          "internalType": "bytes32",
          "name": "assetId",
          "type": "bytes32"
        },
        {
          "indexed": false,
          "internalType": "address[]",
          "name": "actions",
          "type": "address[]"
        },
        {
          "indexed": false,
          "internalType": "bytes[]",
          "name": "actionInitDatas",
          "type": "bytes[]"
        }
      ],
      "name": "AssetActionsAdded",
      "type": "event"
    },
    {
      "anonymous": false,
      "inputs": [
        {
          "indexed": true,
          "internalType": "bytes32",
          "name": "assetId",
          "type": "bytes32"
        },
        {
          "indexed": true,
          "internalType": "address",
          "name": "publisher",
          "type": "address"
        },
        {
          "indexed": true,
          "internalType": "uint256",
          "name": "publicationId",
          "type": "uint256"
        },
        {
          "indexed": false,
          "internalType": "bytes",
          "name": "data",
          "type": "bytes"
        },
        {
          "indexed": false,
          "internalType": "address[]",
          "name": "actions",
          "type": "address[]"
        },
        {
          "indexed": false,
          "internalType": "bytes[]",
          "name": "actionInitDatas",
          "type": "bytes[]"
        }
      ],
      "name": "AssetPublished",
      "type": "event"
    },
    {
      "anonymous": false,
      "inputs": [],
      "name": "EIP712DomainChanged",
      "type": "event"
    },
    {
      "anonymous": false,
      "inputs": [
        {
          "indexed": true,
          "internalType": "address",
          "name": "from",
          "type": "address"
        },
        {
          "indexed": true,
          "internalType": "address",
          "name": "to",
          "type": "address"
        },
        {
          "indexed": true,
          "internalType": "uint256",
          "name": "tokenId",
          "type": "uint256"
        }
      ],
      "name": "Transfer",
      "type": "event"
    },
    {
      "inputs": [
        {
          "components": [
            {
              "internalType": "bytes32",
              "name": "assetId",
              "type": "bytes32"
            },
            {
              "internalType": "address[]",
              "name": "actions",
              "type": "address[]"
            },
            {
              "internalType": "bytes[]",
              "name": "actionProcessDatas",
              "type": "bytes[]"
            }
          ],
          "internalType": "struct IDataMonetizer.ActParams",
          "name": "actParams",
          "type": "tuple"
        }
      ],
      "name": "act",
      "outputs": [
        {
          "internalType": "bytes[]",
          "name": "",
          "type": "bytes[]"
        }
      ],
      "stateMutability": "payable",
      "type": "function"
    },
    {
      "inputs": [
        {
          "components": [
            {
              "internalType": "bytes32",
              "name": "assetId",
              "type": "bytes32"
            },
            {
              "internalType": "address[]",
              "name": "actions",
              "type": "address[]"
            },
            {
              "internalType": "bytes[]",
              "name": "actionProcessDatas",
              "type": "bytes[]"
            }
          ],
          "internalType": "struct IDataMonetizer.ActParams",
          "name": "actParams",
          "type": "tuple"
        },
        {
          "components": [
            {
              "internalType": "address",
              "name": "signer",
              "type": "address"
            },
            {
              "internalType": "uint8",
              "name": "v",
              "type": "uint8"
            },
            {
              "internalType": "bytes32",
              "name": "r",
              "type": "bytes32"
            },
            {
              "internalType": "bytes32",
              "name": "s",
              "type": "bytes32"
            },
            {
              "internalType": "uint256",
              "name": "deadline",
              "type": "uint256"
            }
          ],
          "internalType": "struct IDataMonetizer.EIP712Signature",
          "name": "signature",
          "type": "tuple"
        }
      ],
      "name": "actWithSig",
      "outputs": [
        {
          "internalType": "bytes[]",
          "name": "",
          "type": "bytes[]"
        }
      ],
      "stateMutability": "payable",
      "type": "function"
    },
    {
      "inputs": [
        {
          "components": [
            {
              "internalType": "bytes32",
              "name": "assetId",
              "type": "bytes32"
            },
            {
              "internalType": "address[]",
              "name": "actions",
              "type": "address[]"
            },
            {
              "internalType": "bytes[]",
              "name": "actionInitDatas",
              "type": "bytes[]"
            }
          ],
          "internalType": "struct IDataMonetizer.AddActionsParams",
          "name": "addActionsParams",
          "type": "tuple"
        }
      ],
      "name": "addActions",
      "outputs": [],
      "stateMutability": "nonpayable",
      "type": "function"
    },
    {
      "inputs": [
        {
          "components": [
            {
              "internalType": "bytes32",
              "name": "assetId",
              "type": "bytes32"
            },
            {
              "internalType": "address[]",
              "name": "actions",
              "type": "address[]"
            },
            {
              "internalType": "bytes[]",
              "name": "actionInitDatas",
              "type": "bytes[]"
            }
          ],
          "internalType": "struct IDataMonetizer.AddActionsParams",
          "name": "addActionsParams",
          "type": "tuple"
        },
        {
          "components": [
            {
              "internalType": "address",
              "name": "signer",
              "type": "address"
            },
            {
              "internalType": "uint8",
              "name": "v",
              "type": "uint8"
            },
            {
              "internalType": "bytes32",
              "name": "r",
              "type": "bytes32"
            },
            {
              "internalType": "bytes32",
              "name": "s",
              "type": "bytes32"
            },
            {
              "internalType": "uint256",
              "name": "deadline",
              "type": "uint256"
            }
          ],
          "internalType": "struct IDataMonetizer.EIP712Signature",
          "name": "signature",
          "type": "tuple"
        }
      ],
      "name": "addActionsWithSig",
      "outputs": [],
      "stateMutability": "nonpayable",
      "type": "function"
    },
    {
      "inputs": [
        {
          "internalType": "address",
          "name": "to",
          "type": "address"
        },
        {
          "internalType": "uint256",
          "name": "tokenId",
          "type": "uint256"
        }
      ],
      "name": "approve",
      "outputs": [],
      "stateMutability": "nonpayable",
      "type": "function"
    },
    {
      "inputs": [
        {
          "internalType": "address",
          "name": "owner",
          "type": "address"
        }
      ],
      "name": "balanceOf",
      "outputs": [
        {
          "internalType": "uint256",
          "name": "",
          "type": "uint256"
        }
      ],
      "stateMutability": "view",
      "type": "function"
    },
    {
      "inputs": [],
      "name": "eip712Domain",
      "outputs": [
        {
          "internalType": "bytes1",
          "name": "fields",
          "type": "bytes1"
        },
        {
          "internalType": "string",
          "name": "name",
          "type": "string"
        },
        {
          "internalType": "string",
          "name": "version",
          "type": "string"
        },
        {
          "internalType": "uint256",
          "name": "chainId",
          "type": "uint256"
        },
        {
          "internalType": "address",
          "name": "verifyingContract",
          "type": "address"
        },
        {
          "internalType": "bytes32",
          "name": "salt",
          "type": "bytes32"
        },
        {
          "internalType": "uint256[]",
          "name": "extensions",
          "type": "uint256[]"
        }
      ],
      "stateMutability": "view",
      "type": "function"
    },
    {
      "inputs": [
        {
          "internalType": "uint256",
          "name": "tokenId",
          "type": "uint256"
        }
      ],
      "name": "getApproved",
      "outputs": [
        {
          "internalType": "address",
          "name": "",
          "type": "address"
        }
      ],
      "stateMutability": "view",
      "type": "function"
    },
    {
      "inputs": [
        {
          "internalType": "bytes32",
          "name": "assetId",
          "type": "bytes32"
        }
      ],
      "name": "getAsset",
      "outputs": [
        {
          "components": [
            {
              "internalType": "bytes",
              "name": "data",
              "type": "bytes"
            },
            {
              "internalType": "uint256",
              "name": "publishAt",
              "type": "uint256"
            },
            {
              "internalType": "uint256",
              "name": "publicationId",
              "type": "uint256"
            },
            {
              "internalType": "address[]",
              "name": "actions",
              "type": "address[]"
            }
          ],
          "internalType": "struct IDataMonetizer.Asset",
          "name": "",
          "type": "tuple"
        }
      ],
      "stateMutability": "view",
      "type": "function"
    },
    {
      "inputs": [
        {
          "internalType": "bytes32",
          "name": "assetId",
          "type": "bytes32"
        }
      ],
      "name": "getAssetOwner",
      "outputs": [
        {
          "internalType": "address",
          "name": "",
          "type": "address"
        }
      ],
      "stateMutability": "view",
      "type": "function"
    },
    {
      "inputs": [],
      "name": "getDomainSeparator",
      "outputs": [
        {
          "internalType": "bytes32",
          "name": "",
          "type": "bytes32"
        }
      ],
      "stateMutability": "view",
      "type": "function"
    },
    {
      "inputs": [
        {
          "internalType": "address",
          "name": "signer",
          "type": "address"
        }
      ],
      "name": "getSigNonce",
      "outputs": [
        {
          "internalType": "uint256",
          "name": "",
          "type": "uint256"
        }
      ],
      "stateMutability": "view",
      "type": "function"
    },
    {
      "inputs": [
        {
          "internalType": "bytes32",
          "name": "assetId",
          "type": "bytes32"
        }
      ],
      "name": "getTokenAsset",
      "outputs": [
        {
          "components": [
            {
              "internalType": "string",
              "name": "resourceId",
              "type": "string"
            },
            {
              "internalType": "string",
              "name": "fileId",
              "type": "string"
            },
            {
              "internalType": "uint256",
              "name": "publishAt",
              "type": "uint256"
            },
            {
              "internalType": "uint256",
              "name": "publicationId",
              "type": "uint256"
            },
            {
              "internalType": "address[]",
              "name": "actions",
              "type": "address[]"
            }
          ],
          "internalType": "struct IDataToken.TokenAsset",
          "name": "",
          "type": "tuple"
        }
      ],
      "stateMutability": "view",
      "type": "function"
    },
    {
      "inputs": [
        {
          "internalType": "address",
          "name": "owner",
          "type": "address"
        },
        {
          "internalType": "address",
          "name": "operator",
          "type": "address"
        }
      ],
      "name": "isApprovedForAll",
      "outputs": [
        {
          "internalType": "bool",
          "name": "",
          "type": "bool"
        }
      ],
      "stateMutability": "view",
      "type": "function"
    },
    {
      "inputs": [],
      "name": "name",
      "outputs": [
        {
          "internalType": "string",
          "name": "",
          "type": "string"
        }
      ],
      "stateMutability": "view",
      "type": "function"
    },
    {
      "inputs": [
        {
          "internalType": "uint256",
          "name": "tokenId",
          "type": "uint256"
        }
      ],
      "name": "ownerOf",
      "outputs": [
        {
          "internalType": "address",
          "name": "",
          "type": "address"
        }
      ],
      "stateMutability": "view",
      "type": "function"
    },
    {
      "inputs": [
        {
          "components": [
            {
              "internalType": "bytes",
              "name": "data",
              "type": "bytes"
            },
            {
              "internalType": "address[]",
              "name": "actions",
              "type": "address[]"
            },
            {
              "internalType": "bytes[]",
              "name": "actionInitDatas",
              "type": "bytes[]"
            }
          ],
          "internalType": "struct IDataMonetizer.PublishParams",
          "name": "publishParams",
          "type": "tuple"
        }
      ],
      "name": "publish",
      "outputs": [
        {
          "internalType": "bytes32",
          "name": "",
          "type": "bytes32"
        }
      ],
      "stateMutability": "payable",
      "type": "function"
    },
    {
      "inputs": [
        {
          "components": [
            {
              "internalType": "bytes",
              "name": "data",
              "type": "bytes"
            },
            {
              "internalType": "address[]",
              "name": "actions",
              "type": "address[]"
            },
            {
              "internalType": "bytes[]",
              "name": "actionInitDatas",
              "type": "bytes[]"
            }
          ],
          "internalType": "struct IDataMonetizer.PublishParams",
          "name": "publishParams",
          "type": "tuple"
        },
        {
          "components": [
            {
              "internalType": "address",
              "name": "signer",
              "type": "address"
            },
            {
              "internalType": "uint8",
              "name": "v",
              "type": "uint8"
            },
            {
              "internalType": "bytes32",
              "name": "r",
              "type": "bytes32"
            },
            {
              "internalType": "bytes32",
              "name": "s",
              "type": "bytes32"
            },
            {
              "internalType": "uint256",
              "name": "deadline",
              "type": "uint256"
            }
          ],
          "internalType": "struct IDataMonetizer.EIP712Signature",
          "name": "signature",
          "type": "tuple"
        }
      ],
      "name": "publishWithSig",
      "outputs": [
        {
          "internalType": "bytes32",
          "name": "",
          "type": "bytes32"
        }
      ],
      "stateMutability": "payable",
      "type": "function"
    },
    {
      "inputs": [
        {
          "internalType": "address",
          "name": "from",
          "type": "address"
        },
        {
          "internalType": "address",
          "name": "to",
          "type": "address"
        },
        {
          "internalType": "uint256",
          "name": "tokenId",
          "type": "uint256"
        }
      ],
      "name": "safeTransferFrom",
      "outputs": [],
      "stateMutability": "nonpayable",
      "type": "function"
    },
    {
      "inputs": [
        {
          "internalType": "address",
          "name": "from",
          "type": "address"
        },
        {
          "internalType": "address",
          "name": "to",
          "type": "address"
        },
        {
          "internalType": "uint256",
          "name": "tokenId",
          "type": "uint256"
        },
        {
          "internalType": "bytes",
          "name": "data",
          "type": "bytes"
        }
      ],
      "name": "safeTransferFrom",
      "outputs": [],
      "stateMutability": "nonpayable",
      "type": "function"
    },
    {
      "inputs": [
        {
          "internalType": "address",
          "name": "operator",
          "type": "address"
        },
        {
          "internalType": "bool",
          "name": "approved",
          "type": "bool"
        }
      ],
      "name": "setApprovalForAll",
      "outputs": [],
      "stateMutability": "nonpayable",
      "type": "function"
    },
    {
      "inputs": [
        {
          "internalType": "bytes4",
          "name": "interfaceId",
          "type": "bytes4"
        }
      ],
      "name": "supportsInterface",
      "outputs": [
        {
          "internalType": "bool",
          "name": "",
          "type": "bool"
        }
      ],
      "stateMutability": "view",
      "type": "function"
    },
    {
      "inputs": [],
      "name": "symbol",
      "outputs": [
        {
          "internalType": "string",
          "name": "",
          "type": "string"
        }
      ],
      "stateMutability": "view",
      "type": "function"
    },
    {
      "inputs": [
        {
          "internalType": "uint256",
          "name": "index",
          "type": "uint256"
        }
      ],
      "name": "tokenByIndex",
      "outputs": [
        {
          "internalType": "uint256",
          "name": "",
          "type": "uint256"
        }
      ],
      "stateMutability": "view",
      "type": "function"
    },
    {
      "inputs": [
        {
          "internalType": "address",
          "name": "owner",
          "type": "address"
        },
        {
          "internalType": "uint256",
          "name": "index",
          "type": "uint256"
        }
      ],
      "name": "tokenOfOwnerByIndex",
      "outputs": [
        {
          "internalType": "uint256",
          "name": "",
          "type": "uint256"
        }
      ],
      "stateMutability": "view",
      "type": "function"
    },
    {
      "inputs": [
        {
          "internalType": "uint256",
          "name": "tokenId",
          "type": "uint256"
        }
      ],
      "name": "tokenURI",
      "outputs": [
        {
          "internalType": "string",
          "name": "",
          "type": "string"
        }
      ],
      "stateMutability": "view",
      "type": "function"
    },
    {
      "inputs": [],
      "name": "totalSupply",
      "outputs": [
        {
          "internalType": "uint256",
          "name": "",
          "type": "uint256"
        }
      ],
      "stateMutability": "view",
      "type": "function"
    },
    {
      "inputs": [
        {
          "internalType": "address",
          "name": "from",
          "type": "address"
        },
        {
          "internalType": "address",
          "name": "to",
          "type": "address"
        },
        {
          "internalType": "uint256",
          "name": "tokenId",
          "type": "uint256"
        }
      ],
      "name": "transferFrom",
      "outputs": [],
      "stateMutability": "nonpayable",
      "type": "function"
    }
  ],
  "bytecode": {
    "object": "0x6101606040526000600d553480156200001757600080fd5b50604051806040016040528060098152602001682230ba30aa37b5b2b760b91b815250604051806040016040528060018152602001603160f81b81525081816040518060400160405280600f81526020016e141d589b1a58d85d1a5bdb88139195608a1b81525060405180604001604052806002815260200161282760f11b8152508160009081620000aa9190620002aa565b506001620000b98282620002aa565b50620000cb9150839050600a62000180565b61012052620000dc81600b62000180565b61014052815160208084019190912060e052815190820120610100524660a0526200016a60e05161010051604080517f8b73c3c69bb8fe3d512ecc4cf759cc79239f7b179b0ffacaa9a75d522b39400f60208201529081019290925260608201524660808201523060a082015260009060c00160405160208183030381529060405280519060200120905090565b60805250503060c05250506001600c55620003eb565b6000602083511015620001a0576200019883620001b9565b9050620001b3565b81620001ad8482620002aa565b5060ff90505b92915050565b600080829050601f81511115620001f0578260405163305a27a960e01b8152600401620001e7919062000376565b60405180910390fd5b8051620001fd82620003c6565b179392505050565b634e487b7160e01b600052604160045260246000fd5b600181811c908216806200023057607f821691505b6020821081036200025157634e487b7160e01b600052602260045260246000fd5b50919050565b601f821115620002a557600081815260208120601f850160051c81016020861015620002805750805b601f850160051c820191505b81811015620002a1578281556001016200028c565b5050505b505050565b81516001600160401b03811115620002c657620002c662000205565b620002de81620002d784546200021b565b8462000257565b602080601f831160018114620003165760008415620002fd5750858301515b600019600386901b1c1916600185901b178555620002a1565b600085815260208120601f198616915b82811015620003475788860151825594840194600190910190840162000326565b5085821015620003665787850151600019600388901b60f8161c191681555b5050505050600190811b01905550565b600060208083528351808285015260005b81811015620003a55785810183015185820160400152820162000387565b506000604082860101526040601f19601f8301168501019250505092915050565b80516020808301519190811015620002515760001960209190910360031b1b16919050565b60805160a05160c05160e051610100516101205161014051613b54620004466000396000611a5801526000611a2b015260006120d8015260006120b00152600061200b015260006120350152600061205f0152613b546000f3fe6080604052600436106101b75760003560e01c80636352211e116100ec578063b9348ed81161008a578063c97bdc6a11610064578063c97bdc6a14610510578063e03e016314610523578063e985e9c514610536578063ed24911d1461055657600080fd5b8063b9348ed8146104a3578063c2bb05a7146104d0578063c87b56dd146104f057600080fd5b806395d89b41116100c657806395d89b411461043b578063a22cb46514610450578063adcec4a014610470578063b88d4fde1461048357600080fd5b80636352211e146103d357806370a08231146103f357806384b0196e1461041357600080fd5b8063262975841161015957806335d8c2b71161013357806335d8c2b71461035357806342842e0e146103735780634f6ccce7146103935780635b882006146103b357600080fd5b806326297584146102e65780632cc3ce80146103065780632f745c591461033357600080fd5b8063081812fc11610195578063081812fc14610257578063095ea7b31461028f57806318160ddd146102b157806323b872dd146102c657600080fd5b806301ffc9a7146101bc57806305ac0ab4146101f157806306fdde0314610235575b600080fd5b3480156101c857600080fd5b506101dc6101d7366004612a37565b61056b565b60405190151581526020015b60405180910390f35b3480156101fd57600080fd5b5061022761020c366004612a6b565b6001600160a01b03166000908152600e602052604090205490565b6040519081526020016101e8565b34801561024157600080fd5b5061024a610596565b6040516101e89190612ad6565b34801561026357600080fd5b50610277610272366004612ae9565b610628565b6040516001600160a01b0390911681526020016101e8565b34801561029b57600080fd5b506102af6102aa366004612b02565b610651565b005b3480156102bd57600080fd5b50600854610227565b3480156102d257600080fd5b506102af6102e1366004612b2c565b610660565b6102f96102f4366004612b92565b6106f0565b6040516101e89190612c38565b34801561031257600080fd5b50610326610321366004612ae9565b61093f565b6040516101e89190612c8f565b34801561033f57600080fd5b5061022761034e366004612b02565b610a91565b34801561035f57600080fd5b5061027761036e366004612ae9565b610af6565b34801561037f57600080fd5b506102af61038e366004612b2c565b610b11565b34801561039f57600080fd5b506102276103ae366004612ae9565b610b31565b3480156103bf57600080fd5b506102af6103ce366004612b92565b610b8a565b3480156103df57600080fd5b506102776103ee366004612ae9565b610dbd565b3480156103ff57600080fd5b5061022761040e366004612a6b565b610dc8565b34801561041f57600080fd5b50610428610e10565b6040516101e89796959493929190612ce5565b34801561044757600080fd5b5061024a610e56565b34801561045c57600080fd5b506102af61046b366004612d89565b610e65565b61022761047e366004612b92565b610e70565b34801561048f57600080fd5b506102af61049e366004612eab565b610fa2565b3480156104af57600080fd5b506104c36104be366004612ae9565b610fb9565b6040516101e89190612f12565b3480156104dc57600080fd5b506102af6104eb366004612f7e565b61113f565b3480156104fc57600080fd5b5061024a61050b366004612ae9565b611166565b61022761051e366004612f7e565b6111db565b6102f9610531366004612f7e565b611200565b34801561054257600080fd5b506101dc610551366004612fb2565b611214565b34801561056257600080fd5b50610227611242565b60006001600160e01b031982166365016f0960e11b1480610590575061059082611251565b92915050565b6060600080546105a590612fdc565b80601f01602080910402602001604051908101604052809291908181526020018280546105d190612fdc565b801561061e5780601f106105f35761010080835404028352916020019161061e565b820191906000526020600020905b81548152906001019060200180831161060157829003601f168201915b5050505050905090565b600061063382611276565b506000828152600460205260409020546001600160a01b0316610590565b61065c8282336112af565b5050565b6001600160a01b03821661068f57604051633250574960e11b8152600060048201526024015b60405180910390fd5b600061069c8383336112bc565b9050836001600160a01b0316816001600160a01b0316146106ea576040516364283d7b60e01b81526001600160a01b0380861660048301526024820184905282166044820152606401610686565b50505050565b60606106fa611391565b60006108dc6108c86040518060a0016040528060678152602001613ab86067913980519060200120866000013573__$6c61c5cc6e1093b0f32cad1abb45f40f23$__6333983acb8980602001906107519190613010565b6040518363ffffffff1660e01b815260040161076e929190613060565b602060405180830381865af415801561078b573d6000803e3d6000fd5b505050506040513d601f19601f820116820180604052508101906107af91906130ac565b73__$6c61c5cc6e1093b0f32cad1abb45f40f23$__639e22d70d6107d660408c018c613010565b6040518363ffffffff1660e01b81526004016107f3929190613133565b602060405180830381865af4158015610810573d6000803e3d6000fd5b505050506040513d601f19601f8201168201806040525081019061083491906130ac565b600e600061084560208c018c612a6b565b6001600160a01b031681526020810191909152604001600090812080549161086c836131af565b9190505589608001356040516020016108ad96959493929190958652602086019490945260408501929092526060840152608083015260a082015260c00190565b604051602081830303815290604052805190602001206113bb565b6108d7368690038601866131c8565b6113e8565b90506001600160a01b0381166108f56020850185612a6b565b6001600160a01b03161461091c57604051630e751dc360e31b815260040160405180910390fd5b6109328461092d6020860186612a6b565b611480565b9150506105906001600c55565b61096a6040518060800160405280606081526020016000815260200160008152602001606081525090565b6000828152600f60205260409081902081516080810190925280548290829061099290612fdc565b80601f01602080910402602001604051908101604052809291908181526020018280546109be90612fdc565b8015610a0b5780601f106109e057610100808354040283529160200191610a0b565b820191906000526020600020905b8154815290600101906020018083116109ee57829003601f168201915b50505050508152602001600182015481526020016002820154815260200160038201805480602002602001604051908101604052809291908181526020018280548015610a8157602002820191906000526020600020905b81546001600160a01b03168152600190910190602001808311610a63575b5050505050815250509050919050565b6000610a9c83610dc8565b8210610acd5760405163295f44f760e21b81526001600160a01b038416600482015260248101839052604401610686565b506001600160a01b03919091166000908152600660209081526040808320938352929052205490565b6000818152600f602052604081206002015461059090610dbd565b610b2c83838360405180602001604052806000815250610fa2565b505050565b6000610b3c60085490565b8210610b655760405163295f44f760e21b81526000600482015260248101839052604401610686565b60088281548110610b7857610b7861324d565b90600052602060002001549050919050565b610b92611391565b6000610d54610d456040518060a00160405280606b8152602001613a4d606b913980519060200120856000013573__$6c61c5cc6e1093b0f32cad1abb45f40f23$__6333983acb888060200190610be99190613010565b6040518363ffffffff1660e01b8152600401610c06929190613060565b602060405180830381865af4158015610c23573d6000803e3d6000fd5b505050506040513d601f19601f82011682018060405250810190610c4791906130ac565b73__$6c61c5cc6e1093b0f32cad1abb45f40f23$__639e22d70d610c6e60408b018b613010565b6040518363ffffffff1660e01b8152600401610c8b929190613133565b602060405180830381865af4158015610ca8573d6000803e3d6000fd5b505050506040513d601f19601f82011682018060405250810190610ccc91906130ac565b600e6000610cdd60208b018b612a6b565b6001600160a01b0316815260208101919091526040016000908120805491610d04836131af565b9190505588608001356040516020016108ad96959493929190958652602086019490945260408501929092526060840152608083015260a082015260c00190565b6108d7368590038501856131c8565b90506001600160a01b038116610d6d6020840184612a6b565b6001600160a01b031614610d9457604051630e751dc360e31b815260040160405180910390fd5b610db2610da084613367565b610dad6020850185612a6b565b611807565b5061065c6001600c55565b600061059082611276565b60006001600160a01b038216610df4576040516322718ad960e21b815260006004820152602401610686565b506001600160a01b031660009081526003602052604090205490565b600060608060008060006060610e24611a24565b610e2c611a51565b60408051600080825260208201909252600f60f81b9b939a50919850469750309650945092509050565b6060600180546105a590612fdc565b61065c338383611a7e565b6000610e7a611391565b6000610f4c6108c86040518060a00160405280606381526020016139ea60639139805160209091012073__$6c61c5cc6e1093b0f32cad1abb45f40f23$__638d849f43610ec789806133dd565b6040518363ffffffff1660e01b8152600401610ee4929190613423565b602060405180830381865af4158015610f01573d6000803e3d6000fd5b505050506040513d601f19601f82011682018060405250810190610f2591906130ac565b73__$6c61c5cc6e1093b0f32cad1abb45f40f23$__6333983acb61075160208b018b613010565b90506001600160a01b038116610f656020850185612a6b565b6001600160a01b031614610f8c57604051630e751dc360e31b815260040160405180910390fd5b61093284610f9d6020860186612a6b565b611b1d565b610fad848484610660565b6106ea84848484611e43565b610feb6040518060a0016040528060608152602001606081526020016000815260200160008152602001606081525090565b6000828152600f60205260408120805482919061100790612fdc565b80601f016020809104026020016040519081016040528092919081815260200182805461103390612fdc565b80156110805780601f1061105557610100808354040283529160200191611080565b820191906000526020600020905b81548152906001019060200180831161106357829003601f168201915b50505050508060200190518101906110989190613487565b6040805160a08101825283815260208082018490526000898152600f80835284822060018101548587015260028101546060860152918b905282526003018054845181840281018401909552808552959750939550909360808501939183018282801561112e57602002820191906000526020600020905b81546001600160a01b03168152600190910190602001808311611110575b505050505081525092505050919050565b611147611391565b61115961115382613367565b33611807565b6111636001600c55565b50565b606061117182611276565b50600061118960408051602081019091526000815290565b905060008151116111a957604051806020016040528060008152506111d4565b806111b384611f6c565b6040516020016111c49291906134ea565b6040516020818303038152906040525b9392505050565b60006111e5611391565b6111ef8233611b1d565b90506111fb6001600c55565b919050565b606061120a611391565b6111ef8233611480565b6001600160a01b03918216600090815260056020908152604080832093909416825291909152205460ff1690565b600061124c611ffe565b905090565b60006001600160e01b0319821663780e9d6360e01b1480610590575061059082612129565b6000818152600260205260408120546001600160a01b03168061059057604051637e27328960e01b815260048101849052602401610686565b610b2c8383836001612179565b6000806112ca85858561227f565b90506001600160a01b0381166113275761132284600880546000838152600960205260408120829055600182018355919091527ff3f7a9fe364faab93b216da50a3214154f22a0a2b415b23a84c8169e8b636ee30155565b61134a565b846001600160a01b0316816001600160a01b03161461134a5761134a8185612378565b6001600160a01b0385166113665761136184612409565b611389565b846001600160a01b0316816001600160a01b0316146113895761138985856124b8565b949350505050565b6002600c54036113b457604051633ee5aeb560e01b815260040160405180910390fd5b6002600c55565b60006105906113c8611ffe565b8360405161190160f01b8152600281019290925260228201526042902090565b6000428260800151101561140f57604051630819bdcd60e01b815260040160405180910390fd5b602080830151604080850151606080870151835160008082529681018086528a905260ff90951693850193909352830152608082015260019060a0016020604051602081039080840390855afa15801561146d573d6000803e3d6000fd5b5050604051601f19015195945050505050565b606061148f6040840184613010565b905061149e6020850185613010565b9050146114be576040516318c2d3e960e31b815260040160405180910390fd5b60005b6114ce6020850185613010565b90508110156115b6576000805b85356000908152600f60205260409020600301548110156115865785356000908152600f6020526040902060030180548290811061151b5761151b61324d565b600091825260209182902001546001600160a01b03169061153e90880188613010565b8581811061154e5761154e61324d565b90506020020160208101906115639190612a6b565b6001600160a01b03160361157657600191505b61157f816131af565b90506114db565b50806115a557604051632b52c85160e21b815260040160405180910390fd5b506115af816131af565b90506114c1565b506115c46020840184613010565b90506001600160401b038111156115dd576115dd612dc0565b60405190808252806020026020018201604052801561161057816020015b60608152602001906001900390816115fb5790505b50905060005b6116236020850185613010565b905081101561179f5760008061163c6020870187613010565b8481811061164c5761164c61324d565b90506020020160208101906116619190612a6b565b6001600160a01b03163463ce79d4bd60e01b88358861168360408c018c613010565b898181106116935761169361324d565b90506020028101906116a591906133dd565b6040516024016116b89493929190613519565b60408051601f198184030181529181526020820180516001600160e01b03166001600160e01b03199094169390931790925290516116f6919061354e565b60006040518083038185875af1925050503d8060008114611733576040519150601f19603f3d011682016040523d82523d6000602084013e611738565b606091505b50915091508161175b5760405163d0a0e22560e01b815260040160405180910390fd5b8080602001905181019061176f919061356a565b8484815181106117815761178161324d565b6020026020010181905250505080611798906131af565b9050611616565b506001600160a01b03821683357f8f7df4b117f95d3eb363b9748409ed3e2278f6683efbf8f05304a62802dd57856117da6020870187613010565b6117e76040890189613010565b876040516117f995949392919061363e565b60405180910390a392915050565b81516118139082612508565b6118208260200151612542565b8160400151518260200151511461184a576040516318c2d3e960e31b815260040160405180910390fd5b60005b8260200151518110156119da57600f6000846000015181526020019081526020016000206003018360200151828151811061188a5761188a61324d565b602090810291909101810151825460018101845560009384528284200180546001600160a01b0319166001600160a01b039092169190911790558401518051839081106118d9576118d961324d565b60200260200101516001600160a01b03163463db86aeea60e01b86600001518760400151868151811061190e5761190e61324d565b6020026020010151604051602401611927929190613685565b60408051601f198184030181529181526020820180516001600160e01b03166001600160e01b0319909416939093179092529051611965919061354e565b60006040518083038185875af1925050503d80600081146119a2576040519150601f19603f3d011682016040523d82523d6000602084013e6119a7565b606091505b50509050806119c95760405163d840c6d960e01b815260040160405180910390fd5b506119d3816131af565b905061184d565b5081600001517e67ace43f65e366bebbd59b5a6037e773324300314768487976539a2c5e78f483602001518460400151604051611a1892919061369e565b60405180910390a25050565b606061124c7f0000000000000000000000000000000000000000000000000000000000000000600a612608565b606061124c7f0000000000000000000000000000000000000000000000000000000000000000600b612608565b6001600160a01b038216611ab057604051630b61174360e31b81526001600160a01b0383166004820152602401610686565b6001600160a01b03838116600081815260056020908152604080832094871680845294825291829020805460ff191686151590811790915591519182527f17307eab39ab6107e8899845ad3d59bd9653f200f220920489ca2b5937696c31910160405180910390a3505050565b6000611b66611b2f6020850185613010565b8080602002602001604051908101604052809392919081815260200183836020028082843760009201919091525061254292505050565b6000611b7a611b74856136c3565b846126b3565b90506000611b87846126ea565b604080516080810190915290915080611ba087806133dd565b8080601f0160208091040260200160405190810160405280939291908181526020018383808284376000920191909152505050908252504260208083019190915260408201849052606090910190611bfa90880188613010565b808060200260200160405190810160405280939291908181526020018383602002808284376000920182905250939094525050848152600f6020526040902082519091508190611c4a9082613764565b5060208281015160018301556040830151600283015560608301518051611c7792600385019201906129a7565b5090505060005b611c8b6020870187613010565b9050811015611dcf576000611ca36020880188613010565b83818110611cb357611cb361324d565b9050602002016020810190611cc89190612a6b565b6001600160a01b031634636dc3577560e11b86611ce860408c018c613010565b87818110611cf857611cf861324d565b9050602002810190611d0a91906133dd565b604051602401611d1c93929190613823565b60408051601f198184030181529181526020820180516001600160e01b03166001600160e01b0319909416939093179092529051611d5a919061354e565b60006040518083038185875af1925050503d8060008114611d97576040519150601f19603f3d011682016040523d82523d6000602084013e611d9c565b606091505b5050905080611dbe5760405163d840c6d960e01b815260040160405180910390fd5b50611dc8816131af565b9050611c7e565b50806001600160a01b038516837f45ff2dc7a23296f7ea55f07fb8515e3c2ca670971f67abdf03657cc929ed475c611e0789806133dd565b611e1460208c018c613010565b611e2160408e018e613010565b604051611e339695949392919061383d565b60405180910390a4509392505050565b6001600160a01b0383163b156106ea57604051630a85bd0160e11b81526001600160a01b0384169063150b7a0290611e85903390889087908790600401613886565b6020604051808303816000875af1925050508015611ec0575060408051601f3d908101601f19168201909252611ebd918101906138b9565b60015b611f29573d808015611eee576040519150601f19603f3d011682016040523d82523d6000602084013e611ef3565b606091505b508051600003611f2157604051633250574960e11b81526001600160a01b0385166004820152602401610686565b805181602001fd5b6001600160e01b03198116630a85bd0160e11b14611f6557604051633250574960e11b81526001600160a01b0385166004820152602401610686565b5050505050565b60606000611f798361270b565b60010190506000816001600160401b03811115611f9857611f98612dc0565b6040519080825280601f01601f191660200182016040528015611fc2576020820181803683370190505b5090508181016020015b600019016f181899199a1a9b1b9c1cb0b131b232b360811b600a86061a8153600a8504945084611fcc57509392505050565b6000306001600160a01b037f00000000000000000000000000000000000000000000000000000000000000001614801561205757507f000000000000000000000000000000000000000000000000000000000000000046145b1561208157507f000000000000000000000000000000000000000000000000000000000000000090565b61124c604080517f8b73c3c69bb8fe3d512ecc4cf759cc79239f7b179b0ffacaa9a75d522b39400f60208201527f0000000000000000000000000000000000000000000000000000000000000000918101919091527f000000000000000000000000000000000000000000000000000000000000000060608201524660808201523060a082015260009060c00160405160208183030381529060405280519060200120905090565b60006001600160e01b031982166380ac58cd60e01b148061215a57506001600160e01b03198216635b5e139f60e01b145b8061059057506301ffc9a760e01b6001600160e01b0319831614610590565b808061218d57506001600160a01b03821615155b1561224f57600061219d84611276565b90506001600160a01b038316158015906121c95750826001600160a01b0316816001600160a01b031614155b80156121dc57506121da8184611214565b155b156122055760405163a9fbf51f60e01b81526001600160a01b0384166004820152602401610686565b811561224d5783856001600160a01b0316826001600160a01b03167f8c5be1e5ebec7d5bd14f71427d1e84f3dd0314c0f7b2291e5b200ac8c7c3b92560405160405180910390a45b505b5050600090815260046020526040902080546001600160a01b0319166001600160a01b0392909216919091179055565b6000828152600260205260408120546001600160a01b03908116908316156122ac576122ac8184866127e3565b6001600160a01b038116156122ea576122c9600085600080612179565b6001600160a01b038116600090815260036020526040902080546000190190555b6001600160a01b03851615612319576001600160a01b0385166000908152600360205260409020805460010190555b60008481526002602052604080822080546001600160a01b0319166001600160a01b0389811691821790925591518793918516917fddf252ad1be2c89b69c2b068fc378daa952ba7f163c4a11628f55a4df523b3ef91a4949350505050565b600061238383610dc8565b6000838152600760205260409020549091508082146123d6576001600160a01b03841660009081526006602090815260408083208584528252808320548484528184208190558352600790915290208190555b5060009182526007602090815260408084208490556001600160a01b039094168352600681528383209183525290812055565b60085460009061241b906001906138d6565b600083815260096020526040812054600880549394509092849081106124435761244361324d565b9060005260206000200154905080600883815481106124645761246461324d565b600091825260208083209091019290925582815260099091526040808220849055858252812055600880548061249c5761249c6138e9565b6001900381819060005260206000200160009055905550505050565b600060016124c584610dc8565b6124cf91906138d6565b6001600160a01b039093166000908152600660209081526040808320868452825280832085905593825260079052919091209190915550565b806001600160a01b031661251b83610af6565b6001600160a01b03161461065c57604051637d387f3960e01b815260040160405180910390fd5b60005b815181101561065c578181815181106125605761256061324d565b60209081029190910101516040516301ffc9a760e01b8152631066d55960e11b60048201526001600160a01b03909116906301ffc9a790602401602060405180830381865afa1580156125b7573d6000803e3d6000fd5b505050506040513d601f19601f820116820180604052508101906125db91906138ff565b6125f85760405163251cb21f60e01b815260040160405180910390fd5b612601816131af565b9050612545565b606060ff83146126225761261b83612847565b9050610590565b81805461262e90612fdc565b80601f016020809104026020016040519081016040528092919081815260200182805461265a90612fdc565b80156126a75780601f1061267c576101008083540402835291602001916126a7565b820191906000526020600020905b81548152906001019060200180831161268a57829003601f168201915b50505050509050610590565b6000828230426040516020016126cc949392919061391c565b60405160208183030381529060405280519060200120905092915050565b600d8054906111fb90839083906000612702836131af565b91905055612886565b60008072184f03e93ff9f4daa797ed6e38ed64bf6a1f0160401b831061274a5772184f03e93ff9f4daa797ed6e38ed64bf6a1f0160401b830492506040015b6d04ee2d6d415b85acef81000000008310612776576d04ee2d6d415b85acef8100000000830492506020015b662386f26fc10000831061279457662386f26fc10000830492506010015b6305f5e10083106127ac576305f5e100830492506008015b61271083106127c057612710830492506004015b606483106127d2576064830492506002015b600a83106105905760010192915050565b6127ee8383836128a0565b610b2c576001600160a01b03831661281c57604051637e27328960e01b815260048101829052602401610686565b60405163177e802f60e01b81526001600160a01b038316600482015260248101829052604401610686565b6060600061285483612903565b604080516020808252818301909252919250600091906020820181803683375050509182525060208101929092525090565b61065c82826040518060200160405280600081525061292b565b60006001600160a01b038316158015906113895750826001600160a01b0316846001600160a01b031614806128da57506128da8484611214565b806113895750506000908152600460205260409020546001600160a01b03908116911614919050565b600060ff8216601f81111561059057604051632cd44ac360e21b815260040160405180910390fd5b6129358383612942565b610b2c6000848484611e43565b6001600160a01b03821661296c57604051633250574960e11b815260006004820152602401610686565b600061297a838360006112bc565b90506001600160a01b03811615610b2c576040516339e3563760e11b815260006004820152602401610686565b8280548282559060005260206000209081019282156129fc579160200282015b828111156129fc57825182546001600160a01b0319166001600160a01b039091161782556020909201916001909101906129c7565b50612a08929150612a0c565b5090565b5b80821115612a085760008155600101612a0d565b6001600160e01b03198116811461116357600080fd5b600060208284031215612a4957600080fd5b81356111d481612a21565b80356001600160a01b03811681146111fb57600080fd5b600060208284031215612a7d57600080fd5b6111d482612a54565b60005b83811015612aa1578181015183820152602001612a89565b50506000910152565b60008151808452612ac2816020860160208601612a86565b601f01601f19169290920160200192915050565b6020815260006111d46020830184612aaa565b600060208284031215612afb57600080fd5b5035919050565b60008060408385031215612b1557600080fd5b612b1e83612a54565b946020939093013593505050565b600080600060608486031215612b4157600080fd5b612b4a84612a54565b9250612b5860208501612a54565b9150604084013590509250925092565b600060608284031215612b7a57600080fd5b50919050565b600060a08284031215612b7a57600080fd5b60008060c08385031215612ba557600080fd5b82356001600160401b03811115612bbb57600080fd5b612bc785828601612b68565b925050612bd78460208501612b80565b90509250929050565b600082825180855260208086019550808260051b84010181860160005b84811015612c2b57601f19868403018952612c19838351612aaa565b98840198925090830190600101612bfd565b5090979650505050505050565b6020815260006111d46020830184612be0565b600081518084526020808501945080840160005b83811015612c845781516001600160a01b031687529582019590820190600101612c5f565b509495945050505050565b602081526000825160806020840152612cab60a0840182612aaa565b905060208401516040840152604084015160608401526060840151601f19848303016080850152612cdc8282612c4b565b95945050505050565b60ff60f81b881681526000602060e081840152612d0560e084018a612aaa565b8381036040850152612d17818a612aaa565b606085018990526001600160a01b038816608086015260a0850187905284810360c0860152855180825283870192509083019060005b81811015612d6957835183529284019291840191600101612d4d565b50909c9b505050505050505050505050565b801515811461116357600080fd5b60008060408385031215612d9c57600080fd5b612da583612a54565b91506020830135612db581612d7b565b809150509250929050565b634e487b7160e01b600052604160045260246000fd5b604051606081016001600160401b0381118282101715612df857612df8612dc0565b60405290565b604051601f8201601f191681016001600160401b0381118282101715612e2657612e26612dc0565b604052919050565b60006001600160401b03821115612e4757612e47612dc0565b50601f01601f191660200190565b600082601f830112612e6657600080fd5b8135612e79612e7482612e2e565b612dfe565b818152846020838601011115612e8e57600080fd5b816020850160208301376000918101602001919091529392505050565b60008060008060808587031215612ec157600080fd5b612eca85612a54565b9350612ed860208601612a54565b92506040850135915060608501356001600160401b03811115612efa57600080fd5b612f0687828801612e55565b91505092959194509250565b602081526000825160a06020840152612f2e60c0840182612aaa565b90506020840151601f1980858403016040860152612f4c8383612aaa565b9250604086015160608601526060860151608086015260808601519150808584030160a086015250612cdc8282612c4b565b600060208284031215612f9057600080fd5b81356001600160401b03811115612fa657600080fd5b61138984828501612b68565b60008060408385031215612fc557600080fd5b612fce83612a54565b9150612bd760208401612a54565b600181811c90821680612ff057607f821691505b602082108103612b7a57634e487b7160e01b600052602260045260246000fd5b6000808335601e1984360301811261302757600080fd5b8301803591506001600160401b0382111561304157600080fd5b6020019150600581901b360382131561305957600080fd5b9250929050565b60208082528181018390526000908460408401835b868110156130a1576001600160a01b0361308e84612a54565b1682529183019190830190600101613075565b509695505050505050565b6000602082840312156130be57600080fd5b5051919050565b81835281816020850137506000828201602090810191909152601f909101601f19169091010190565b6000808335601e1984360301811261310557600080fd5b83016020810192503590506001600160401b0381111561312457600080fd5b80360382131561305957600080fd5b60208082528181018390526000906040600585901b8401810190840186845b8781101561318c57868403603f1901835261316d828a6130ee565b6131788682846130c5565b955050509184019190840190600101613152565b5091979650505050505050565b634e487b7160e01b600052601160045260246000fd5b6000600182016131c1576131c1613199565b5060010190565b600060a082840312156131da57600080fd5b60405160a081018181106001600160401b03821117156131fc576131fc612dc0565b60405261320883612a54565b8152602083013560ff8116811461321e57600080fd5b806020830152506040830135604082015260608301356060820152608083013560808201528091505092915050565b634e487b7160e01b600052603260045260246000fd5b60006001600160401b0382111561327c5761327c612dc0565b5060051b60200190565b600082601f83011261329757600080fd5b813560206132a7612e7483613263565b82815260059290921b840181019181810190868411156132c657600080fd5b8286015b848110156130a1576132db81612a54565b83529183019183016132ca565b600082601f8301126132f957600080fd5b81356020613309612e7483613263565b82815260059290921b8401810191818101908684111561332857600080fd5b8286015b848110156130a15780356001600160401b0381111561334b5760008081fd5b6133598986838b0101612e55565b84525091830191830161332c565b60006060823603121561337957600080fd5b613381612dd6565b8235815260208301356001600160401b038082111561339f57600080fd5b6133ab36838701613286565b602084015260408501359150808211156133c457600080fd5b506133d1368286016132e8565b60408301525092915050565b6000808335601e198436030181126133f457600080fd5b8301803591506001600160401b0382111561340e57600080fd5b60200191503681900382131561305957600080fd5b6020815260006113896020830184866130c5565b6000613445612e7484612e2e565b905082815283838301111561345957600080fd5b6111d4836020830184612a86565b600082601f83011261347857600080fd5b6111d483835160208501613437565b6000806040838503121561349a57600080fd5b82516001600160401b03808211156134b157600080fd5b6134bd86838701613467565b935060208501519150808211156134d357600080fd5b506134e085828601613467565b9150509250929050565b600083516134fc818460208801612a86565b835190830190613510818360208801612a86565b01949350505050565b8481526001600160a01b038416602082015260606040820181905260009061354490830184866130c5565b9695505050505050565b60008251613560818460208701612a86565b9190910192915050565b60006020828403121561357c57600080fd5b81516001600160401b0381111561359257600080fd5b8201601f810184136135a357600080fd5b61138984825160208401613437565b8183526000602080850194508260005b85811015612c84576001600160a01b036135db83612a54565b16875295820195908201906001016135c2565b81835260006020808501808196508560051b810191508460005b8781101561318c57828403895261361f82886130ee565b61362a8682846130c5565b9a87019a9550505090840190600101613608565b6060815260006136526060830187896135b2565b82810360208401526136658186886135ee565b905082810360408401526136798185612be0565b98975050505050505050565b8281526040602082015260006113896040830184612aaa565b6040815260006136b16040830185612c4b565b8281036020840152612cdc8185612be0565b6000606082360312156136d557600080fd5b6136dd612dd6565b82356001600160401b03808211156136f457600080fd5b61370036838701612e55565b8352602085013591508082111561339f57600080fd5b601f821115610b2c57600081815260208120601f850160051c8101602086101561373d5750805b601f850160051c820191505b8181101561375c57828155600101613749565b505050505050565b81516001600160401b0381111561377d5761377d612dc0565b6137918161378b8454612fdc565b84613716565b602080601f8311600181146137c657600084156137ae5750858301515b600019600386901b1c1916600185901b17855561375c565b600085815260208120601f198616915b828110156137f5578886015182559484019460019091019084016137d6565b50858210156138135787850151600019600388901b60f8161c191681555b5050505050600190811b01905550565b838152604060208201526000612cdc6040830184866130c5565b60608152600061385160608301888a6130c5565b82810360208401526138648187896135b2565b905082810360408401526138798185876135ee565b9998505050505050505050565b6001600160a01b038581168252841660208201526040810183905260806060820181905260009061354490830184612aaa565b6000602082840312156138cb57600080fd5b81516111d481612a21565b8181038181111561059057610590613199565b634e487b7160e01b600052603160045260246000fd5b60006020828403121561391157600080fd5b81516111d481612d7b565b60808152600085516060608084015261393860e0840182612aaa565b9050602080880151607f19808685030160a08701526139578483612c4b565b60408b015187820390920160c08801528151808252909450908301915082840190600581901b8501840160005b828110156139b257601f198783030184526139a0828651612aaa565b94860194938601939150600101613984565b506001600160a01b038b168589015295506139cc92505050565b50506001600160a01b03939093166040820152606001529291505056fe5075626c6973685769746853696728627974657320646174612c616464726573735b5d20616374696f6e732c62797465735b5d20616374696f6e496e697444617461732c75696e74323536206e6f6e63652c75696e7432353620646561646c696e6529416464416374696f6e7357697468536967286279746573333220617373657449642c616464726573735b5d20616374696f6e732c62797465735b5d20616374696f6e496e697444617461732c75696e74323536206e6f6e63652c75696e7432353620646561646c696e652941637457697468536967286279746573333220617373657449642c616464726573735b5d20616374696f6e732c62797465735b5d20616374696f6e50726f6365737344617461732c75696e74323536206e6f6e63652c75696e7432353620646561646c696e6529a2646970667358221220539c24fefd7c4ca232a128ae90b48c39a45a1d8e25198b2981ff8ef0019d20bb64736f6c63430008150033",
    "linkReferences": {
      "contracts/libraries/EIP712Encoder.sol": {
        "EIP712Encoder": [
          {
            "start": 2927,
            "length": 20
          },
          {
            "start": 3063,
            "length": 20
          },
          {
            "start": 4103,
            "length": 20
          },
          {
            "start": 4239,
            "length": 20
          },
          {
            "start": 4843,
            "length": 20
          },
          {
            "start": 4973,
            "length": 20
          }
        ]
      }
    }
  },
  "methodIdentifiers": {
    "act((bytes32,address[],bytes[]))": "e03e0163",
    "actWithSig((bytes32,address[],bytes[]),(address,uint8,bytes32,bytes32,uint256))": "26297584",
    "addActions((bytes32,address[],bytes[]))": "c2bb05a7",
    "addActionsWithSig((bytes32,address[],bytes[]),(address,uint8,bytes32,bytes32,uint256))": "5b882006",
    "approve(address,uint256)": "095ea7b3",
    "balanceOf(address)": "70a08231",
    "eip712Domain()": "84b0196e",
    "getApproved(uint256)": "081812fc",
    "getAsset(bytes32)": "2cc3ce80",
    "getAssetOwner(bytes32)": "35d8c2b7",
    "getDomainSeparator()": "ed24911d",
    "getSigNonce(address)": "05ac0ab4",
    "getTokenAsset(bytes32)": "b9348ed8",
    "isApprovedForAll(address,address)": "e985e9c5",
    "name()": "06fdde03",
    "ownerOf(uint256)": "6352211e",
    "publish((bytes,address[],bytes[]))": "c97bdc6a",
    "publishWithSig((bytes,address[],bytes[]),(address,uint8,bytes32,bytes32,uint256))": "adcec4a0",
    "safeTransferFrom(address,address,uint256)": "42842e0e",
    "safeTransferFrom(address,address,uint256,bytes)": "b88d4fde",
    "setApprovalForAll(address,bool)": "a22cb465",
    "supportsInterface(bytes4)": "01ffc9a7",
    "symbol()": "95d89b41",
    "tokenByIndex(uint256)": "4f6ccce7",
    "tokenOfOwnerByIndex(address,uint256)": "2f745c59",
    "tokenURI(uint256)": "c87b56dd",
    "totalSupply()": "18160ddd",
    "transferFrom(address,address,uint256)": "23b872dd"
  },
  "id": 3
}