{
  "abi": [
    {
      "inputs": [
        {
          "internalType": "address",
          "name": "dappTableRegistry",
          "type": "address"
        }
      ],
      "stateMutability": "nonpayable",
      "type": "constructor"
    },
    {
      "inputs": [],
      "name": "ActionInvalid",
      "type": "error"
    },
    {
      "inputs": [],
      "name": "ActionNotExists",
      "type": "error"
    },
    {
      "inputs": [],
      "name": "ArrayLengthNotEqual",
      "type": "error"
    },
    {
      "inputs": [],
      "name": "CollectParamsMismatch",
      "type": "error"
    },
    {
      "inputs": [],
      "name": "DuplicatePublish",
      "type": "error"
    },
    {
      "inputs": [],
      "name": "InvalidShortString",
      "type": "error"
    },
    {
      "inputs": [],
      "name": "ResourceNotExists",
      "type": "error"
    },
    {
      "inputs": [],
      "name": "SignatureExpired",
      "type": "error"
    },
    {
      "inputs": [],
      "name": "SignatureMismatch",
      "type": "error"
    },
    {
      "inputs": [
        {
          "internalType": "string",
          "name": "str",
          "type": "string"
        }
      ],
      "name": "StringTooLong",
      "type": "error"
    },
    {
      "anonymous": false,
      "inputs": [
        {
          "indexed": true,
          "internalType": "address",
          "name": "owner",
          "type": "address"
        },
        {
          "indexed": true,
          "internalType": "address",
          "name": "approved",
          "type": "address"
        },
        {
          "indexed": true,
          "internalType": "uint256",
          "name": "tokenId",
          "type": "uint256"
        }
      ],
      "name": "Approval",
      "type": "event"
    },
    {
      "anonymous": false,
      "inputs": [
        {
          "indexed": true,
          "internalType": "address",
          "name": "owner",
          "type": "address"
        },
        {
          "indexed": true,
          "internalType": "address",
          "name": "operator",
          "type": "address"
        },
        {
          "indexed": false,
          "internalType": "bool",
          "name": "approved",
          "type": "bool"
        }
      ],
      "name": "ApprovalForAll",
      "type": "event"
    },
    {
      "anonymous": false,
      "inputs": [
        {
          "indexed": true,
          "internalType": "bytes32",
          "name": "assetId",
          "type": "bytes32"
        },
        {
          "indexed": true,
          "internalType": "address",
          "name": "actor",
          "type": "address"
        },
        {
          "indexed": false,
          "internalType": "address[]",
          "name": "actions",
          "type": "address[]"
        },
        {
          "indexed": false,
          "internalType": "bytes[]",
          "name": "actionProcessDatas",
          "type": "bytes[]"
        },
        {
          "indexed": false,
          "internalType": "bytes[]",
          "name": "actionReturnDatas",
          "type": "bytes[]"
        }
      ],
      "name": "AssetActed",
      "type": "event"
    },
    {
      "anonymous": false,
      "inputs": [
        {
          "indexed": true,
          "internalType": "bytes32",
          "name": "assetId",
          "type": "bytes32"
        },
        {
          "indexed": true,
          "internalType": "address",
          "name": "publisher",
          "type": "address"
        },
        {
          "indexed": false,
          "internalType": "string",
          "name": "resourceId",
          "type": "string"
        },
        {
          "indexed": false,
          "internalType": "bytes",
          "name": "data",
          "type": "bytes"
        },
        {
          "indexed": false,
          "internalType": "address[]",
          "name": "actions",
          "type": "address[]"
        },
        {
          "indexed": false,
          "internalType": "bytes[]",
          "name": "actionInitDatas",
          "type": "bytes[]"
        },
        {
          "indexed": false,
          "internalType": "bytes32[]",
          "name": "images",
          "type": "bytes32[]"
        }
      ],
      "name": "AssetPublished",
      "type": "event"
    },
    {
      "anonymous": false,
      "inputs": [],
      "name": "EIP712DomainChanged",
      "type": "event"
    },
    {
      "anonymous": false,
      "inputs": [
        {
          "indexed": true,
          "internalType": "address",
          "name": "from",
          "type": "address"
        },
        {
          "indexed": true,
          "internalType": "address",
          "name": "to",
          "type": "address"
        },
        {
          "indexed": true,
          "internalType": "uint256",
          "name": "tokenId",
          "type": "uint256"
        }
      ],
      "name": "Transfer",
      "type": "event"
    },
    {
      "inputs": [],
      "name": "DAPP_TABLE_REGISTRY",
      "outputs": [
        {
          "internalType": "contract IDappTableRegistry",
          "name": "",
          "type": "address"
        }
      ],
      "stateMutability": "view",
      "type": "function"
    },
    {
      "inputs": [
        {
          "components": [
            {
              "internalType": "bytes32",
              "name": "assetId",
              "type": "bytes32"
            },
            {
              "internalType": "address[]",
              "name": "actions",
              "type": "address[]"
            },
            {
              "internalType": "bytes[]",
              "name": "actionProcessDatas",
              "type": "bytes[]"
            }
          ],
          "internalType": "struct IDataMonetizer.ActParams",
          "name": "actParams",
          "type": "tuple"
        }
      ],
      "name": "act",
      "outputs": [
        {
          "internalType": "bytes[]",
          "name": "",
          "type": "bytes[]"
        }
      ],
      "stateMutability": "nonpayable",
      "type": "function"
    },
    {
      "inputs": [
        {
          "components": [
            {
              "internalType": "bytes32",
              "name": "assetId",
              "type": "bytes32"
            },
            {
              "internalType": "address[]",
              "name": "actions",
              "type": "address[]"
            },
            {
              "internalType": "bytes[]",
              "name": "actionProcessDatas",
              "type": "bytes[]"
            }
          ],
          "internalType": "struct IDataMonetizer.ActParams",
          "name": "actParams",
          "type": "tuple"
        },
        {
          "components": [
            {
              "internalType": "address",
              "name": "signer",
              "type": "address"
            },
            {
              "internalType": "uint8",
              "name": "v",
              "type": "uint8"
            },
            {
              "internalType": "bytes32",
              "name": "r",
              "type": "bytes32"
            },
            {
              "internalType": "bytes32",
              "name": "s",
              "type": "bytes32"
            },
            {
              "internalType": "uint256",
              "name": "deadline",
              "type": "uint256"
            }
          ],
          "internalType": "struct IDataMonetizer.EIP712Signature",
          "name": "signature",
          "type": "tuple"
        }
      ],
      "name": "actWithSig",
      "outputs": [
        {
          "internalType": "bytes[]",
          "name": "",
          "type": "bytes[]"
        }
      ],
      "stateMutability": "nonpayable",
      "type": "function"
    },
    {
      "inputs": [
        {
          "internalType": "address",
          "name": "to",
          "type": "address"
        },
        {
          "internalType": "uint256",
          "name": "tokenId",
          "type": "uint256"
        }
      ],
      "name": "approve",
      "outputs": [],
      "stateMutability": "nonpayable",
      "type": "function"
    },
    {
      "inputs": [
        {
          "internalType": "address",
          "name": "owner",
          "type": "address"
        }
      ],
      "name": "balanceOf",
      "outputs": [
        {
          "internalType": "uint256",
          "name": "",
          "type": "uint256"
        }
      ],
      "stateMutability": "view",
      "type": "function"
    },
    {
      "inputs": [],
      "name": "eip712Domain",
      "outputs": [
        {
          "internalType": "bytes1",
          "name": "fields",
          "type": "bytes1"
        },
        {
          "internalType": "string",
          "name": "name",
          "type": "string"
        },
        {
          "internalType": "string",
          "name": "version",
          "type": "string"
        },
        {
          "internalType": "uint256",
          "name": "chainId",
          "type": "uint256"
        },
        {
          "internalType": "address",
          "name": "verifyingContract",
          "type": "address"
        },
        {
          "internalType": "bytes32",
          "name": "salt",
          "type": "bytes32"
        },
        {
          "internalType": "uint256[]",
          "name": "extensions",
          "type": "uint256[]"
        }
      ],
      "stateMutability": "view",
      "type": "function"
    },
    {
      "inputs": [
        {
          "internalType": "uint256",
          "name": "tokenId",
          "type": "uint256"
        }
      ],
      "name": "getApproved",
      "outputs": [
        {
          "internalType": "address",
          "name": "",
          "type": "address"
        }
      ],
      "stateMutability": "view",
      "type": "function"
    },
    {
      "inputs": [
        {
          "internalType": "bytes32",
          "name": "assetId",
          "type": "bytes32"
        }
      ],
      "name": "getAsset",
      "outputs": [
        {
          "components": [
            {
              "internalType": "string",
              "name": "resourceId",
              "type": "string"
            },
            {
              "internalType": "bytes",
              "name": "data",
              "type": "bytes"
            },
            {
              "internalType": "uint256",
              "name": "publishAt",
              "type": "uint256"
            },
            {
              "internalType": "uint256",
              "name": "publicationId",
              "type": "uint256"
            },
            {
              "internalType": "address[]",
              "name": "actions",
              "type": "address[]"
            },
            {
              "internalType": "bytes32[]",
              "name": "images",
              "type": "bytes32[]"
            }
          ],
          "internalType": "struct IDataMonetizer.Asset",
          "name": "",
          "type": "tuple"
        }
      ],
      "stateMutability": "view",
      "type": "function"
    },
    {
      "inputs": [
        {
          "internalType": "bytes32",
          "name": "assetId",
          "type": "bytes32"
        }
      ],
      "name": "getAssetOwner",
      "outputs": [
        {
          "internalType": "address",
          "name": "",
          "type": "address"
        }
      ],
      "stateMutability": "view",
      "type": "function"
    },
    {
      "inputs": [],
      "name": "getDomainSeparator",
      "outputs": [
        {
          "internalType": "bytes32",
          "name": "",
          "type": "bytes32"
        }
      ],
      "stateMutability": "view",
      "type": "function"
    },
    {
      "inputs": [
        {
          "internalType": "address",
          "name": "signer",
          "type": "address"
        }
      ],
      "name": "getSigNonce",
      "outputs": [
        {
          "internalType": "uint256",
          "name": "",
          "type": "uint256"
        }
      ],
      "stateMutability": "view",
      "type": "function"
    },
    {
      "inputs": [
        {
          "internalType": "bytes32",
          "name": "assetId",
          "type": "bytes32"
        }
      ],
      "name": "getTokenAsset",
      "outputs": [
        {
          "components": [
            {
              "internalType": "string",
              "name": "resourceId",
              "type": "string"
            },
            {
              "internalType": "string",
              "name": "fileId",
              "type": "string"
            },
            {
              "internalType": "uint256",
              "name": "publishAt",
              "type": "uint256"
            },
            {
              "internalType": "uint256",
              "name": "publicationId",
              "type": "uint256"
            },
            {
              "internalType": "address[]",
              "name": "actions",
              "type": "address[]"
            },
            {
              "internalType": "bytes32[]",
              "name": "images",
              "type": "bytes32[]"
            }
          ],
          "internalType": "struct IDataToken.TokenAsset",
          "name": "",
          "type": "tuple"
        }
      ],
      "stateMutability": "view",
      "type": "function"
    },
    {
      "inputs": [
        {
          "internalType": "address",
          "name": "owner",
          "type": "address"
        },
        {
          "internalType": "address",
          "name": "operator",
          "type": "address"
        }
      ],
      "name": "isApprovedForAll",
      "outputs": [
        {
          "internalType": "bool",
          "name": "",
          "type": "bool"
        }
      ],
      "stateMutability": "view",
      "type": "function"
    },
    {
      "inputs": [],
      "name": "name",
      "outputs": [
        {
          "internalType": "string",
          "name": "",
          "type": "string"
        }
      ],
      "stateMutability": "view",
      "type": "function"
    },
    {
      "inputs": [
        {
          "internalType": "uint256",
          "name": "tokenId",
          "type": "uint256"
        }
      ],
      "name": "ownerOf",
      "outputs": [
        {
          "internalType": "address",
          "name": "",
          "type": "address"
        }
      ],
      "stateMutability": "view",
      "type": "function"
    },
    {
      "inputs": [
        {
          "components": [
            {
              "internalType": "string",
              "name": "resourceId",
              "type": "string"
            },
            {
              "internalType": "bytes",
              "name": "data",
              "type": "bytes"
            },
            {
              "internalType": "address[]",
              "name": "actions",
              "type": "address[]"
            },
            {
              "internalType": "bytes[]",
              "name": "actionInitDatas",
              "type": "bytes[]"
            },
            {
              "internalType": "bytes32[]",
              "name": "images",
              "type": "bytes32[]"
            }
          ],
          "internalType": "struct IDataMonetizer.PublishParams",
          "name": "publishParams",
          "type": "tuple"
        }
      ],
      "name": "publish",
      "outputs": [
        {
          "internalType": "bytes32",
          "name": "",
          "type": "bytes32"
        }
      ],
      "stateMutability": "nonpayable",
      "type": "function"
    },
    {
      "inputs": [
        {
          "components": [
            {
              "internalType": "string",
              "name": "resourceId",
              "type": "string"
            },
            {
              "internalType": "bytes",
              "name": "data",
              "type": "bytes"
            },
            {
              "internalType": "address[]",
              "name": "actions",
              "type": "address[]"
            },
            {
              "internalType": "bytes[]",
              "name": "actionInitDatas",
              "type": "bytes[]"
            },
            {
              "internalType": "bytes32[]",
              "name": "images",
              "type": "bytes32[]"
            }
          ],
          "internalType": "struct IDataMonetizer.PublishParams",
          "name": "publishParams",
          "type": "tuple"
        },
        {
          "components": [
            {
              "internalType": "address",
              "name": "signer",
              "type": "address"
            },
            {
              "internalType": "uint8",
              "name": "v",
              "type": "uint8"
            },
            {
              "internalType": "bytes32",
              "name": "r",
              "type": "bytes32"
            },
            {
              "internalType": "bytes32",
              "name": "s",
              "type": "bytes32"
            },
            {
              "internalType": "uint256",
              "name": "deadline",
              "type": "uint256"
            }
          ],
          "internalType": "struct IDataMonetizer.EIP712Signature",
          "name": "signature",
          "type": "tuple"
        }
      ],
      "name": "publishWithSig",
      "outputs": [
        {
          "internalType": "bytes32",
          "name": "",
          "type": "bytes32"
        }
      ],
      "stateMutability": "nonpayable",
      "type": "function"
    },
    {
      "inputs": [
        {
          "internalType": "address",
          "name": "from",
          "type": "address"
        },
        {
          "internalType": "address",
          "name": "to",
          "type": "address"
        },
        {
          "internalType": "uint256",
          "name": "tokenId",
          "type": "uint256"
        }
      ],
      "name": "safeTransferFrom",
      "outputs": [],
      "stateMutability": "nonpayable",
      "type": "function"
    },
    {
      "inputs": [
        {
          "internalType": "address",
          "name": "from",
          "type": "address"
        },
        {
          "internalType": "address",
          "name": "to",
          "type": "address"
        },
        {
          "internalType": "uint256",
          "name": "tokenId",
          "type": "uint256"
        },
        {
          "internalType": "bytes",
          "name": "data",
          "type": "bytes"
        }
      ],
      "name": "safeTransferFrom",
      "outputs": [],
      "stateMutability": "nonpayable",
      "type": "function"
    },
    {
      "inputs": [
        {
          "internalType": "address",
          "name": "operator",
          "type": "address"
        },
        {
          "internalType": "bool",
          "name": "approved",
          "type": "bool"
        }
      ],
      "name": "setApprovalForAll",
      "outputs": [],
      "stateMutability": "nonpayable",
      "type": "function"
    },
    {
      "inputs": [
        {
          "internalType": "bytes4",
          "name": "interfaceId",
          "type": "bytes4"
        }
      ],
      "name": "supportsInterface",
      "outputs": [
        {
          "internalType": "bool",
          "name": "",
          "type": "bool"
        }
      ],
      "stateMutability": "view",
      "type": "function"
    },
    {
      "inputs": [],
      "name": "symbol",
      "outputs": [
        {
          "internalType": "string",
          "name": "",
          "type": "string"
        }
      ],
      "stateMutability": "view",
      "type": "function"
    },
    {
      "inputs": [
        {
          "internalType": "uint256",
          "name": "index",
          "type": "uint256"
        }
      ],
      "name": "tokenByIndex",
      "outputs": [
        {
          "internalType": "uint256",
          "name": "",
          "type": "uint256"
        }
      ],
      "stateMutability": "view",
      "type": "function"
    },
    {
      "inputs": [
        {
          "internalType": "address",
          "name": "owner",
          "type": "address"
        },
        {
          "internalType": "uint256",
          "name": "index",
          "type": "uint256"
        }
      ],
      "name": "tokenOfOwnerByIndex",
      "outputs": [
        {
          "internalType": "uint256",
          "name": "",
          "type": "uint256"
        }
      ],
      "stateMutability": "view",
      "type": "function"
    },
    {
      "inputs": [
        {
          "internalType": "uint256",
          "name": "tokenId",
          "type": "uint256"
        }
      ],
      "name": "tokenURI",
      "outputs": [
        {
          "internalType": "string",
          "name": "",
          "type": "string"
        }
      ],
      "stateMutability": "view",
      "type": "function"
    },
    {
      "inputs": [],
      "name": "totalSupply",
      "outputs": [
        {
          "internalType": "uint256",
          "name": "",
          "type": "uint256"
        }
      ],
      "stateMutability": "view",
      "type": "function"
    },
    {
      "inputs": [
        {
          "internalType": "address",
          "name": "from",
          "type": "address"
        },
        {
          "internalType": "address",
          "name": "to",
          "type": "address"
        },
        {
          "internalType": "uint256",
          "name": "tokenId",
          "type": "uint256"
        }
      ],
      "name": "transferFrom",
      "outputs": [],
      "stateMutability": "nonpayable",
      "type": "function"
    }
  ],
  "bytecode": {
    "object": "0x6101606040526000600e553480156200001757600080fd5b5060405162004406380380620044068339810160408190526200003a916200024a565b604051806040016040528060098152602001682230ba30aa37b5b2b760b91b815250604051806040016040528060018152602001603160f81b8152508282826040518060400160405280600f81526020016e141d589b1a58d85d1a5bdb88139195608a1b81525060405180604001604052806002815260200161282760f11b8152508160009081620000cd919062000321565b506001620000dc828262000321565b50620000ee9150839050600a620001c5565b61012052620000ff81600b620001c5565b61014052815160208084019190912060e052815190820120610100524660a0526200018d60e05161010051604080517f8b73c3c69bb8fe3d512ecc4cf759cc79239f7b179b0ffacaa9a75d522b39400f60208201529081019290925260608201524660808201523060a082015260009060c00160405160208183030381529060405280519060200120905090565b60805250503060c0526001600c55600d80546001600160a01b0319166001600160a01b03929092169190911790555062000462915050565b6000602083511015620001e557620001dd83620001fe565b9050620001f8565b81620001f2848262000321565b5060ff90505b92915050565b600080829050601f8151111562000235578260405163305a27a960e01b81526004016200022c9190620003ed565b60405180910390fd5b805162000242826200043d565b179392505050565b6000602082840312156200025d57600080fd5b81516001600160a01b03811681146200027557600080fd5b9392505050565b634e487b7160e01b600052604160045260246000fd5b600181811c90821680620002a757607f821691505b602082108103620002c857634e487b7160e01b600052602260045260246000fd5b50919050565b601f8211156200031c57600081815260208120601f850160051c81016020861015620002f75750805b601f850160051c820191505b81811015620003185782815560010162000303565b5050505b505050565b81516001600160401b038111156200033d576200033d6200027c565b62000355816200034e845462000292565b84620002ce565b602080601f8311600181146200038d5760008415620003745750858301515b600019600386901b1c1916600185901b17855562000318565b600085815260208120601f198616915b82811015620003be578886015182559484019460019091019084016200039d565b5085821015620003dd5787850151600019600388901b60f8161c191681555b5050505050600190811b01905550565b600060208083528351808285015260005b818110156200041c57858101830151858201604001528201620003fe565b506000604082860101526040601f19601f8301168501019250505092915050565b80516020808301519190811015620002c85760001960209190910360031b1b16919050565b60805160a05160c05160e051610100516101205161014051613f49620004bd6000396000611119015260006110ee015260006122f9015260006122d10152600061222c01526000612256015260006122800152613f496000f3fe608060405234801561001057600080fd5b50600436106101a95760003560e01c80635b01a552116100f9578063b88d4fde11610097578063d7499c4111610071578063d7499c41146103c4578063e03e0163146103d7578063e985e9c5146103ea578063ed24911d1461042657600080fd5b8063b88d4fde1461038b578063b9348ed81461039e578063c87b56dd146103b157600080fd5b806384b0196e116100d357806384b0196e1461034257806395d89b411461035d578063a22cb46514610365578063a9d298b11461037857600080fd5b80635b01a552146103095780636352211e1461031c57806370a082311461032f57600080fd5b806323b872dd116101665780632f745c59116101405780632f745c59146102bd57806335d8c2b7146102d057806342842e0e146102e35780634f6ccce7146102f657600080fd5b806323b872dd1461026a578063262975841461027d5780632cc3ce801461029d57600080fd5b806301ffc9a7146101ae57806305ac0ab4146101d657806306fdde031461020d578063081812fc14610222578063095ea7b31461024d57806318160ddd14610262575b600080fd5b6101c16101bc366004612d09565b61042e565b60405190151581526020015b60405180910390f35b6101ff6101e4366004612d3d565b6001600160a01b03166000908152600f602052604090205490565b6040519081526020016101cd565b610215610459565b6040516101cd9190612da8565b610235610230366004612dbb565b6104eb565b6040516001600160a01b0390911681526020016101cd565b61026061025b366004612dd4565b610512565b005b6008546101ff565b610260610278366004612dfe565b61062c565b61029061028b366004612e64565b61065d565b6040516101cd9190612f0a565b6102b06102ab366004612dbb565b6108ac565b6040516101cd9190612f91565b6101ff6102cb366004612dd4565b610af6565b6102356102de366004612dbb565b610b8c565b6102606102f1366004612dfe565b610ba7565b6101ff610304366004612dbb565b610bc2565b6101ff610317366004613023565b610c55565b61023561032a366004612dbb565b610ffa565b6101ff61033d366004612d3d565b61105a565b61034a6110e0565b6040516101cd9796959493929190613058565b610215611169565b6102606103733660046130fc565b611178565b600d54610235906001600160a01b031681565b61026061039936600461321e565b611187565b6102b06103ac366004612dbb565b6111bf565b6102156103bf366004612dbb565b611459565b6101ff6103d2366004613285565b6114cd565b6102906103e53660046132b9565b6114f2565b6101c16103f83660046132ed565b6001600160a01b03918216600090815260056020908152604080832093909416825291909152205460ff1690565b6101ff611506565b60006001600160e01b03198216635de66d3560e11b1480610453575061045382611515565b92915050565b60606000805461046890613317565b80601f016020809104026020016040519081016040528092919081815260200182805461049490613317565b80156104e15780601f106104b6576101008083540402835291602001916104e1565b820191906000526020600020905b8154815290600101906020018083116104c457829003601f168201915b5050505050905090565b60006104f68261153a565b506000908152600460205260409020546001600160a01b031690565b600061051d82610ffa565b9050806001600160a01b0316836001600160a01b03160361058f5760405162461bcd60e51b815260206004820152602160248201527f4552433732313a20617070726f76616c20746f2063757272656e74206f776e656044820152603960f91b60648201526084015b60405180910390fd5b336001600160a01b03821614806105ab57506105ab81336103f8565b61061d5760405162461bcd60e51b815260206004820152603d60248201527f4552433732313a20617070726f76652063616c6c6572206973206e6f7420746f60448201527f6b656e206f776e6572206f7220617070726f76656420666f7220616c6c0000006064820152608401610586565b610627838361159c565b505050565b610636338261160a565b6106525760405162461bcd60e51b81526004016105869061334b565b610627838383611689565b60606106676117fa565b60006108496108356040518060a0016040528060678152602001613ead6067913980519060200120866000013573__$eb08931da2d0e33e8a6d7df35e46c67175$__6333983acb8980602001906106be9190613398565b6040518363ffffffff1660e01b81526004016106db9291906133e8565b602060405180830381865af41580156106f8573d6000803e3d6000fd5b505050506040513d601f19601f8201168201806040525081019061071c9190613434565b73__$eb08931da2d0e33e8a6d7df35e46c67175$__639e22d70d61074360408c018c613398565b6040518363ffffffff1660e01b81526004016107609291906134bb565b602060405180830381865af415801561077d573d6000803e3d6000fd5b505050506040513d601f19601f820116820180604052508101906107a19190613434565b600f60006107b260208c018c612d3d565b6001600160a01b03168152602081019190915260400160009081208054916107d983613537565b91905055896080013560405160200161081a96959493929190958652602086019490945260408501929092526060840152608083015260a082015260c00190565b60405160208183030381529060405280519060200120611853565b61084436869003860186613550565b611880565b90506001600160a01b0381166108626020850185612d3d565b6001600160a01b03161461088957604051630e751dc360e31b815260040160405180910390fd5b61089f8461089a6020860186612d3d565b611918565b9150506104536001600c55565b6108e56040518060c001604052806060815260200160608152602001600081526020016000815260200160608152602001606081525090565b60008281526010602052604090819020815160c0810190925280548290829061090d90613317565b80601f016020809104026020016040519081016040528092919081815260200182805461093990613317565b80156109865780601f1061095b57610100808354040283529160200191610986565b820191906000526020600020905b81548152906001019060200180831161096957829003601f168201915b5050505050815260200160018201805461099f90613317565b80601f01602080910402602001604051908101604052809291908181526020018280546109cb90613317565b8015610a185780601f106109ed57610100808354040283529160200191610a18565b820191906000526020600020905b8154815290600101906020018083116109fb57829003601f168201915b50505050508152602001600282015481526020016003820154815260200160048201805480602002602001604051908101604052809291908181526020018280548015610a8e57602002820191906000526020600020905b81546001600160a01b03168152600190910190602001808311610a70575b5050505050815260200160058201805480602002602001604051908101604052809291908181526020018280548015610ae657602002820191906000526020600020905b815481526020019060010190808311610ad2575b5050505050815250509050919050565b6000610b018361105a565b8210610b635760405162461bcd60e51b815260206004820152602b60248201527f455243373231456e756d657261626c653a206f776e657220696e646578206f7560448201526a74206f6620626f756e647360a81b6064820152608401610586565b506001600160a01b03919091166000908152600660209081526040808320938352929052205490565b60008181526010602052604081206003015461045390610ffa565b61062783838360405180602001604052806000815250611187565b6000610bcd60085490565b8210610c305760405162461bcd60e51b815260206004820152602c60248201527f455243373231456e756d657261626c653a20676c6f62616c20696e646578206f60448201526b7574206f6620626f756e647360a01b6064820152608401610586565b60088281548110610c4357610c436135b8565b90600052602060002001549050919050565b6000610c5f6117fa565b6000610fa46108356040518060c0016040528060868152602001613e2760869139805160209091012073__$eb08931da2d0e33e8a6d7df35e46c67175$__63d19ac5b7610cac89806135ce565b6040518363ffffffff1660e01b8152600401610cc9929190613614565b602060405180830381865af4158015610ce6573d6000803e3d6000fd5b505050506040513d601f19601f82011682018060405250810190610d0a9190613434565b73__$eb08931da2d0e33e8a6d7df35e46c67175$__638d849f43610d3160208b018b6135ce565b6040518363ffffffff1660e01b8152600401610d4e929190613614565b602060405180830381865af4158015610d6b573d6000803e3d6000fd5b505050506040513d601f19601f82011682018060405250810190610d8f9190613434565b73__$eb08931da2d0e33e8a6d7df35e46c67175$__6333983acb610db660408c018c613398565b6040518363ffffffff1660e01b8152600401610dd39291906133e8565b602060405180830381865af4158015610df0573d6000803e3d6000fd5b505050506040513d601f19601f82011682018060405250810190610e149190613434565b73__$eb08931da2d0e33e8a6d7df35e46c67175$__639e22d70d610e3b60608d018d613398565b6040518363ffffffff1660e01b8152600401610e589291906134bb565b602060405180830381865af4158015610e75573d6000803e3d6000fd5b505050506040513d601f19601f82011682018060405250810190610e999190613434565b73__$eb08931da2d0e33e8a6d7df35e46c67175$__632a9b7f27610ec060808e018e613398565b6040518363ffffffff1660e01b8152600401610edd92919061365a565b602060405180830381865af4158015610efa573d6000803e3d6000fd5b505050506040513d601f19601f82011682018060405250810190610f1e9190613434565b600f6000610f2f60208e018e612d3d565b6001600160a01b0316815260208101919091526040016000908120805491610f5683613537565b90915550604080516020810198909852870195909552606086019390935260808581019290925260a085015260c084019190915260e08301919091528601356101008201526101200161081a565b90506001600160a01b038116610fbd6020850185612d3d565b6001600160a01b031614610fe457604051630e751dc360e31b815260040160405180910390fd5b61089f84610ff56020860186612d3d565b611c32565b6000818152600260205260408120546001600160a01b0316806104535760405162461bcd60e51b8152602060048201526018602482015277115490cdcc8c4e881a5b9d985b1a59081d1bdad95b88125160421b6044820152606401610586565b60006001600160a01b0382166110c45760405162461bcd60e51b815260206004820152602960248201527f4552433732313a2061646472657373207a65726f206973206e6f7420612076616044820152683634b21037bbb732b960b91b6064820152608401610586565b506001600160a01b031660009081526003602052604090205490565b6000606080828080836111147f0000000000000000000000000000000000000000000000000000000000000000600a611fe1565b61113f7f0000000000000000000000000000000000000000000000000000000000000000600b611fe1565b60408051600080825260208201909252600f60f81b9b939a50919850469750309650945092509050565b60606001805461046890613317565b61118333838361208c565b5050565b611191338361160a565b6111ad5760405162461bcd60e51b81526004016105869061334b565b6111b98484848461215a565b50505050565b6111f86040518060c001604052806060815260200160608152602001600081526020016000815260200160608152602001606081525090565b6000828152601060205260408120600101805461121490613317565b80601f016020809104026020016040519081016040528092919081815260200182805461124090613317565b801561128d5780601f106112625761010080835404028352916020019161128d565b820191906000526020600020905b81548152906001019060200180831161127057829003601f168201915b50505050508060200190518101906112a5919061369e565b90506040518060c001604052806010600086815260200190815260200160002060000180546112d390613317565b80601f01602080910402602001604051908101604052809291908181526020018280546112ff90613317565b801561134c5780601f106113215761010080835404028352916020019161134c565b820191906000526020600020905b81548152906001019060200180831161132f57829003601f168201915b5050509183525050602080820184905260008681526010808352604080832060028101548287015260038101546060870152928990529083526004909101805482518185028101850190935280835260809094019391929091908301828280156113df57602002820191906000526020600020905b81546001600160a01b031681526001909101906020018083116113c1575b505050505081526020016010600086815260200190815260200160002060050180548060200260200160405190810160405280929190818152602001828054801561144957602002820191906000526020600020905b815481526020019060010190808311611435575b5050505050815250915050919050565b60606114648261153a565b600061147b60408051602081019091526000815290565b9050600081511161149b57604051806020016040528060008152506114c6565b806114a58461218d565b6040516020016114b69291906136e6565b6040516020818303038152906040525b9392505050565b60006114d76117fa565b6114e18233611c32565b90506114ed6001600c55565b919050565b60606114fc6117fa565b6114e18233611918565b600061151061221f565b905090565b60006001600160e01b0319821663780e9d6360e01b148061045357506104538261234a565b6000818152600260205260409020546001600160a01b03166115995760405162461bcd60e51b8152602060048201526018602482015277115490cdcc8c4e881a5b9d985b1a59081d1bdad95b88125160421b6044820152606401610586565b50565b600081815260046020526040902080546001600160a01b0319166001600160a01b03841690811790915581906115d182610ffa565b6001600160a01b03167f8c5be1e5ebec7d5bd14f71427d1e84f3dd0314c0f7b2291e5b200ac8c7c3b92560405160405180910390a45050565b60008061161683610ffa565b9050806001600160a01b0316846001600160a01b0316148061165d57506001600160a01b0380821660009081526005602090815260408083209388168352929052205460ff165b806116815750836001600160a01b0316611676846104eb565b6001600160a01b0316145b949350505050565b826001600160a01b031661169c82610ffa565b6001600160a01b0316146116c25760405162461bcd60e51b815260040161058690613715565b6001600160a01b0382166117245760405162461bcd60e51b8152602060048201526024808201527f4552433732313a207472616e7366657220746f20746865207a65726f206164646044820152637265737360e01b6064820152608401610586565b611731838383600161239a565b826001600160a01b031661174482610ffa565b6001600160a01b03161461176a5760405162461bcd60e51b815260040161058690613715565b600081815260046020908152604080832080546001600160a01b03199081169091556001600160a01b0387811680865260038552838620805460001901905590871680865283862080546001019055868652600290945282852080549092168417909155905184937fddf252ad1be2c89b69c2b068fc378daa952ba7f163c4a11628f55a4df523b3ef91a4505050565b6002600c540361184c5760405162461bcd60e51b815260206004820152601f60248201527f5265656e7472616e637947756172643a207265656e7472616e742063616c6c006044820152606401610586565b6002600c55565b600061045361186061221f565b8360405161190160f01b8152600281019290925260228201526042902090565b600042826080015110156118a757604051630819bdcd60e01b815260040160405180910390fd5b602080830151604080850151606080870151835160008082529681018086528a905260ff90951693850193909352830152608082015260019060a0016020604051602081039080840390855afa158015611905573d6000803e3d6000fd5b5050604051601f19015195945050505050565b60606119276040840184613398565b90506119366020850185613398565b905014611956576040516318c2d3e960e31b815260040160405180910390fd5b60005b6119666020850185613398565b9050811015611a4e576000805b8535600090815260106020526040902060040154811015611a1e57853560009081526010602052604090206004018054829081106119b3576119b36135b8565b600091825260209182902001546001600160a01b0316906119d690880188613398565b858181106119e6576119e66135b8565b90506020020160208101906119fb9190612d3d565b6001600160a01b031603611a0e57600191505b611a1781613537565b9050611973565b5080611a3d57604051632b52c85160e21b815260040160405180910390fd5b50611a4781613537565b9050611959565b50611a5c6020840184613398565b90506001600160401b03811115611a7557611a75613133565b604051908082528060200260200182016040528015611aa857816020015b6060815260200190600190039081611a935790505b50905060005b611abb6020850185613398565b9050811015611bca57611ad16020850185613398565b82818110611ae157611ae16135b8565b9050602002016020810190611af69190612d3d565b6001600160a01b031663ce79d4bd853585611b146040890189613398565b86818110611b2457611b246135b8565b9050602002810190611b3691906135ce565b6040518563ffffffff1660e01b8152600401611b55949392919061375a565b6000604051808303816000875af1158015611b74573d6000803e3d6000fd5b505050506040513d6000823e601f3d908101601f19168201604052611b9c919081019061369e565b828281518110611bae57611bae6135b8565b602002602001018190525080611bc390613537565b9050611aae565b506001600160a01b03821683357f8f7df4b117f95d3eb363b9748409ed3e2278f6683efbf8f05304a62802dd5785611c056020870187613398565b611c126040890189613398565b87604051611c24959493929190613818565b60405180910390a392915050565b6000611c7b611c4184806135ce565b8080601f0160208091040260200160405190810160405280939291908181526020018383808284376000920191909152506124ce92505050565b611c90611c8b6040850185613398565b612560565b6000611ca4611c9e856139be565b84612630565b90506000611cb184612667565b6040805160c0810190915290915080611cca87806135ce565b8080601f016020809104026020016040519081016040528093929190818152602001838380828437600092019190915250505090825250602090810190611d13908801886135ce565b8080601f0160208091040260200160405190810160405280939291908181526020018383808284376000920191909152505050908252504260208201526040808201849052606090910190611d6a90880188613398565b80806020026020016040519081016040528093929190818152602001838360200280828437600092019190915250505090825250602001611dae6080880188613398565b80806020026020016040519081016040528093929190818152602001838360200280828437600092018290525093909452505084815260106020526040902082519091508190611dfe9082613ae7565b5060208201516001820190611e139082613ae7565b50604082015160028201556060820151600382015560808201518051611e43916004840191602090910190612c3e565b5060a08201518051611e5f916005840191602090910190612ca3565b5090505060005b611e736040870187613398565b9050811015611f4d57611e896040870187613398565b82818110611e9957611e996135b8565b9050602002016020810190611eae9190612d3d565b6001600160a01b031663db86aeea84611eca60608a018a613398565b85818110611eda57611eda6135b8565b9050602002810190611eec91906135ce565b6040518463ffffffff1660e01b8152600401611f0a93929190613ba6565b600060405180830381600087803b158015611f2457600080fd5b505af1158015611f38573d6000803e3d6000fd5b5050505080611f4690613537565b9050611e66565b506001600160a01b038416827f5c240d2eb364b0d31f3c82f5d1776518fbe69ce272a7534394398baff81050c8611f8488806135ce565b611f9160208b018b6135ce565b611f9e60408d018d613398565b611fab60608f018f613398565b8f8060800190611fbb9190613398565b604051611fd19a99989796959493929190613bc0565b60405180910390a3509392505050565b606060ff8314611ffb57611ff483612688565b9050610453565b81805461200790613317565b80601f016020809104026020016040519081016040528092919081815260200182805461203390613317565b80156120805780601f1061205557610100808354040283529160200191612080565b820191906000526020600020905b81548152906001019060200180831161206357829003601f168201915b50505050509050610453565b816001600160a01b0316836001600160a01b0316036120ed5760405162461bcd60e51b815260206004820152601960248201527f4552433732313a20617070726f766520746f2063616c6c6572000000000000006044820152606401610586565b6001600160a01b03838116600081815260056020908152604080832094871680845294825291829020805460ff191686151590811790915591519182527f17307eab39ab6107e8899845ad3d59bd9653f200f220920489ca2b5937696c31910160405180910390a3505050565b612165848484611689565b612171848484846126c7565b6111b95760405162461bcd60e51b815260040161058690613c37565b6060600061219a836127c8565b60010190506000816001600160401b038111156121b9576121b9613133565b6040519080825280601f01601f1916602001820160405280156121e3576020820181803683370190505b5090508181016020015b600019016f181899199a1a9b1b9c1cb0b131b232b360811b600a86061a8153600a85049450846121ed57509392505050565b6000306001600160a01b037f00000000000000000000000000000000000000000000000000000000000000001614801561227857507f000000000000000000000000000000000000000000000000000000000000000046145b156122a257507f000000000000000000000000000000000000000000000000000000000000000090565b611510604080517f8b73c3c69bb8fe3d512ecc4cf759cc79239f7b179b0ffacaa9a75d522b39400f60208201527f0000000000000000000000000000000000000000000000000000000000000000918101919091527f000000000000000000000000000000000000000000000000000000000000000060608201524660808201523060a082015260009060c00160405160208183030381529060405280519060200120905090565b60006001600160e01b031982166380ac58cd60e01b148061237b57506001600160e01b03198216635b5e139f60e01b145b8061045357506301ffc9a760e01b6001600160e01b0319831614610453565b60018111156124095760405162461bcd60e51b815260206004820152603560248201527f455243373231456e756d657261626c653a20636f6e7365637574697665207472604482015274185b9cd9995c9cc81b9bdd081cdd5c1c1bdc9d1959605a1b6064820152608401610586565b816001600160a01b0385166124655761246081600880546000838152600960205260408120829055600182018355919091527ff3f7a9fe364faab93b216da50a3214154f22a0a2b415b23a84c8169e8b636ee30155565b612488565b836001600160a01b0316856001600160a01b0316146124885761248885826128a0565b6001600160a01b0384166124a45761249f8161293d565b6124c7565b846001600160a01b0316846001600160a01b0316146124c7576124c784826129ec565b5050505050565b600d54604051634c0beab360e11b81526000916001600160a01b031690639817d566906124ff908590600401612da8565b602060405180830381865afa15801561251c573d6000803e3d6000fd5b505050506040513d601f19601f820116820180604052508101906125409190613c89565b90508061118357604051635ec8173560e01b815260040160405180910390fd5b60005b818110156106275782828281811061257d5761257d6135b8565b90506020020160208101906125929190612d3d565b6040516301ffc9a760e01b815263280ee6f160e21b60048201526001600160a01b0391909116906301ffc9a790602401602060405180830381865afa1580156125df573d6000803e3d6000fd5b505050506040513d601f19601f820116820180604052508101906126039190613c89565b6126205760405163251cb21f60e01b815260040160405180910390fd5b61262981613537565b9050612563565b6000828230426040516020016126499493929190613ca6565b60405160208183030381529060405280519060200120905092915050565b600e8054906114ed9083908390600061267f83613537565b91905055612a30565b6060600061269583612a4a565b604080516020808252818301909252919250600091906020820181803683375050509182525060208101929092525090565b60006001600160a01b0384163b156127bd57604051630a85bd0160e11b81526001600160a01b0385169063150b7a029061270b903390899088908890600401613dad565b6020604051808303816000875af1925050508015612746575060408051601f3d908101601f1916820190925261274391810190613de0565b60015b6127a3573d808015612774576040519150601f19603f3d011682016040523d82523d6000602084013e612779565b606091505b50805160000361279b5760405162461bcd60e51b815260040161058690613c37565b805181602001fd5b6001600160e01b031916630a85bd0160e11b149050611681565b506001949350505050565b60008072184f03e93ff9f4daa797ed6e38ed64bf6a1f0160401b83106128075772184f03e93ff9f4daa797ed6e38ed64bf6a1f0160401b830492506040015b6d04ee2d6d415b85acef81000000008310612833576d04ee2d6d415b85acef8100000000830492506020015b662386f26fc10000831061285157662386f26fc10000830492506010015b6305f5e1008310612869576305f5e100830492506008015b612710831061287d57612710830492506004015b6064831061288f576064830492506002015b600a83106104535760010192915050565b600060016128ad8461105a565b6128b79190613dfd565b60008381526007602052604090205490915080821461290a576001600160a01b03841660009081526006602090815260408083208584528252808320548484528184208190558352600790915290208190555b5060009182526007602090815260408084208490556001600160a01b039094168352600681528383209183525290812055565b60085460009061294f90600190613dfd565b60008381526009602052604081205460088054939450909284908110612977576129776135b8565b906000526020600020015490508060088381548110612998576129986135b8565b60009182526020808320909101929092558281526009909152604080822084905585825281205560088054806129d0576129d0613e10565b6001900381819060005260206000200160009055905550505050565b60006129f78361105a565b6001600160a01b039093166000908152600660209081526040808320868452825280832085905593825260079052919091209190915550565b611183828260405180602001604052806000815250612a72565b600060ff8216601f81111561045357604051632cd44ac360e21b815260040160405180910390fd5b612a7c8383612aa5565b612a8960008484846126c7565b6106275760405162461bcd60e51b815260040161058690613c37565b6001600160a01b038216612afb5760405162461bcd60e51b815260206004820181905260248201527f4552433732313a206d696e7420746f20746865207a65726f20616464726573736044820152606401610586565b6000818152600260205260409020546001600160a01b031615612b605760405162461bcd60e51b815260206004820152601c60248201527f4552433732313a20746f6b656e20616c7265616479206d696e746564000000006044820152606401610586565b612b6e60008383600161239a565b6000818152600260205260409020546001600160a01b031615612bd35760405162461bcd60e51b815260206004820152601c60248201527f4552433732313a20746f6b656e20616c7265616479206d696e746564000000006044820152606401610586565b6001600160a01b038216600081815260036020908152604080832080546001019055848352600290915280822080546001600160a01b0319168417905551839291907fddf252ad1be2c89b69c2b068fc378daa952ba7f163c4a11628f55a4df523b3ef908290a45050565b828054828255906000526020600020908101928215612c93579160200282015b82811115612c9357825182546001600160a01b0319166001600160a01b03909116178255602090920191600190910190612c5e565b50612c9f929150612cde565b5090565b828054828255906000526020600020908101928215612c93579160200282015b82811115612c93578251825591602001919060010190612cc3565b5b80821115612c9f5760008155600101612cdf565b6001600160e01b03198116811461159957600080fd5b600060208284031215612d1b57600080fd5b81356114c681612cf3565b80356001600160a01b03811681146114ed57600080fd5b600060208284031215612d4f57600080fd5b6114c682612d26565b60005b83811015612d73578181015183820152602001612d5b565b50506000910152565b60008151808452612d94816020860160208601612d58565b601f01601f19169290920160200192915050565b6020815260006114c66020830184612d7c565b600060208284031215612dcd57600080fd5b5035919050565b60008060408385031215612de757600080fd5b612df083612d26565b946020939093013593505050565b600080600060608486031215612e1357600080fd5b612e1c84612d26565b9250612e2a60208501612d26565b9150604084013590509250925092565b600060608284031215612e4c57600080fd5b50919050565b600060a08284031215612e4c57600080fd5b60008060c08385031215612e7757600080fd5b82356001600160401b03811115612e8d57600080fd5b612e9985828601612e3a565b925050612ea98460208501612e52565b90509250929050565b600082825180855260208086019550808260051b84010181860160005b84811015612efd57601f19868403018952612eeb838351612d7c565b98840198925090830190600101612ecf565b5090979650505050505050565b6020815260006114c66020830184612eb2565b600081518084526020808501945080840160005b83811015612f565781516001600160a01b031687529582019590820190600101612f31565b509495945050505050565b600081518084526020808501945080840160005b83811015612f5657815187529582019590820190600101612f75565b602081526000825160c06020840152612fad60e0840182612d7c565b90506020840151601f1980858403016040860152612fcb8383612d7c565b9250604086015160608601526060860151608086015260808601519150808584030160a0860152612ffc8383612f1d565b925060a08601519150808584030160c08601525061301a8282612f61565b95945050505050565b60008060c0838503121561303657600080fd5b82356001600160401b0381111561304c57600080fd5b612e9985828601612e52565b60ff60f81b881681526000602060e08184015261307860e084018a612d7c565b838103604085015261308a818a612d7c565b606085018990526001600160a01b038816608086015260a0850187905284810360c0860152855180825283870192509083019060005b818110156130dc578351835292840192918401916001016130c0565b50909c9b505050505050505050505050565b801515811461159957600080fd5b6000806040838503121561310f57600080fd5b61311883612d26565b91506020830135613128816130ee565b809150509250929050565b634e487b7160e01b600052604160045260246000fd5b60405160a081016001600160401b038111828210171561316b5761316b613133565b60405290565b604051601f8201601f191681016001600160401b038111828210171561319957613199613133565b604052919050565b60006001600160401b038211156131ba576131ba613133565b50601f01601f191660200190565b600082601f8301126131d957600080fd5b81356131ec6131e7826131a1565b613171565b81815284602083860101111561320157600080fd5b816020850160208301376000918101602001919091529392505050565b6000806000806080858703121561323457600080fd5b61323d85612d26565b935061324b60208601612d26565b92506040850135915060608501356001600160401b0381111561326d57600080fd5b613279878288016131c8565b91505092959194509250565b60006020828403121561329757600080fd5b81356001600160401b038111156132ad57600080fd5b61168184828501612e52565b6000602082840312156132cb57600080fd5b81356001600160401b038111156132e157600080fd5b61168184828501612e3a565b6000806040838503121561330057600080fd5b61330983612d26565b9150612ea960208401612d26565b600181811c9082168061332b57607f821691505b602082108103612e4c57634e487b7160e01b600052602260045260246000fd5b6020808252602d908201527f4552433732313a2063616c6c6572206973206e6f7420746f6b656e206f776e6560408201526c1c881bdc88185c1c1c9bdd9959609a1b606082015260800190565b6000808335601e198436030181126133af57600080fd5b8301803591506001600160401b038211156133c957600080fd5b6020019150600581901b36038213156133e157600080fd5b9250929050565b60208082528181018390526000908460408401835b86811015613429576001600160a01b0361341684612d26565b16825291830191908301906001016133fd565b509695505050505050565b60006020828403121561344657600080fd5b5051919050565b81835281816020850137506000828201602090810191909152601f909101601f19169091010190565b6000808335601e1984360301811261348d57600080fd5b83016020810192503590506001600160401b038111156134ac57600080fd5b8036038213156133e157600080fd5b60208082528181018390526000906040600585901b8401810190840186845b8781101561351457868403603f190183526134f5828a613476565b61350086828461344d565b9550505091840191908401906001016134da565b5091979650505050505050565b634e487b7160e01b600052601160045260246000fd5b60006001820161354957613549613521565b5060010190565b600060a0828403121561356257600080fd5b61356a613149565b61357383612d26565b8152602083013560ff8116811461358957600080fd5b806020830152506040830135604082015260608301356060820152608083013560808201528091505092915050565b634e487b7160e01b600052603260045260246000fd5b6000808335601e198436030181126135e557600080fd5b8301803591506001600160401b038211156135ff57600080fd5b6020019150368190038213156133e157600080fd5b60208152600061168160208301848661344d565b81835260006001600160fb1b0383111561364157600080fd5b8260051b80836020870137939093016020019392505050565b602081526000611681602083018486613628565b600061367c6131e7846131a1565b905082815283838301111561369057600080fd5b6114c6836020830184612d58565b6000602082840312156136b057600080fd5b81516001600160401b038111156136c657600080fd5b8201601f810184136136d757600080fd5b6116818482516020840161366e565b600083516136f8818460208801612d58565b83519083019061370c818360208801612d58565b01949350505050565b60208082526025908201527f4552433732313a207472616e736665722066726f6d20696e636f72726563742060408201526437bbb732b960d91b606082015260800190565b8481526001600160a01b0384166020820152606060408201819052600090613785908301848661344d565b9695505050505050565b8183526000602080850194508260005b85811015612f56576001600160a01b036137b883612d26565b168752958201959082019060010161379f565b818352600060208085019450848460051b86018460005b87811015612efd5783830389526137f98288613476565b61380485828461344d565b9a87019a94505050908401906001016137e2565b60608152600061382c60608301878961378f565b828103602084015261383f8186886137cb565b905082810360408401526138538185612eb2565b98975050505050505050565b60006001600160401b0382111561387857613878613133565b5060051b60200190565b600082601f83011261389357600080fd5b813560206138a36131e78361385f565b82815260059290921b840181019181810190868411156138c257600080fd5b8286015b84811015613429576138d781612d26565b83529183019183016138c6565b600082601f8301126138f557600080fd5b813560206139056131e78361385f565b82815260059290921b8401810191818101908684111561392457600080fd5b8286015b848110156134295780356001600160401b038111156139475760008081fd5b6139558986838b01016131c8565b845250918301918301613928565b600082601f83011261397457600080fd5b813560206139846131e78361385f565b82815260059290921b840181019181810190868411156139a357600080fd5b8286015b8481101561342957803583529183019183016139a7565b600060a082360312156139d057600080fd5b6139d8613149565b82356001600160401b03808211156139ef57600080fd5b6139fb368387016131c8565b83526020850135915080821115613a1157600080fd5b613a1d368387016131c8565b60208401526040850135915080821115613a3657600080fd5b613a4236838701613882565b60408401526060850135915080821115613a5b57600080fd5b613a67368387016138e4565b60608401526080850135915080821115613a8057600080fd5b50613a8d36828601613963565b60808301525092915050565b601f82111561062757600081815260208120601f850160051c81016020861015613ac05750805b601f850160051c820191505b81811015613adf57828155600101613acc565b505050505050565b81516001600160401b03811115613b0057613b00613133565b613b1481613b0e8454613317565b84613a99565b602080601f831160018114613b495760008415613b315750858301515b600019600386901b1c1916600185901b178555613adf565b600085815260208120601f198616915b82811015613b7857888601518255948401946001909101908401613b59565b5085821015613b965787850151600019600388901b60f8161c191681555b5050505050600190811b01905550565b83815260406020820152600061301a60408301848661344d565b60a081526000613bd460a083018c8e61344d565b8281036020840152613be7818b8d61344d565b90508281036040840152613bfc81898b61378f565b90508281036060840152613c118187896137cb565b90508281036080840152613c26818587613628565b9d9c50505050505050505050505050565b60208082526032908201527f4552433732313a207472616e7366657220746f206e6f6e20455243373231526560408201527131b2b4bb32b91034b6b83632b6b2b73a32b960711b606082015260800190565b600060208284031215613c9b57600080fd5b81516114c6816130ee565b608081526000855160a06080840152613cc3610120840182612d7c565b9050602080880151607f19808685030160a0870152613ce28483612d7c565b935060408a01519150808685030160c0870152613cff8483612f1d565b60608b0151878203830160e089015280518083529195508401925083850190600581901b8601850160005b82811015613d5857601f19888303018452613d46828751612d7c565b95870195938701939150600101613d2a565b5060808d0151965083898203016101008a0152613d758188612f61565b97505050505050613d90818501886001600160a01b03169052565b50506001600160a01b039390931660408201526060015292915050565b6001600160a01b038581168252841660208201526040810183905260806060820181905260009061378590830184612d7c565b600060208284031215613df257600080fd5b81516114c681612cf3565b8181038181111561045357610453613521565b634e487b7160e01b600052603160045260246000fdfe5075626c6973685769746853696728737472696e67207265736f7572636549642c627974657320646174612c616464726573735b5d20616374696f6e732c62797465735b5d20616374696f6e496e697444617461732c627974657333325b5d20696d616765732c75696e74323536206e6f6e63652c75696e7432353620646561646c696e652941637457697468536967286279746573333220617373657449642c616464726573735b5d20616374696f6e732c62797465735b5d20616374696f6e50726f6365737344617461732c75696e74323536206e6f6e63652c75696e7432353620646561646c696e6529a26469706673582212207b3df32f1e448bc778fcfb9c1e0395e07d5e0958d6994d69967b7a2bd9323ef764736f6c63430008150033",
    "linkReferences": {
      "node_modules/dataverse-contracts-test/contracts/monetizer/libraries/EIP712Encoder.sol": {
        "EIP712Encoder": [
          {
            "start": 2899,
            "length": 20
          },
          {
            "start": 3035,
            "length": 20
          },
          {
            "start": 4423,
            "length": 20
          },
          {
            "start": 4553,
            "length": 20
          },
          {
            "start": 4686,
            "length": 20
          },
          {
            "start": 4819,
            "length": 20
          },
          {
            "start": 4952,
            "length": 20
          }
        ]
      }
    }
  },
  "methodIdentifiers": {
    "DAPP_TABLE_REGISTRY()": "a9d298b1",
    "act((bytes32,address[],bytes[]))": "e03e0163",
    "actWithSig((bytes32,address[],bytes[]),(address,uint8,bytes32,bytes32,uint256))": "26297584",
    "approve(address,uint256)": "095ea7b3",
    "balanceOf(address)": "70a08231",
    "eip712Domain()": "84b0196e",
    "getApproved(uint256)": "081812fc",
    "getAsset(bytes32)": "2cc3ce80",
    "getAssetOwner(bytes32)": "35d8c2b7",
    "getDomainSeparator()": "ed24911d",
    "getSigNonce(address)": "05ac0ab4",
    "getTokenAsset(bytes32)": "b9348ed8",
    "isApprovedForAll(address,address)": "e985e9c5",
    "name()": "06fdde03",
    "ownerOf(uint256)": "6352211e",
    "publish((string,bytes,address[],bytes[],bytes32[]))": "d7499c41",
    "publishWithSig((string,bytes,address[],bytes[],bytes32[]),(address,uint8,bytes32,bytes32,uint256))": "5b01a552",
    "safeTransferFrom(address,address,uint256)": "42842e0e",
    "safeTransferFrom(address,address,uint256,bytes)": "b88d4fde",
    "setApprovalForAll(address,bool)": "a22cb465",
    "supportsInterface(bytes4)": "01ffc9a7",
    "symbol()": "95d89b41",
    "tokenByIndex(uint256)": "4f6ccce7",
    "tokenOfOwnerByIndex(address,uint256)": "2f745c59",
    "tokenURI(uint256)": "c87b56dd",
    "totalSupply()": "18160ddd",
    "transferFrom(address,address,uint256)": "23b872dd"
  },
  "id": 0
}