{
  "abi": [
    {
      "inputs": [
        {
          "internalType": "address",
          "name": "actionConfig",
          "type": "address"
        },
        {
          "internalType": "address",
          "name": "monetizer",
          "type": "address"
        }
      ],
      "stateMutability": "nonpayable",
      "type": "constructor"
    },
    {
      "inputs": [],
      "name": "InvalidCurve",
      "type": "error"
    },
    {
      "inputs": [],
      "name": "InvalidMonetizer",
      "type": "error"
    },
    {
      "anonymous": false,
      "inputs": [
        {
          "indexed": true,
          "internalType": "address",
          "name": "previousOwner",
          "type": "address"
        },
        {
          "indexed": true,
          "internalType": "address",
          "name": "newOwner",
          "type": "address"
        }
      ],
      "name": "OwnershipTransferred",
      "type": "event"
    },
    {
      "inputs": [],
      "name": "ACTION_CONFIG",
      "outputs": [
        {
          "internalType": "contract ActionConfig",
          "name": "",
          "type": "address"
        }
      ],
      "stateMutability": "view",
      "type": "function"
    },
    {
      "inputs": [
        {
          "internalType": "bytes32",
          "name": "assetId",
          "type": "bytes32"
        }
      ],
      "name": "getAssetShareData",
      "outputs": [
        {
          "components": [
            {
              "internalType": "address",
              "name": "shareToken",
              "type": "address"
            },
            {
              "internalType": "uint256",
              "name": "totalValue",
              "type": "uint256"
            },
            {
              "internalType": "uint256",
              "name": "totalSupply",
              "type": "uint256"
            },
            {
              "internalType": "address",
              "name": "currency",
              "type": "address"
            },
            {
              "internalType": "uint256",
              "name": "feePoint",
              "type": "uint256"
            },
            {
              "internalType": "uint256",
              "name": "accessibleShareAmount",
              "type": "uint256"
            },
            {
              "internalType": "address",
              "name": "curve",
              "type": "address"
            }
          ],
          "internalType": "struct ShareAction.ShareData",
          "name": "",
          "type": "tuple"
        }
      ],
      "stateMutability": "view",
      "type": "function"
    },
    {
      "inputs": [
        {
          "internalType": "bytes32",
          "name": "assetId",
          "type": "bytes32"
        },
        {
          "internalType": "uint256",
          "name": "amount",
          "type": "uint256"
        }
      ],
      "name": "getBuyPrice",
      "outputs": [
        {
          "internalType": "uint256",
          "name": "",
          "type": "uint256"
        }
      ],
      "stateMutability": "view",
      "type": "function"
    },
    {
      "inputs": [
        {
          "internalType": "bytes32",
          "name": "assetId",
          "type": "bytes32"
        }
      ],
      "name": "getDappTreasuryData",
      "outputs": [
        {
          "internalType": "address",
          "name": "",
          "type": "address"
        },
        {
          "internalType": "uint256",
          "name": "",
          "type": "uint256"
        }
      ],
      "stateMutability": "view",
      "type": "function"
    },
    {
      "inputs": [],
      "name": "getDataverseTreasuryData",
      "outputs": [
        {
          "internalType": "address",
          "name": "",
          "type": "address"
        },
        {
          "internalType": "uint256",
          "name": "",
          "type": "uint256"
        }
      ],
      "stateMutability": "view",
      "type": "function"
    },
    {
      "inputs": [
        {
          "internalType": "bytes32",
          "name": "assetId",
          "type": "bytes32"
        },
        {
          "internalType": "uint256",
          "name": "amount",
          "type": "uint256"
        }
      ],
      "name": "getSellPrice",
      "outputs": [
        {
          "internalType": "uint256",
          "name": "",
          "type": "uint256"
        }
      ],
      "stateMutability": "view",
      "type": "function"
    },
    {
      "inputs": [
        {
          "internalType": "bytes32",
          "name": "assetId",
          "type": "bytes32"
        },
        {
          "internalType": "bytes",
          "name": "data",
          "type": "bytes"
        }
      ],
      "name": "initializeAction",
      "outputs": [],
      "stateMutability": "nonpayable",
      "type": "function"
    },
    {
      "inputs": [
        {
          "internalType": "bytes32",
          "name": "assetId",
          "type": "bytes32"
        },
        {
          "internalType": "address",
          "name": "account",
          "type": "address"
        }
      ],
      "name": "isAccessible",
      "outputs": [
        {
          "internalType": "bool",
          "name": "",
          "type": "bool"
        }
      ],
      "stateMutability": "view",
      "type": "function"
    },
    {
      "inputs": [],
      "name": "monetizer",
      "outputs": [
        {
          "internalType": "address",
          "name": "",
          "type": "address"
        }
      ],
      "stateMutability": "view",
      "type": "function"
    },
    {
      "inputs": [],
      "name": "owner",
      "outputs": [
        {
          "internalType": "address",
          "name": "",
          "type": "address"
        }
      ],
      "stateMutability": "view",
      "type": "function"
    },
    {
      "inputs": [
        {
          "internalType": "bytes32",
          "name": "assetId",
          "type": "bytes32"
        },
        {
          "internalType": "address",
          "name": "trader",
          "type": "address"
        },
        {
          "internalType": "bytes",
          "name": "data",
          "type": "bytes"
        }
      ],
      "name": "processAction",
      "outputs": [
        {
          "internalType": "bytes",
          "name": "",
          "type": "bytes"
        }
      ],
      "stateMutability": "nonpayable",
      "type": "function"
    },
    {
      "inputs": [],
      "name": "renounceOwnership",
      "outputs": [],
      "stateMutability": "nonpayable",
      "type": "function"
    },
    {
      "inputs": [
        {
          "internalType": "bytes4",
          "name": "interfaceId",
          "type": "bytes4"
        }
      ],
      "name": "supportsInterface",
      "outputs": [
        {
          "internalType": "bool",
          "name": "",
          "type": "bool"
        }
      ],
      "stateMutability": "view",
      "type": "function"
    },
    {
      "inputs": [
        {
          "internalType": "address",
          "name": "newOwner",
          "type": "address"
        }
      ],
      "name": "transferOwnership",
      "outputs": [],
      "stateMutability": "nonpayable",
      "type": "function"
    }
  ],
  "bytecode": {
    "object": "0x60806040523480156200001157600080fd5b5060405162002ce538038062002ce58339810160408190526200003491620000e3565b8181620000413362000076565b600180546001600160a01b039384166001600160a01b03199182161790915560028054929093169116179055506200011b9050565b600080546001600160a01b038381166001600160a01b0319831681178455604051919092169283917f8be0079c531659141344cd1fd0a4f28419497f9722a3daafe3b4186f6b6457e09190a35050565b80516001600160a01b0381168114620000de57600080fd5b919050565b60008060408385031215620000f757600080fd5b6200010283620000c6565b91506200011260208401620000c6565b90509250929050565b612bba806200012b6000396000f3fe60806040523480156200001157600080fd5b5060043610620000fd5760003560e01c8063905d3e2b1162000097578063cad244cd116200006e578063cad244cd1462000282578063ce79d4bd1462000299578063db86aeea14620002bf578063f2fde38b14620002d657600080fd5b8063905d3e2b14620001dd57806395197b511462000254578063a99582df146200026b57600080fd5b806369288f8311620000d857806369288f83146200017e578063715018a614620001ab57806379e5593614620001b75780638da5cb5b14620001cb57600080fd5b806301ffc9a7146200010257806320dd9ac2146200012e5780632e50b9141462000158575b600080fd5b620001196200011336600462001392565b620002ed565b60405190151581526020015b60405180910390f35b6200013862000325565b604080516001600160a01b03909316835260208301919091520162000125565b6200016f62000169366004620013be565b6200039e565b60405190815260200162000125565b60015462000192906001600160a01b031681565b6040516001600160a01b03909116815260200162000125565b620001b5620004a9565b005b60025462000192906001600160a01b031681565b6000546001600160a01b031662000192565b620001f4620001ee366004620013e1565b620004c1565b60405162000125919081516001600160a01b03908116825260208084015190830152604080840151908301526060808401518216908301526080808401519083015260a0838101519083015260c092830151169181019190915260e00190565b6200013862000265366004620013e1565b6200058d565b620001196200027c36600462001411565b6200068d565b6200016f62000293366004620013be565b6200071c565b620002b0620002aa36600462001490565b620007ac565b60405162000125919062001546565b620001b5620002d03660046200155b565b62000875565b620001b5620002e7366004620015ab565b62000aa1565b60006001600160e01b0319821663280ee6f160e21b14806200031f57506301ffc9a760e01b6001600160e01b03198316145b92915050565b6001546040805163106ecd6160e11b8152815160009384936001600160a01b03909116926320dd9ac292600480830193928290030181865afa15801562000370573d6000803e3d6000fd5b505050506040513d601f19601f82011682018060405250810190620003969190620015cb565b915091509091565b6000828152600360208181526040808420600681015460028201549190940154825163313ce56760e01b815292516001600160a01b0395861695633cc4ecab95939492169263313ce56792600480820193918290030181865afa1580156200040a573d6000803e3d6000fd5b505050506040513d601f19601f82011682018060405250810190620004309190620015fc565b6040516001600160e01b031960e085901b168152600481019290925260ff16602482015260448101859052606401602060405180830381865afa1580156200047c573d6000803e3d6000fd5b505050506040513d601f19601f82011682018060405250810190620004a2919062001621565b9392505050565b620004b362000b24565b620004bf600062000b80565b565b6200051d6040518060e0016040528060006001600160a01b03168152602001600081526020016000815260200160006001600160a01b03168152602001600081526020016000815260200160006001600160a01b031681525090565b50600090815260036020818152604092839020835160e08101855281546001600160a01b039081168252600183015493820193909352600282015494810194909452918201548116606084015260048201546080840152600582015460a08401526006909101541660c082015290565b6002546040516259879d60e71b815260048101839052600091829182916001600160a01b031690632cc3ce8090602401600060405180830381865afa158015620005db573d6000803e3d6000fd5b505050506040513d6000823e601f3d908101601f191682016040526200060591908101906200182f565b6001548151604080840151905163221dee9160e21b81529394506001600160a01b0390921692638877ba44926200064092916004016200192d565b6040805180830381865afa1580156200065d573d6000803e3d6000fd5b505050506040513d601f19601f82011682018060405250810190620006839190620015cb565b9250925050915091565b6000828152600360205260408082206005810154905491516370a0823160e01b81526001600160a01b038581166004830152919291909116906370a0823190602401602060405180830381865afa158015620006ed573d6000803e3d6000fd5b505050506040513d601f19601f8201168201806040525081019062000713919062001621565b10159392505050565b600082815260036020526040812060068101546002909101546001600160a01b0390911690633cc4ecab906200075490859062001967565b60008681526003602081815260409283902090910154825163313ce56760e01b815292516001600160a01b039091169263313ce5679260048083019391928290030181865afa1580156200040a573d6000803e3d6000fd5b6002546060906001600160a01b03163314620007db57604051636a429a5960e01b815260040160405180910390fd5b600080620007ec848601866200197d565b9092509050600080836001811115620008095762000809620019af565b036200081f576200081c88888462000bd0565b90505b6001836001811115620008365762000836620019af565b036200084c576200084988888462000dc8565b90505b60408051602081018390520160405160208183030381529060405293505050505b949350505050565b6002546001600160a01b03163314620008a157604051636a429a5960e01b815260040160405180910390fd5b600080808080808080620008b8898b018b62001a1b565b9750975097509750975097509750975060008787604051620008da9062001384565b620008e792919062001ae3565b604051809103906000f08015801562000904573d6000803e3d6000fd5b5060008d81526003602081905260409182902090810180546001600160a01b0319166001600160a01b038b81169190911790915560048083018a905560028301899055600590920187905591516340c10f1960e01b81528c831691810191909152602481018790529192508216906340c10f1990604401600060405180830381600087803b1580156200099657600080fd5b505af1158015620009ab573d6000803e3d6000fd5b50505060008d8152600360205260409081902080546001600160a01b0319166001600160a01b038581169190911790915590516301ffc9a760e01b8152633cc4ecab60e01b600482015290841691506301ffc9a790602401602060405180830381865afa15801562000a21573d6000803e3d6000fd5b505050506040513d601f19601f8201168201806040525081019062000a47919062001b15565b62000a65576040516317f3aa9560e11b815260040160405180910390fd5b5060009a8b5260036020526040909a2060060180546001600160a01b0319166001600160a01b03909b169a909a17909955505050505050505050565b62000aab62000b24565b6001600160a01b03811662000b165760405162461bcd60e51b815260206004820152602660248201527f4f776e61626c653a206e6577206f776e657220697320746865207a65726f206160448201526564647265737360d01b60648201526084015b60405180910390fd5b62000b218162000b80565b50565b6000546001600160a01b03163314620004bf5760405162461bcd60e51b815260206004820181905260248201527f4f776e61626c653a2063616c6c6572206973206e6f7420746865206f776e6572604482015260640162000b0d565b600080546001600160a01b038381166001600160a01b0319831681178455604051919092169283917f8be0079c531659141344cd1fd0a4f28419497f9722a3daafe3b4186f6b6457e09190a35050565b60008062000bdf85846200039e565b600086815260036020526040812060040154919250906127109062000c05908462001b39565b62000c11919062001b53565b6000878152600360208190526040822001549192509062000c4090889088906001600160a01b03168662000ff4565b6000888152600360208190526040822001549192509062000c6d9088906001600160a01b03168662001051565b905062000ca48762000c7f8a620010ac565b60008b815260036020819052604090912001546001600160a01b03169190866200111f565b62000cf58730858462000cb8878a62001967565b62000cc4919062001967565b62000cd0919062001967565b60008c815260036020819052604090912001546001600160a01b03169291906200111f565b600088815260036020526040908190205490516340c10f1960e01b81526001600160a01b03898116600483015260248201899052909116906340c10f1990604401600060405180830381600087803b15801562000d5157600080fd5b505af115801562000d66573d6000803e3d6000fd5b5050506000898152600360205260408120600201805489935090919062000d8f90849062001b76565b90915550506000888152600360205260408120600101805486929062000db790849062001b76565b909155509398975050505050505050565b60008062000dd785846200071c565b600086815260036020526040812060040154919250906127109062000dfd908462001b39565b62000e09919062001b53565b6000878152600360208190526040822001549192509062000e3890889088906001600160a01b03168662000ff4565b6000888152600360208190526040822001549192509062000e659088906001600160a01b03168662001051565b905062000e778762000c7f8a620010ac565b600088815260036020819052604090912001546001600160a01b031663a9059cbb88858462000ea7878a62001967565b62000eb3919062001967565b62000ebf919062001967565b6040516001600160e01b031960e085901b1681526001600160a01b03909216600483015260248201526044016020604051808303816000875af115801562000f0b573d6000803e3d6000fd5b505050506040513d601f19601f8201168201806040525081019062000f31919062001b15565b5060008881526003602052604090819020549051632770a7eb60e21b81526001600160a01b0389811660048301526024820189905290911690639dc29fac90604401600060405180830381600087803b15801562000f8e57600080fd5b505af115801562000fa3573d6000803e3d6000fd5b5050506000898152600360205260408120600201805489935090919062000fcc90849062001967565b90915550506000888152600360205260408120600101805486929062000db790849062001967565b600080600062001004876200058d565b909250905060006127106200101a838762001b39565b62001026919062001b53565b905080156200104657620010466001600160a01b0387168885846200111f565b979650505050505050565b60008060006200106062000325565b9092509050600061271062001076838762001b39565b62001082919062001b53565b90508015620010a257620010a26001600160a01b0387168885846200111f565b9695505050505050565b6002546040516335d8c2b760e01b8152600481018390526000916001600160a01b0316906335d8c2b7906024016020604051808303816000875af1158015620010f9573d6000803e3d6000fd5b505050506040513d601f19601f820116820180604052508101906200031f919062001b8c565b604080516001600160a01b0385811660248301528416604482015260648082018490528251808303909101815260849091019091526020810180516001600160e01b03166323b872dd60e01b1790526200117b90859062001181565b50505050565b6000620011d8826040518060400160405280602081526020017f5361666545524332303a206c6f772d6c6576656c2063616c6c206661696c6564815250856001600160a01b0316620012629092919063ffffffff16565b9050805160001480620011fc575080806020019051810190620011fc919062001b15565b6200125d5760405162461bcd60e51b815260206004820152602a60248201527f5361666545524332303a204552433230206f7065726174696f6e20646964206e6044820152691bdd081cdd58d8d9595960b21b606482015260840162000b0d565b505050565b60606200086d848460008585600080866001600160a01b031685876040516200128c919062001bac565b60006040518083038185875af1925050503d8060008114620012cb576040519150601f19603f3d011682016040523d82523d6000602084013e620012d0565b606091505b50915091506200104687838387606083156200135157825160000362001349576001600160a01b0385163b620013495760405162461bcd60e51b815260206004820152601d60248201527f416464726573733a2063616c6c20746f206e6f6e2d636f6e7472616374000000604482015260640162000b0d565b50816200086d565b6200086d8383815115620013685781518083602001fd5b8060405162461bcd60e51b815260040162000b0d919062001546565b610fba8062001bcb83390190565b600060208284031215620013a557600080fd5b81356001600160e01b031981168114620004a257600080fd5b60008060408385031215620013d257600080fd5b50508035926020909101359150565b600060208284031215620013f457600080fd5b5035919050565b6001600160a01b038116811462000b2157600080fd5b600080604083850312156200142557600080fd5b8235915060208301356200143981620013fb565b809150509250929050565b60008083601f8401126200145757600080fd5b50813567ffffffffffffffff8111156200147057600080fd5b6020830191508360208285010111156200148957600080fd5b9250929050565b60008060008060608587031215620014a757600080fd5b843593506020850135620014bb81620013fb565b9250604085013567ffffffffffffffff811115620014d857600080fd5b620014e68782880162001444565b95989497509550505050565b60005b838110156200150f578181015183820152602001620014f5565b50506000910152565b6000815180845262001532816020860160208601620014f2565b601f01601f19169290920160200192915050565b602081526000620004a2602083018462001518565b6000806000604084860312156200157157600080fd5b83359250602084013567ffffffffffffffff8111156200159057600080fd5b6200159e8682870162001444565b9497909650939450505050565b600060208284031215620015be57600080fd5b8135620004a281620013fb565b60008060408385031215620015df57600080fd5b8251620015ec81620013fb565b6020939093015192949293505050565b6000602082840312156200160f57600080fd5b815160ff81168114620004a257600080fd5b6000602082840312156200163457600080fd5b5051919050565b634e487b7160e01b600052604160045260246000fd5b60405160c0810167ffffffffffffffff811182821017156200167757620016776200163b565b60405290565b604051601f8201601f1916810167ffffffffffffffff81118282101715620016a957620016a96200163b565b604052919050565b600067ffffffffffffffff821115620016ce57620016ce6200163b565b50601f01601f191660200190565b600082601f830112620016ee57600080fd5b815162001705620016ff82620016b1565b6200167d565b8181528460208386010111156200171b57600080fd5b6200086d826020830160208701620014f2565b600067ffffffffffffffff8211156200174b576200174b6200163b565b5060051b60200190565b600082601f8301126200176757600080fd5b815160206200177a620016ff836200172e565b82815260059290921b840181019181810190868411156200179a57600080fd5b8286015b84811015620017c2578051620017b481620013fb565b83529183019183016200179e565b509695505050505050565b600082601f830112620017df57600080fd5b81516020620017f2620016ff836200172e565b82815260059290921b840181019181810190868411156200181257600080fd5b8286015b84811015620017c2578051835291830191830162001816565b6000602082840312156200184257600080fd5b815167ffffffffffffffff808211156200185b57600080fd5b9083019060c082860312156200187057600080fd5b6200187a62001651565b8251828111156200188a57600080fd5b6200189887828601620016dc565b825250602083015182811115620018ae57600080fd5b620018bc87828601620016dc565b6020830152506040830151604082015260608301516060820152608083015182811115620018e957600080fd5b620018f78782860162001755565b60808301525060a0830151828111156200191057600080fd5b6200191e87828601620017cd565b60a08301525095945050505050565b60408152600062001942604083018562001518565b90508260208301529392505050565b634e487b7160e01b600052601160045260246000fd5b818103818111156200031f576200031f62001951565b600080604083850312156200199157600080fd5b823560028110620019a157600080fd5b946020939093013593505050565b634e487b7160e01b600052602160045260246000fd5b600082601f830112620019d757600080fd5b8135620019e8620016ff82620016b1565b818152846020838601011115620019fe57600080fd5b816020850160208301376000918101602001919091529392505050565b600080600080600080600080610100898b03121562001a3957600080fd5b883562001a4681620013fb565b9750602089013567ffffffffffffffff8082111562001a6457600080fd5b62001a728c838d01620019c5565b985060408b013591508082111562001a8957600080fd5b5062001a988b828c01620019c5565b965050606089013562001aab81620013fb565b94506080890135935060a0890135925060c0890135915060e089013562001ad281620013fb565b809150509295985092959890939650565b60408152600062001af8604083018562001518565b828103602084015262001b0c818562001518565b95945050505050565b60006020828403121562001b2857600080fd5b81518015158114620004a257600080fd5b80820281158282048414176200031f576200031f62001951565b60008262001b7157634e487b7160e01b600052601260045260246000fd5b500490565b808201808211156200031f576200031f62001951565b60006020828403121562001b9f57600080fd5b8151620004a281620013fb565b6000825162001bc0818460208701620014f2565b919091019291505056fe60806040523480156200001157600080fd5b5060405162000fba38038062000fba833981016040819052620000349162000193565b818160036200004483826200028c565b5060046200005382826200028c565b505050620000706200006a6200007860201b60201c565b6200007c565b505062000358565b3390565b600580546001600160a01b038381166001600160a01b0319831681179093556040519116919082907f8be0079c531659141344cd1fd0a4f28419497f9722a3daafe3b4186f6b6457e090600090a35050565b634e487b7160e01b600052604160045260246000fd5b600082601f830112620000f657600080fd5b81516001600160401b0380821115620001135762000113620000ce565b604051601f8301601f19908116603f011681019082821181831017156200013e576200013e620000ce565b816040528381526020925086838588010111156200015b57600080fd5b600091505b838210156200017f578582018301518183018401529082019062000160565b600093810190920192909252949350505050565b60008060408385031215620001a757600080fd5b82516001600160401b0380821115620001bf57600080fd5b620001cd86838701620000e4565b93506020850151915080821115620001e457600080fd5b50620001f385828601620000e4565b9150509250929050565b600181811c908216806200021257607f821691505b6020821081036200023357634e487b7160e01b600052602260045260246000fd5b50919050565b601f8211156200028757600081815260208120601f850160051c81016020861015620002625750805b601f850160051c820191505b8181101562000283578281556001016200026e565b5050505b505050565b81516001600160401b03811115620002a857620002a8620000ce565b620002c081620002b98454620001fd565b8462000239565b602080601f831160018114620002f85760008415620002df5750858301515b600019600386901b1c1916600185901b17855562000283565b600085815260208120601f198616915b82811015620003295788860151825594840194600190910190840162000308565b5085821015620003485787850151600019600388901b60f8161c191681555b5050505050600190811b01905550565b610c5280620003686000396000f3fe608060405234801561001057600080fd5b50600436106101005760003560e01c8063715018a611610097578063a457c2d711610066578063a457c2d714610209578063a9059cbb1461021c578063dd62ed3e1461022f578063f2fde38b1461024257600080fd5b8063715018a6146101cb5780638da5cb5b146101d357806395d89b41146101ee5780639dc29fac146101f657600080fd5b8063313ce567116100d3578063313ce5671461016b578063395093511461017a57806340c10f191461018d57806370a08231146101a257600080fd5b806306fdde0314610105578063095ea7b31461012357806318160ddd1461014657806323b872dd14610158575b600080fd5b61010d610255565b60405161011a9190610a9c565b60405180910390f35b610136610131366004610b06565b6102e7565b604051901515815260200161011a565b6002545b60405190815260200161011a565b610136610166366004610b30565b610301565b6040516012815260200161011a565b610136610188366004610b06565b610325565b6101a061019b366004610b06565b610347565b005b61014a6101b0366004610b6c565b6001600160a01b031660009081526020819052604090205490565b6101a061035d565b6005546040516001600160a01b03909116815260200161011a565b61010d610371565b6101a0610204366004610b06565b610380565b610136610217366004610b06565b610392565b61013661022a366004610b06565b610412565b61014a61023d366004610b8e565b610420565b6101a0610250366004610b6c565b61044b565b60606003805461026490610bc1565b80601f016020809104026020016040519081016040528092919081815260200182805461029090610bc1565b80156102dd5780601f106102b2576101008083540402835291602001916102dd565b820191906000526020600020905b8154815290600101906020018083116102c057829003601f168201915b5050505050905090565b6000336102f58185856104c4565b60019150505b92915050565b60003361030f8582856105e9565b61031a858585610663565b506001949350505050565b6000336102f58185856103388383610420565b6103429190610bfb565b6104c4565b61034f610807565b6103598282610861565b5050565b610365610807565b61036f6000610920565b565b60606004805461026490610bc1565b610388610807565b6103598282610972565b600033816103a08286610420565b9050838110156104055760405162461bcd60e51b815260206004820152602560248201527f45524332303a2064656372656173656420616c6c6f77616e63652062656c6f77604482015264207a65726f60d81b60648201526084015b60405180910390fd5b61031a82868684036104c4565b6000336102f5818585610663565b6001600160a01b03918216600090815260016020908152604080832093909416825291909152205490565b610453610807565b6001600160a01b0381166104b85760405162461bcd60e51b815260206004820152602660248201527f4f776e61626c653a206e6577206f776e657220697320746865207a65726f206160448201526564647265737360d01b60648201526084016103fc565b6104c181610920565b50565b6001600160a01b0383166105265760405162461bcd60e51b8152602060048201526024808201527f45524332303a20617070726f76652066726f6d20746865207a65726f206164646044820152637265737360e01b60648201526084016103fc565b6001600160a01b0382166105875760405162461bcd60e51b815260206004820152602260248201527f45524332303a20617070726f766520746f20746865207a65726f206164647265604482015261737360f01b60648201526084016103fc565b6001600160a01b0383811660008181526001602090815260408083209487168084529482529182902085905590518481527f8c5be1e5ebec7d5bd14f71427d1e84f3dd0314c0f7b2291e5b200ac8c7c3b92591015b60405180910390a3505050565b60006105f58484610420565b9050600019811461065d57818110156106505760405162461bcd60e51b815260206004820152601d60248201527f45524332303a20696e73756666696369656e7420616c6c6f77616e636500000060448201526064016103fc565b61065d84848484036104c4565b50505050565b6001600160a01b0383166106c75760405162461bcd60e51b815260206004820152602560248201527f45524332303a207472616e736665722066726f6d20746865207a65726f206164604482015264647265737360d81b60648201526084016103fc565b6001600160a01b0382166107295760405162461bcd60e51b815260206004820152602360248201527f45524332303a207472616e7366657220746f20746865207a65726f206164647260448201526265737360e81b60648201526084016103fc565b6001600160a01b038316600090815260208190526040902054818110156107a15760405162461bcd60e51b815260206004820152602660248201527f45524332303a207472616e7366657220616d6f756e7420657863656564732062604482015265616c616e636560d01b60648201526084016103fc565b6001600160a01b03848116600081815260208181526040808320878703905593871680835291849020805487019055925185815290927fddf252ad1be2c89b69c2b068fc378daa952ba7f163c4a11628f55a4df523b3ef910160405180910390a361065d565b6005546001600160a01b0316331461036f5760405162461bcd60e51b815260206004820181905260248201527f4f776e61626c653a2063616c6c6572206973206e6f7420746865206f776e657260448201526064016103fc565b6001600160a01b0382166108b75760405162461bcd60e51b815260206004820152601f60248201527f45524332303a206d696e7420746f20746865207a65726f20616464726573730060448201526064016103fc565b80600260008282546108c99190610bfb565b90915550506001600160a01b038216600081815260208181526040808320805486019055518481527fddf252ad1be2c89b69c2b068fc378daa952ba7f163c4a11628f55a4df523b3ef910160405180910390a35050565b600580546001600160a01b038381166001600160a01b0319831681179093556040519116919082907f8be0079c531659141344cd1fd0a4f28419497f9722a3daafe3b4186f6b6457e090600090a35050565b6001600160a01b0382166109d25760405162461bcd60e51b815260206004820152602160248201527f45524332303a206275726e2066726f6d20746865207a65726f206164647265736044820152607360f81b60648201526084016103fc565b6001600160a01b03821660009081526020819052604090205481811015610a465760405162461bcd60e51b815260206004820152602260248201527f45524332303a206275726e20616d6f756e7420657863656564732062616c616e604482015261636560f01b60648201526084016103fc565b6001600160a01b0383166000818152602081815260408083208686039055600280548790039055518581529192917fddf252ad1be2c89b69c2b068fc378daa952ba7f163c4a11628f55a4df523b3ef91016105dc565b600060208083528351808285015260005b81811015610ac957858101830151858201604001528201610aad565b506000604082860101526040601f19601f8301168501019250505092915050565b80356001600160a01b0381168114610b0157600080fd5b919050565b60008060408385031215610b1957600080fd5b610b2283610aea565b946020939093013593505050565b600080600060608486031215610b4557600080fd5b610b4e84610aea565b9250610b5c60208501610aea565b9150604084013590509250925092565b600060208284031215610b7e57600080fd5b610b8782610aea565b9392505050565b60008060408385031215610ba157600080fd5b610baa83610aea565b9150610bb860208401610aea565b90509250929050565b600181811c90821680610bd557607f821691505b602082108103610bf557634e487b7160e01b600052602260045260246000fd5b50919050565b808201808211156102fb57634e487b7160e01b600052601160045260246000fdfea2646970667358221220ca3715e7e2334d4a0f31214d167bd56777dc56d70333951f536adbd7b0fcb02364736f6c63430008150033a2646970667358221220f05c607b258fd663e02f54c8add7dd3b0138a96291173ac173d193b5e90a046264736f6c63430008150033",
    "linkReferences": {}
  },
  "methodIdentifiers": {
    "ACTION_CONFIG()": "69288f83",
    "getAssetShareData(bytes32)": "905d3e2b",
    "getBuyPrice(bytes32,uint256)": "2e50b914",
    "getDappTreasuryData(bytes32)": "95197b51",
    "getDataverseTreasuryData()": "20dd9ac2",
    "getSellPrice(bytes32,uint256)": "cad244cd",
    "initializeAction(bytes32,bytes)": "db86aeea",
    "isAccessible(bytes32,address)": "a99582df",
    "monetizer()": "79e55936",
    "owner()": "8da5cb5b",
    "processAction(bytes32,address,bytes)": "ce79d4bd",
    "renounceOwnership()": "715018a6",
    "supportsInterface(bytes4)": "01ffc9a7",
    "transferOwnership(address)": "f2fde38b"
  },
  "id": 7
}