{
  "abi": [
    {
      "inputs": [],
      "stateMutability": "nonpayable",
      "type": "constructor"
    },
    {
      "inputs": [],
      "name": "ActionAlreadyExists",
      "type": "error"
    },
    {
      "inputs": [],
      "name": "ActionInvalid",
      "type": "error"
    },
    {
      "inputs": [],
      "name": "ActionNotExists",
      "type": "error"
    },
    {
      "inputs": [],
      "name": "ArrayLengthNotEqual",
      "type": "error"
    },
    {
      "inputs": [],
      "name": "ERC721EnumerableForbiddenBatchMint",
      "type": "error"
    },
    {
      "inputs": [
        {
          "internalType": "address",
          "name": "sender",
          "type": "address"
        },
        {
          "internalType": "uint256",
          "name": "tokenId",
          "type": "uint256"
        },
        {
          "internalType": "address",
          "name": "owner",
          "type": "address"
        }
      ],
      "name": "ERC721IncorrectOwner",
      "type": "error"
    },
    {
      "inputs": [
        {
          "internalType": "address",
          "name": "operator",
          "type": "address"
        },
        {
          "internalType": "uint256",
          "name": "tokenId",
          "type": "uint256"
        }
      ],
      "name": "ERC721InsufficientApproval",
      "type": "error"
    },
    {
      "inputs": [
        {
          "internalType": "address",
          "name": "approver",
          "type": "address"
        }
      ],
      "name": "ERC721InvalidApprover",
      "type": "error"
    },
    {
      "inputs": [
        {
          "internalType": "address",
          "name": "operator",
          "type": "address"
        }
      ],
      "name": "ERC721InvalidOperator",
      "type": "error"
    },
    {
      "inputs": [
        {
          "internalType": "address",
          "name": "owner",
          "type": "address"
        }
      ],
      "name": "ERC721InvalidOwner",
      "type": "error"
    },
    {
      "inputs": [
        {
          "internalType": "address",
          "name": "receiver",
          "type": "address"
        }
      ],
      "name": "ERC721InvalidReceiver",
      "type": "error"
    },
    {
      "inputs": [
        {
          "internalType": "address",
          "name": "sender",
          "type": "address"
        }
      ],
      "name": "ERC721InvalidSender",
      "type": "error"
    },
    {
      "inputs": [
        {
          "internalType": "uint256",
          "name": "tokenId",
          "type": "uint256"
        }
      ],
      "name": "ERC721NonexistentToken",
      "type": "error"
    },
    {
      "inputs": [
        {
          "internalType": "address",
          "name": "owner",
          "type": "address"
        },
        {
          "internalType": "uint256",
          "name": "index",
          "type": "uint256"
        }
      ],
      "name": "ERC721OutOfBoundsIndex",
      "type": "error"
    },
    {
      "inputs": [],
      "name": "InitializeActionFailed",
      "type": "error"
    },
    {
      "inputs": [],
      "name": "InvalidShortString",
      "type": "error"
    },
    {
      "inputs": [],
      "name": "NotAssetOwner",
      "type": "error"
    },
    {
      "inputs": [],
      "name": "NotUnionOwner",
      "type": "error"
    },
    {
      "inputs": [],
      "name": "ProcessActionFailed",
      "type": "error"
    },
    {
      "inputs": [],
      "name": "ReentrancyGuardReentrantCall",
      "type": "error"
    },
    {
      "inputs": [],
      "name": "ResourceNotExists",
      "type": "error"
    },
    {
      "inputs": [],
      "name": "SignatureExpired",
      "type": "error"
    },
    {
      "inputs": [],
      "name": "SignatureMismatch",
      "type": "error"
    },
    {
      "inputs": [
        {
          "internalType": "string",
          "name": "str",
          "type": "string"
        }
      ],
      "name": "StringTooLong",
      "type": "error"
    },
    {
      "inputs": [],
      "name": "UnionAlreadyClosed",
      "type": "error"
    },
    {
      "anonymous": false,
      "inputs": [
        {
          "indexed": true,
          "internalType": "address",
          "name": "owner",
          "type": "address"
        },
        {
          "indexed": true,
          "internalType": "address",
          "name": "approved",
          "type": "address"
        },
        {
          "indexed": true,
          "internalType": "uint256",
          "name": "tokenId",
          "type": "uint256"
        }
      ],
      "name": "Approval",
      "type": "event"
    },
    {
      "anonymous": false,
      "inputs": [
        {
          "indexed": true,
          "internalType": "address",
          "name": "owner",
          "type": "address"
        },
        {
          "indexed": true,
          "internalType": "address",
          "name": "operator",
          "type": "address"
        },
        {
          "indexed": false,
          "internalType": "bool",
          "name": "approved",
          "type": "bool"
        }
      ],
      "name": "ApprovalForAll",
      "type": "event"
    },
    {
      "anonymous": false,
      "inputs": [
        {
          "indexed": true,
          "internalType": "bytes32",
          "name": "assetId",
          "type": "bytes32"
        },
        {
          "indexed": true,
          "internalType": "address",
          "name": "actor",
          "type": "address"
        },
        {
          "indexed": false,
          "internalType": "address[]",
          "name": "actions",
          "type": "address[]"
        },
        {
          "indexed": false,
          "internalType": "bytes[]",
          "name": "actionProcessDatas",
          "type": "bytes[]"
        },
        {
          "indexed": false,
          "internalType": "bytes[]",
          "name": "actionReturnDatas",
          "type": "bytes[]"
        }
      ],
      "name": "AssetActed",
      "type": "event"
    },
    {
      "anonymous": false,
      "inputs": [
        {
          "indexed": true,
          "internalType": "bytes32",
          "name": "assetId",
          "type": "bytes32"
        },
        {
          "indexed": false,
          "internalType": "address[]",
          "name": "actions",
          "type": "address[]"
        },
        {
          "indexed": false,
          "internalType": "bytes[]",
          "name": "actionInitDatas",
          "type": "bytes[]"
        }
      ],
      "name": "AssetActionsAdded",
      "type": "event"
    },
    {
      "anonymous": false,
      "inputs": [
        {
          "indexed": true,
          "internalType": "bytes32",
          "name": "assetId",
          "type": "bytes32"
        },
        {
          "indexed": true,
          "internalType": "address",
          "name": "publisher",
          "type": "address"
        },
        {
          "indexed": true,
          "internalType": "uint256",
          "name": "publicationId",
          "type": "uint256"
        },
        {
          "indexed": false,
          "internalType": "bytes",
          "name": "data",
          "type": "bytes"
        },
        {
          "indexed": false,
          "internalType": "address[]",
          "name": "actions",
          "type": "address[]"
        },
        {
          "indexed": false,
          "internalType": "bytes[]",
          "name": "actionInitDatas",
          "type": "bytes[]"
        }
      ],
      "name": "AssetPublished",
      "type": "event"
    },
    {
      "anonymous": false,
      "inputs": [],
      "name": "EIP712DomainChanged",
      "type": "event"
    },
    {
      "anonymous": false,
      "inputs": [
        {
          "indexed": true,
          "internalType": "address",
          "name": "from",
          "type": "address"
        },
        {
          "indexed": true,
          "internalType": "address",
          "name": "to",
          "type": "address"
        },
        {
          "indexed": true,
          "internalType": "uint256",
          "name": "tokenId",
          "type": "uint256"
        }
      ],
      "name": "Transfer",
      "type": "event"
    },
    {
      "anonymous": false,
      "inputs": [
        {
          "indexed": false,
          "internalType": "bytes32",
          "name": "assetId",
          "type": "bytes32"
        },
        {
          "indexed": false,
          "internalType": "address",
          "name": "operator",
          "type": "address"
        },
        {
          "indexed": false,
          "internalType": "uint256",
          "name": "closeAt",
          "type": "uint256"
        }
      ],
      "name": "UnionClosed",
      "type": "event"
    },
    {
      "inputs": [
        {
          "components": [
            {
              "internalType": "bytes32",
              "name": "assetId",
              "type": "bytes32"
            },
            {
              "internalType": "address[]",
              "name": "actions",
              "type": "address[]"
            },
            {
              "internalType": "bytes[]",
              "name": "actionProcessDatas",
              "type": "bytes[]"
            }
          ],
          "internalType": "struct IDataMonetizer.ActParams",
          "name": "actParams",
          "type": "tuple"
        }
      ],
      "name": "act",
      "outputs": [
        {
          "internalType": "bytes[]",
          "name": "",
          "type": "bytes[]"
        }
      ],
      "stateMutability": "payable",
      "type": "function"
    },
    {
      "inputs": [
        {
          "components": [
            {
              "internalType": "bytes32",
              "name": "assetId",
              "type": "bytes32"
            },
            {
              "internalType": "address[]",
              "name": "actions",
              "type": "address[]"
            },
            {
              "internalType": "bytes[]",
              "name": "actionProcessDatas",
              "type": "bytes[]"
            }
          ],
          "internalType": "struct IDataMonetizer.ActParams",
          "name": "actParams",
          "type": "tuple"
        },
        {
          "components": [
            {
              "internalType": "address",
              "name": "signer",
              "type": "address"
            },
            {
              "internalType": "uint8",
              "name": "v",
              "type": "uint8"
            },
            {
              "internalType": "bytes32",
              "name": "r",
              "type": "bytes32"
            },
            {
              "internalType": "bytes32",
              "name": "s",
              "type": "bytes32"
            },
            {
              "internalType": "uint256",
              "name": "deadline",
              "type": "uint256"
            }
          ],
          "internalType": "struct IDataMonetizer.EIP712Signature",
          "name": "signature",
          "type": "tuple"
        }
      ],
      "name": "actWithSig",
      "outputs": [
        {
          "internalType": "bytes[]",
          "name": "",
          "type": "bytes[]"
        }
      ],
      "stateMutability": "payable",
      "type": "function"
    },
    {
      "inputs": [
        {
          "components": [
            {
              "internalType": "bytes32",
              "name": "assetId",
              "type": "bytes32"
            },
            {
              "internalType": "address[]",
              "name": "actions",
              "type": "address[]"
            },
            {
              "internalType": "bytes[]",
              "name": "actionInitDatas",
              "type": "bytes[]"
            }
          ],
          "internalType": "struct IDataMonetizer.AddActionsParams",
          "name": "addActionsParams",
          "type": "tuple"
        }
      ],
      "name": "addActions",
      "outputs": [],
      "stateMutability": "nonpayable",
      "type": "function"
    },
    {
      "inputs": [
        {
          "components": [
            {
              "internalType": "bytes32",
              "name": "assetId",
              "type": "bytes32"
            },
            {
              "internalType": "address[]",
              "name": "actions",
              "type": "address[]"
            },
            {
              "internalType": "bytes[]",
              "name": "actionInitDatas",
              "type": "bytes[]"
            }
          ],
          "internalType": "struct IDataMonetizer.AddActionsParams",
          "name": "addActionsParams",
          "type": "tuple"
        },
        {
          "components": [
            {
              "internalType": "address",
              "name": "signer",
              "type": "address"
            },
            {
              "internalType": "uint8",
              "name": "v",
              "type": "uint8"
            },
            {
              "internalType": "bytes32",
              "name": "r",
              "type": "bytes32"
            },
            {
              "internalType": "bytes32",
              "name": "s",
              "type": "bytes32"
            },
            {
              "internalType": "uint256",
              "name": "deadline",
              "type": "uint256"
            }
          ],
          "internalType": "struct IDataMonetizer.EIP712Signature",
          "name": "signature",
          "type": "tuple"
        }
      ],
      "name": "addActionsWithSig",
      "outputs": [],
      "stateMutability": "nonpayable",
      "type": "function"
    },
    {
      "inputs": [
        {
          "internalType": "address",
          "name": "to",
          "type": "address"
        },
        {
          "internalType": "uint256",
          "name": "tokenId",
          "type": "uint256"
        }
      ],
      "name": "approve",
      "outputs": [],
      "stateMutability": "nonpayable",
      "type": "function"
    },
    {
      "inputs": [
        {
          "internalType": "address",
          "name": "owner",
          "type": "address"
        }
      ],
      "name": "balanceOf",
      "outputs": [
        {
          "internalType": "uint256",
          "name": "",
          "type": "uint256"
        }
      ],
      "stateMutability": "view",
      "type": "function"
    },
    {
      "inputs": [
        {
          "internalType": "bytes32",
          "name": "assetId",
          "type": "bytes32"
        }
      ],
      "name": "close",
      "outputs": [
        {
          "internalType": "uint256",
          "name": "",
          "type": "uint256"
        }
      ],
      "stateMutability": "nonpayable",
      "type": "function"
    },
    {
      "inputs": [
        {
          "internalType": "bytes32",
          "name": "assetId",
          "type": "bytes32"
        },
        {
          "components": [
            {
              "internalType": "address",
              "name": "signer",
              "type": "address"
            },
            {
              "internalType": "uint8",
              "name": "v",
              "type": "uint8"
            },
            {
              "internalType": "bytes32",
              "name": "r",
              "type": "bytes32"
            },
            {
              "internalType": "bytes32",
              "name": "s",
              "type": "bytes32"
            },
            {
              "internalType": "uint256",
              "name": "deadline",
              "type": "uint256"
            }
          ],
          "internalType": "struct IDataMonetizer.EIP712Signature",
          "name": "signature",
          "type": "tuple"
        }
      ],
      "name": "closeWithSig",
      "outputs": [
        {
          "internalType": "uint256",
          "name": "",
          "type": "uint256"
        }
      ],
      "stateMutability": "nonpayable",
      "type": "function"
    },
    {
      "inputs": [],
      "name": "eip712Domain",
      "outputs": [
        {
          "internalType": "bytes1",
          "name": "fields",
          "type": "bytes1"
        },
        {
          "internalType": "string",
          "name": "name",
          "type": "string"
        },
        {
          "internalType": "string",
          "name": "version",
          "type": "string"
        },
        {
          "internalType": "uint256",
          "name": "chainId",
          "type": "uint256"
        },
        {
          "internalType": "address",
          "name": "verifyingContract",
          "type": "address"
        },
        {
          "internalType": "bytes32",
          "name": "salt",
          "type": "bytes32"
        },
        {
          "internalType": "uint256[]",
          "name": "extensions",
          "type": "uint256[]"
        }
      ],
      "stateMutability": "view",
      "type": "function"
    },
    {
      "inputs": [
        {
          "internalType": "uint256",
          "name": "tokenId",
          "type": "uint256"
        }
      ],
      "name": "getApproved",
      "outputs": [
        {
          "internalType": "address",
          "name": "",
          "type": "address"
        }
      ],
      "stateMutability": "view",
      "type": "function"
    },
    {
      "inputs": [
        {
          "internalType": "bytes32",
          "name": "assetId",
          "type": "bytes32"
        }
      ],
      "name": "getAsset",
      "outputs": [
        {
          "components": [
            {
              "internalType": "bytes",
              "name": "data",
              "type": "bytes"
            },
            {
              "internalType": "uint256",
              "name": "publishAt",
              "type": "uint256"
            },
            {
              "internalType": "uint256",
              "name": "publicationId",
              "type": "uint256"
            },
            {
              "internalType": "address[]",
              "name": "actions",
              "type": "address[]"
            }
          ],
          "internalType": "struct IDataMonetizer.Asset",
          "name": "",
          "type": "tuple"
        }
      ],
      "stateMutability": "view",
      "type": "function"
    },
    {
      "inputs": [
        {
          "internalType": "bytes32",
          "name": "assetId",
          "type": "bytes32"
        }
      ],
      "name": "getAssetOwner",
      "outputs": [
        {
          "internalType": "address",
          "name": "",
          "type": "address"
        }
      ],
      "stateMutability": "view",
      "type": "function"
    },
    {
      "inputs": [],
      "name": "getDomainSeparator",
      "outputs": [
        {
          "internalType": "bytes32",
          "name": "",
          "type": "bytes32"
        }
      ],
      "stateMutability": "view",
      "type": "function"
    },
    {
      "inputs": [
        {
          "internalType": "address",
          "name": "signer",
          "type": "address"
        }
      ],
      "name": "getSigNonce",
      "outputs": [
        {
          "internalType": "uint256",
          "name": "",
          "type": "uint256"
        }
      ],
      "stateMutability": "view",
      "type": "function"
    },
    {
      "inputs": [
        {
          "internalType": "bytes32",
          "name": "assetId",
          "type": "bytes32"
        }
      ],
      "name": "getUnionAsset",
      "outputs": [
        {
          "components": [
            {
              "internalType": "string",
              "name": "resourceId",
              "type": "string"
            },
            {
              "internalType": "string",
              "name": "folderId",
              "type": "string"
            },
            {
              "internalType": "uint256",
              "name": "publishAt",
              "type": "uint256"
            },
            {
              "internalType": "uint256",
              "name": "closeAt",
              "type": "uint256"
            },
            {
              "internalType": "uint256",
              "name": "publicationId",
              "type": "uint256"
            },
            {
              "internalType": "address[]",
              "name": "actions",
              "type": "address[]"
            }
          ],
          "internalType": "struct IDataUnion.UnionAsset",
          "name": "",
          "type": "tuple"
        }
      ],
      "stateMutability": "view",
      "type": "function"
    },
    {
      "inputs": [
        {
          "internalType": "address",
          "name": "owner",
          "type": "address"
        },
        {
          "internalType": "address",
          "name": "operator",
          "type": "address"
        }
      ],
      "name": "isApprovedForAll",
      "outputs": [
        {
          "internalType": "bool",
          "name": "",
          "type": "bool"
        }
      ],
      "stateMutability": "view",
      "type": "function"
    },
    {
      "inputs": [],
      "name": "name",
      "outputs": [
        {
          "internalType": "string",
          "name": "",
          "type": "string"
        }
      ],
      "stateMutability": "view",
      "type": "function"
    },
    {
      "inputs": [
        {
          "internalType": "uint256",
          "name": "tokenId",
          "type": "uint256"
        }
      ],
      "name": "ownerOf",
      "outputs": [
        {
          "internalType": "address",
          "name": "",
          "type": "address"
        }
      ],
      "stateMutability": "view",
      "type": "function"
    },
    {
      "inputs": [
        {
          "components": [
            {
              "internalType": "bytes",
              "name": "data",
              "type": "bytes"
            },
            {
              "internalType": "address[]",
              "name": "actions",
              "type": "address[]"
            },
            {
              "internalType": "bytes[]",
              "name": "actionInitDatas",
              "type": "bytes[]"
            }
          ],
          "internalType": "struct IDataMonetizer.PublishParams",
          "name": "publishParams",
          "type": "tuple"
        }
      ],
      "name": "publish",
      "outputs": [
        {
          "internalType": "bytes32",
          "name": "",
          "type": "bytes32"
        }
      ],
      "stateMutability": "payable",
      "type": "function"
    },
    {
      "inputs": [
        {
          "components": [
            {
              "internalType": "bytes",
              "name": "data",
              "type": "bytes"
            },
            {
              "internalType": "address[]",
              "name": "actions",
              "type": "address[]"
            },
            {
              "internalType": "bytes[]",
              "name": "actionInitDatas",
              "type": "bytes[]"
            }
          ],
          "internalType": "struct IDataMonetizer.PublishParams",
          "name": "publishParams",
          "type": "tuple"
        },
        {
          "components": [
            {
              "internalType": "address",
              "name": "signer",
              "type": "address"
            },
            {
              "internalType": "uint8",
              "name": "v",
              "type": "uint8"
            },
            {
              "internalType": "bytes32",
              "name": "r",
              "type": "bytes32"
            },
            {
              "internalType": "bytes32",
              "name": "s",
              "type": "bytes32"
            },
            {
              "internalType": "uint256",
              "name": "deadline",
              "type": "uint256"
            }
          ],
          "internalType": "struct IDataMonetizer.EIP712Signature",
          "name": "signature",
          "type": "tuple"
        }
      ],
      "name": "publishWithSig",
      "outputs": [
        {
          "internalType": "bytes32",
          "name": "",
          "type": "bytes32"
        }
      ],
      "stateMutability": "payable",
      "type": "function"
    },
    {
      "inputs": [
        {
          "internalType": "address",
          "name": "from",
          "type": "address"
        },
        {
          "internalType": "address",
          "name": "to",
          "type": "address"
        },
        {
          "internalType": "uint256",
          "name": "tokenId",
          "type": "uint256"
        }
      ],
      "name": "safeTransferFrom",
      "outputs": [],
      "stateMutability": "nonpayable",
      "type": "function"
    },
    {
      "inputs": [
        {
          "internalType": "address",
          "name": "from",
          "type": "address"
        },
        {
          "internalType": "address",
          "name": "to",
          "type": "address"
        },
        {
          "internalType": "uint256",
          "name": "tokenId",
          "type": "uint256"
        },
        {
          "internalType": "bytes",
          "name": "data",
          "type": "bytes"
        }
      ],
      "name": "safeTransferFrom",
      "outputs": [],
      "stateMutability": "nonpayable",
      "type": "function"
    },
    {
      "inputs": [
        {
          "internalType": "address",
          "name": "operator",
          "type": "address"
        },
        {
          "internalType": "bool",
          "name": "approved",
          "type": "bool"
        }
      ],
      "name": "setApprovalForAll",
      "outputs": [],
      "stateMutability": "nonpayable",
      "type": "function"
    },
    {
      "inputs": [
        {
          "internalType": "bytes4",
          "name": "interfaceId",
          "type": "bytes4"
        }
      ],
      "name": "supportsInterface",
      "outputs": [
        {
          "internalType": "bool",
          "name": "",
          "type": "bool"
        }
      ],
      "stateMutability": "view",
      "type": "function"
    },
    {
      "inputs": [],
      "name": "symbol",
      "outputs": [
        {
          "internalType": "string",
          "name": "",
          "type": "string"
        }
      ],
      "stateMutability": "view",
      "type": "function"
    },
    {
      "inputs": [
        {
          "internalType": "uint256",
          "name": "index",
          "type": "uint256"
        }
      ],
      "name": "tokenByIndex",
      "outputs": [
        {
          "internalType": "uint256",
          "name": "",
          "type": "uint256"
        }
      ],
      "stateMutability": "view",
      "type": "function"
    },
    {
      "inputs": [
        {
          "internalType": "address",
          "name": "owner",
          "type": "address"
        },
        {
          "internalType": "uint256",
          "name": "index",
          "type": "uint256"
        }
      ],
      "name": "tokenOfOwnerByIndex",
      "outputs": [
        {
          "internalType": "uint256",
          "name": "",
          "type": "uint256"
        }
      ],
      "stateMutability": "view",
      "type": "function"
    },
    {
      "inputs": [
        {
          "internalType": "uint256",
          "name": "tokenId",
          "type": "uint256"
        }
      ],
      "name": "tokenURI",
      "outputs": [
        {
          "internalType": "string",
          "name": "",
          "type": "string"
        }
      ],
      "stateMutability": "view",
      "type": "function"
    },
    {
      "inputs": [],
      "name": "totalSupply",
      "outputs": [
        {
          "internalType": "uint256",
          "name": "",
          "type": "uint256"
        }
      ],
      "stateMutability": "view",
      "type": "function"
    },
    {
      "inputs": [
        {
          "internalType": "address",
          "name": "from",
          "type": "address"
        },
        {
          "internalType": "address",
          "name": "to",
          "type": "address"
        },
        {
          "internalType": "uint256",
          "name": "tokenId",
          "type": "uint256"
        }
      ],
      "name": "transferFrom",
      "outputs": [],
      "stateMutability": "nonpayable",
      "type": "function"
    }
  ],
  "bytecode": {
    "object": "0x6101606040526000600d553480156200001757600080fd5b50604051806040016040528060098152602001682230ba30aab734b7b760b91b815250604051806040016040528060018152602001603160f81b81525081816040518060400160405280600f81526020016e141d589b1a58d85d1a5bdb88139195608a1b81525060405180604001604052806002815260200161282760f11b8152508160009081620000aa9190620002aa565b506001620000b98282620002aa565b50620000cb9150839050600a62000180565b61012052620000dc81600b62000180565b61014052815160208084019190912060e052815190820120610100524660a0526200016a60e05161010051604080517f8b73c3c69bb8fe3d512ecc4cf759cc79239f7b179b0ffacaa9a75d522b39400f60208201529081019290925260608201524660808201523060a082015260009060c00160405160208183030381529060405280519060200120905090565b60805250503060c05250506001600c55620003eb565b6000602083511015620001a0576200019883620001b9565b9050620001b3565b81620001ad8482620002aa565b5060ff90505b92915050565b600080829050601f81511115620001f0578260405163305a27a960e01b8152600401620001e7919062000376565b60405180910390fd5b8051620001fd82620003c6565b179392505050565b634e487b7160e01b600052604160045260246000fd5b600181811c908216806200023057607f821691505b6020821081036200025157634e487b7160e01b600052602260045260246000fd5b50919050565b601f821115620002a557600081815260208120601f850160051c81016020861015620002805750805b601f850160051c820191505b81811015620002a1578281556001016200028c565b5050505b505050565b81516001600160401b03811115620002c657620002c662000205565b620002de81620002d784546200021b565b8462000257565b602080601f831160018114620003165760008415620002fd5750858301515b600019600386901b1c1916600185901b178555620002a1565b600085815260208120601f198616915b82811015620003475788860151825594840194600190910190840162000326565b5085821015620003665787850151600019600388901b60f8161c191681555b5050505050600190811b01905550565b600060208083528351808285015260005b81811015620003a55785810183015185820160400152820162000387565b506000604082860101526040601f19601f8301168501019250505092915050565b80516020808301519190811015620002515760001960209190910360031b1b16919050565b60805160a05160c05160e051610100516101205161014051613e13620004466000396000611c9a01526000611c6d0152600061232d01526000612305015260006122600152600061228a015260006122b40152613e136000f3fe6080604052600436106101cd5760003560e01c8063570fed0f116100f7578063adcec4a011610095578063c97bdc6a11610064578063c97bdc6a14610566578063e03e016314610579578063e985e9c51461058c578063ed24911d146105ac57600080fd5b8063adcec4a0146104f3578063b88d4fde14610506578063c2bb05a714610526578063c87b56dd1461054657600080fd5b806370a08231116100d157806370a082311461047657806384b0196e1461049657806395d89b41146104be578063a22cb465146104d357600080fd5b8063570fed0f146104095780635b882006146104365780636352211e1461045657600080fd5b8063262975841161016f57806338fb1c1c1161013e57806338fb1c1c1461038957806339c79e0c146103a957806342842e0e146103c95780634f6ccce7146103e957600080fd5b806326297584146102fc5780632cc3ce801461031c5780632f745c591461034957806335d8c2b71461036957600080fd5b8063081812fc116101ab578063081812fc1461026d578063095ea7b3146102a557806318160ddd146102c757806323b872dd146102dc57600080fd5b806301ffc9a7146101d257806305ac0ab41461020757806306fdde031461024b575b600080fd5b3480156101de57600080fd5b506101f26101ed366004612c8c565b6105c1565b60405190151581526020015b60405180910390f35b34801561021357600080fd5b5061023d610222366004612cc0565b6001600160a01b03166000908152600e602052604090205490565b6040519081526020016101fe565b34801561025757600080fd5b506102606105ec565b6040516101fe9190612d2b565b34801561027957600080fd5b5061028d610288366004612d3e565b61067e565b6040516001600160a01b0390911681526020016101fe565b3480156102b157600080fd5b506102c56102c0366004612d57565b6106a7565b005b3480156102d357600080fd5b5060085461023d565b3480156102e857600080fd5b506102c56102f7366004612d81565b6106b6565b61030f61030a366004612de7565b610746565b6040516101fe9190612e8d565b34801561032857600080fd5b5061033c610337366004612d3e565b610995565b6040516101fe9190612ee4565b34801561035557600080fd5b5061023d610364366004612d57565b610ae7565b34801561037557600080fd5b5061028d610384366004612d3e565b610b4c565b34801561039557600080fd5b5061023d6103a4366004612f3a565b610b67565b3480156103b557600080fd5b5061023d6103c4366004612d3e565b610c5a565b3480156103d557600080fd5b506102c56103e4366004612d81565b610c66565b3480156103f557600080fd5b5061023d610404366004612d3e565b610c86565b34801561041557600080fd5b50610429610424366004612d3e565b610cdf565b6040516101fe9190612f5e565b34801561044257600080fd5b506102c5610451366004612de7565b610e7c565b34801561046257600080fd5b5061028d610471366004612d3e565b6110af565b34801561048257600080fd5b5061023d610491366004612cc0565b6110ba565b3480156104a257600080fd5b506104ab611102565b6040516101fe9796959493929190612fd4565b3480156104ca57600080fd5b50610260611148565b3480156104df57600080fd5b506102c56104ee366004613078565b611157565b61023d610501366004612de7565b611162565b34801561051257600080fd5b506102c561052136600461319a565b611294565b34801561053257600080fd5b506102c5610541366004613201565b6112ab565b34801561055257600080fd5b50610260610561366004612d3e565b6112d2565b61023d610574366004613201565b611347565b61030f610587366004613201565b61136c565b34801561059857600080fd5b506101f26105a7366004613235565b611380565b3480156105b857600080fd5b5061023d6113ae565b60006001600160e01b031982166365016f0960e11b14806105e657506105e6826113bd565b92915050565b6060600080546105fb9061325f565b80601f01602080910402602001604051908101604052809291908181526020018280546106279061325f565b80156106745780601f1061064957610100808354040283529160200191610674565b820191906000526020600020905b81548152906001019060200180831161065757829003601f168201915b5050505050905090565b6000610689826113e2565b506000828152600460205260409020546001600160a01b03166105e6565b6106b282823361141b565b5050565b6001600160a01b0382166106e557604051633250574960e11b8152600060048201526024015b60405180910390fd5b60006106f2838333611428565b9050836001600160a01b0316816001600160a01b031614610740576040516364283d7b60e01b81526001600160a01b03808616600483015260248201849052821660448201526064016106dc565b50505050565b60606107506114f5565b600061093261091e6040518060a0016040528060678152602001613d776067913980519060200120866000013573__$6c61c5cc6e1093b0f32cad1abb45f40f23$__6333983acb8980602001906107a79190613293565b6040518363ffffffff1660e01b81526004016107c49291906132e3565b602060405180830381865af41580156107e1573d6000803e3d6000fd5b505050506040513d601f19601f82011682018060405250810190610805919061332f565b73__$6c61c5cc6e1093b0f32cad1abb45f40f23$__639e22d70d61082c60408c018c613293565b6040518363ffffffff1660e01b81526004016108499291906133b6565b602060405180830381865af4158015610866573d6000803e3d6000fd5b505050506040513d601f19601f8201168201806040525081019061088a919061332f565b600e600061089b60208c018c612cc0565b6001600160a01b03168152602081019190915260400160009081208054916108c283613432565b91905055896080013560405160200161090396959493929190958652602086019490945260408501929092526060840152608083015260a082015260c00190565b6040516020818303038152906040528051906020012061151f565b61092d3686900386018661344b565b61154c565b90506001600160a01b03811661094b6020850185612cc0565b6001600160a01b03161461097257604051630e751dc360e31b815260040160405180910390fd5b610988846109836020860186612cc0565b6115e4565b9150506105e66001600c55565b6109c06040518060800160405280606081526020016000815260200160008152602001606081525090565b6000828152600f6020526040908190208151608081019092528054829082906109e89061325f565b80601f0160208091040260200160405190810160405280929190818152602001828054610a149061325f565b8015610a615780601f10610a3657610100808354040283529160200191610a61565b820191906000526020600020905b815481529060010190602001808311610a4457829003601f168201915b50505050508152602001600182015481526020016002820154815260200160038201805480602002602001604051908101604052809291908181526020018280548015610ad757602002820191906000526020600020905b81546001600160a01b03168152600190910190602001808311610ab9575b5050505050815250509050919050565b6000610af2836110ba565b8210610b235760405163295f44f760e21b81526001600160a01b0384166004820152602481018390526044016106dc565b506001600160a01b03919091166000908152600660209081526040808320938352929052205490565b6000818152600f60205260408120600201546105e6906110af565b600080610bfc61091e6040518060600160405280603c8152602001613d3b603c91398051906020012086600e6000886000016020810190610ba89190612cc0565b6001600160a01b0316815260208101919091526040016000908120805491610bcf83613432565b9091555060408051602081019490945283019190915260608201526080808701359082015260a001610903565b90506001600160a01b038116610c156020850185612cc0565b6001600160a01b031614610c3c57604051630e751dc360e31b815260040160405180910390fd5b610c5284610c4d6020860186612cc0565b61196b565b949350505050565b60006105e6823361196b565b610c8183838360405180602001604052806000815250611294565b505050565b6000610c9160085490565b8210610cba5760405163295f44f760e21b815260006004820152602481018390526044016106dc565b60088281548110610ccd57610ccd6134d0565b90600052602060002001549050919050565b610d186040518060c001604052806060815260200160608152602001600081526020016000815260200160008152602001606081525090565b6000828152600f602052604081208054829190610d349061325f565b80601f0160208091040260200160405190810160405280929190818152602001828054610d609061325f565b8015610dad5780601f10610d8257610100808354040283529160200191610dad565b820191906000526020600020905b815481529060010190602001808311610d9057829003601f168201915b5050505050806020019051810190610dc59190613536565b6040805160c08101825283815260208082018490526000898152600f8083528482206001810154858701528b83526010845285832054606086015260028101546080860152918b905282526003018054845181840281018401909552808552959750939550909360a085019391830182828015610e6b57602002820191906000526020600020905b81546001600160a01b03168152600190910190602001808311610e4d575b505050505081525092505050919050565b610e846114f5565b60006110466110376040518060a00160405280606b8152602001613cd0606b913980519060200120856000013573__$6c61c5cc6e1093b0f32cad1abb45f40f23$__6333983acb888060200190610edb9190613293565b6040518363ffffffff1660e01b8152600401610ef89291906132e3565b602060405180830381865af4158015610f15573d6000803e3d6000fd5b505050506040513d601f19601f82011682018060405250810190610f39919061332f565b73__$6c61c5cc6e1093b0f32cad1abb45f40f23$__639e22d70d610f6060408b018b613293565b6040518363ffffffff1660e01b8152600401610f7d9291906133b6565b602060405180830381865af4158015610f9a573d6000803e3d6000fd5b505050506040513d601f19601f82011682018060405250810190610fbe919061332f565b600e6000610fcf60208b018b612cc0565b6001600160a01b0316815260208101919091526040016000908120805491610ff683613432565b91905055886080013560405160200161090396959493929190958652602086019490945260408501929092526060840152608083015260a082015260c00190565b61092d3685900385018561344b565b90506001600160a01b03811661105f6020840184612cc0565b6001600160a01b03161461108657604051630e751dc360e31b815260040160405180910390fd5b6110a46110928461369d565b61109f6020850185612cc0565b611a49565b506106b26001600c55565b60006105e6826113e2565b60006001600160a01b0382166110e6576040516322718ad960e21b8152600060048201526024016106dc565b506001600160a01b031660009081526003602052604090205490565b600060608060008060006060611116611c66565b61111e611c93565b60408051600080825260208201909252600f60f81b9b939a50919850469750309650945092509050565b6060600180546105fb9061325f565b6106b2338383611cc0565b600061116c6114f5565b600061123e61091e6040518060a0016040528060638152602001613c6d60639139805160209091012073__$6c61c5cc6e1093b0f32cad1abb45f40f23$__638d849f436111b98980613713565b6040518363ffffffff1660e01b81526004016111d6929190613759565b602060405180830381865af41580156111f3573d6000803e3d6000fd5b505050506040513d601f19601f82011682018060405250810190611217919061332f565b73__$6c61c5cc6e1093b0f32cad1abb45f40f23$__6333983acb6107a760208b018b613293565b90506001600160a01b0381166112576020850185612cc0565b6001600160a01b03161461127e57604051630e751dc360e31b815260040160405180910390fd5b6109888461128f6020860186612cc0565b611d5f565b61129f8484846106b6565b61074084848484612098565b6112b36114f5565b6112c56112bf8261369d565b33611a49565b6112cf6001600c55565b50565b60606112dd826113e2565b5060006112f560408051602081019091526000815290565b905060008151116113155760405180602001604052806000815250611340565b8061131f846121c1565b60405160200161133092919061376d565b6040516020818303038152906040525b9392505050565b60006113516114f5565b61135b8233611d5f565b90506113676001600c55565b919050565b60606113766114f5565b61135b82336115e4565b6001600160a01b03918216600090815260056020908152604080832093909416825291909152205460ff1690565b60006113b8612253565b905090565b60006001600160e01b0319821663780e9d6360e01b14806105e657506105e68261237e565b6000818152600260205260408120546001600160a01b0316806105e657604051637e27328960e01b8152600481018490526024016106dc565b610c8183838360016123ce565b6000806114368585856124d4565b90506001600160a01b0381166114935761148e84600880546000838152600960205260408120829055600182018355919091527ff3f7a9fe364faab93b216da50a3214154f22a0a2b415b23a84c8169e8b636ee30155565b6114b6565b846001600160a01b0316816001600160a01b0316146114b6576114b681856125cd565b6001600160a01b0385166114d2576114cd8461265e565b610c52565b846001600160a01b0316816001600160a01b031614610c5257610c52858561270d565b6002600c540361151857604051633ee5aeb560e01b815260040160405180910390fd5b6002600c55565b60006105e661152c612253565b8360405161190160f01b8152600281019290925260228201526042902090565b6000428260800151101561157357604051630819bdcd60e01b815260040160405180910390fd5b602080830151604080850151606080870151835160008082529681018086528a905260ff90951693850193909352830152608082015260019060a0016020604051602081039080840390855afa1580156115d1573d6000803e3d6000fd5b5050604051601f19015195945050505050565b60606115f36040840184613293565b90506116026020850185613293565b905014611622576040516318c2d3e960e31b815260040160405180910390fd5b60005b6116326020850185613293565b905081101561171a576000805b85356000908152600f60205260409020600301548110156116ea5785356000908152600f6020526040902060030180548290811061167f5761167f6134d0565b600091825260209182902001546001600160a01b0316906116a290880188613293565b858181106116b2576116b26134d0565b90506020020160208101906116c79190612cc0565b6001600160a01b0316036116da57600191505b6116e381613432565b905061163f565b508061170957604051632b52c85160e21b815260040160405180910390fd5b5061171381613432565b9050611625565b506117286020840184613293565b90506001600160401b03811115611741576117416130af565b60405190808252806020026020018201604052801561177457816020015b606081526020019060019003908161175f5790505b50905060005b6117876020850185613293565b9050811015611903576000806117a06020870187613293565b848181106117b0576117b06134d0565b90506020020160208101906117c59190612cc0565b6001600160a01b03163463ce79d4bd60e01b8835886117e760408c018c613293565b898181106117f7576117f76134d0565b90506020028101906118099190613713565b60405160240161181c949392919061379c565b60408051601f198184030181529181526020820180516001600160e01b03166001600160e01b031990941693909317909252905161185a91906137d1565b60006040518083038185875af1925050503d8060008114611897576040519150601f19603f3d011682016040523d82523d6000602084013e61189c565b606091505b5091509150816118bf5760405163d0a0e22560e01b815260040160405180910390fd5b808060200190518101906118d391906137ed565b8484815181106118e5576118e56134d0565b60200260200101819052505050806118fc90613432565b905061177a565b506001600160a01b03821683357f8f7df4b117f95d3eb363b9748409ed3e2278f6683efbf8f05304a62802dd578561193e6020870187613293565b61194b6040890189613293565b8760405161195d9594939291906138c1565b60405180910390a392915050565b6000828152601060205260408120544210611999576040516339ee377760e11b815260040160405180910390fd5b60006119a484610b4c565b9050806001600160a01b0316836001600160a01b0316146119d85760405163161d1e4f60e21b815260040160405180910390fd5b60008481526010602052604090819020429081905590517fcd611b2e8e562bc79399dd48d5734b37317481ba06381787fb9fc6a7ca032d9591611a3891879187919283526001600160a01b03919091166020830152604082015260600190565b60405180910390a150429392505050565b8151611a55908261275d565b611a628260200151612797565b81604001515182602001515114611a8c576040516318c2d3e960e31b815260040160405180910390fd5b60005b826020015151811015611c1c57600f60008460000151815260200190815260200160002060030183602001518281518110611acc57611acc6134d0565b602090810291909101810151825460018101845560009384528284200180546001600160a01b0319166001600160a01b03909216919091179055840151805183908110611b1b57611b1b6134d0565b60200260200101516001600160a01b03163463db86aeea60e01b866000015187604001518681518110611b5057611b506134d0565b6020026020010151604051602401611b69929190613908565b60408051601f198184030181529181526020820180516001600160e01b03166001600160e01b0319909416939093179092529051611ba791906137d1565b60006040518083038185875af1925050503d8060008114611be4576040519150601f19603f3d011682016040523d82523d6000602084013e611be9565b606091505b5050905080611c0b5760405163d840c6d960e01b815260040160405180910390fd5b50611c1581613432565b9050611a8f565b5081600001517e67ace43f65e366bebbd59b5a6037e773324300314768487976539a2c5e78f483602001518460400151604051611c5a929190613921565b60405180910390a25050565b60606113b87f0000000000000000000000000000000000000000000000000000000000000000600a61285d565b60606113b87f0000000000000000000000000000000000000000000000000000000000000000600b61285d565b6001600160a01b038216611cf257604051630b61174360e31b81526001600160a01b03831660048201526024016106dc565b6001600160a01b03838116600081815260056020908152604080832094871680845294825291829020805460ff191686151590811790915591519182527f17307eab39ab6107e8899845ad3d59bd9653f200f220920489ca2b5937696c31910160405180910390a3505050565b6000611da8611d716020850185613293565b8080602002602001604051908101604052809392919081815260200183836020028082843760009201919091525061279792505050565b6000611dbc611db685613946565b84612908565b90506000611dc98461293f565b604080516080810190915290915080611de28780613713565b8080601f0160208091040260200160405190810160405280939291908181526020018383808284376000920191909152505050908252504260208083019190915260408201849052606090910190611e3c90880188613293565b808060200260200160405190810160405280939291908181526020018383602002808284376000920182905250939094525050848152600f6020526040902082519091508190611e8c90826139e7565b5060208281015160018301556040830151600283015560608301518051611eb99260038501920190612bfc565b5090505060005b611ecd6020870187613293565b9050811015612011576000611ee56020880188613293565b83818110611ef557611ef56134d0565b9050602002016020810190611f0a9190612cc0565b6001600160a01b031634636dc3577560e11b86611f2a60408c018c613293565b87818110611f3a57611f3a6134d0565b9050602002810190611f4c9190613713565b604051602401611f5e93929190613aa6565b60408051601f198184030181529181526020820180516001600160e01b03166001600160e01b0319909416939093179092529051611f9c91906137d1565b60006040518083038185875af1925050503d8060008114611fd9576040519150601f19603f3d011682016040523d82523d6000602084013e611fde565b606091505b50509050806120005760405163d840c6d960e01b815260040160405180910390fd5b5061200a81613432565b9050611ec0565b5060008281526010602052604090206000199055806001600160a01b038516837f45ff2dc7a23296f7ea55f07fb8515e3c2ca670971f67abdf03657cc929ed475c61205c8980613713565b61206960208c018c613293565b61207660408e018e613293565b60405161208896959493929190613ac0565b60405180910390a4509392505050565b6001600160a01b0383163b1561074057604051630a85bd0160e11b81526001600160a01b0384169063150b7a02906120da903390889087908790600401613b09565b6020604051808303816000875af1925050508015612115575060408051601f3d908101601f1916820190925261211291810190613b3c565b60015b61217e573d808015612143576040519150601f19603f3d011682016040523d82523d6000602084013e612148565b606091505b50805160000361217657604051633250574960e11b81526001600160a01b03851660048201526024016106dc565b805181602001fd5b6001600160e01b03198116630a85bd0160e11b146121ba57604051633250574960e11b81526001600160a01b03851660048201526024016106dc565b5050505050565b606060006121ce83612960565b60010190506000816001600160401b038111156121ed576121ed6130af565b6040519080825280601f01601f191660200182016040528015612217576020820181803683370190505b5090508181016020015b600019016f181899199a1a9b1b9c1cb0b131b232b360811b600a86061a8153600a850494508461222157509392505050565b6000306001600160a01b037f0000000000000000000000000000000000000000000000000000000000000000161480156122ac57507f000000000000000000000000000000000000000000000000000000000000000046145b156122d657507f000000000000000000000000000000000000000000000000000000000000000090565b6113b8604080517f8b73c3c69bb8fe3d512ecc4cf759cc79239f7b179b0ffacaa9a75d522b39400f60208201527f0000000000000000000000000000000000000000000000000000000000000000918101919091527f000000000000000000000000000000000000000000000000000000000000000060608201524660808201523060a082015260009060c00160405160208183030381529060405280519060200120905090565b60006001600160e01b031982166380ac58cd60e01b14806123af57506001600160e01b03198216635b5e139f60e01b145b806105e657506301ffc9a760e01b6001600160e01b03198316146105e6565b80806123e257506001600160a01b03821615155b156124a45760006123f2846113e2565b90506001600160a01b0383161580159061241e5750826001600160a01b0316816001600160a01b031614155b8015612431575061242f8184611380565b155b1561245a5760405163a9fbf51f60e01b81526001600160a01b03841660048201526024016106dc565b81156124a25783856001600160a01b0316826001600160a01b03167f8c5be1e5ebec7d5bd14f71427d1e84f3dd0314c0f7b2291e5b200ac8c7c3b92560405160405180910390a45b505b5050600090815260046020526040902080546001600160a01b0319166001600160a01b0392909216919091179055565b6000828152600260205260408120546001600160a01b039081169083161561250157612501818486612a38565b6001600160a01b0381161561253f5761251e6000856000806123ce565b6001600160a01b038116600090815260036020526040902080546000190190555b6001600160a01b0385161561256e576001600160a01b0385166000908152600360205260409020805460010190555b60008481526002602052604080822080546001600160a01b0319166001600160a01b0389811691821790925591518793918516917fddf252ad1be2c89b69c2b068fc378daa952ba7f163c4a11628f55a4df523b3ef91a4949350505050565b60006125d8836110ba565b60008381526007602052604090205490915080821461262b576001600160a01b03841660009081526006602090815260408083208584528252808320548484528184208190558352600790915290208190555b5060009182526007602090815260408084208490556001600160a01b039094168352600681528383209183525290812055565b60085460009061267090600190613b59565b60008381526009602052604081205460088054939450909284908110612698576126986134d0565b9060005260206000200154905080600883815481106126b9576126b96134d0565b60009182526020808320909101929092558281526009909152604080822084905585825281205560088054806126f1576126f1613b6c565b6001900381819060005260206000200160009055905550505050565b6000600161271a846110ba565b6127249190613b59565b6001600160a01b039093166000908152600660209081526040808320868452825280832085905593825260079052919091209190915550565b806001600160a01b031661277083610b4c565b6001600160a01b0316146106b257604051637d387f3960e01b815260040160405180910390fd5b60005b81518110156106b2578181815181106127b5576127b56134d0565b60209081029190910101516040516301ffc9a760e01b8152631066d55960e11b60048201526001600160a01b03909116906301ffc9a790602401602060405180830381865afa15801561280c573d6000803e3d6000fd5b505050506040513d601f19601f820116820180604052508101906128309190613b82565b61284d5760405163251cb21f60e01b815260040160405180910390fd5b61285681613432565b905061279a565b606060ff83146128775761287083612a9c565b90506105e6565b8180546128839061325f565b80601f01602080910402602001604051908101604052809291908181526020018280546128af9061325f565b80156128fc5780601f106128d1576101008083540402835291602001916128fc565b820191906000526020600020905b8154815290600101906020018083116128df57829003601f168201915b505050505090506105e6565b6000828230426040516020016129219493929190613b9f565b60405160208183030381529060405280519060200120905092915050565b600d8054906113679083908390600061295783613432565b91905055612adb565b60008072184f03e93ff9f4daa797ed6e38ed64bf6a1f0160401b831061299f5772184f03e93ff9f4daa797ed6e38ed64bf6a1f0160401b830492506040015b6d04ee2d6d415b85acef810000000083106129cb576d04ee2d6d415b85acef8100000000830492506020015b662386f26fc1000083106129e957662386f26fc10000830492506010015b6305f5e1008310612a01576305f5e100830492506008015b6127108310612a1557612710830492506004015b60648310612a27576064830492506002015b600a83106105e65760010192915050565b612a43838383612af5565b610c81576001600160a01b038316612a7157604051637e27328960e01b8152600481018290526024016106dc565b60405163177e802f60e01b81526001600160a01b0383166004820152602481018290526044016106dc565b60606000612aa983612b58565b604080516020808252818301909252919250600091906020820181803683375050509182525060208101929092525090565b6106b2828260405180602001604052806000815250612b80565b60006001600160a01b03831615801590610c525750826001600160a01b0316846001600160a01b03161480612b2f5750612b2f8484611380565b80610c525750506000908152600460205260409020546001600160a01b03908116911614919050565b600060ff8216601f8111156105e657604051632cd44ac360e21b815260040160405180910390fd5b612b8a8383612b97565b610c816000848484612098565b6001600160a01b038216612bc157604051633250574960e11b8152600060048201526024016106dc565b6000612bcf83836000611428565b90506001600160a01b03811615610c81576040516339e3563760e11b8152600060048201526024016106dc565b828054828255906000526020600020908101928215612c51579160200282015b82811115612c5157825182546001600160a01b0319166001600160a01b03909116178255602090920191600190910190612c1c565b50612c5d929150612c61565b5090565b5b80821115612c5d5760008155600101612c62565b6001600160e01b0319811681146112cf57600080fd5b600060208284031215612c9e57600080fd5b813561134081612c76565b80356001600160a01b038116811461136757600080fd5b600060208284031215612cd257600080fd5b61134082612ca9565b60005b83811015612cf6578181015183820152602001612cde565b50506000910152565b60008151808452612d17816020860160208601612cdb565b601f01601f19169290920160200192915050565b6020815260006113406020830184612cff565b600060208284031215612d5057600080fd5b5035919050565b60008060408385031215612d6a57600080fd5b612d7383612ca9565b946020939093013593505050565b600080600060608486031215612d9657600080fd5b612d9f84612ca9565b9250612dad60208501612ca9565b9150604084013590509250925092565b600060608284031215612dcf57600080fd5b50919050565b600060a08284031215612dcf57600080fd5b60008060c08385031215612dfa57600080fd5b82356001600160401b03811115612e1057600080fd5b612e1c85828601612dbd565b925050612e2c8460208501612dd5565b90509250929050565b600082825180855260208086019550808260051b84010181860160005b84811015612e8057601f19868403018952612e6e838351612cff565b98840198925090830190600101612e52565b5090979650505050505050565b6020815260006113406020830184612e35565b600081518084526020808501945080840160005b83811015612ed95781516001600160a01b031687529582019590820190600101612eb4565b509495945050505050565b602081526000825160806020840152612f0060a0840182612cff565b905060208401516040840152604084015160608401526060840151601f19848303016080850152612f318282612ea0565b95945050505050565b60008060c08385031215612f4d57600080fd5b82359150612e2c8460208501612dd5565b602081526000825160c06020840152612f7a60e0840182612cff565b90506020840151601f1980858403016040860152612f988383612cff565b92506040860151606086015260608601516080860152608086015160a086015260a08601519150808584030160c086015250612f318282612ea0565b60ff60f81b881681526000602060e081840152612ff460e084018a612cff565b8381036040850152613006818a612cff565b606085018990526001600160a01b038816608086015260a0850187905284810360c0860152855180825283870192509083019060005b818110156130585783518352928401929184019160010161303c565b50909c9b505050505050505050505050565b80151581146112cf57600080fd5b6000806040838503121561308b57600080fd5b61309483612ca9565b915060208301356130a48161306a565b809150509250929050565b634e487b7160e01b600052604160045260246000fd5b604051606081016001600160401b03811182821017156130e7576130e76130af565b60405290565b604051601f8201601f191681016001600160401b0381118282101715613115576131156130af565b604052919050565b60006001600160401b03821115613136576131366130af565b50601f01601f191660200190565b600082601f83011261315557600080fd5b81356131686131638261311d565b6130ed565b81815284602083860101111561317d57600080fd5b816020850160208301376000918101602001919091529392505050565b600080600080608085870312156131b057600080fd5b6131b985612ca9565b93506131c760208601612ca9565b92506040850135915060608501356001600160401b038111156131e957600080fd5b6131f587828801613144565b91505092959194509250565b60006020828403121561321357600080fd5b81356001600160401b0381111561322957600080fd5b610c5284828501612dbd565b6000806040838503121561324857600080fd5b61325183612ca9565b9150612e2c60208401612ca9565b600181811c9082168061327357607f821691505b602082108103612dcf57634e487b7160e01b600052602260045260246000fd5b6000808335601e198436030181126132aa57600080fd5b8301803591506001600160401b038211156132c457600080fd5b6020019150600581901b36038213156132dc57600080fd5b9250929050565b60208082528181018390526000908460408401835b86811015613324576001600160a01b0361331184612ca9565b16825291830191908301906001016132f8565b509695505050505050565b60006020828403121561334157600080fd5b5051919050565b81835281816020850137506000828201602090810191909152601f909101601f19169091010190565b6000808335601e1984360301811261338857600080fd5b83016020810192503590506001600160401b038111156133a757600080fd5b8036038213156132dc57600080fd5b60208082528181018390526000906040600585901b8401810190840186845b8781101561340f57868403603f190183526133f0828a613371565b6133fb868284613348565b9550505091840191908401906001016133d5565b5091979650505050505050565b634e487b7160e01b600052601160045260246000fd5b6000600182016134445761344461341c565b5060010190565b600060a0828403121561345d57600080fd5b60405160a081018181106001600160401b038211171561347f5761347f6130af565b60405261348b83612ca9565b8152602083013560ff811681146134a157600080fd5b806020830152506040830135604082015260608301356060820152608083013560808201528091505092915050565b634e487b7160e01b600052603260045260246000fd5b60006134f46131638461311d565b905082815283838301111561350857600080fd5b611340836020830184612cdb565b600082601f83011261352757600080fd5b611340838351602085016134e6565b6000806040838503121561354957600080fd5b82516001600160401b038082111561356057600080fd5b61356c86838701613516565b9350602085015191508082111561358257600080fd5b5061358f85828601613516565b9150509250929050565b60006001600160401b038211156135b2576135b26130af565b5060051b60200190565b600082601f8301126135cd57600080fd5b813560206135dd61316383613599565b82815260059290921b840181019181810190868411156135fc57600080fd5b8286015b848110156133245761361181612ca9565b8352918301918301613600565b600082601f83011261362f57600080fd5b8135602061363f61316383613599565b82815260059290921b8401810191818101908684111561365e57600080fd5b8286015b848110156133245780356001600160401b038111156136815760008081fd5b61368f8986838b0101613144565b845250918301918301613662565b6000606082360312156136af57600080fd5b6136b76130c5565b8235815260208301356001600160401b03808211156136d557600080fd5b6136e1368387016135bc565b602084015260408501359150808211156136fa57600080fd5b506137073682860161361e565b60408301525092915050565b6000808335601e1984360301811261372a57600080fd5b8301803591506001600160401b0382111561374457600080fd5b6020019150368190038213156132dc57600080fd5b602081526000610c52602083018486613348565b6000835161377f818460208801612cdb565b835190830190613793818360208801612cdb565b01949350505050565b8481526001600160a01b03841660208201526060604082018190526000906137c79083018486613348565b9695505050505050565b600082516137e3818460208701612cdb565b9190910192915050565b6000602082840312156137ff57600080fd5b81516001600160401b0381111561381557600080fd5b8201601f8101841361382657600080fd5b610c52848251602084016134e6565b8183526000602080850194508260005b85811015612ed9576001600160a01b0361385e83612ca9565b1687529582019590820190600101613845565b81835260006020808501808196508560051b810191508460005b8781101561340f5782840389526138a28288613371565b6138ad868284613348565b9a87019a955050509084019060010161388b565b6060815260006138d5606083018789613835565b82810360208401526138e8818688613871565b905082810360408401526138fc8185612e35565b98975050505050505050565b828152604060208201526000610c526040830184612cff565b6040815260006139346040830185612ea0565b8281036020840152612f318185612e35565b60006060823603121561395857600080fd5b6139606130c5565b82356001600160401b038082111561397757600080fd5b61398336838701613144565b835260208501359150808211156136d557600080fd5b601f821115610c8157600081815260208120601f850160051c810160208610156139c05750805b601f850160051c820191505b818110156139df578281556001016139cc565b505050505050565b81516001600160401b03811115613a0057613a006130af565b613a1481613a0e845461325f565b84613999565b602080601f831160018114613a495760008415613a315750858301515b600019600386901b1c1916600185901b1785556139df565b600085815260208120601f198616915b82811015613a7857888601518255948401946001909101908401613a59565b5085821015613a965787850151600019600388901b60f8161c191681555b5050505050600190811b01905550565b838152604060208201526000612f31604083018486613348565b606081526000613ad460608301888a613348565b8281036020840152613ae7818789613835565b90508281036040840152613afc818587613871565b9998505050505050505050565b6001600160a01b03858116825284166020820152604081018390526080606082018190526000906137c790830184612cff565b600060208284031215613b4e57600080fd5b815161134081612c76565b818103818111156105e6576105e661341c565b634e487b7160e01b600052603160045260246000fd5b600060208284031215613b9457600080fd5b81516113408161306a565b608081526000855160606080840152613bbb60e0840182612cff565b9050602080880151607f19808685030160a0870152613bda8483612ea0565b60408b015187820390920160c08801528151808252909450908301915082840190600581901b8501840160005b82811015613c3557601f19878303018452613c23828651612cff565b94860194938601939150600101613c07565b506001600160a01b038b16858901529550613c4f92505050565b50506001600160a01b03939093166040820152606001529291505056fe5075626c6973685769746853696728627974657320646174612c616464726573735b5d20616374696f6e732c62797465735b5d20616374696f6e496e697444617461732c75696e74323536206e6f6e63652c75696e7432353620646561646c696e6529416464416374696f6e7357697468536967286279746573333220617373657449642c616464726573735b5d20616374696f6e732c62797465735b5d20616374696f6e496e697444617461732c75696e74323536206e6f6e63652c75696e7432353620646561646c696e6529436c6f736557697468536967286279746573333220617373657449642c75696e74323536206e6f6e63652c75696e7432353620646561646c696e652941637457697468536967286279746573333220617373657449642c616464726573735b5d20616374696f6e732c62797465735b5d20616374696f6e50726f6365737344617461732c75696e74323536206e6f6e63652c75696e7432353620646561646c696e6529a26469706673582212204ce26619ae9fa7556fd7e53a2e8ae29d57cec35dbe09b761f6eec9e21124e93f64736f6c63430008150033",
    "linkReferences": {
      "contracts/libraries/EIP712Encoder.sol": {
        "EIP712Encoder": [
          {
            "start": 3013,
            "length": 20
          },
          {
            "start": 3149,
            "length": 20
          },
          {
            "start": 4857,
            "length": 20
          },
          {
            "start": 4993,
            "length": 20
          },
          {
            "start": 5597,
            "length": 20
          },
          {
            "start": 5727,
            "length": 20
          }
        ]
      }
    }
  },
  "methodIdentifiers": {
    "act((bytes32,address[],bytes[]))": "e03e0163",
    "actWithSig((bytes32,address[],bytes[]),(address,uint8,bytes32,bytes32,uint256))": "26297584",
    "addActions((bytes32,address[],bytes[]))": "c2bb05a7",
    "addActionsWithSig((bytes32,address[],bytes[]),(address,uint8,bytes32,bytes32,uint256))": "5b882006",
    "approve(address,uint256)": "095ea7b3",
    "balanceOf(address)": "70a08231",
    "close(bytes32)": "39c79e0c",
    "closeWithSig(bytes32,(address,uint8,bytes32,bytes32,uint256))": "38fb1c1c",
    "eip712Domain()": "84b0196e",
    "getApproved(uint256)": "081812fc",
    "getAsset(bytes32)": "2cc3ce80",
    "getAssetOwner(bytes32)": "35d8c2b7",
    "getDomainSeparator()": "ed24911d",
    "getSigNonce(address)": "05ac0ab4",
    "getUnionAsset(bytes32)": "570fed0f",
    "isApprovedForAll(address,address)": "e985e9c5",
    "name()": "06fdde03",
    "ownerOf(uint256)": "6352211e",
    "publish((bytes,address[],bytes[]))": "c97bdc6a",
    "publishWithSig((bytes,address[],bytes[]),(address,uint8,bytes32,bytes32,uint256))": "adcec4a0",
    "safeTransferFrom(address,address,uint256)": "42842e0e",
    "safeTransferFrom(address,address,uint256,bytes)": "b88d4fde",
    "setApprovalForAll(address,bool)": "a22cb465",
    "supportsInterface(bytes4)": "01ffc9a7",
    "symbol()": "95d89b41",
    "tokenByIndex(uint256)": "4f6ccce7",
    "tokenOfOwnerByIndex(address,uint256)": "2f745c59",
    "tokenURI(uint256)": "c87b56dd",
    "totalSupply()": "18160ddd",
    "transferFrom(address,address,uint256)": "23b872dd"
  },
  "id": 10
}