{
  "abi": [
    {
      "inputs": [
        {
          "internalType": "address",
          "name": "dappTableRegistry",
          "type": "address"
        }
      ],
      "stateMutability": "nonpayable",
      "type": "constructor"
    },
    {
      "inputs": [],
      "name": "ActionInvalid",
      "type": "error"
    },
    {
      "inputs": [],
      "name": "ActionNotExists",
      "type": "error"
    },
    {
      "inputs": [],
      "name": "ArrayLengthNotEqual",
      "type": "error"
    },
    {
      "inputs": [],
      "name": "DuplicatePublish",
      "type": "error"
    },
    {
      "inputs": [],
      "name": "InvalidShortString",
      "type": "error"
    },
    {
      "inputs": [],
      "name": "NotUnionOwner",
      "type": "error"
    },
    {
      "inputs": [],
      "name": "ResourceNotExists",
      "type": "error"
    },
    {
      "inputs": [],
      "name": "SignatureExpired",
      "type": "error"
    },
    {
      "inputs": [],
      "name": "SignatureMismatch",
      "type": "error"
    },
    {
      "inputs": [
        {
          "internalType": "string",
          "name": "str",
          "type": "string"
        }
      ],
      "name": "StringTooLong",
      "type": "error"
    },
    {
      "inputs": [],
      "name": "UnionAlreadyClosed",
      "type": "error"
    },
    {
      "anonymous": false,
      "inputs": [
        {
          "indexed": true,
          "internalType": "address",
          "name": "owner",
          "type": "address"
        },
        {
          "indexed": true,
          "internalType": "address",
          "name": "approved",
          "type": "address"
        },
        {
          "indexed": true,
          "internalType": "uint256",
          "name": "tokenId",
          "type": "uint256"
        }
      ],
      "name": "Approval",
      "type": "event"
    },
    {
      "anonymous": false,
      "inputs": [
        {
          "indexed": true,
          "internalType": "address",
          "name": "owner",
          "type": "address"
        },
        {
          "indexed": true,
          "internalType": "address",
          "name": "operator",
          "type": "address"
        },
        {
          "indexed": false,
          "internalType": "bool",
          "name": "approved",
          "type": "bool"
        }
      ],
      "name": "ApprovalForAll",
      "type": "event"
    },
    {
      "anonymous": false,
      "inputs": [
        {
          "indexed": true,
          "internalType": "bytes32",
          "name": "assetId",
          "type": "bytes32"
        },
        {
          "indexed": true,
          "internalType": "address",
          "name": "actor",
          "type": "address"
        },
        {
          "indexed": false,
          "internalType": "address[]",
          "name": "actions",
          "type": "address[]"
        },
        {
          "indexed": false,
          "internalType": "bytes[]",
          "name": "actionProcessDatas",
          "type": "bytes[]"
        },
        {
          "indexed": false,
          "internalType": "bytes[]",
          "name": "actionReturnDatas",
          "type": "bytes[]"
        }
      ],
      "name": "AssetActed",
      "type": "event"
    },
    {
      "anonymous": false,
      "inputs": [
        {
          "indexed": true,
          "internalType": "bytes32",
          "name": "assetId",
          "type": "bytes32"
        },
        {
          "indexed": true,
          "internalType": "address",
          "name": "publisher",
          "type": "address"
        },
        {
          "indexed": false,
          "internalType": "string",
          "name": "resourceId",
          "type": "string"
        },
        {
          "indexed": false,
          "internalType": "bytes",
          "name": "data",
          "type": "bytes"
        },
        {
          "indexed": false,
          "internalType": "address[]",
          "name": "actions",
          "type": "address[]"
        },
        {
          "indexed": false,
          "internalType": "bytes[]",
          "name": "actionInitDatas",
          "type": "bytes[]"
        },
        {
          "indexed": false,
          "internalType": "bytes32[]",
          "name": "images",
          "type": "bytes32[]"
        }
      ],
      "name": "AssetPublished",
      "type": "event"
    },
    {
      "anonymous": false,
      "inputs": [],
      "name": "EIP712DomainChanged",
      "type": "event"
    },
    {
      "anonymous": false,
      "inputs": [
        {
          "indexed": true,
          "internalType": "address",
          "name": "from",
          "type": "address"
        },
        {
          "indexed": true,
          "internalType": "address",
          "name": "to",
          "type": "address"
        },
        {
          "indexed": true,
          "internalType": "uint256",
          "name": "tokenId",
          "type": "uint256"
        }
      ],
      "name": "Transfer",
      "type": "event"
    },
    {
      "anonymous": false,
      "inputs": [
        {
          "indexed": false,
          "internalType": "bytes32",
          "name": "assetId",
          "type": "bytes32"
        },
        {
          "indexed": false,
          "internalType": "address",
          "name": "operator",
          "type": "address"
        },
        {
          "indexed": false,
          "internalType": "uint256",
          "name": "closeAt",
          "type": "uint256"
        }
      ],
      "name": "UnionClosed",
      "type": "event"
    },
    {
      "inputs": [],
      "name": "DAPP_TABLE_REGISTRY",
      "outputs": [
        {
          "internalType": "contract IDappTableRegistry",
          "name": "",
          "type": "address"
        }
      ],
      "stateMutability": "view",
      "type": "function"
    },
    {
      "inputs": [
        {
          "components": [
            {
              "internalType": "bytes32",
              "name": "assetId",
              "type": "bytes32"
            },
            {
              "internalType": "address[]",
              "name": "actions",
              "type": "address[]"
            },
            {
              "internalType": "bytes[]",
              "name": "actionProcessDatas",
              "type": "bytes[]"
            }
          ],
          "internalType": "struct IDataMonetizer.ActParams",
          "name": "actParams",
          "type": "tuple"
        }
      ],
      "name": "act",
      "outputs": [
        {
          "internalType": "bytes[]",
          "name": "",
          "type": "bytes[]"
        }
      ],
      "stateMutability": "nonpayable",
      "type": "function"
    },
    {
      "inputs": [
        {
          "components": [
            {
              "internalType": "bytes32",
              "name": "assetId",
              "type": "bytes32"
            },
            {
              "internalType": "address[]",
              "name": "actions",
              "type": "address[]"
            },
            {
              "internalType": "bytes[]",
              "name": "actionProcessDatas",
              "type": "bytes[]"
            }
          ],
          "internalType": "struct IDataMonetizer.ActParams",
          "name": "actParams",
          "type": "tuple"
        },
        {
          "components": [
            {
              "internalType": "address",
              "name": "signer",
              "type": "address"
            },
            {
              "internalType": "uint8",
              "name": "v",
              "type": "uint8"
            },
            {
              "internalType": "bytes32",
              "name": "r",
              "type": "bytes32"
            },
            {
              "internalType": "bytes32",
              "name": "s",
              "type": "bytes32"
            },
            {
              "internalType": "uint256",
              "name": "deadline",
              "type": "uint256"
            }
          ],
          "internalType": "struct IDataMonetizer.EIP712Signature",
          "name": "signature",
          "type": "tuple"
        }
      ],
      "name": "actWithSig",
      "outputs": [
        {
          "internalType": "bytes[]",
          "name": "",
          "type": "bytes[]"
        }
      ],
      "stateMutability": "nonpayable",
      "type": "function"
    },
    {
      "inputs": [
        {
          "internalType": "address",
          "name": "to",
          "type": "address"
        },
        {
          "internalType": "uint256",
          "name": "tokenId",
          "type": "uint256"
        }
      ],
      "name": "approve",
      "outputs": [],
      "stateMutability": "nonpayable",
      "type": "function"
    },
    {
      "inputs": [
        {
          "internalType": "address",
          "name": "owner",
          "type": "address"
        }
      ],
      "name": "balanceOf",
      "outputs": [
        {
          "internalType": "uint256",
          "name": "",
          "type": "uint256"
        }
      ],
      "stateMutability": "view",
      "type": "function"
    },
    {
      "inputs": [
        {
          "internalType": "bytes32",
          "name": "assetId",
          "type": "bytes32"
        }
      ],
      "name": "close",
      "outputs": [
        {
          "internalType": "uint256",
          "name": "",
          "type": "uint256"
        }
      ],
      "stateMutability": "nonpayable",
      "type": "function"
    },
    {
      "inputs": [
        {
          "internalType": "bytes32",
          "name": "assetId",
          "type": "bytes32"
        },
        {
          "components": [
            {
              "internalType": "address",
              "name": "signer",
              "type": "address"
            },
            {
              "internalType": "uint8",
              "name": "v",
              "type": "uint8"
            },
            {
              "internalType": "bytes32",
              "name": "r",
              "type": "bytes32"
            },
            {
              "internalType": "bytes32",
              "name": "s",
              "type": "bytes32"
            },
            {
              "internalType": "uint256",
              "name": "deadline",
              "type": "uint256"
            }
          ],
          "internalType": "struct IDataMonetizer.EIP712Signature",
          "name": "signature",
          "type": "tuple"
        }
      ],
      "name": "closeWithSig",
      "outputs": [
        {
          "internalType": "uint256",
          "name": "",
          "type": "uint256"
        }
      ],
      "stateMutability": "nonpayable",
      "type": "function"
    },
    {
      "inputs": [],
      "name": "eip712Domain",
      "outputs": [
        {
          "internalType": "bytes1",
          "name": "fields",
          "type": "bytes1"
        },
        {
          "internalType": "string",
          "name": "name",
          "type": "string"
        },
        {
          "internalType": "string",
          "name": "version",
          "type": "string"
        },
        {
          "internalType": "uint256",
          "name": "chainId",
          "type": "uint256"
        },
        {
          "internalType": "address",
          "name": "verifyingContract",
          "type": "address"
        },
        {
          "internalType": "bytes32",
          "name": "salt",
          "type": "bytes32"
        },
        {
          "internalType": "uint256[]",
          "name": "extensions",
          "type": "uint256[]"
        }
      ],
      "stateMutability": "view",
      "type": "function"
    },
    {
      "inputs": [
        {
          "internalType": "uint256",
          "name": "tokenId",
          "type": "uint256"
        }
      ],
      "name": "getApproved",
      "outputs": [
        {
          "internalType": "address",
          "name": "",
          "type": "address"
        }
      ],
      "stateMutability": "view",
      "type": "function"
    },
    {
      "inputs": [
        {
          "internalType": "bytes32",
          "name": "assetId",
          "type": "bytes32"
        }
      ],
      "name": "getAsset",
      "outputs": [
        {
          "components": [
            {
              "internalType": "string",
              "name": "resourceId",
              "type": "string"
            },
            {
              "internalType": "bytes",
              "name": "data",
              "type": "bytes"
            },
            {
              "internalType": "uint256",
              "name": "publishAt",
              "type": "uint256"
            },
            {
              "internalType": "uint256",
              "name": "publicationId",
              "type": "uint256"
            },
            {
              "internalType": "address[]",
              "name": "actions",
              "type": "address[]"
            },
            {
              "internalType": "bytes32[]",
              "name": "images",
              "type": "bytes32[]"
            }
          ],
          "internalType": "struct IDataMonetizer.Asset",
          "name": "",
          "type": "tuple"
        }
      ],
      "stateMutability": "view",
      "type": "function"
    },
    {
      "inputs": [
        {
          "internalType": "bytes32",
          "name": "assetId",
          "type": "bytes32"
        }
      ],
      "name": "getAssetOwner",
      "outputs": [
        {
          "internalType": "address",
          "name": "",
          "type": "address"
        }
      ],
      "stateMutability": "view",
      "type": "function"
    },
    {
      "inputs": [],
      "name": "getDomainSeparator",
      "outputs": [
        {
          "internalType": "bytes32",
          "name": "",
          "type": "bytes32"
        }
      ],
      "stateMutability": "view",
      "type": "function"
    },
    {
      "inputs": [
        {
          "internalType": "address",
          "name": "signer",
          "type": "address"
        }
      ],
      "name": "getSigNonce",
      "outputs": [
        {
          "internalType": "uint256",
          "name": "",
          "type": "uint256"
        }
      ],
      "stateMutability": "view",
      "type": "function"
    },
    {
      "inputs": [
        {
          "internalType": "bytes32",
          "name": "assetId",
          "type": "bytes32"
        }
      ],
      "name": "getUnionAsset",
      "outputs": [
        {
          "components": [
            {
              "internalType": "string",
              "name": "resourceId",
              "type": "string"
            },
            {
              "internalType": "uint256",
              "name": "publishAt",
              "type": "uint256"
            },
            {
              "internalType": "uint256",
              "name": "closeAt",
              "type": "uint256"
            },
            {
              "internalType": "uint256",
              "name": "publicationId",
              "type": "uint256"
            },
            {
              "internalType": "address[]",
              "name": "actions",
              "type": "address[]"
            },
            {
              "internalType": "bytes32[]",
              "name": "images",
              "type": "bytes32[]"
            }
          ],
          "internalType": "struct IDataUnion.UnionAsset",
          "name": "",
          "type": "tuple"
        }
      ],
      "stateMutability": "view",
      "type": "function"
    },
    {
      "inputs": [
        {
          "internalType": "address",
          "name": "owner",
          "type": "address"
        },
        {
          "internalType": "address",
          "name": "operator",
          "type": "address"
        }
      ],
      "name": "isApprovedForAll",
      "outputs": [
        {
          "internalType": "bool",
          "name": "",
          "type": "bool"
        }
      ],
      "stateMutability": "view",
      "type": "function"
    },
    {
      "inputs": [],
      "name": "name",
      "outputs": [
        {
          "internalType": "string",
          "name": "",
          "type": "string"
        }
      ],
      "stateMutability": "view",
      "type": "function"
    },
    {
      "inputs": [
        {
          "internalType": "uint256",
          "name": "tokenId",
          "type": "uint256"
        }
      ],
      "name": "ownerOf",
      "outputs": [
        {
          "internalType": "address",
          "name": "",
          "type": "address"
        }
      ],
      "stateMutability": "view",
      "type": "function"
    },
    {
      "inputs": [
        {
          "components": [
            {
              "internalType": "string",
              "name": "resourceId",
              "type": "string"
            },
            {
              "internalType": "bytes",
              "name": "data",
              "type": "bytes"
            },
            {
              "internalType": "address[]",
              "name": "actions",
              "type": "address[]"
            },
            {
              "internalType": "bytes[]",
              "name": "actionInitDatas",
              "type": "bytes[]"
            },
            {
              "internalType": "bytes32[]",
              "name": "images",
              "type": "bytes32[]"
            }
          ],
          "internalType": "struct IDataMonetizer.PublishParams",
          "name": "publishParams",
          "type": "tuple"
        }
      ],
      "name": "publish",
      "outputs": [
        {
          "internalType": "bytes32",
          "name": "",
          "type": "bytes32"
        }
      ],
      "stateMutability": "nonpayable",
      "type": "function"
    },
    {
      "inputs": [
        {
          "components": [
            {
              "internalType": "string",
              "name": "resourceId",
              "type": "string"
            },
            {
              "internalType": "bytes",
              "name": "data",
              "type": "bytes"
            },
            {
              "internalType": "address[]",
              "name": "actions",
              "type": "address[]"
            },
            {
              "internalType": "bytes[]",
              "name": "actionInitDatas",
              "type": "bytes[]"
            },
            {
              "internalType": "bytes32[]",
              "name": "images",
              "type": "bytes32[]"
            }
          ],
          "internalType": "struct IDataMonetizer.PublishParams",
          "name": "publishParams",
          "type": "tuple"
        },
        {
          "components": [
            {
              "internalType": "address",
              "name": "signer",
              "type": "address"
            },
            {
              "internalType": "uint8",
              "name": "v",
              "type": "uint8"
            },
            {
              "internalType": "bytes32",
              "name": "r",
              "type": "bytes32"
            },
            {
              "internalType": "bytes32",
              "name": "s",
              "type": "bytes32"
            },
            {
              "internalType": "uint256",
              "name": "deadline",
              "type": "uint256"
            }
          ],
          "internalType": "struct IDataMonetizer.EIP712Signature",
          "name": "signature",
          "type": "tuple"
        }
      ],
      "name": "publishWithSig",
      "outputs": [
        {
          "internalType": "bytes32",
          "name": "",
          "type": "bytes32"
        }
      ],
      "stateMutability": "nonpayable",
      "type": "function"
    },
    {
      "inputs": [
        {
          "internalType": "address",
          "name": "from",
          "type": "address"
        },
        {
          "internalType": "address",
          "name": "to",
          "type": "address"
        },
        {
          "internalType": "uint256",
          "name": "tokenId",
          "type": "uint256"
        }
      ],
      "name": "safeTransferFrom",
      "outputs": [],
      "stateMutability": "nonpayable",
      "type": "function"
    },
    {
      "inputs": [
        {
          "internalType": "address",
          "name": "from",
          "type": "address"
        },
        {
          "internalType": "address",
          "name": "to",
          "type": "address"
        },
        {
          "internalType": "uint256",
          "name": "tokenId",
          "type": "uint256"
        },
        {
          "internalType": "bytes",
          "name": "data",
          "type": "bytes"
        }
      ],
      "name": "safeTransferFrom",
      "outputs": [],
      "stateMutability": "nonpayable",
      "type": "function"
    },
    {
      "inputs": [
        {
          "internalType": "address",
          "name": "operator",
          "type": "address"
        },
        {
          "internalType": "bool",
          "name": "approved",
          "type": "bool"
        }
      ],
      "name": "setApprovalForAll",
      "outputs": [],
      "stateMutability": "nonpayable",
      "type": "function"
    },
    {
      "inputs": [
        {
          "internalType": "bytes4",
          "name": "interfaceId",
          "type": "bytes4"
        }
      ],
      "name": "supportsInterface",
      "outputs": [
        {
          "internalType": "bool",
          "name": "",
          "type": "bool"
        }
      ],
      "stateMutability": "view",
      "type": "function"
    },
    {
      "inputs": [],
      "name": "symbol",
      "outputs": [
        {
          "internalType": "string",
          "name": "",
          "type": "string"
        }
      ],
      "stateMutability": "view",
      "type": "function"
    },
    {
      "inputs": [
        {
          "internalType": "uint256",
          "name": "index",
          "type": "uint256"
        }
      ],
      "name": "tokenByIndex",
      "outputs": [
        {
          "internalType": "uint256",
          "name": "",
          "type": "uint256"
        }
      ],
      "stateMutability": "view",
      "type": "function"
    },
    {
      "inputs": [
        {
          "internalType": "address",
          "name": "owner",
          "type": "address"
        },
        {
          "internalType": "uint256",
          "name": "index",
          "type": "uint256"
        }
      ],
      "name": "tokenOfOwnerByIndex",
      "outputs": [
        {
          "internalType": "uint256",
          "name": "",
          "type": "uint256"
        }
      ],
      "stateMutability": "view",
      "type": "function"
    },
    {
      "inputs": [
        {
          "internalType": "uint256",
          "name": "tokenId",
          "type": "uint256"
        }
      ],
      "name": "tokenURI",
      "outputs": [
        {
          "internalType": "string",
          "name": "",
          "type": "string"
        }
      ],
      "stateMutability": "view",
      "type": "function"
    },
    {
      "inputs": [],
      "name": "totalSupply",
      "outputs": [
        {
          "internalType": "uint256",
          "name": "",
          "type": "uint256"
        }
      ],
      "stateMutability": "view",
      "type": "function"
    },
    {
      "inputs": [
        {
          "internalType": "address",
          "name": "from",
          "type": "address"
        },
        {
          "internalType": "address",
          "name": "to",
          "type": "address"
        },
        {
          "internalType": "uint256",
          "name": "tokenId",
          "type": "uint256"
        }
      ],
      "name": "transferFrom",
      "outputs": [],
      "stateMutability": "nonpayable",
      "type": "function"
    }
  ],
  "bytecode": {
    "object": "0x6101606040526000600e553480156200001757600080fd5b5060405162004651380380620046518339810160408190526200003a916200024a565b604051806040016040528060098152602001682230ba30aab734b7b760b91b815250604051806040016040528060018152602001603160f81b8152508282826040518060400160405280600f81526020016e141d589b1a58d85d1a5bdb88139195608a1b81525060405180604001604052806002815260200161282760f11b8152508160009081620000cd919062000321565b506001620000dc828262000321565b50620000ee9150839050600a620001c5565b61012052620000ff81600b620001c5565b61014052815160208084019190912060e052815190820120610100524660a0526200018d60e05161010051604080517f8b73c3c69bb8fe3d512ecc4cf759cc79239f7b179b0ffacaa9a75d522b39400f60208201529081019290925260608201524660808201523060a082015260009060c00160405160208183030381529060405280519060200120905090565b60805250503060c0526001600c55600d80546001600160a01b0319166001600160a01b03929092169190911790555062000462915050565b6000602083511015620001e557620001dd83620001fe565b9050620001f8565b81620001f2848262000321565b5060ff90505b92915050565b600080829050601f8151111562000235578260405163305a27a960e01b81526004016200022c9190620003ed565b60405180910390fd5b805162000242826200043d565b179392505050565b6000602082840312156200025d57600080fd5b81516001600160a01b03811681146200027557600080fd5b9392505050565b634e487b7160e01b600052604160045260246000fd5b600181811c90821680620002a757607f821691505b602082108103620002c857634e487b7160e01b600052602260045260246000fd5b50919050565b601f8211156200031c57600081815260208120601f850160051c81016020861015620002f75750805b601f850160051c820191505b81811015620003185782815560010162000303565b5050505b505050565b81516001600160401b038111156200033d576200033d6200027c565b62000355816200034e845462000292565b84620002ce565b602080601f8311600181146200038d5760008415620003745750858301515b600019600386901b1c1916600185901b17855562000318565b600085815260208120601f198616915b82811015620003be578886015182559484019460019091019084016200039d565b5085821015620003dd5787850151600019600388901b60f8161c191681555b5050505050600190811b01905550565b600060208083528351808285015260005b818110156200041c57858101830151858201604001528201620003fe565b506000604082860101526040601f19601f8301168501019250505092915050565b80516020808301519190811015620002c85760001960209190910360031b1b16919050565b60805160a05160c05160e051610100516101205161014051614194620004bd600039600061145e01526000611433015260006124940152600061246c015260006123c7015260006123f10152600061241b01526141946000f3fe608060405234801561001057600080fd5b50600436106101cf5760003560e01c80634f6ccce711610104578063a22cb465116100a2578063d7499c4111610071578063d7499c411461041d578063e03e016314610430578063e985e9c514610443578063ed24911d1461047f57600080fd5b8063a22cb465146103d1578063a9d298b1146103e4578063b88d4fde146103f7578063c87b56dd1461040a57600080fd5b80636352211e116100de5780636352211e1461038857806370a082311461039b57806384b0196e146103ae57806395d89b41146103c957600080fd5b80634f6ccce714610342578063570fed0f146103555780635b01a5521461037557600080fd5b8063262975841161017157806335d8c2b71161014b57806335d8c2b7146102f657806338fb1c1c1461030957806339c79e0c1461031c57806342842e0e1461032f57600080fd5b806326297584146102a35780632cc3ce80146102c35780632f745c59146102e357600080fd5b8063081812fc116101ad578063081812fc14610248578063095ea7b31461027357806318160ddd1461028857806323b872dd1461029057600080fd5b806301ffc9a7146101d457806305ac0ab4146101fc57806306fdde0314610233575b600080fd5b6101e76101e2366004612ea4565b610487565b60405190151581526020015b60405180910390f35b61022561020a366004612ed8565b6001600160a01b03166000908152600f602052604090205490565b6040519081526020016101f3565b61023b6104b2565b6040516101f39190612f43565b61025b610256366004612f56565b610544565b6040516001600160a01b0390911681526020016101f3565b610286610281366004612f6f565b61056b565b005b600854610225565b61028661029e366004612f99565b610685565b6102b66102b1366004612fff565b6106b6565b6040516101f391906130a5565b6102d66102d1366004612f56565b610905565b6040516101f3919061312c565b6102256102f1366004612f6f565b610b4f565b61025b610304366004612f56565b610be5565b6102256103173660046131be565b610c00565b61022561032a366004612f56565b610cf3565b61028661033d366004612f99565b610cff565b610225610350366004612f56565b610d1a565b610368610363366004612f56565b610dad565b6040516101f391906131e2565b61022561038336600461323a565b610f9a565b61025b610396366004612f56565b61133f565b6102256103a9366004612ed8565b61139f565b6103b6611425565b6040516101f3979695949392919061326f565b61023b6114ae565b6102866103df366004613313565b6114bd565b600d5461025b906001600160a01b031681565b610286610405366004613435565b6114cc565b61023b610418366004612f56565b611504565b61022561042b36600461349c565b611578565b6102b661043e3660046134d0565b61159d565b6101e7610451366004613504565b6001600160a01b03918216600090815260056020908152604080832093909416825291909152205460ff1690565b6102256115b1565b60006001600160e01b03198216635de66d3560e11b14806104ac57506104ac826115c0565b92915050565b6060600080546104c19061352e565b80601f01602080910402602001604051908101604052809291908181526020018280546104ed9061352e565b801561053a5780601f1061050f5761010080835404028352916020019161053a565b820191906000526020600020905b81548152906001019060200180831161051d57829003601f168201915b5050505050905090565b600061054f826115e5565b506000908152600460205260409020546001600160a01b031690565b60006105768261133f565b9050806001600160a01b0316836001600160a01b0316036105e85760405162461bcd60e51b815260206004820152602160248201527f4552433732313a20617070726f76616c20746f2063757272656e74206f776e656044820152603960f91b60648201526084015b60405180910390fd5b336001600160a01b038216148061060457506106048133610451565b6106765760405162461bcd60e51b815260206004820152603d60248201527f4552433732313a20617070726f76652063616c6c6572206973206e6f7420746f60448201527f6b656e206f776e6572206f7220617070726f76656420666f7220616c6c00000060648201526084016105df565b6106808383611647565b505050565b61068f33826116b5565b6106ab5760405162461bcd60e51b81526004016105df90613562565b610680838383611733565b60606106c06118a4565b60006108a261088e6040518060a00160405280606781526020016140f86067913980519060200120866000013573__$eb08931da2d0e33e8a6d7df35e46c67175$__6333983acb89806020019061071791906135af565b6040518363ffffffff1660e01b81526004016107349291906135ff565b602060405180830381865af4158015610751573d6000803e3d6000fd5b505050506040513d601f19601f82011682018060405250810190610775919061364b565b73__$eb08931da2d0e33e8a6d7df35e46c67175$__639e22d70d61079c60408c018c6135af565b6040518363ffffffff1660e01b81526004016107b99291906136d2565b602060405180830381865af41580156107d6573d6000803e3d6000fd5b505050506040513d601f19601f820116820180604052508101906107fa919061364b565b600f600061080b60208c018c612ed8565b6001600160a01b03168152602081019190915260400160009081208054916108328361374e565b91905055896080013560405160200161087396959493929190958652602086019490945260408501929092526060840152608083015260a082015260c00190565b604051602081830303815290604052805190602001206118fd565b61089d36869003860186613767565b61192a565b90506001600160a01b0381166108bb6020850185612ed8565b6001600160a01b0316146108e257604051630e751dc360e31b815260040160405180910390fd5b6108f8846108f36020860186612ed8565b6119c2565b9150506104ac6001600c55565b61093e6040518060c001604052806060815260200160608152602001600081526020016000815260200160608152602001606081525090565b60008281526010602052604090819020815160c081019092528054829082906109669061352e565b80601f01602080910402602001604051908101604052809291908181526020018280546109929061352e565b80156109df5780601f106109b4576101008083540402835291602001916109df565b820191906000526020600020905b8154815290600101906020018083116109c257829003601f168201915b505050505081526020016001820180546109f89061352e565b80601f0160208091040260200160405190810160405280929190818152602001828054610a249061352e565b8015610a715780601f10610a4657610100808354040283529160200191610a71565b820191906000526020600020905b815481529060010190602001808311610a5457829003601f168201915b50505050508152602001600282015481526020016003820154815260200160048201805480602002602001604051908101604052809291908181526020018280548015610ae757602002820191906000526020600020905b81546001600160a01b03168152600190910190602001808311610ac9575b5050505050815260200160058201805480602002602001604051908101604052809291908181526020018280548015610b3f57602002820191906000526020600020905b815481526020019060010190808311610b2b575b5050505050815250509050919050565b6000610b5a8361139f565b8210610bbc5760405162461bcd60e51b815260206004820152602b60248201527f455243373231456e756d657261626c653a206f776e657220696e646578206f7560448201526a74206f6620626f756e647360a81b60648201526084016105df565b506001600160a01b03919091166000908152600660209081526040808320938352929052205490565b6000818152601060205260408120600301546104ac9061133f565b600080610c9561088e6040518060600160405280603c81526020016140bc603c91398051906020012086600f6000886000016020810190610c419190612ed8565b6001600160a01b0316815260208101919091526040016000908120805491610c688361374e565b9091555060408051602081019490945283019190915260608201526080808701359082015260a001610873565b90506001600160a01b038116610cae6020850185612ed8565b6001600160a01b031614610cd557604051630e751dc360e31b815260040160405180910390fd5b610ceb84610ce66020860186612ed8565b611cdc565b949350505050565b60006104ac8233611cdc565b610680838383604051806020016040528060008152506114cc565b6000610d2560085490565b8210610d885760405162461bcd60e51b815260206004820152602c60248201527f455243373231456e756d657261626c653a20676c6f62616c20696e646578206f60448201526b7574206f6620626f756e647360a01b60648201526084016105df565b60088281548110610d9b57610d9b6137cf565b90600052602060002001549050919050565b610de66040518060c001604052806060815260200160008152602001600081526020016000815260200160608152602001606081525090565b6040805160c08101825260008481526010602052919091208054829190610e0c9061352e565b80601f0160208091040260200160405190810160405280929190818152602001828054610e389061352e565b8015610e855780601f10610e5a57610100808354040283529160200191610e85565b820191906000526020600020905b815481529060010190602001808311610e6857829003601f168201915b505050918352505060008481526010602081815260408084206002810154838701528885526011835281852054828701526003810154606087015293889052918152600490920180548251818502810185019093528083526080909401939192909190830182828015610f2157602002820191906000526020600020905b81546001600160a01b03168152600190910190602001808311610f03575b5050505050815260200160106000858152602001908152602001600020600501805480602002602001604051908101604052809291908181526020018280548015610f8b57602002820191906000526020600020905b815481526020019060010190808311610f77575b50505050508152509050919050565b6000610fa46118a4565b60006112e961088e6040518060c001604052806086815260200161403660869139805160209091012073__$eb08931da2d0e33e8a6d7df35e46c67175$__63d19ac5b7610ff189806137e5565b6040518363ffffffff1660e01b815260040161100e92919061382b565b602060405180830381865af415801561102b573d6000803e3d6000fd5b505050506040513d601f19601f8201168201806040525081019061104f919061364b565b73__$eb08931da2d0e33e8a6d7df35e46c67175$__638d849f4361107660208b018b6137e5565b6040518363ffffffff1660e01b815260040161109392919061382b565b602060405180830381865af41580156110b0573d6000803e3d6000fd5b505050506040513d601f19601f820116820180604052508101906110d4919061364b565b73__$eb08931da2d0e33e8a6d7df35e46c67175$__6333983acb6110fb60408c018c6135af565b6040518363ffffffff1660e01b81526004016111189291906135ff565b602060405180830381865af4158015611135573d6000803e3d6000fd5b505050506040513d601f19601f82011682018060405250810190611159919061364b565b73__$eb08931da2d0e33e8a6d7df35e46c67175$__639e22d70d61118060608d018d6135af565b6040518363ffffffff1660e01b815260040161119d9291906136d2565b602060405180830381865af41580156111ba573d6000803e3d6000fd5b505050506040513d601f19601f820116820180604052508101906111de919061364b565b73__$eb08931da2d0e33e8a6d7df35e46c67175$__632a9b7f2761120560808e018e6135af565b6040518363ffffffff1660e01b8152600401611222929190613871565b602060405180830381865af415801561123f573d6000803e3d6000fd5b505050506040513d601f19601f82011682018060405250810190611263919061364b565b600f600061127460208e018e612ed8565b6001600160a01b031681526020810191909152604001600090812080549161129b8361374e565b90915550604080516020810198909852870195909552606086019390935260808581019290925260a085015260c084019190915260e083019190915286013561010082015261012001610873565b90506001600160a01b0381166113026020850185612ed8565b6001600160a01b03161461132957604051630e751dc360e31b815260040160405180910390fd5b6108f88461133a6020860186612ed8565b611dba565b6000818152600260205260408120546001600160a01b0316806104ac5760405162461bcd60e51b8152602060048201526018602482015277115490cdcc8c4e881a5b9d985b1a59081d1bdad95b88125160421b60448201526064016105df565b60006001600160a01b0382166114095760405162461bcd60e51b815260206004820152602960248201527f4552433732313a2061646472657373207a65726f206973206e6f7420612076616044820152683634b21037bbb732b960b91b60648201526084016105df565b506001600160a01b031660009081526003602052604090205490565b6000606080828080836114597f0000000000000000000000000000000000000000000000000000000000000000600a61217c565b6114847f0000000000000000000000000000000000000000000000000000000000000000600b61217c565b60408051600080825260208201909252600f60f81b9b939a50919850469750309650945092509050565b6060600180546104c19061352e565b6114c8338383612227565b5050565b6114d633836116b5565b6114f25760405162461bcd60e51b81526004016105df90613562565b6114fe848484846122f5565b50505050565b606061150f826115e5565b600061152660408051602081019091526000815290565b905060008151116115465760405180602001604052806000815250611571565b8061155084612328565b604051602001611561929190613885565b6040516020818303038152906040525b9392505050565b60006115826118a4565b61158c8233611dba565b90506115986001600c55565b919050565b60606115a76118a4565b61158c82336119c2565b60006115bb6123ba565b905090565b60006001600160e01b0319821663780e9d6360e01b14806104ac57506104ac826124e5565b6000818152600260205260409020546001600160a01b03166116445760405162461bcd60e51b8152602060048201526018602482015277115490cdcc8c4e881a5b9d985b1a59081d1bdad95b88125160421b60448201526064016105df565b50565b600081815260046020526040902080546001600160a01b0319166001600160a01b038416908117909155819061167c8261133f565b6001600160a01b03167f8c5be1e5ebec7d5bd14f71427d1e84f3dd0314c0f7b2291e5b200ac8c7c3b92560405160405180910390a45050565b6000806116c18361133f565b9050806001600160a01b0316846001600160a01b0316148061170857506001600160a01b0380821660009081526005602090815260408083209388168352929052205460ff165b80610ceb5750836001600160a01b031661172184610544565b6001600160a01b031614949350505050565b826001600160a01b03166117468261133f565b6001600160a01b03161461176c5760405162461bcd60e51b81526004016105df906138b4565b6001600160a01b0382166117ce5760405162461bcd60e51b8152602060048201526024808201527f4552433732313a207472616e7366657220746f20746865207a65726f206164646044820152637265737360e01b60648201526084016105df565b6117db8383836001612535565b826001600160a01b03166117ee8261133f565b6001600160a01b0316146118145760405162461bcd60e51b81526004016105df906138b4565b600081815260046020908152604080832080546001600160a01b03199081169091556001600160a01b0387811680865260038552838620805460001901905590871680865283862080546001019055868652600290945282852080549092168417909155905184937fddf252ad1be2c89b69c2b068fc378daa952ba7f163c4a11628f55a4df523b3ef91a4505050565b6002600c54036118f65760405162461bcd60e51b815260206004820152601f60248201527f5265656e7472616e637947756172643a207265656e7472616e742063616c6c0060448201526064016105df565b6002600c55565b60006104ac61190a6123ba565b8360405161190160f01b8152600281019290925260228201526042902090565b6000428260800151101561195157604051630819bdcd60e01b815260040160405180910390fd5b602080830151604080850151606080870151835160008082529681018086528a905260ff90951693850193909352830152608082015260019060a0016020604051602081039080840390855afa1580156119af573d6000803e3d6000fd5b5050604051601f19015195945050505050565b60606119d160408401846135af565b90506119e060208501856135af565b905014611a00576040516318c2d3e960e31b815260040160405180910390fd5b60005b611a1060208501856135af565b9050811015611af8576000805b8535600090815260106020526040902060040154811015611ac85785356000908152601060205260409020600401805482908110611a5d57611a5d6137cf565b600091825260209182902001546001600160a01b031690611a80908801886135af565b85818110611a9057611a906137cf565b9050602002016020810190611aa59190612ed8565b6001600160a01b031603611ab857600191505b611ac18161374e565b9050611a1d565b5080611ae757604051632b52c85160e21b815260040160405180910390fd5b50611af18161374e565b9050611a03565b50611b0660208401846135af565b90506001600160401b03811115611b1f57611b1f61334a565b604051908082528060200260200182016040528015611b5257816020015b6060815260200190600190039081611b3d5790505b50905060005b611b6560208501856135af565b9050811015611c7457611b7b60208501856135af565b82818110611b8b57611b8b6137cf565b9050602002016020810190611ba09190612ed8565b6001600160a01b031663ce79d4bd853585611bbe60408901896135af565b86818110611bce57611bce6137cf565b9050602002810190611be091906137e5565b6040518563ffffffff1660e01b8152600401611bff94939291906138f9565b6000604051808303816000875af1158015611c1e573d6000803e3d6000fd5b505050506040513d6000823e601f3d908101601f19168201604052611c46919081019061392e565b828281518110611c5857611c586137cf565b602002602001018190525080611c6d9061374e565b9050611b58565b506001600160a01b03821683357f8f7df4b117f95d3eb363b9748409ed3e2278f6683efbf8f05304a62802dd5785611caf60208701876135af565b611cbc60408901896135af565b87604051611cce959493929190613a27565b60405180910390a392915050565b6000828152601160205260408120544210611d0a576040516339ee377760e11b815260040160405180910390fd5b6000611d1584610be5565b9050806001600160a01b0316836001600160a01b031614611d495760405163161d1e4f60e21b815260040160405180910390fd5b60008481526011602052604090819020429081905590517fcd611b2e8e562bc79399dd48d5734b37317481ba06381787fb9fc6a7ca032d9591611da991879187919283526001600160a01b03919091166020830152604082015260600190565b60405180910390a150429392505050565b6000611e03611dc984806137e5565b8080601f01602080910402602001604051908101604052809392919081815260200183838082843760009201919091525061266992505050565b611e18611e1360408501856135af565b6126fb565b6000611e2c611e2685613bcd565b846127cb565b90506000611e3984612802565b6040805160c0810190915290915080611e5287806137e5565b8080601f016020809104026020016040519081016040528093929190818152602001838380828437600092019190915250505090825250602090810190611e9b908801886137e5565b8080601f0160208091040260200160405190810160405280939291908181526020018383808284376000920191909152505050908252504260208201526040808201849052606090910190611ef2908801886135af565b80806020026020016040519081016040528093929190818152602001838360200280828437600092019190915250505090825250602001611f3660808801886135af565b80806020026020016040519081016040528093929190818152602001838360200280828437600092018290525093909452505084815260106020526040902082519091508190611f869082613cf6565b5060208201516001820190611f9b9082613cf6565b50604082015160028201556060820151600382015560808201518051611fcb916004840191602090910190612dd9565b5060a08201518051611fe7916005840191602090910190612e3e565b5090505060005b611ffb60408701876135af565b90508110156120d55761201160408701876135af565b82818110612021576120216137cf565b90506020020160208101906120369190612ed8565b6001600160a01b031663db86aeea8461205260608a018a6135af565b85818110612062576120626137cf565b905060200281019061207491906137e5565b6040518463ffffffff1660e01b815260040161209293929190613db5565b600060405180830381600087803b1580156120ac57600080fd5b505af11580156120c0573d6000803e3d6000fd5b50505050806120ce9061374e565b9050611fee565b50600082815260116020526040902060001990556001600160a01b038416827f5c240d2eb364b0d31f3c82f5d1776518fbe69ce272a7534394398baff81050c861211f88806137e5565b61212c60208b018b6137e5565b61213960408d018d6135af565b61214660608f018f6135af565b8f806080019061215691906135af565b60405161216c9a99989796959493929190613dcf565b60405180910390a3509392505050565b606060ff83146121965761218f83612823565b90506104ac565b8180546121a29061352e565b80601f01602080910402602001604051908101604052809291908181526020018280546121ce9061352e565b801561221b5780601f106121f05761010080835404028352916020019161221b565b820191906000526020600020905b8154815290600101906020018083116121fe57829003601f168201915b505050505090506104ac565b816001600160a01b0316836001600160a01b0316036122885760405162461bcd60e51b815260206004820152601960248201527f4552433732313a20617070726f766520746f2063616c6c65720000000000000060448201526064016105df565b6001600160a01b03838116600081815260056020908152604080832094871680845294825291829020805460ff191686151590811790915591519182527f17307eab39ab6107e8899845ad3d59bd9653f200f220920489ca2b5937696c31910160405180910390a3505050565b612300848484611733565b61230c84848484612862565b6114fe5760405162461bcd60e51b81526004016105df90613e46565b6060600061233583612963565b60010190506000816001600160401b038111156123545761235461334a565b6040519080825280601f01601f19166020018201604052801561237e576020820181803683370190505b5090508181016020015b600019016f181899199a1a9b1b9c1cb0b131b232b360811b600a86061a8153600a850494508461238857509392505050565b6000306001600160a01b037f00000000000000000000000000000000000000000000000000000000000000001614801561241357507f000000000000000000000000000000000000000000000000000000000000000046145b1561243d57507f000000000000000000000000000000000000000000000000000000000000000090565b6115bb604080517f8b73c3c69bb8fe3d512ecc4cf759cc79239f7b179b0ffacaa9a75d522b39400f60208201527f0000000000000000000000000000000000000000000000000000000000000000918101919091527f000000000000000000000000000000000000000000000000000000000000000060608201524660808201523060a082015260009060c00160405160208183030381529060405280519060200120905090565b60006001600160e01b031982166380ac58cd60e01b148061251657506001600160e01b03198216635b5e139f60e01b145b806104ac57506301ffc9a760e01b6001600160e01b03198316146104ac565b60018111156125a45760405162461bcd60e51b815260206004820152603560248201527f455243373231456e756d657261626c653a20636f6e7365637574697665207472604482015274185b9cd9995c9cc81b9bdd081cdd5c1c1bdc9d1959605a1b60648201526084016105df565b816001600160a01b038516612600576125fb81600880546000838152600960205260408120829055600182018355919091527ff3f7a9fe364faab93b216da50a3214154f22a0a2b415b23a84c8169e8b636ee30155565b612623565b836001600160a01b0316856001600160a01b031614612623576126238582612a3b565b6001600160a01b03841661263f5761263a81612ad8565b612662565b846001600160a01b0316846001600160a01b031614612662576126628482612b87565b5050505050565b600d54604051634c0beab360e11b81526000916001600160a01b031690639817d5669061269a908590600401612f43565b602060405180830381865afa1580156126b7573d6000803e3d6000fd5b505050506040513d601f19601f820116820180604052508101906126db9190613e98565b9050806114c857604051635ec8173560e01b815260040160405180910390fd5b60005b8181101561068057828282818110612718576127186137cf565b905060200201602081019061272d9190612ed8565b6040516301ffc9a760e01b815263280ee6f160e21b60048201526001600160a01b0391909116906301ffc9a790602401602060405180830381865afa15801561277a573d6000803e3d6000fd5b505050506040513d601f19601f8201168201806040525081019061279e9190613e98565b6127bb5760405163251cb21f60e01b815260040160405180910390fd5b6127c48161374e565b90506126fe565b6000828230426040516020016127e49493929190613eb5565b60405160208183030381529060405280519060200120905092915050565b600e8054906115989083908390600061281a8361374e565b91905055612bcb565b6060600061283083612be5565b604080516020808252818301909252919250600091906020820181803683375050509182525060208101929092525090565b60006001600160a01b0384163b1561295857604051630a85bd0160e11b81526001600160a01b0385169063150b7a02906128a6903390899088908890600401613fbc565b6020604051808303816000875af19250505080156128e1575060408051601f3d908101601f191682019092526128de91810190613fef565b60015b61293e573d80801561290f576040519150601f19603f3d011682016040523d82523d6000602084013e612914565b606091505b5080516000036129365760405162461bcd60e51b81526004016105df90613e46565b805181602001fd5b6001600160e01b031916630a85bd0160e11b149050610ceb565b506001949350505050565b60008072184f03e93ff9f4daa797ed6e38ed64bf6a1f0160401b83106129a25772184f03e93ff9f4daa797ed6e38ed64bf6a1f0160401b830492506040015b6d04ee2d6d415b85acef810000000083106129ce576d04ee2d6d415b85acef8100000000830492506020015b662386f26fc1000083106129ec57662386f26fc10000830492506010015b6305f5e1008310612a04576305f5e100830492506008015b6127108310612a1857612710830492506004015b60648310612a2a576064830492506002015b600a83106104ac5760010192915050565b60006001612a488461139f565b612a52919061400c565b600083815260076020526040902054909150808214612aa5576001600160a01b03841660009081526006602090815260408083208584528252808320548484528184208190558352600790915290208190555b5060009182526007602090815260408084208490556001600160a01b039094168352600681528383209183525290812055565b600854600090612aea9060019061400c565b60008381526009602052604081205460088054939450909284908110612b1257612b126137cf565b906000526020600020015490508060088381548110612b3357612b336137cf565b6000918252602080832090910192909255828152600990915260408082208490558582528120556008805480612b6b57612b6b61401f565b6001900381819060005260206000200160009055905550505050565b6000612b928361139f565b6001600160a01b039093166000908152600660209081526040808320868452825280832085905593825260079052919091209190915550565b6114c8828260405180602001604052806000815250612c0d565b600060ff8216601f8111156104ac57604051632cd44ac360e21b815260040160405180910390fd5b612c178383612c40565b612c246000848484612862565b6106805760405162461bcd60e51b81526004016105df90613e46565b6001600160a01b038216612c965760405162461bcd60e51b815260206004820181905260248201527f4552433732313a206d696e7420746f20746865207a65726f206164647265737360448201526064016105df565b6000818152600260205260409020546001600160a01b031615612cfb5760405162461bcd60e51b815260206004820152601c60248201527f4552433732313a20746f6b656e20616c7265616479206d696e7465640000000060448201526064016105df565b612d09600083836001612535565b6000818152600260205260409020546001600160a01b031615612d6e5760405162461bcd60e51b815260206004820152601c60248201527f4552433732313a20746f6b656e20616c7265616479206d696e7465640000000060448201526064016105df565b6001600160a01b038216600081815260036020908152604080832080546001019055848352600290915280822080546001600160a01b0319168417905551839291907fddf252ad1be2c89b69c2b068fc378daa952ba7f163c4a11628f55a4df523b3ef908290a45050565b828054828255906000526020600020908101928215612e2e579160200282015b82811115612e2e57825182546001600160a01b0319166001600160a01b03909116178255602090920191600190910190612df9565b50612e3a929150612e79565b5090565b828054828255906000526020600020908101928215612e2e579160200282015b82811115612e2e578251825591602001919060010190612e5e565b5b80821115612e3a5760008155600101612e7a565b6001600160e01b03198116811461164457600080fd5b600060208284031215612eb657600080fd5b813561157181612e8e565b80356001600160a01b038116811461159857600080fd5b600060208284031215612eea57600080fd5b61157182612ec1565b60005b83811015612f0e578181015183820152602001612ef6565b50506000910152565b60008151808452612f2f816020860160208601612ef3565b601f01601f19169290920160200192915050565b6020815260006115716020830184612f17565b600060208284031215612f6857600080fd5b5035919050565b60008060408385031215612f8257600080fd5b612f8b83612ec1565b946020939093013593505050565b600080600060608486031215612fae57600080fd5b612fb784612ec1565b9250612fc560208501612ec1565b9150604084013590509250925092565b600060608284031215612fe757600080fd5b50919050565b600060a08284031215612fe757600080fd5b60008060c0838503121561301257600080fd5b82356001600160401b0381111561302857600080fd5b61303485828601612fd5565b9250506130448460208501612fed565b90509250929050565b600082825180855260208086019550808260051b84010181860160005b8481101561309857601f19868403018952613086838351612f17565b9884019892509083019060010161306a565b5090979650505050505050565b602081526000611571602083018461304d565b600081518084526020808501945080840160005b838110156130f15781516001600160a01b0316875295820195908201906001016130cc565b509495945050505050565b600081518084526020808501945080840160005b838110156130f157815187529582019590820190600101613110565b602081526000825160c0602084015261314860e0840182612f17565b90506020840151601f19808584030160408601526131668383612f17565b9250604086015160608601526060860151608086015260808601519150808584030160a086015261319783836130b8565b925060a08601519150808584030160c0860152506131b582826130fc565b95945050505050565b60008060c083850312156131d157600080fd5b823591506130448460208501612fed565b602081526000825160c060208401526131fe60e0840182612f17565b90506020840151604084015260408401516060840152606084015160808401526080840151601f19808584030160a086015261319783836130b8565b60008060c0838503121561324d57600080fd5b82356001600160401b0381111561326357600080fd5b61303485828601612fed565b60ff60f81b881681526000602060e08184015261328f60e084018a612f17565b83810360408501526132a1818a612f17565b606085018990526001600160a01b038816608086015260a0850187905284810360c0860152855180825283870192509083019060005b818110156132f3578351835292840192918401916001016132d7565b50909c9b505050505050505050505050565b801515811461164457600080fd5b6000806040838503121561332657600080fd5b61332f83612ec1565b9150602083013561333f81613305565b809150509250929050565b634e487b7160e01b600052604160045260246000fd5b60405160a081016001600160401b03811182821017156133825761338261334a565b60405290565b604051601f8201601f191681016001600160401b03811182821017156133b0576133b061334a565b604052919050565b60006001600160401b038211156133d1576133d161334a565b50601f01601f191660200190565b600082601f8301126133f057600080fd5b81356134036133fe826133b8565b613388565b81815284602083860101111561341857600080fd5b816020850160208301376000918101602001919091529392505050565b6000806000806080858703121561344b57600080fd5b61345485612ec1565b935061346260208601612ec1565b92506040850135915060608501356001600160401b0381111561348457600080fd5b613490878288016133df565b91505092959194509250565b6000602082840312156134ae57600080fd5b81356001600160401b038111156134c457600080fd5b610ceb84828501612fed565b6000602082840312156134e257600080fd5b81356001600160401b038111156134f857600080fd5b610ceb84828501612fd5565b6000806040838503121561351757600080fd5b61352083612ec1565b915061304460208401612ec1565b600181811c9082168061354257607f821691505b602082108103612fe757634e487b7160e01b600052602260045260246000fd5b6020808252602d908201527f4552433732313a2063616c6c6572206973206e6f7420746f6b656e206f776e6560408201526c1c881bdc88185c1c1c9bdd9959609a1b606082015260800190565b6000808335601e198436030181126135c657600080fd5b8301803591506001600160401b038211156135e057600080fd5b6020019150600581901b36038213156135f857600080fd5b9250929050565b60208082528181018390526000908460408401835b86811015613640576001600160a01b0361362d84612ec1565b1682529183019190830190600101613614565b509695505050505050565b60006020828403121561365d57600080fd5b5051919050565b81835281816020850137506000828201602090810191909152601f909101601f19169091010190565b6000808335601e198436030181126136a457600080fd5b83016020810192503590506001600160401b038111156136c357600080fd5b8036038213156135f857600080fd5b60208082528181018390526000906040600585901b8401810190840186845b8781101561372b57868403603f1901835261370c828a61368d565b613717868284613664565b9550505091840191908401906001016136f1565b5091979650505050505050565b634e487b7160e01b600052601160045260246000fd5b60006001820161376057613760613738565b5060010190565b600060a0828403121561377957600080fd5b613781613360565b61378a83612ec1565b8152602083013560ff811681146137a057600080fd5b806020830152506040830135604082015260608301356060820152608083013560808201528091505092915050565b634e487b7160e01b600052603260045260246000fd5b6000808335601e198436030181126137fc57600080fd5b8301803591506001600160401b0382111561381657600080fd5b6020019150368190038213156135f857600080fd5b602081526000610ceb602083018486613664565b81835260006001600160fb1b0383111561385857600080fd5b8260051b80836020870137939093016020019392505050565b602081526000610ceb60208301848661383f565b60008351613897818460208801612ef3565b8351908301906138ab818360208801612ef3565b01949350505050565b60208082526025908201527f4552433732313a207472616e736665722066726f6d20696e636f72726563742060408201526437bbb732b960d91b606082015260800190565b8481526001600160a01b03841660208201526060604082018190526000906139249083018486613664565b9695505050505050565b60006020828403121561394057600080fd5b81516001600160401b0381111561395657600080fd5b8201601f8101841361396757600080fd5b80516139756133fe826133b8565b81815285602083850101111561398a57600080fd5b6131b5826020830160208601612ef3565b8183526000602080850194508260005b858110156130f1576001600160a01b036139c483612ec1565b16875295820195908201906001016139ab565b81835260006020808501808196508560051b810191508460005b8781101561372b578284038952613a08828861368d565b613a13868284613664565b9a87019a95505050908401906001016139f1565b606081526000613a3b60608301878961399b565b8281036020840152613a4e8186886139d7565b90508281036040840152613a62818561304d565b98975050505050505050565b60006001600160401b03821115613a8757613a8761334a565b5060051b60200190565b600082601f830112613aa257600080fd5b81356020613ab26133fe83613a6e565b82815260059290921b84018101918181019086841115613ad157600080fd5b8286015b8481101561364057613ae681612ec1565b8352918301918301613ad5565b600082601f830112613b0457600080fd5b81356020613b146133fe83613a6e565b82815260059290921b84018101918181019086841115613b3357600080fd5b8286015b848110156136405780356001600160401b03811115613b565760008081fd5b613b648986838b01016133df565b845250918301918301613b37565b600082601f830112613b8357600080fd5b81356020613b936133fe83613a6e565b82815260059290921b84018101918181019086841115613bb257600080fd5b8286015b848110156136405780358352918301918301613bb6565b600060a08236031215613bdf57600080fd5b613be7613360565b82356001600160401b0380821115613bfe57600080fd5b613c0a368387016133df565b83526020850135915080821115613c2057600080fd5b613c2c368387016133df565b60208401526040850135915080821115613c4557600080fd5b613c5136838701613a91565b60408401526060850135915080821115613c6a57600080fd5b613c7636838701613af3565b60608401526080850135915080821115613c8f57600080fd5b50613c9c36828601613b72565b60808301525092915050565b601f82111561068057600081815260208120601f850160051c81016020861015613ccf5750805b601f850160051c820191505b81811015613cee57828155600101613cdb565b505050505050565b81516001600160401b03811115613d0f57613d0f61334a565b613d2381613d1d845461352e565b84613ca8565b602080601f831160018114613d585760008415613d405750858301515b600019600386901b1c1916600185901b178555613cee565b600085815260208120601f198616915b82811015613d8757888601518255948401946001909101908401613d68565b5085821015613da55787850151600019600388901b60f8161c191681555b5050505050600190811b01905550565b8381526040602082015260006131b5604083018486613664565b60a081526000613de360a083018c8e613664565b8281036020840152613df6818b8d613664565b90508281036040840152613e0b81898b61399b565b90508281036060840152613e208187896139d7565b90508281036080840152613e3581858761383f565b9d9c50505050505050505050505050565b60208082526032908201527f4552433732313a207472616e7366657220746f206e6f6e20455243373231526560408201527131b2b4bb32b91034b6b83632b6b2b73a32b960711b606082015260800190565b600060208284031215613eaa57600080fd5b815161157181613305565b608081526000855160a06080840152613ed2610120840182612f17565b9050602080880151607f19808685030160a0870152613ef18483612f17565b935060408a01519150808685030160c0870152613f0e84836130b8565b60608b0151878203830160e089015280518083529195508401925083850190600581901b8601850160005b82811015613f6757601f19888303018452613f55828751612f17565b95870195938701939150600101613f39565b5060808d0151965083898203016101008a0152613f8481886130fc565b97505050505050613f9f818501886001600160a01b03169052565b50506001600160a01b039390931660408201526060015292915050565b6001600160a01b038581168252841660208201526040810183905260806060820181905260009061392490830184612f17565b60006020828403121561400157600080fd5b815161157181612e8e565b818103818111156104ac576104ac613738565b634e487b7160e01b600052603160045260246000fdfe5075626c6973685769746853696728737472696e67207265736f7572636549642c627974657320646174612c616464726573735b5d20616374696f6e732c62797465735b5d20616374696f6e496e697444617461732c627974657333325b5d20696d616765732c75696e74323536206e6f6e63652c75696e7432353620646561646c696e6529436c6f736557697468536967286279746573333220617373657449642c75696e74323536206e6f6e63652c75696e7432353620646561646c696e652941637457697468536967286279746573333220617373657449642c616464726573735b5d20616374696f6e732c62797465735b5d20616374696f6e50726f6365737344617461732c75696e74323536206e6f6e63652c75696e7432353620646561646c696e6529a26469706673582212201655e5acd07c2ad3ae0987074f52f968675f38ecd8c00a77f6dc878ceba7691864736f6c63430008150033",
    "linkReferences": {
      "node_modules/dataverse-contracts-test/contracts/monetizer/libraries/EIP712Encoder.sol": {
        "EIP712Encoder": [
          {
            "start": 2988,
            "length": 20
          },
          {
            "start": 3124,
            "length": 20
          },
          {
            "start": 5260,
            "length": 20
          },
          {
            "start": 5390,
            "length": 20
          },
          {
            "start": 5523,
            "length": 20
          },
          {
            "start": 5656,
            "length": 20
          },
          {
            "start": 5789,
            "length": 20
          }
        ]
      }
    }
  },
  "methodIdentifiers": {
    "DAPP_TABLE_REGISTRY()": "a9d298b1",
    "act((bytes32,address[],bytes[]))": "e03e0163",
    "actWithSig((bytes32,address[],bytes[]),(address,uint8,bytes32,bytes32,uint256))": "26297584",
    "approve(address,uint256)": "095ea7b3",
    "balanceOf(address)": "70a08231",
    "close(bytes32)": "39c79e0c",
    "closeWithSig(bytes32,(address,uint8,bytes32,bytes32,uint256))": "38fb1c1c",
    "eip712Domain()": "84b0196e",
    "getApproved(uint256)": "081812fc",
    "getAsset(bytes32)": "2cc3ce80",
    "getAssetOwner(bytes32)": "35d8c2b7",
    "getDomainSeparator()": "ed24911d",
    "getSigNonce(address)": "05ac0ab4",
    "getUnionAsset(bytes32)": "570fed0f",
    "isApprovedForAll(address,address)": "e985e9c5",
    "name()": "06fdde03",
    "ownerOf(uint256)": "6352211e",
    "publish((string,bytes,address[],bytes[],bytes32[]))": "d7499c41",
    "publishWithSig((string,bytes,address[],bytes[],bytes32[]),(address,uint8,bytes32,bytes32,uint256))": "5b01a552",
    "safeTransferFrom(address,address,uint256)": "42842e0e",
    "safeTransferFrom(address,address,uint256,bytes)": "b88d4fde",
    "setApprovalForAll(address,bool)": "a22cb465",
    "supportsInterface(bytes4)": "01ffc9a7",
    "symbol()": "95d89b41",
    "tokenByIndex(uint256)": "4f6ccce7",
    "tokenOfOwnerByIndex(address,uint256)": "2f745c59",
    "tokenURI(uint256)": "c87b56dd",
    "totalSupply()": "18160ddd",
    "transferFrom(address,address,uint256)": "23b872dd"
  },
  "id": 9
}