{
  "abi": [
    {
      "inputs": [
        {
          "internalType": "address",
          "name": "dappTableRegistry",
          "type": "address"
        }
      ],
      "stateMutability": "nonpayable",
      "type": "constructor"
    },
    {
      "inputs": [],
      "name": "ActionAlreadyExists",
      "type": "error"
    },
    {
      "inputs": [],
      "name": "ActionInvalid",
      "type": "error"
    },
    {
      "inputs": [],
      "name": "ActionNotExists",
      "type": "error"
    },
    {
      "inputs": [],
      "name": "ArrayLengthNotEqual",
      "type": "error"
    },
    {
      "inputs": [],
      "name": "DuplicatePublish",
      "type": "error"
    },
    {
      "inputs": [],
      "name": "InvalidShortString",
      "type": "error"
    },
    {
      "inputs": [],
      "name": "NotAssetOwner",
      "type": "error"
    },
    {
      "inputs": [],
      "name": "NotUnionOwner",
      "type": "error"
    },
    {
      "inputs": [],
      "name": "ResourceNotExists",
      "type": "error"
    },
    {
      "inputs": [],
      "name": "SignatureExpired",
      "type": "error"
    },
    {
      "inputs": [],
      "name": "SignatureMismatch",
      "type": "error"
    },
    {
      "inputs": [
        {
          "internalType": "string",
          "name": "str",
          "type": "string"
        }
      ],
      "name": "StringTooLong",
      "type": "error"
    },
    {
      "inputs": [],
      "name": "UnionAlreadyClosed",
      "type": "error"
    },
    {
      "anonymous": false,
      "inputs": [
        {
          "indexed": true,
          "internalType": "address",
          "name": "owner",
          "type": "address"
        },
        {
          "indexed": true,
          "internalType": "address",
          "name": "approved",
          "type": "address"
        },
        {
          "indexed": true,
          "internalType": "uint256",
          "name": "tokenId",
          "type": "uint256"
        }
      ],
      "name": "Approval",
      "type": "event"
    },
    {
      "anonymous": false,
      "inputs": [
        {
          "indexed": true,
          "internalType": "address",
          "name": "owner",
          "type": "address"
        },
        {
          "indexed": true,
          "internalType": "address",
          "name": "operator",
          "type": "address"
        },
        {
          "indexed": false,
          "internalType": "bool",
          "name": "approved",
          "type": "bool"
        }
      ],
      "name": "ApprovalForAll",
      "type": "event"
    },
    {
      "anonymous": false,
      "inputs": [
        {
          "indexed": true,
          "internalType": "bytes32",
          "name": "assetId",
          "type": "bytes32"
        },
        {
          "indexed": true,
          "internalType": "address",
          "name": "actor",
          "type": "address"
        },
        {
          "indexed": false,
          "internalType": "address[]",
          "name": "actions",
          "type": "address[]"
        },
        {
          "indexed": false,
          "internalType": "bytes[]",
          "name": "actionProcessDatas",
          "type": "bytes[]"
        },
        {
          "indexed": false,
          "internalType": "bytes[]",
          "name": "actionReturnDatas",
          "type": "bytes[]"
        }
      ],
      "name": "AssetActed",
      "type": "event"
    },
    {
      "anonymous": false,
      "inputs": [
        {
          "indexed": true,
          "internalType": "bytes32",
          "name": "assetId",
          "type": "bytes32"
        },
        {
          "indexed": true,
          "internalType": "address",
          "name": "publisher",
          "type": "address"
        },
        {
          "indexed": true,
          "internalType": "uint256",
          "name": "publicationId",
          "type": "uint256"
        },
        {
          "indexed": false,
          "internalType": "string",
          "name": "resourceId",
          "type": "string"
        },
        {
          "indexed": false,
          "internalType": "bytes",
          "name": "data",
          "type": "bytes"
        },
        {
          "indexed": false,
          "internalType": "address[]",
          "name": "actions",
          "type": "address[]"
        },
        {
          "indexed": false,
          "internalType": "bytes[]",
          "name": "actionInitDatas",
          "type": "bytes[]"
        },
        {
          "indexed": false,
          "internalType": "bytes32[]",
          "name": "images",
          "type": "bytes32[]"
        }
      ],
      "name": "AssetPublished",
      "type": "event"
    },
    {
      "anonymous": false,
      "inputs": [],
      "name": "EIP712DomainChanged",
      "type": "event"
    },
    {
      "anonymous": false,
      "inputs": [
        {
          "indexed": true,
          "internalType": "address",
          "name": "from",
          "type": "address"
        },
        {
          "indexed": true,
          "internalType": "address",
          "name": "to",
          "type": "address"
        },
        {
          "indexed": true,
          "internalType": "uint256",
          "name": "tokenId",
          "type": "uint256"
        }
      ],
      "name": "Transfer",
      "type": "event"
    },
    {
      "anonymous": false,
      "inputs": [
        {
          "indexed": false,
          "internalType": "bytes32",
          "name": "assetId",
          "type": "bytes32"
        },
        {
          "indexed": false,
          "internalType": "address",
          "name": "operator",
          "type": "address"
        },
        {
          "indexed": false,
          "internalType": "uint256",
          "name": "closeAt",
          "type": "uint256"
        }
      ],
      "name": "UnionClosed",
      "type": "event"
    },
    {
      "inputs": [],
      "name": "DAPP_TABLE_REGISTRY",
      "outputs": [
        {
          "internalType": "contract IDappTableRegistry",
          "name": "",
          "type": "address"
        }
      ],
      "stateMutability": "view",
      "type": "function"
    },
    {
      "inputs": [
        {
          "components": [
            {
              "internalType": "bytes32",
              "name": "assetId",
              "type": "bytes32"
            },
            {
              "internalType": "address[]",
              "name": "actions",
              "type": "address[]"
            },
            {
              "internalType": "bytes[]",
              "name": "actionProcessDatas",
              "type": "bytes[]"
            }
          ],
          "internalType": "struct IDataMonetizer.ActParams",
          "name": "actParams",
          "type": "tuple"
        }
      ],
      "name": "act",
      "outputs": [
        {
          "internalType": "bytes[]",
          "name": "",
          "type": "bytes[]"
        }
      ],
      "stateMutability": "nonpayable",
      "type": "function"
    },
    {
      "inputs": [
        {
          "components": [
            {
              "internalType": "bytes32",
              "name": "assetId",
              "type": "bytes32"
            },
            {
              "internalType": "address[]",
              "name": "actions",
              "type": "address[]"
            },
            {
              "internalType": "bytes[]",
              "name": "actionProcessDatas",
              "type": "bytes[]"
            }
          ],
          "internalType": "struct IDataMonetizer.ActParams",
          "name": "actParams",
          "type": "tuple"
        },
        {
          "components": [
            {
              "internalType": "address",
              "name": "signer",
              "type": "address"
            },
            {
              "internalType": "uint8",
              "name": "v",
              "type": "uint8"
            },
            {
              "internalType": "bytes32",
              "name": "r",
              "type": "bytes32"
            },
            {
              "internalType": "bytes32",
              "name": "s",
              "type": "bytes32"
            },
            {
              "internalType": "uint256",
              "name": "deadline",
              "type": "uint256"
            }
          ],
          "internalType": "struct IDataMonetizer.EIP712Signature",
          "name": "signature",
          "type": "tuple"
        }
      ],
      "name": "actWithSig",
      "outputs": [
        {
          "internalType": "bytes[]",
          "name": "",
          "type": "bytes[]"
        }
      ],
      "stateMutability": "nonpayable",
      "type": "function"
    },
    {
      "inputs": [
        {
          "components": [
            {
              "internalType": "bytes32",
              "name": "assetId",
              "type": "bytes32"
            },
            {
              "internalType": "address[]",
              "name": "actions",
              "type": "address[]"
            },
            {
              "internalType": "bytes[]",
              "name": "actionInitDatas",
              "type": "bytes[]"
            }
          ],
          "internalType": "struct IDataMonetizer.AddActionsParams",
          "name": "addActionsParams",
          "type": "tuple"
        }
      ],
      "name": "addActions",
      "outputs": [],
      "stateMutability": "nonpayable",
      "type": "function"
    },
    {
      "inputs": [
        {
          "components": [
            {
              "internalType": "bytes32",
              "name": "assetId",
              "type": "bytes32"
            },
            {
              "internalType": "address[]",
              "name": "actions",
              "type": "address[]"
            },
            {
              "internalType": "bytes[]",
              "name": "actionInitDatas",
              "type": "bytes[]"
            }
          ],
          "internalType": "struct IDataMonetizer.AddActionsParams",
          "name": "addActionsParams",
          "type": "tuple"
        },
        {
          "components": [
            {
              "internalType": "address",
              "name": "signer",
              "type": "address"
            },
            {
              "internalType": "uint8",
              "name": "v",
              "type": "uint8"
            },
            {
              "internalType": "bytes32",
              "name": "r",
              "type": "bytes32"
            },
            {
              "internalType": "bytes32",
              "name": "s",
              "type": "bytes32"
            },
            {
              "internalType": "uint256",
              "name": "deadline",
              "type": "uint256"
            }
          ],
          "internalType": "struct IDataMonetizer.EIP712Signature",
          "name": "signature",
          "type": "tuple"
        }
      ],
      "name": "addActionsWithSig",
      "outputs": [],
      "stateMutability": "nonpayable",
      "type": "function"
    },
    {
      "inputs": [
        {
          "components": [
            {
              "internalType": "bytes32",
              "name": "assetId",
              "type": "bytes32"
            },
            {
              "internalType": "bytes32[]",
              "name": "images",
              "type": "bytes32[]"
            }
          ],
          "internalType": "struct IDataMonetizer.AddImagesParams",
          "name": "addImagesParams",
          "type": "tuple"
        }
      ],
      "name": "addImages",
      "outputs": [],
      "stateMutability": "nonpayable",
      "type": "function"
    },
    {
      "inputs": [
        {
          "components": [
            {
              "internalType": "bytes32",
              "name": "assetId",
              "type": "bytes32"
            },
            {
              "internalType": "bytes32[]",
              "name": "images",
              "type": "bytes32[]"
            }
          ],
          "internalType": "struct IDataMonetizer.AddImagesParams",
          "name": "addImagesParams",
          "type": "tuple"
        },
        {
          "components": [
            {
              "internalType": "address",
              "name": "signer",
              "type": "address"
            },
            {
              "internalType": "uint8",
              "name": "v",
              "type": "uint8"
            },
            {
              "internalType": "bytes32",
              "name": "r",
              "type": "bytes32"
            },
            {
              "internalType": "bytes32",
              "name": "s",
              "type": "bytes32"
            },
            {
              "internalType": "uint256",
              "name": "deadline",
              "type": "uint256"
            }
          ],
          "internalType": "struct IDataMonetizer.EIP712Signature",
          "name": "signature",
          "type": "tuple"
        }
      ],
      "name": "addImagesWithSig",
      "outputs": [],
      "stateMutability": "nonpayable",
      "type": "function"
    },
    {
      "inputs": [
        {
          "internalType": "address",
          "name": "to",
          "type": "address"
        },
        {
          "internalType": "uint256",
          "name": "tokenId",
          "type": "uint256"
        }
      ],
      "name": "approve",
      "outputs": [],
      "stateMutability": "nonpayable",
      "type": "function"
    },
    {
      "inputs": [
        {
          "internalType": "address",
          "name": "owner",
          "type": "address"
        }
      ],
      "name": "balanceOf",
      "outputs": [
        {
          "internalType": "uint256",
          "name": "",
          "type": "uint256"
        }
      ],
      "stateMutability": "view",
      "type": "function"
    },
    {
      "inputs": [
        {
          "internalType": "bytes32",
          "name": "assetId",
          "type": "bytes32"
        }
      ],
      "name": "close",
      "outputs": [
        {
          "internalType": "uint256",
          "name": "",
          "type": "uint256"
        }
      ],
      "stateMutability": "nonpayable",
      "type": "function"
    },
    {
      "inputs": [
        {
          "internalType": "bytes32",
          "name": "assetId",
          "type": "bytes32"
        },
        {
          "components": [
            {
              "internalType": "address",
              "name": "signer",
              "type": "address"
            },
            {
              "internalType": "uint8",
              "name": "v",
              "type": "uint8"
            },
            {
              "internalType": "bytes32",
              "name": "r",
              "type": "bytes32"
            },
            {
              "internalType": "bytes32",
              "name": "s",
              "type": "bytes32"
            },
            {
              "internalType": "uint256",
              "name": "deadline",
              "type": "uint256"
            }
          ],
          "internalType": "struct IDataMonetizer.EIP712Signature",
          "name": "signature",
          "type": "tuple"
        }
      ],
      "name": "closeWithSig",
      "outputs": [
        {
          "internalType": "uint256",
          "name": "",
          "type": "uint256"
        }
      ],
      "stateMutability": "nonpayable",
      "type": "function"
    },
    {
      "inputs": [],
      "name": "eip712Domain",
      "outputs": [
        {
          "internalType": "bytes1",
          "name": "fields",
          "type": "bytes1"
        },
        {
          "internalType": "string",
          "name": "name",
          "type": "string"
        },
        {
          "internalType": "string",
          "name": "version",
          "type": "string"
        },
        {
          "internalType": "uint256",
          "name": "chainId",
          "type": "uint256"
        },
        {
          "internalType": "address",
          "name": "verifyingContract",
          "type": "address"
        },
        {
          "internalType": "bytes32",
          "name": "salt",
          "type": "bytes32"
        },
        {
          "internalType": "uint256[]",
          "name": "extensions",
          "type": "uint256[]"
        }
      ],
      "stateMutability": "view",
      "type": "function"
    },
    {
      "inputs": [
        {
          "internalType": "uint256",
          "name": "tokenId",
          "type": "uint256"
        }
      ],
      "name": "getApproved",
      "outputs": [
        {
          "internalType": "address",
          "name": "",
          "type": "address"
        }
      ],
      "stateMutability": "view",
      "type": "function"
    },
    {
      "inputs": [
        {
          "internalType": "bytes32",
          "name": "assetId",
          "type": "bytes32"
        }
      ],
      "name": "getAsset",
      "outputs": [
        {
          "components": [
            {
              "internalType": "string",
              "name": "resourceId",
              "type": "string"
            },
            {
              "internalType": "bytes",
              "name": "data",
              "type": "bytes"
            },
            {
              "internalType": "uint256",
              "name": "publishAt",
              "type": "uint256"
            },
            {
              "internalType": "uint256",
              "name": "publicationId",
              "type": "uint256"
            },
            {
              "internalType": "address[]",
              "name": "actions",
              "type": "address[]"
            },
            {
              "internalType": "bytes32[]",
              "name": "images",
              "type": "bytes32[]"
            }
          ],
          "internalType": "struct IDataMonetizer.Asset",
          "name": "",
          "type": "tuple"
        }
      ],
      "stateMutability": "view",
      "type": "function"
    },
    {
      "inputs": [
        {
          "internalType": "bytes32",
          "name": "assetId",
          "type": "bytes32"
        }
      ],
      "name": "getAssetOwner",
      "outputs": [
        {
          "internalType": "address",
          "name": "",
          "type": "address"
        }
      ],
      "stateMutability": "view",
      "type": "function"
    },
    {
      "inputs": [],
      "name": "getDomainSeparator",
      "outputs": [
        {
          "internalType": "bytes32",
          "name": "",
          "type": "bytes32"
        }
      ],
      "stateMutability": "view",
      "type": "function"
    },
    {
      "inputs": [
        {
          "internalType": "address",
          "name": "signer",
          "type": "address"
        }
      ],
      "name": "getSigNonce",
      "outputs": [
        {
          "internalType": "uint256",
          "name": "",
          "type": "uint256"
        }
      ],
      "stateMutability": "view",
      "type": "function"
    },
    {
      "inputs": [
        {
          "internalType": "bytes32",
          "name": "assetId",
          "type": "bytes32"
        }
      ],
      "name": "getUnionAsset",
      "outputs": [
        {
          "components": [
            {
              "internalType": "string",
              "name": "resourceId",
              "type": "string"
            },
            {
              "internalType": "string",
              "name": "folderId",
              "type": "string"
            },
            {
              "internalType": "uint256",
              "name": "publishAt",
              "type": "uint256"
            },
            {
              "internalType": "uint256",
              "name": "closeAt",
              "type": "uint256"
            },
            {
              "internalType": "uint256",
              "name": "publicationId",
              "type": "uint256"
            },
            {
              "internalType": "address[]",
              "name": "actions",
              "type": "address[]"
            },
            {
              "internalType": "bytes32[]",
              "name": "images",
              "type": "bytes32[]"
            }
          ],
          "internalType": "struct IDataUnion.UnionAsset",
          "name": "",
          "type": "tuple"
        }
      ],
      "stateMutability": "view",
      "type": "function"
    },
    {
      "inputs": [
        {
          "internalType": "address",
          "name": "owner",
          "type": "address"
        },
        {
          "internalType": "address",
          "name": "operator",
          "type": "address"
        }
      ],
      "name": "isApprovedForAll",
      "outputs": [
        {
          "internalType": "bool",
          "name": "",
          "type": "bool"
        }
      ],
      "stateMutability": "view",
      "type": "function"
    },
    {
      "inputs": [],
      "name": "name",
      "outputs": [
        {
          "internalType": "string",
          "name": "",
          "type": "string"
        }
      ],
      "stateMutability": "view",
      "type": "function"
    },
    {
      "inputs": [
        {
          "internalType": "uint256",
          "name": "tokenId",
          "type": "uint256"
        }
      ],
      "name": "ownerOf",
      "outputs": [
        {
          "internalType": "address",
          "name": "",
          "type": "address"
        }
      ],
      "stateMutability": "view",
      "type": "function"
    },
    {
      "inputs": [
        {
          "components": [
            {
              "internalType": "string",
              "name": "resourceId",
              "type": "string"
            },
            {
              "internalType": "bytes",
              "name": "data",
              "type": "bytes"
            },
            {
              "internalType": "address[]",
              "name": "actions",
              "type": "address[]"
            },
            {
              "internalType": "bytes[]",
              "name": "actionInitDatas",
              "type": "bytes[]"
            },
            {
              "internalType": "bytes32[]",
              "name": "images",
              "type": "bytes32[]"
            }
          ],
          "internalType": "struct IDataMonetizer.PublishParams",
          "name": "publishParams",
          "type": "tuple"
        }
      ],
      "name": "publish",
      "outputs": [
        {
          "internalType": "bytes32",
          "name": "",
          "type": "bytes32"
        }
      ],
      "stateMutability": "nonpayable",
      "type": "function"
    },
    {
      "inputs": [
        {
          "components": [
            {
              "internalType": "string",
              "name": "resourceId",
              "type": "string"
            },
            {
              "internalType": "bytes",
              "name": "data",
              "type": "bytes"
            },
            {
              "internalType": "address[]",
              "name": "actions",
              "type": "address[]"
            },
            {
              "internalType": "bytes[]",
              "name": "actionInitDatas",
              "type": "bytes[]"
            },
            {
              "internalType": "bytes32[]",
              "name": "images",
              "type": "bytes32[]"
            }
          ],
          "internalType": "struct IDataMonetizer.PublishParams",
          "name": "publishParams",
          "type": "tuple"
        },
        {
          "components": [
            {
              "internalType": "address",
              "name": "signer",
              "type": "address"
            },
            {
              "internalType": "uint8",
              "name": "v",
              "type": "uint8"
            },
            {
              "internalType": "bytes32",
              "name": "r",
              "type": "bytes32"
            },
            {
              "internalType": "bytes32",
              "name": "s",
              "type": "bytes32"
            },
            {
              "internalType": "uint256",
              "name": "deadline",
              "type": "uint256"
            }
          ],
          "internalType": "struct IDataMonetizer.EIP712Signature",
          "name": "signature",
          "type": "tuple"
        }
      ],
      "name": "publishWithSig",
      "outputs": [
        {
          "internalType": "bytes32",
          "name": "",
          "type": "bytes32"
        }
      ],
      "stateMutability": "nonpayable",
      "type": "function"
    },
    {
      "inputs": [
        {
          "internalType": "address",
          "name": "from",
          "type": "address"
        },
        {
          "internalType": "address",
          "name": "to",
          "type": "address"
        },
        {
          "internalType": "uint256",
          "name": "tokenId",
          "type": "uint256"
        }
      ],
      "name": "safeTransferFrom",
      "outputs": [],
      "stateMutability": "nonpayable",
      "type": "function"
    },
    {
      "inputs": [
        {
          "internalType": "address",
          "name": "from",
          "type": "address"
        },
        {
          "internalType": "address",
          "name": "to",
          "type": "address"
        },
        {
          "internalType": "uint256",
          "name": "tokenId",
          "type": "uint256"
        },
        {
          "internalType": "bytes",
          "name": "data",
          "type": "bytes"
        }
      ],
      "name": "safeTransferFrom",
      "outputs": [],
      "stateMutability": "nonpayable",
      "type": "function"
    },
    {
      "inputs": [
        {
          "internalType": "address",
          "name": "operator",
          "type": "address"
        },
        {
          "internalType": "bool",
          "name": "approved",
          "type": "bool"
        }
      ],
      "name": "setApprovalForAll",
      "outputs": [],
      "stateMutability": "nonpayable",
      "type": "function"
    },
    {
      "inputs": [
        {
          "internalType": "bytes4",
          "name": "interfaceId",
          "type": "bytes4"
        }
      ],
      "name": "supportsInterface",
      "outputs": [
        {
          "internalType": "bool",
          "name": "",
          "type": "bool"
        }
      ],
      "stateMutability": "view",
      "type": "function"
    },
    {
      "inputs": [],
      "name": "symbol",
      "outputs": [
        {
          "internalType": "string",
          "name": "",
          "type": "string"
        }
      ],
      "stateMutability": "view",
      "type": "function"
    },
    {
      "inputs": [
        {
          "internalType": "uint256",
          "name": "index",
          "type": "uint256"
        }
      ],
      "name": "tokenByIndex",
      "outputs": [
        {
          "internalType": "uint256",
          "name": "",
          "type": "uint256"
        }
      ],
      "stateMutability": "view",
      "type": "function"
    },
    {
      "inputs": [
        {
          "internalType": "address",
          "name": "owner",
          "type": "address"
        },
        {
          "internalType": "uint256",
          "name": "index",
          "type": "uint256"
        }
      ],
      "name": "tokenOfOwnerByIndex",
      "outputs": [
        {
          "internalType": "uint256",
          "name": "",
          "type": "uint256"
        }
      ],
      "stateMutability": "view",
      "type": "function"
    },
    {
      "inputs": [
        {
          "internalType": "uint256",
          "name": "tokenId",
          "type": "uint256"
        }
      ],
      "name": "tokenURI",
      "outputs": [
        {
          "internalType": "string",
          "name": "",
          "type": "string"
        }
      ],
      "stateMutability": "view",
      "type": "function"
    },
    {
      "inputs": [],
      "name": "totalSupply",
      "outputs": [
        {
          "internalType": "uint256",
          "name": "",
          "type": "uint256"
        }
      ],
      "stateMutability": "view",
      "type": "function"
    },
    {
      "inputs": [
        {
          "internalType": "address",
          "name": "from",
          "type": "address"
        },
        {
          "internalType": "address",
          "name": "to",
          "type": "address"
        },
        {
          "internalType": "uint256",
          "name": "tokenId",
          "type": "uint256"
        }
      ],
      "name": "transferFrom",
      "outputs": [],
      "stateMutability": "nonpayable",
      "type": "function"
    }
  ],
  "bytecode": {
    "object": "0x610160346200049d57601f1962004ab838819003601f81810184168501946001600160401b0394939092838710868811176200048757808492604098895283396020938491810103126200049d57516001600160a01b03811691908290036200049d578551936200007085620004a2565b6009855283850193682230ba30aab734b7b760b91b85528751906200009582620004a2565b60019283835281830190603160f81b82528a5195620000b487620004a2565b600f87526e141d589b1a58d85d1a5bdb88139195608a1b848801528b51620000dc81620004a2565b6002815261282760f11b8582015287518c8111620004875760009889548981811c911680156200047c575b88821014620004685790818584931162000415575b508790858311600114620003b4578b92620003a8575b5050600019600383901b1c191690881b1788555b8051928c8411620003945787548881811c9116801562000389575b87821014620003755790818486959493116200031e575b5086928411600114620002bd57508892620002b1575b5050600019600383901b1c191690851b1784555b620001ad88620004be565b96610120978852620001bf846200069b565b98610140998a52519020928360e0525190209861010099808b524660a0528151928301937f8b73c3c69bb8fe3d512ecc4cf759cc79239f7b179b0ffacaa9a75d522b39400f85528284015260608301524660808301523060a083015260a0825260c0820198828a10908a11176200029d578890525190206080523060c052600c55600e55600d80546001600160a01b031916919091179055614264938462000854853960805184612a74015260a05184612b2f015260c05184612a3e015260e05184612ac301525183612ae9015251826108240152518161084e0152f35b634e487b7160e01b85526041600452602485fd5b0151905038806200018e565b888a52868a20899590939291168a5b88828210620003075750508411620002ed575b505050811b018455620001a2565b015160001960f88460031b161c19169055388080620002df565b8385015186558b97909501949384019301620002cc565b9091929350888a52868a208480870160051c8201928988106200036b575b9187968c92969594930160051c01915b8281106200035c57505062000178565b8c81558796508b91016200034c565b925081926200033c565b634e487b7160e01b8a52602260045260248afd5b90607f169062000161565b634e487b7160e01b89526041600452602489fd5b01519050388062000132565b90868b9416918c8052898d20928d5b8b828210620003fe5750508411620003e4575b505050811b01885562000146565b015160001960f88460031b161c19169055388080620003d6565b8385015186558e97909501949384019301620003c3565b9091508a8052878b208580850160051c8201928a86106200045e575b918c91869594930160051c01915b8281106200044f5750506200011c565b8d81558594508c91016200043f565b9250819262000431565b634e487b7160e01b8b52602260045260248bfd5b90607f169062000107565b634e487b7160e01b600052604160045260246000fd5b600080fd5b604081019081106001600160401b038211176200048757604052565b8051602090818110156200055b5750601f825111620004fa5780825192015190808310620004eb57501790565b82600019910360031b1b161790565b90604051809263305a27a960e01b82528060048301528251908160248401526000935b82851062000541575050604492506000838284010152601f80199101168101030190fd5b84810182015186860160440152938101938593506200051d565b906001600160401b0382116200048757600a54926001938481811c9116801562000690575b838210146200067a57601f811162000640575b5081601f8411600114620005d45750928293918392600094620005c8575b50501b916000199060031b1c191617600a5560ff90565b015192503880620005b1565b919083601f198116600a60005284600020946000905b888383106200062557505050106200060b575b505050811b01600a5560ff90565b015160001960f88460031b161c19169055388080620005fd565b858701518855909601959485019487935090810190620005ea565b600a60005284601f84600020920160051c820191601f860160051c015b8281106200066d57505062000593565b600081550185906200065d565b634e487b7160e01b600052602260045260246000fd5b90607f169062000580565b805160209081811015620007295750601f825111620006c85780825192015190808310620004eb57501790565b90604051809263305a27a960e01b82528060048301528251908160248401526000935b8285106200070f575050604492506000838284010152601f80199101168101030190fd5b8481018201518686016044015293810193859350620006eb565b906001600160401b0382116200048757600b54926001938481811c9116801562000848575b838210146200067a57601f81116200080e575b5081601f8411600114620007a2575092829391839260009462000796575b50501b916000199060031b1c191617600b5560ff90565b0151925038806200077f565b919083601f198116600b60005284600020946000905b88838310620007f35750505010620007d9575b505050811b01600b5560ff90565b015160001960f88460031b161c19169055388080620007cb565b858701518855909601959485019487935090810190620007b8565b600b60005284601f84600020920160051c820191601f860160051c015b8281106200083b57505062000761565b600081550185906200082b565b90607f16906200074e56fe608060408181526004918236101561001657600080fd5b60009260e08435811c92836301ffc9a714611bc15750826305ac0ab414611b8857826306fdde0314611ad8578263081812fc14611ab7578263095ea7b31461194857826318160ddd1461192857826323b872dd1461190357826326297584146116795782632cc3ce801461154f5782632f745c59146114a257826335d8c2b71461147557826338fb1c1c1461134357826339c79e0c1461132057826342842e0e146112eb5782634f6ccce714611257578263570fed0f1461109b5782635b01a55214610bd45782635b882006146109575782636352211e1461092557826370a08231146108fe57826384b0196e1461080b575081638fd5b368146107ca57816395d89b41146106e2578163a22cb46514610612578163a9d298b1146105e9578163b88d4fde14610574578163c2bb05a714610541578163c87b56dd146104d6578163d7499c411461047d578163dd482d3e1461024657508063e03e016314610205578063e985e9c5146101b85763ed24911d1461019257600080fd5b346101b457816003193601126101b4576020906101ad612a3b565b9051908152f35b5080fd5b50346101b457806003193601126101b45760ff816020936101d7611c61565b6101df611c7c565b6001600160a01b0391821683526005875283832091168252855220549151911615158152f35b50346101b4576102429061022a61021b36611f6b565b610223612d23565b3390613bc5565b906001600c5551918291602083526020830190611d64565b0390f35b905034610479576003199160c0368401126104755781356001600160401b0380821161047157828285019583360301126104715760a036602319011261047157825190608082019081118282101761045e5761033e9291605191855281815261031d6024602093837075696e7432353620646561646c696e652960781b606087809701927f416464496d61676573576974685369672862797465733332206173736574496484527f2c627974657333325b5d20696d616765732c75696e74323536206e6f6e63652c8c820152015220940188612dcc565b8651632a9b7f2760e01b815288810184905295869283926024840191612ee5565b038173__$eb08931da2d0e33e8a6d7df35e46c67175$__5af492831561045457879361041f575b506001600160a01b03926103df926103d092909185610382612149565b168a52600f8252868a209081549161039983612173565b905587519283019384528935888401526060830152608082015260a43560a082015260a081526103c881611e2a565b519020612a15565b6103d936612198565b906140cf565b90806103e9612149565b9216911603610412578361040f8461040a610402612149565b9136906130cf565b614010565b80f35b51630e751dc360e31b8152fd5b9080935081813d831161044d575b6104378183611eda565b810103126104495751916103df610365565b8680fd5b503d61042d565b84513d89823e3d90fd5b634e487b7160e01b875260418552602487fd5b8580fd5b8380fd5b8280fd5b8284346104d357600319906020368301126104d3578335916001600160401b0383116101b45760a09083360301126104d357506020926104c7916104bf612d23565b33910161323b565b906001600c5551908152f35b80fd5b8383346101b45760203660031901126101b45761051461050f6102429435600052600260205260018060a01b0360406000205416151590565b612374565b81815161052081611ea4565b5280519161052d83611ea4565b825251918291602083526020830190611cc9565b83346104d35761056c61055336611f6b565b61055b612d23565b61056733913690612ff9565b613ecd565b6001600c5580f35b8390346101b45760803660031901126101b45761058f611c61565b90610598611c7c565b91604435606435936001600160401b038511610471576105c16105e49461040f96369101611f4d565b926105d46105cf84336124fa565b612421565b6105df8383836125c2565b612927565b6124d6565b5050346101b457816003193601126101b457600d5490516001600160a01b039091168152602090f35b9190503461047957806003193601126104795761062d611c61565b90602435918215158093036106de576001600160a01b03169233841461069c5750338452600560205280842083855260205280842060ff1981541660ff8416179055519081527f17307eab39ab6107e8899845ad3d59bd9653f200f220920489ca2b5937696c3160203392a380f35b6020606492519162461bcd60e51b8352820152601960248201527f4552433732313a20617070726f766520746f2063616c6c6572000000000000006044820152fd5b8480fd5b8284346104d357806003193601126104d357815191828260019384549461070886611f9c565b918285526020968783821691826000146107a3575050600114610748575b5050506102429291610739910385611eda565b51928284938452830190611cc9565b91908693508083527fb10e2d527612073b26eecdfd717e6a320cf44b4afac2b0732d9fcbe2b7fa0cf65b82841061078b5750505082010181610739610242610726565b8054848a018601528895508794909301928101610772565b60ff19168782015293151560051b8601909301935084925061073991506102429050610726565b919050346104795760031990602036830112610475578235916001600160401b0383116106de5782360301126104795761040a61040f9233923691016130cf565b8385346104d357806003193601126104d35791906108487f0000000000000000000000000000000000000000000000000000000000000000612b6c565b926108727f0000000000000000000000000000000000000000000000000000000000000000612c66565b6108b083519361088185611ea4565b8385526020926108a38251988998600f60f81b8a5280878b0152890190611cc9565b9187830390880152611cc9565b904660608601523060808601528260a086015284820360c08601528080855193848152019401925b8281106108e757505050500390f35b8351855286955093810193928101926001016108d8565b505050346101b45760203660031901126101b4576020906101ad610920611c61565b6122fd565b508284346104d35760203660031901126104d35750610946602092356123c0565b90516001600160a01b039091168152f35b509050346104795761096836611d23565b919092610973612d23565b84815161097f81611e76565b606b8152606b6020916a3620646561646c696e652960a81b6080848301927f416464416374696f6e735769746853696728627974657333322061737365744984527f642c616464726573735b5d20616374696f6e732c62797465735b5d2061637469888201527f6f6e496e697444617461732c75696e74323536206e6f6e63652c75696e7432356060820152015220610a4d73__$eb08931da2d0e33e8a6d7df35e46c67175$__83610a33818b018b612dcc565b88516333983acb60e01b81529485928392908c8401612e01565b0381845af4908115610b995784908692610ba3575b610a909350610a73888c018c612dcc565b8951639e22d70d60e01b8152958693928492839291838f01612e7c565b03915af4918215610b995791889493918a938792610b5f575b5093610b1a610b3296946080946103c894610b28988c60018060a01b039c8d610ad18c61215f565b168152600f88522092835493610ae685612173565b90558d5196870190815293356020850152604084015260608301526080820152949093013560a085015291829060c0850190565b03601f198101835282611eda565b6103d936876121f3565b9080610b3d8661215f565b9216911603610412578461056c85610567610b578761215f565b913690612ff9565b9295509250508281813d8311610b92575b610b7a8183611eda565b810103126106de575187938992909190610b1a610aa9565b503d610b70565b86513d87823e3d90fd5b915082813d8311610bcd575b610bb98183611eda565b810103126106de5783610a90925191610a62565b503d610baf565b939150346101b4576003199160c0368401126104d3578135906001600160401b03908183116104d35760a08385019584360301126104d35760a03660231901126104d35790859291610c24612d23565b835197610c3089611e2a565b60868952608660209965646c696e652960d01b60a08c8301927f5075626c6973685769746853696728737472696e67207265736f75726365496484527f2c627974657320646174612c616464726573735b5d20616374696f6e732c62798a8201527f7465735b5d20616374696f6e496e697444617461732c627974657333325b5d2060608201527f696d616765732c75696e74323536206e6f6e63652c75696e743235362064656160808201520152209373__$eb08931da2d0e33e8a6d7df35e46c67175$__908a8089610d25610d078d80612d79565b9b519b8c94859463d19ac5b760e01b86528501526024840191612dab565b0381855af496871561109157908b898b8d9594889b61104f575b5090610d71610d5384936024870190612d79565b97519788948594638d849f4360e01b86528501526024840191612dab565b0381855af492831561104557908c8c8b8d969594899661100a575b50610d9e610db8976044860190612dcc565b9790925197889384936333983acb60e01b85528401612e01565b0381855af4938415610f7657908d8d8c8e979695948a97610fcc575b50610de6610e00986064860190612dcc565b989092519889938493639e22d70d60e01b85528401612e7c565b0381855af4948515610fc257918b8f928f97969594908f918b98610f80575b5091610e3485926084610e5696950190612dcc565b94909951998a9586948594632a9b7f2760e01b86528501526024840191612ee5565b03915af4938415610f765791869593918d95938f999894610f37575b506001600160a01b039a8b610e85612149565b168852600f8a5286882096875497610e9c89612173565b905580519a8b019b8c528a01526060890152608088015260a087015260c086015284015261010060a43581850152835261012083019183831090831117610f2457508652519020610ef0906103d090612a15565b9080610efa612149565b9216911603610f1657506104c790610f10612149565b9061323b565b8251630e751dc360e31b8152fd5b634e487b7160e01b815260418652602490fd5b929496979883919650809294503d8311610f6f575b610f568183611eda565b8101031261047157918b93918d97969593519238610e72565b503d610f4c565b8c513d88823e3d90fd5b9493959697509750505081813d8311610fbb575b610f9e8183611eda565b8101031261044957518c94909392918e918c908e90610e34610e1f565b503d610f94565b8d513d89823e3d90fd5b94965050509092945081813d8311611003575b610fe98183611eda565b8101031261047157518a93909290918d8d8c610de6610dd4565b503d610fdf565b949650505090925081813d831161103e575b6110268183611eda565b810103126106de5751899290918c8c8b610d9e610d8c565b503d61101c565b8b513d87823e3d90fd5b94969798999a50505090925081813d831161108a575b61106f8183611eda565b810103126106de5751959493929189918b898b610d71610d3f565b503d611065565b8a513d86823e3d90fd5b848483346104795760209081600319360112610475578060c091359084516110c281611e5b565b60609381858093528287820152888882015288838201528860808201528260a082015201528186526010845261110561110c600187892001875192838092611fd6565b0382611eda565b8051810190858181840193031261124f5785810151906001600160401b03821161125357019080603f8301121561124f57858201518995949392611153929190890161206b565b91875260108552858720966002880154936011875287808320549260108952209360038501549389519a6111868c611e5b565b8a51611193818093611fd6565b0361119e9082611eda565b8b52888b01918252898b01968752828b0193845260808b0194855285016111c4906120a2565b9460a08b019586526005016111d8906120fa565b9760c08b0198895289519b8c9b828d5251918c01526101008b016111fb91611cc9565b905190601f19998a8c830301908c015261121491611cc9565b9451908901525160808801525160a08701525190848682030160c087015261123b91611db9565b915192848303019084015261024291611df6565b8780fd5b8880fd5b838286346104d35760203660031901126104d3575080359060085482101561129357602083611285846129b0565b91905490519160031b1c8152f35b608490602084519162461bcd60e51b8352820152602c60248201527f455243373231456e756d657261626c653a20676c6f62616c20696e646578206f60448201526b7574206f6620626f756e647360a01b6064820152fd5b505050346101b4576105e461040f9161130336611cee565b9192519261131084611ea4565b8684526105d46105cf84336124fa565b508284346104d35760203660031901126104d357506101ad60209233903561224c565b509050346104795760c03660031901126104795780359260a03660231901126104d3578251606081018181106001600160401b0382111761146257603c61142c926103d09287528181527f74323536206e6f6e63652c75696e7432353620646561646c696e6529000000008760208301927f436c6f736557697468536967286279746573333220617373657449642c75696e84520152208560018060a01b0394856113ec612149565b168152600f6020522080549061140182612173565b9055865190602082019283528888830152606082015260a4356080820152608081526103c881611e76565b9080611436612149565b921691160361145457506101ad60209261144e612149565b9061224c565b9051630e751dc360e31b8152fd5b634e487b7160e01b835260418452602483fd5b509050346104795760203660031901126104795760038260209461094693358152601086522001546123c0565b508284346104d357816003193601126104d3576114bd611c61565b602435906114ca816122fd565b8210156114f8576001600160a01b031682526006602090815283832091835290815290829020548251908152f35b835162461bcd60e51b8152602081870152602b60248201527f455243373231456e756d657261626c653a206f776e657220696e646578206f7560448201526a74206f6620626f756e647360a81b6064820152608490fd5b9150913461047557602092836003193601126106de579061166860a061024294938360c098815161157f81611e2a565b6060948186809352828c820152838582015283838201528260808201520152823581526010895220908451926115b484611e2a565b85516115c4816111058187611fd6565b845261164c86516115dc816111058160018901611fd6565b8a860190815261163860028601549689810197885261161a600561160c60038a015498888501998a528a016120a2565b9860808401998a52016120fa565b9a60a082019b8c528a519e8f9e8f93818552519301528d0190611cc9565b9051601f1998898d840301908d0152611cc9565b93519089015251608088015251838783030160a0880152611db9565b9151908483030160c0850152611df6565b838583346101b45761168a36611d23565b9091611694612d23565b8451936116a085611e76565b6067855260676020956661646c696e652960c81b6080888301927f41637457697468536967286279746573333220617373657449642c616464726584527f73735b5d20616374696f6e732c62797465735b5d20616374696f6e50726f63658b8201527f737344617461732c75696e74323536206e6f6e63652c75696e74323536206465606082015201522073__$eb08931da2d0e33e8a6d7df35e46c67175$__61176a8761175081890189612dcc565b8b516333983acb60e01b81529384928392908a8401612e01565b0381855af49081156118ca57889085926118d4575b506117ad926117908b8a018a612dcc565b8c51639e22d70d60e01b81529586939284928392918c8401612e7c565b03915af49182156118ca578987938a938a93889261188f575b5060809383611837979693610b1a936118419a6103c89760018060a01b039d8e6117ef8d61215f565b168152600f8952209384549461180486612173565b90555196870190815293356020850152604084015260608301526080820152949093013560a085015291829060c0850190565b6103d936866121f3565b908061184c8561215f565b921691160361188157506102429161186661186c9261215f565b90613bc5565b926001600c5551928284938452830190611d64565b8451630e751dc360e31b8152fd5b9493509450505081813d83116118c3575b6118aa8183611eda565b8101031261047557518591889188918b919060806117c6565b503d6118a0565b89513d86823e3d90fd5b809250813d83116118fc575b6118ea8183611eda565b810103126104755751876117ad61177f565b503d6118e0565b84346104d35761040f61191536611cee565b916119236105cf84336124fa565b6125c2565b505050346101b457816003193601126101b4576020906008549051908152f35b50905034610479578160031936011261047957611963611c61565b6024359290916001600160a01b039190828061197e876123c0565b16941693808514611a6a57803314908115611a4b575b50156119e357848652602052842080546001600160a01b031916831790556119bb836123c0565b167f8c5be1e5ebec7d5bd14f71427d1e84f3dd0314c0f7b2291e5b200ac8c7c3b9258480a480f35b6020608492519162461bcd60e51b8352820152603d60248201527f4552433732313a20617070726f76652063616c6c6572206973206e6f7420746f60448201527f6b656e206f776e6572206f7220617070726f76656420666f7220616c6c0000006064820152fd5b90508652600560205281862033875260205260ff828720541638611994565b506020608492519162461bcd60e51b8352820152602160248201527f4552433732313a20617070726f76616c20746f2063757272656e74206f776e656044820152603960f91b6064820152fd5b508284346104d35760203660031901126104d35750610946602092356123e3565b8385346104d357806003193601126104d35781519182828354611afa81611f9c565b908184526020956001918783821691826000146107a3575050600114611b2d575050506102429291610739910385611eda565b91908693508280527f290decd9548b62a8d60345a988386fc84ba6bc95484008f6362f93160ef3e5635b828410611b705750505082010181610739610242610726565b8054848a018601528895508794909301928101611b57565b505050346101b45760203660031901126101b45760209181906001600160a01b03611bb1611c61565b168152600f845220549051908152f35b85908334610479576020366003190112610479573563ffffffff60e01b81168091036104795760209250637062619d60e01b8114908115611c04575b5015158152f35b63780e9d6360e01b811491508115611c1e575b5083611bfd565b6380ac58cd60e01b811491508115611c50575b8115611c3f575b5083611c17565b6301ffc9a760e01b14905083611c38565b635b5e139f60e01b81149150611c31565b600435906001600160a01b0382168203611c7757565b600080fd5b602435906001600160a01b0382168203611c7757565b35906001600160a01b0382168203611c7757565b60005b838110611cb95750506000910152565b8181015183820152602001611ca9565b90602091611ce281518092818552858086019101611ca6565b601f01601f1916010190565b6060906003190112611c77576001600160a01b03906004358281168103611c7757916024359081168103611c77579060443590565b9060031960c081840112611c7757600435906001600160401b038211611c77576060908285030112611c775760a090600401926023190112611c7757602490565b90815180825260208092019182818360051b82019501936000915b848310611d8f5750505050505090565b9091929394958480611da983856001950387528a51611cc9565b9801930193019194939290611d7f565b90815180825260208080930193019160005b828110611dd9575050505090565b83516001600160a01b031685529381019392810192600101611dcb565b90815180825260208080930193019160005b828110611e16575050505090565b835185529381019392810192600101611e08565b60c081019081106001600160401b03821117611e4557604052565b634e487b7160e01b600052604160045260246000fd5b60e081019081106001600160401b03821117611e4557604052565b60a081019081106001600160401b03821117611e4557604052565b6001600160401b038111611e4557604052565b602081019081106001600160401b03821117611e4557604052565b604081019081106001600160401b03821117611e4557604052565b90601f801991011681019081106001600160401b03821117611e4557604052565b6001600160401b038111611e4557601f01601f191660200190565b929192611f2282611efb565b91611f306040519384611eda565b829481845281830111611c77578281602093846000960137010152565b9080601f83011215611c7757816020611f6893359101611f16565b90565b60031990602081830112611c7757600435916001600160401b038311611c775782606092030112611c775760040190565b90600182811c92168015611fcc575b6020831014611fb657565b634e487b7160e01b600052602260045260246000fd5b91607f1691611fab565b805460009392611fe582611f9c565b91828252602093600191828116908160001461204c575060011461200b575b5050505050565b90939495506000929192528360002092846000945b83861061203857505050500101903880808080612004565b805485870183015294019385908201612020565b60ff19168685015250505090151560051b010191503880808080612004565b9092919261207881611efb565b916120866040519384611eda565b829482845282820111611c775760206120a0930190611ca6565b565b9060405191828154918282526020928383019160005283600020936000905b8282106120d7575050506120a092500383611eda565b85546001600160a01b0316845260019586019588955093810193909101906120c1565b9060405191828154918282526020928383019160005283600020936000905b82821061212f575050506120a092500383611eda565b855484526001958601958895509381019390910190612119565b6024356001600160a01b0381168103611c775790565b356001600160a01b0381168103611c775790565b60001981146121825760010190565b634e487b7160e01b600052601160045260246000fd5b60a0906023190112611c7757604051906121b182611e76565b816024356001600160a01b0381168103611c7757815260443560ff81168103611c7757602082015260643560408201526084356060820152608060a435910152565b91908260a0910312611c775760405161220b81611e76565b809261221681611c92565b8252602081013560ff81168103611c77576080918291602085015260408101356040850152606081013560608501520135910152565b906000908282526011602052604091828120544210156122ec578381526010602052828120600301546001600160a01b03908190612289906123c0565b1692169182036122db57918391837fcd611b2e8e562bc79399dd48d5734b37317481ba06381787fb9fc6a7ca032d95956060955260116020528242912055815192835260208301524290820152a14290565b825163161d1e4f60e21b8152600490fd5b82516339ee377760e11b8152600490fd5b6001600160a01b0316801561231d57600052600360205260406000205490565b60405162461bcd60e51b815260206004820152602960248201527f4552433732313a2061646472657373207a65726f206973206e6f7420612076616044820152683634b21037bbb732b960b91b6064820152608490fd5b1561237b57565b60405162461bcd60e51b815260206004820152601860248201527f4552433732313a20696e76616c696420746f6b656e20494400000000000000006044820152606490fd5b6000908152600260205260409020546001600160a01b0316611f68811515612374565b600081815260026020526040902054612406906001600160a01b03161515612374565b6000908152600460205260409020546001600160a01b031690565b1561242857565b60405162461bcd60e51b815260206004820152602d60248201527f4552433732313a2063616c6c6572206973206e6f7420746f6b656e206f776e6560448201526c1c881bdc88185c1c1c9bdd9959609a1b6064820152608490fd5b60809060208152603260208201527f4552433732313a207472616e7366657220746f206e6f6e20455243373231526560408201527131b2b4bb32b91034b6b83632b6b2b73a32b960711b60608201520190565b156124dd57565b60405162461bcd60e51b8152806124f660048201612483565b0390fd5b906001600160a01b03808061250e846123c0565b16931691838314938415612541575b50831561252b575b50505090565b612537919293506123e3565b1614388080612525565b909350600052600560205260406000208260005260205260ff60406000205416923861251d565b1561256f57565b60405162461bcd60e51b815260206004820152602560248201527f4552433732313a207472616e736665722066726f6d20696e636f72726563742060448201526437bbb732b960d91b6064820152608490fd5b6125e6916125cf846123c0565b6001600160a01b0393848416939185168414612568565b8382169384156127bc57839182612719575090506008549085600052600960205281604060002055600160401b821015611e4557612666928661264a6126338560018997016008556129b0565b819391549060031b91821b91600019901b19161790565b90555b8286036126e6575b5061265f866123c0565b1614612568565b7fddf252ad1be2c89b69c2b068fc378daa952ba7f163c4a11628f55a4df523b3ef60008481526004602052604081206bffffffffffffffffffffffff60a01b9081815416905583825260036020526040822060001981540190558482526040822060018154019055858252600260205284604083209182541617905580a4565b6126ef906122fd565b60406000878152600660205281812083825260205288828220558881526007602052205538612655565b85830361272b575b506126669261264d565b6127369192506122fd565b600019810191908211612182576126669284926000908882526020906007825260409182842054828103612785575b508a84528383812055868452600681528284209184525281205592612721565b8785526006825283852083865282528385205488865260068352848620828752835280858720558552600782528385205538612765565b60405162461bcd60e51b8152602060048201526024808201527f4552433732313a207472616e7366657220746f20746865207a65726f206164646044820152637265737360e01b6064820152608490fd5b91929091803b1561291e5761285a936040519081630a85bd0160e11b9384825233600483015260009687602484015260448301526080606483015281878160209a8b966084830190611cc9565b03926001600160a01b03165af18491816128de575b506128cd575050503d6000146128c5573d61288981611efb565b906128976040519283611eda565b81528091833d92013e5b805191826128c25760405162461bcd60e51b8152806124f660048201612483565b01fd5b5060606128a1565b6001600160e01b0319161492509050565b9091508581813d8311612917575b6128f68183611eda565b810103126106de57516001600160e01b0319811681036106de57903861286f565b503d6128ec565b50915050600190565b9293919290803b156129a65761297b9460018060a01b039460405192839187630a85bd0160e11b9687855233600486015216602484015260448301526080606483015281806020998a956084830190611cc9565b03916000988991165af18491816128de57506128cd575050503d6000146128c5573d61288981611efb565b5050915050600190565b6008548110156129e75760086000527ff3f7a9fe364faab93b216da50a3214154f22a0a2b415b23a84c8169e8b636ee30190600090565b634e487b7160e01b600052603260045260246000fd5b80548210156129e75760005260206000200190600090565b604290612a20612a3b565b906040519161190160f01b8352600283015260228201522090565b307f00000000000000000000000000000000000000000000000000000000000000006001600160a01b03161480612b2c575b15612a96577f000000000000000000000000000000000000000000000000000000000000000090565b60405160208101907f8b73c3c69bb8fe3d512ecc4cf759cc79239f7b179b0ffacaa9a75d522b39400f82527f000000000000000000000000000000000000000000000000000000000000000060408201527f000000000000000000000000000000000000000000000000000000000000000060608201524660808201523060a082015260a08152612b2681611e2a565b51902090565b507f00000000000000000000000000000000000000000000000000000000000000004614612a6d565b6001600160401b038111611e455760051b60200190565b60ff8114612baa5760ff811690601f8211612b985760405191612b8e83611ebf565b8252602082015290565b604051632cd44ac360e21b8152600490fd5b50604051600a54816000612bbd83611f9c565b808352602093600190818116908115612c465750600114612be7575b5050611f6892500382611eda565b90939150600a6000527fc65a7bb8d6351c1cf70c95a316cc6a92839c986682d98bc35f958f4883f9d2a8936000915b818310612c2e575050611f6893508201013880612bd9565b85548784018501529485019486945091830191612c16565b915050611f6894925060ff191682840152151560051b8201013880612bd9565b60ff8114612c885760ff811690601f8211612b985760405191612b8e83611ebf565b50604051600b54816000612c9b83611f9c565b808352602093600190818116908115612c465750600114612cc4575050611f6892500382611eda565b90939150600b6000527f0175b7a638427703f0dbe7bb9bbf987a2551717b34e79f33b5b1008d1fa01db9936000915b818310612d0b575050611f6893508201013880612bd9565b85548784018501529485019486945091830191612cf3565b6002600c5414612d34576002600c55565b60405162461bcd60e51b815260206004820152601f60248201527f5265656e7472616e637947756172643a207265656e7472616e742063616c6c006044820152606490fd5b903590601e1981360301821215611c7757018035906001600160401b038211611c7757602001918136038313611c7757565b908060209392818452848401376000828201840152601f01601f1916010190565b903590601e1981360301821215611c7757018035906001600160401b038211611c7757602001918160051b36038313611c7757565b90916040602092828482018583525201929160005b828110612e24575050505090565b909192938280600192838060a01b03612e3c89611c92565b16815201950193929101612e16565b9035601e1982360301811215611c775701602081359101916001600160401b038211611c77578136038313611c7757565b9160208181850182865252604084019360408360051b82010194846000925b858410612eac575050505050505090565b909192939495968580612ed4600193603f19868203018852612ece8c88612e4b565b90612dab565b990194019401929594939190612e9b565b81835290916001600160fb1b038311611c775760209260051b809284830137010190565b9291612f1482612b55565b91612f226040519384611eda565b829481845260208094019160051b8101928311611c7757905b828210612f485750505050565b838091612f5484611c92565b815201910190612f3b565b9080601f83011215611c7757816020611f6893359101612f09565b81601f82011215611c7757803591602091612f9484612b55565b93612fa26040519586611eda565b808552838086019160051b83010192808411611c7757848301915b848310612fcd5750505050505090565b82356001600160401b038111611c77578691612fee84848094890101611f4d565b815201920191612fbd565b919091606081840312611c7757604051906001600160401b03906060830182811184821017611e45576040528294813584526020820135838111611c775781613043918401612f5f565b60208501526040820135928311611c77576040926130619201612f7a565b910152565b929161307182612b55565b9161307f6040519384611eda565b829481845260208094019160051b8101928311611c7757905b8282106130a55750505050565b81358152908301908301613098565b9080601f83011215611c7757816020611f6893359101613066565b919091604081840312611c775760408051916001600160401b0391830182811184821017611e45576040528294813584526020820135928311611c775760209261306192016130b4565b818110613124575050565b60008155600101613119565b9190601f811161313f57505050565b6120a0926000526020600020906020601f840160051c8301931061316b575b601f0160051c0190613119565b909150819061315e565b91908110156129e75760051b0190565b908210156129e75761319c9160051b810190612d79565b9091565b91908082526020809201929160005b8281106131bd575050505090565b909192938280600192838060a01b036131d589611c92565b168152019501939291016131af565b90808352602080930192838260051b810194846000925b85841061320c575050505050505090565b90919293949596858061322a8385600195038852612ece8c88612e4b565b9901940194019295949391906131fb565b91613282602061325561324e8680612d79565b3691611f16565b60018060a01b03600d54166040518080958194634c0beab360e11b83528660048401526024830190611cc9565b03915afa90811561389057600091613b82575b5015613b70576132ba6132b56132ae6040860186612dcc565b3691612f09565b614145565b60a083360312611c77576040516132d081611e76565b83356001600160401b038111611c7757840136601f82011215611c77576132fe903690602081359101611f16565b815260208401356001600160401b038111611c77576133209036908601611f4d565b602082015260408401356001600160401b038111611c77576133459036908601612f5f565b604082015260608401356001600160401b038111611c775761336a9036908601612f7a565b60608201526001600160401b03608085013511611c775761339136608086013586016130b4565b60808201526040519060806020830152816133ea6133d46133be845160a080860152610140850190611cc9565b6020850151848203609f190160c0860152611cc9565b6040840151838203609f190160e0850152611db9565b606083015190609f1983820301610100840152815180825260208201916020808360051b8301019401926000915b838310613b3d57505050505061344290608061346b940151609f1984830301610120850152611df6565b6001600160a01b038616604083015230606083015242608083015203601f198101835282611eda565b6020815191012090600e5461347f81612173565b600e5560405161348e81611ea4565b600081526001600160a01b03851615613af9576000828152600260205260409020546134c6906001600160a01b031615155b15614083565b60085482600052600960205280604060002055600160401b811015611e45576135bf91836135006126338460016105e496016008556129b0565b905561350b876122fd565b6001600160a01b03888116600090815260066020908152604080832085845282528083208990558883526007825280832094909455600290529190912054613555911615156134c0565b6001600160a01b0387166000818152600360209081526040808320805460010190558783526002909152812080546001600160a01b031916831790558591907fddf252ad1be2c89b69c2b068fc378daa952ba7f163c4a11628f55a4df523b3ef8180a4838761280d565b61363f6135cc8680612d79565b91906136126136338961360261361b6135e86020840184612d79565b6135f56040860186612dcc565b9490956080810190612dcc565b9790986040519b61324e8d611e2a565b8a523691611f16565b60208801524260408801528760608801523691612f09565b60808501523691613066565b60a082015283600052601060205260406000209080518051906001600160401b038211611e455761367a826136748654611f9c565b86613130565b602090601f8311600114613a8d576136ab929160009183613a10575b50508160011b916000199060031b1c19161790565b82555b60208101518051906001600160401b038211611e45576136de826136d56001870154611f9c565b60018701613130565b602090601f8311600114613a1b5761370e929160009183613a105750508160011b916000199060031b1c19161790565b60018301555b604081015160028301556060810151600383015560808101518051906001600160401b038211611e4557600160401b8211611e455760209060048501548360048701558084106139f0575b500160048401600052602060002060005b8381106139d3575050505060a00151908151916001600160401b038311611e4557600160401b8311611e455760058201548360058401558084106139a6575b506020600591019101600052602060002060005b838110613992575050505060005b6137de6040870187612dcc565b905081101561389c578061380f61380a6137fb60408a018a612dcc565b6001600160a01b039491613175565b61215f565b16906138288161382260608a018a612dcc565b90613185565b90833b15611c77576138629360009283604051809781958294636dc3577560e11b84528d6004850152604060248501526044840191612dab565b03925af19182156138905761387c92613881575b50612173565b6137d1565b61388a90611e91565b38613876565b6040513d6000823e3d90fd5b509180939491948160005260116020526000196040600020556138bf8380612d79565b90916138ce6020860186612d79565b919095604081016138df9082612dcc565b906138ed6060840184612dcc565b929093608081016138fd91612dcc565b9a9096604051998a9960a08b5260a08b019061391892612dab565b9089820360208b015261392a92612dab565b90878203604089015261393c926131a0565b90858203606087015261394e926131e4565b83810360808501526001600160a01b039091169561396b92612ee5565b037fb7ebe4ef080ae99bbacdf111d6d2f1181768b49863b7f71ad31d1b9c996fb11c91a490565b6001906020845194019381840155016137c3565b600583016000526020600020908482015b81830181106139c75750506137af565b600081556001016139b7565b82516001600160a01b031681830155602090920191600101613770565b613a0a906004870160005284846000209182019101613119565b3861375f565b015190503880613696565b9190600185016000526020600020906000935b601f1984168510613a72576001945083601f19811610613a59575b505050811b016001830155613714565b015160001960f88460031b161c19169055388080613a49565b81810151835560209485019460019093019290910190613a2e565b9190846000526020600020906000935b601f1984168510613ade576001945083601f19811610613ac5575b505050811b0182556136ae565b015160001960f88460031b161c19169055388080613ab8565b81810151835560209485019460019093019290910190613a9d565b606460405162461bcd60e51b815260206004820152602060248201527f4552433732313a206d696e7420746f20746865207a65726f20616464726573736044820152fd5b91939695509193602080613b5d600193601f198682030187528a51611cc9565b9801930193019092879596949293613418565b604051635ec8173560e01b8152600490fd5b613ba4915060203d602011613baa575b613b9c8183611eda565b81019061412d565b38613295565b503d613b92565b80518210156129e75760209160051b010190565b909160209182810191613bd88383612dcc565b604092915083830190613beb8286612dcc565b91905003613ebc5792906000965b613c038684612dcc565b9050881015613cc257600094855b8435806000526010808b5260049081896000200154841015613c8f57613c5c918491613c4c8f61380a908f613c46908e612dcc565b90613175565b946000528d5289600020016129fd565b905460039190911b1c6001600160a01b03908116911614613c86575b613c8190612173565b613c11565b60019650613c78565b5050505091929497909715613cb157613ca790612173565b9693919093613bf9565b8351632b52c85160e21b8152600490fd5b9190959392949650613cd48782612dcc565b979050613ce088612b55565b97613ced8751998a611eda565b808952613cfc601f1991612b55565b018560005b828110613eac575050508760005b613d198385612dcc565b9050811015613e235787600061382288888389613d90613d6089613d3d8d85612dcc565b6001600160a01b0399918a91613d589161380a918691613175565b169785612dcc565b98519889978896879563ce79d4bd60e01b8752356004870152166024850152606060448501526064840191612dab565b03925af1908115613e1857600091613dc3575b5090613dbe91613db3828d613bb1565b52613876818c613bb1565b613d0f565b903d8082843e613dd38184611eda565b82019189818403126101b4578051906001600160401b03821161047957019082601f830112156104d35750613dbe9291818a613e119351910161206b565b9091613da3565b89513d6000823e3d90fd5b509794957f8f7df4b117f95d3eb363b9748409ed3e2278f6683efbf8f05304a62802dd57859493613e8c613e689498613e5f613ea7958b612dcc565b9690978b612dcc565b90613e7f8651998a9960608b5260608b01916131a0565b92888403908901526131e4565b848103928501929092526001600160a01b0316963595611d64565b0390a3565b606082828d010152018690613d01565b82516318c2d3e960e31b8152600490fd5b9190613eda9083516141ef565b602091828101613eea8151614145565b805151916040948582019384515103613fff5760005b835151811015613ff65782516000526010825260049081886000200160018060a01b039081613f30848951613bb1565b511690805490600160401b821015613fe15790613f52916001820181556129fd565b83829392549160031b92831b921b1916179055613f70828751613bb1565b511691845190613f81838951613bb1565b5193803b15611c7757600092838c93613fb8855198899687958694636dc3577560e11b865285015260248401526044830190611cc9565b03925af1918215613fd657613fd1926138815750612173565b613f00565b88513d6000823e3d90fd5b604186634e487b7160e01b6000525260246000fd5b50505050509050565b85516318c2d3e960e31b8152600490fd5b9061401c9082516141ef565b60005b6020908183019182515182101561407d5760109084516000525261404c8160056040600020019351613bb1565b518254600160401b811015611e455761263381614078956001614071940181556129fd565b9055612173565b61401f565b50505050565b1561408a57565b60405162461bcd60e51b815260206004820152601c60248201527f4552433732313a20746f6b656e20616c7265616479206d696e746564000000006044820152606490fd5b6080820151421161411b5760806000918360ff60208096015116906060604082015191015191604051938452868401526040830152606082015282805260015afa156138905760005190565b604051630819bdcd60e01b8152600490fd5b90816020910312611c7757518015158103611c775790565b90600091825b81518110156141e9576001600160a01b036141668284613bb1565b5116604080516301ffc9a760e01b81528060049363280ee6f160e21b8583015281602460209485935afa9182156141df5788926141c2575b5050156141b55750506141b090612173565b61414b565b5163251cb21f60e01b8152fd5b6141d89250803d10613baa57613b9c8183611eda565b388061419e565b83513d8a823e3d90fd5b50509050565b60005260106020526142086003604060002001546123c0565b6001600160a01b0391821691160361421c57565b604051637d387f3960e01b8152600490fdfea264697066735822122097b3b3f3084ec27393b68353c46c41e7612305423d1dffbbde0c9c8281d5b65964736f6c63430008150033",
    "linkReferences": {
      "node_modules/dataverse-contracts-test/contracts/monetizer/libraries/EIP712Encoder.sol": {
        "EIP712Encoder": [
          {
            "start": 2966,
            "length": 20
          },
          {
            "start": 4711,
            "length": 20
          },
          {
            "start": 5431,
            "length": 20
          },
          {
            "start": 8065,
            "length": 20
          }
        ]
      }
    }
  },
  "methodIdentifiers": {
    "DAPP_TABLE_REGISTRY()": "a9d298b1",
    "act((bytes32,address[],bytes[]))": "e03e0163",
    "actWithSig((bytes32,address[],bytes[]),(address,uint8,bytes32,bytes32,uint256))": "26297584",
    "addActions((bytes32,address[],bytes[]))": "c2bb05a7",
    "addActionsWithSig((bytes32,address[],bytes[]),(address,uint8,bytes32,bytes32,uint256))": "5b882006",
    "addImages((bytes32,bytes32[]))": "8fd5b368",
    "addImagesWithSig((bytes32,bytes32[]),(address,uint8,bytes32,bytes32,uint256))": "dd482d3e",
    "approve(address,uint256)": "095ea7b3",
    "balanceOf(address)": "70a08231",
    "close(bytes32)": "39c79e0c",
    "closeWithSig(bytes32,(address,uint8,bytes32,bytes32,uint256))": "38fb1c1c",
    "eip712Domain()": "84b0196e",
    "getApproved(uint256)": "081812fc",
    "getAsset(bytes32)": "2cc3ce80",
    "getAssetOwner(bytes32)": "35d8c2b7",
    "getDomainSeparator()": "ed24911d",
    "getSigNonce(address)": "05ac0ab4",
    "getUnionAsset(bytes32)": "570fed0f",
    "isApprovedForAll(address,address)": "e985e9c5",
    "name()": "06fdde03",
    "ownerOf(uint256)": "6352211e",
    "publish((string,bytes,address[],bytes[],bytes32[]))": "d7499c41",
    "publishWithSig((string,bytes,address[],bytes[],bytes32[]),(address,uint8,bytes32,bytes32,uint256))": "5b01a552",
    "safeTransferFrom(address,address,uint256)": "42842e0e",
    "safeTransferFrom(address,address,uint256,bytes)": "b88d4fde",
    "setApprovalForAll(address,bool)": "a22cb465",
    "supportsInterface(bytes4)": "01ffc9a7",
    "symbol()": "95d89b41",
    "tokenByIndex(uint256)": "4f6ccce7",
    "tokenOfOwnerByIndex(address,uint256)": "2f745c59",
    "tokenURI(uint256)": "c87b56dd",
    "totalSupply()": "18160ddd",
    "transferFrom(address,address,uint256)": "23b872dd"
  },
  "id": 12
}