{
  "abi": [
    {
      "inputs": [
        {
          "internalType": "address",
          "name": "actionConfig",
          "type": "address"
        },
        {
          "internalType": "address",
          "name": "collectAction",
          "type": "address"
        },
        {
          "internalType": "address",
          "name": "monetizer",
          "type": "address"
        }
      ],
      "stateMutability": "nonpayable",
      "type": "constructor"
    },
    {
      "inputs": [],
      "name": "CollectTokenNotEnumberable",
      "type": "error"
    },
    {
      "inputs": [],
      "name": "CollectTokenNotOwned",
      "type": "error"
    },
    {
      "inputs": [],
      "name": "InvalidMonetizer",
      "type": "error"
    },
    {
      "inputs": [],
      "name": "NotCollected",
      "type": "error"
    },
    {
      "inputs": [],
      "name": "NotSubscribeModule",
      "type": "error"
    },
    {
      "inputs": [],
      "name": "SubscribeModuleAlreadyRegistered",
      "type": "error"
    },
    {
      "inputs": [],
      "name": "SubscribeModuleNotRegistered",
      "type": "error"
    },
    {
      "inputs": [],
      "name": "ACTION_CONFIG",
      "outputs": [
        {
          "internalType": "contract ActionConfig",
          "name": "",
          "type": "address"
        }
      ],
      "stateMutability": "view",
      "type": "function"
    },
    {
      "inputs": [],
      "name": "COLLECT_ACTION",
      "outputs": [
        {
          "internalType": "contract CollectAction",
          "name": "",
          "type": "address"
        }
      ],
      "stateMutability": "view",
      "type": "function"
    },
    {
      "inputs": [
        {
          "internalType": "bytes32",
          "name": "assetId",
          "type": "bytes32"
        }
      ],
      "name": "getDappTreasuryData",
      "outputs": [
        {
          "internalType": "address",
          "name": "",
          "type": "address"
        },
        {
          "internalType": "uint256",
          "name": "",
          "type": "uint256"
        }
      ],
      "stateMutability": "view",
      "type": "function"
    },
    {
      "inputs": [],
      "name": "getProtocolTreasuryData",
      "outputs": [
        {
          "internalType": "address",
          "name": "",
          "type": "address"
        },
        {
          "internalType": "uint256",
          "name": "",
          "type": "uint256"
        }
      ],
      "stateMutability": "view",
      "type": "function"
    },
    {
      "inputs": [
        {
          "internalType": "bytes32",
          "name": "assetId",
          "type": "bytes32"
        },
        {
          "internalType": "uint256",
          "name": "collectionId",
          "type": "uint256"
        }
      ],
      "name": "getSubscribeData",
      "outputs": [
        {
          "internalType": "uint256[2][]",
          "name": "",
          "type": "uint256[2][]"
        }
      ],
      "stateMutability": "view",
      "type": "function"
    },
    {
      "inputs": [
        {
          "internalType": "bytes32",
          "name": "assetId",
          "type": "bytes32"
        },
        {
          "internalType": "bytes",
          "name": "data",
          "type": "bytes"
        }
      ],
      "name": "initializeAction",
      "outputs": [],
      "stateMutability": "payable",
      "type": "function"
    },
    {
      "inputs": [
        {
          "internalType": "bytes32",
          "name": "assetId",
          "type": "bytes32"
        },
        {
          "internalType": "uint256",
          "name": "collectionId",
          "type": "uint256"
        },
        {
          "internalType": "uint256",
          "name": "timestamp",
          "type": "uint256"
        }
      ],
      "name": "isAccessible",
      "outputs": [
        {
          "internalType": "bool",
          "name": "",
          "type": "bool"
        }
      ],
      "stateMutability": "view",
      "type": "function"
    },
    {
      "inputs": [
        {
          "internalType": "bytes32",
          "name": "assetId",
          "type": "bytes32"
        },
        {
          "internalType": "address",
          "name": "account",
          "type": "address"
        },
        {
          "internalType": "uint256",
          "name": "timestamp",
          "type": "uint256"
        }
      ],
      "name": "isAccessible",
      "outputs": [
        {
          "internalType": "bool",
          "name": "",
          "type": "bool"
        }
      ],
      "stateMutability": "view",
      "type": "function"
    },
    {
      "inputs": [
        {
          "internalType": "address",
          "name": "",
          "type": "address"
        }
      ],
      "name": "isSubscribeModuleRegistered",
      "outputs": [
        {
          "internalType": "bool",
          "name": "",
          "type": "bool"
        }
      ],
      "stateMutability": "view",
      "type": "function"
    },
    {
      "inputs": [],
      "name": "monetizer",
      "outputs": [
        {
          "internalType": "address",
          "name": "",
          "type": "address"
        }
      ],
      "stateMutability": "view",
      "type": "function"
    },
    {
      "inputs": [
        {
          "internalType": "bytes32",
          "name": "assetId",
          "type": "bytes32"
        },
        {
          "internalType": "address",
          "name": "subscriber",
          "type": "address"
        },
        {
          "internalType": "bytes",
          "name": "data",
          "type": "bytes"
        }
      ],
      "name": "processAction",
      "outputs": [
        {
          "internalType": "bytes",
          "name": "",
          "type": "bytes"
        }
      ],
      "stateMutability": "payable",
      "type": "function"
    },
    {
      "inputs": [
        {
          "internalType": "address",
          "name": "subscribeModule",
          "type": "address"
        }
      ],
      "name": "registerSubscribeModule",
      "outputs": [],
      "stateMutability": "nonpayable",
      "type": "function"
    },
    {
      "inputs": [
        {
          "internalType": "bytes4",
          "name": "interfaceId",
          "type": "bytes4"
        }
      ],
      "name": "supportsInterface",
      "outputs": [
        {
          "internalType": "bool",
          "name": "",
          "type": "bool"
        }
      ],
      "stateMutability": "view",
      "type": "function"
    }
  ],
  "bytecode": {
    "object": "0x60a06040523480156200001157600080fd5b50604051620016cb380380620016cb83398101604081905262000034916200008a565b600080546001600160a01b03199081166001600160a01b03958616179091556001805490911691841691909117905516608052620000d4565b80516001600160a01b03811681146200008557600080fd5b919050565b600080600060608486031215620000a057600080fd5b620000ab846200006d565b9250620000bb602085016200006d565b9150620000cb604085016200006d565b90509250925092565b6080516115bf6200010c600039600081816101ca015281816106c90152818161075a0152818161095201526109f101526115bf6000f3fe6080604052600436106100c25760003560e01c806379e559361161007f578063c0e26b4e11610059578063c0e26b4e1461024e578063ce79d4bd1461026e578063d9c259671461028e578063db86aeea146102bb57600080fd5b806379e55936146101ec57806395197b511461020c578063b0c8e77f1461022c57600080fd5b806301ffc9a7146100c757806317ea5bf9146100fc5780631dfda6ce1461012c5780633532d0e51461014c57806369288f83146101805780636fad6087146101b8575b600080fd5b3480156100d357600080fd5b506100e76100e2366004610dda565b6102ce565b60405190151581526020015b60405180910390f35b34801561010857600080fd5b506100e7610117366004610e1c565b60026020526000908152604090205460ff1681565b34801561013857600080fd5b506100e7610147366004610e39565b610305565b34801561015857600080fd5b5061016161044b565b604080516001600160a01b0390931683526020830191909152016100f3565b34801561018c57600080fd5b506000546101a0906001600160a01b031681565b6040516001600160a01b0390911681526020016100f3565b3480156101c457600080fd5b506101a07f000000000000000000000000000000000000000000000000000000000000000081565b3480156101f857600080fd5b506001546101a0906001600160a01b031681565b34801561021857600080fd5b50610161610227366004610e65565b6104bd565b34801561023857600080fd5b5061024c610247366004610e1c565b6105b6565b005b34801561025a57600080fd5b506100e7610269366004610e7e565b6106a0565b61028161027c366004610eff565b6108fe565b6040516100f39190610fab565b34801561029a57600080fd5b506102ae6102a9366004610fbe565b610c16565b6040516100f39190610fe0565b61024c6102c9366004611049565b610ca8565b60006001600160e01b03198216631066d55960e11b14806102ff57506301ffc9a760e01b6001600160e01b03198316145b92915050565b60004282111561031757506000610444565b6000848152600360209081526040808320868452825280832080548251818502810185019093528083529192909190849084015b8282101561039b5760008481526020902060408051808201918290529160028581029091019182845b8154815260200190600101908083116103745750505050508152602001906001019061034b565b50505050905060005b815181101561043d578181815181106103bf576103bf611095565b60200260200101516000600281106103d9576103d9611095565b6020020151841015801561041d57508181815181106103fa576103fa611095565b602002602001015160016002811061041457610414611095565b60200201518411155b1561042d57600192505050610444565b610436816110ab565b90506103a4565b5060009150505b9392505050565b6000805460408051633532d0e560e01b8152815184936001600160a01b031692633532d0e592600480820193918290030181865afa158015610491573d6000803e3d6000fd5b505050506040513d601f19601f820116820180604052508101906104b591906110d2565b915091509091565b60015460405163570fed0f60e01b815260048101839052600091829182916001600160a01b03169063570fed0f90602401600060405180830381865afa15801561050b573d6000803e3d6000fd5b505050506040513d6000823e601f3d908101601f191682016040526105339190810190611273565b6000548151604080840151905163221dee9160e21b81529394506001600160a01b0390921692638877ba449261056c9291600401611346565b6040805180830381865afa158015610588573d6000803e3d6000fd5b505050506040513d601f19601f820116820180604052508101906105ac91906110d2565b9250925050915091565b6001600160a01b03811660009081526002602052604090205460ff16156105f057604051634913a52560e01b815260040160405180910390fd5b6040516301ffc9a760e01b8152630fd32ccf60e01b60048201526001600160a01b038216906301ffc9a790602401602060405180830381865afa15801561063b573d6000803e3d6000fd5b505050506040513d601f19601f8201168201806040525081019061065f9190611368565b61067c57604051634bbd89fb60e11b815260040160405180910390fd5b6001600160a01b03166000908152600260205260409020805460ff19166001179055565b60405163375326d360e21b8152600481018490526001600160a01b0383811660248301526000917f00000000000000000000000000000000000000000000000000000000000000009091169063dd4c9b4c90604401602060405180830381865afa158015610712573d6000803e3d6000fd5b505050506040513d601f19601f820116820180604052508101906107369190611368565b61074257506000610444565b60405162b2a76b60e01b8152600481018590526000907f00000000000000000000000000000000000000000000000000000000000000006001600160a01b03169062b2a76b906024016040805180830381865afa1580156107a7573d6000803e3d6000fd5b505050506040513d601f19601f820116820180604052508101906107cb919061138a565b602001516040516370a0823160e01b81526001600160a01b0386811660048301529192506000918316906370a0823190602401602060405180830381865afa15801561081b573d6000803e3d6000fd5b505050506040513d601f19601f8201168201806040525081019061083f91906113e9565b905060005b818110156108f157604051632f745c5960e01b81526001600160a01b0387811660048301526024820183905260009190851690632f745c5990604401602060405180830381865afa15801561089d573d6000803e3d6000fd5b505050506040513d601f19601f820116820180604052508101906108c191906113e9565b90506108ce888288610305565b156108e0576001945050505050610444565b506108ea816110ab565b9050610844565b5060009695505050505050565b6001546060906001600160a01b0316331461092c57604051636a429a5960e01b815260040160405180910390fd5b60405163375326d360e21b8152600481018690526001600160a01b0385811660248301527f0000000000000000000000000000000000000000000000000000000000000000169063dd4c9b4c90604401602060405180830381865afa158015610999573d6000803e3d6000fd5b505050506040513d601f19601f820116820180604052508101906109bd9190611368565b6109d9576040516272cd0960e31b815260040160405180910390fd5b60405162b2a76b60e01b8152600481018690526000907f00000000000000000000000000000000000000000000000000000000000000006001600160a01b03169062b2a76b906024016040805180830381865afa158015610a3e573d6000803e3d6000fd5b505050506040513d601f19601f82011682018060405250810190610a62919061138a565b60200151905060008080610a7886880188611453565b925092509250876001600160a01b0316846001600160a01b0316636352211e856040518263ffffffff1660e01b8152600401610ab691815260200190565b602060405180830381865afa158015610ad3573d6000803e3d6000fd5b505050506040513d601f19601f82011682018060405250810190610af791906114ac565b6001600160a01b031614610b1e57604051630c80c90960e21b815260040160405180910390fd5b600080836001600160a01b03166366265b168c8c866040518463ffffffff1660e01b8152600401610b51939291906114c9565b60408051808303816000875af1158015610b6f573d6000803e3d6000fd5b505050506040513d601f19601f82011682018060405250810190610b9391906114fc565b60008d81526003602090815260408083208a845282528083208151808301909252858252818301859052805460018101825590845291909220939550919350610be29260029283020191610d87565b5060408051602081018490529081018290526060016040516020818303038152906040529650505050505050949350505050565b60008281526003602090815260408083208484528252808320805482518185028101850190935280835260609492939192909184015b82821015610c9c5760008481526020902060408051808201918290529160028581029091019182845b815481526020019060010190808311610c7557505050505081526020019060010190610c4c565b50505050905092915050565b6001546001600160a01b03163314610cd357604051636a429a5960e01b815260040160405180910390fd5b600080610ce283850185611520565b6001600160a01b038216600090815260026020526040902054919350915060ff16610d2057604051632abf965d60e11b815260040160405180910390fd5b6040516369f577d960e01b81526001600160a01b038316906369f577d990610d4e9088908590600401611570565b600060405180830381600087803b158015610d6857600080fd5b505af1158015610d7c573d6000803e3d6000fd5b505050505050505050565b8260028101928215610db5579160200282015b82811115610db5578251825591602001919060010190610d9a565b50610dc1929150610dc5565b5090565b5b80821115610dc15760008155600101610dc6565b600060208284031215610dec57600080fd5b81356001600160e01b03198116811461044457600080fd5b6001600160a01b0381168114610e1957600080fd5b50565b600060208284031215610e2e57600080fd5b813561044481610e04565b600080600060608486031215610e4e57600080fd5b505081359360208301359350604090920135919050565b600060208284031215610e7757600080fd5b5035919050565b600080600060608486031215610e9357600080fd5b833592506020840135610ea581610e04565b929592945050506040919091013590565b60008083601f840112610ec857600080fd5b50813567ffffffffffffffff811115610ee057600080fd5b602083019150836020828501011115610ef857600080fd5b9250929050565b60008060008060608587031215610f1557600080fd5b843593506020850135610f2781610e04565b9250604085013567ffffffffffffffff811115610f4357600080fd5b610f4f87828801610eb6565b95989497509550505050565b60005b83811015610f76578181015183820152602001610f5e565b50506000910152565b60008151808452610f97816020860160208601610f5b565b601f01601f19169290920160200192915050565b6020815260006104446020830184610f7f565b60008060408385031215610fd157600080fd5b50508035926020909101359150565b60208082528251828201819052600091906040908185019086840185805b8381101561103b57825185835b60028110156110285782518252918901919089019060010161100b565b5050509385019391860191600101610ffe565b509298975050505050505050565b60008060006040848603121561105e57600080fd5b83359250602084013567ffffffffffffffff81111561107c57600080fd5b61108886828701610eb6565b9497909650939450505050565b634e487b7160e01b600052603260045260246000fd5b6000600182016110cb57634e487b7160e01b600052601160045260246000fd5b5060010190565b600080604083850312156110e557600080fd5b82516110f081610e04565b6020939093015192949293505050565b634e487b7160e01b600052604160045260246000fd5b60405160c0810167ffffffffffffffff8111828210171561113957611139611100565b60405290565b604051601f8201601f1916810167ffffffffffffffff8111828210171561116857611168611100565b604052919050565b600067ffffffffffffffff82111561118a5761118a611100565b50601f01601f191660200190565b600082601f8301126111a957600080fd5b81516111bc6111b782611170565b61113f565b8181528460208386010111156111d157600080fd5b6111e2826020830160208701610f5b565b949350505050565b600082601f8301126111fb57600080fd5b8151602067ffffffffffffffff82111561121757611217611100565b8160051b61122682820161113f565b928352848101820192828101908785111561124057600080fd5b83870192505b8483101561126857825161125981610e04565b82529183019190830190611246565b979650505050505050565b60006020828403121561128557600080fd5b815167ffffffffffffffff8082111561129d57600080fd5b9083019060c082860312156112b157600080fd5b6112b9611116565b8251828111156112c857600080fd5b6112d487828601611198565b8252506020830151828111156112e957600080fd5b6112f587828601611198565b60208301525060408301516040820152606083015160608201526080830151608082015260a08301518281111561132b57600080fd5b611337878286016111ea565b60a08301525095945050505050565b6040815260006113596040830185610f7f565b90508260208301529392505050565b60006020828403121561137a57600080fd5b8151801515811461044457600080fd5b60006040828403121561139c57600080fd5b6040516040810181811067ffffffffffffffff821117156113bf576113bf611100565b60405282516113cd81610e04565b815260208301516113dd81610e04565b60208201529392505050565b6000602082840312156113fb57600080fd5b5051919050565b600082601f83011261141357600080fd5b81356114216111b782611170565b81815284602083860101111561143657600080fd5b816020850160208301376000918101602001919091529392505050565b60008060006060848603121561146857600080fd5b83359250602084013561147a81610e04565b9150604084013567ffffffffffffffff81111561149657600080fd5b6114a286828701611402565b9150509250925092565b6000602082840312156114be57600080fd5b815161044481610e04565b8381526001600160a01b03831660208201526060604082018190526000906114f390830184610f7f565b95945050505050565b6000806040838503121561150f57600080fd5b505080516020909101519092909150565b6000806040838503121561153357600080fd5b823561153e81610e04565b9150602083013567ffffffffffffffff81111561155a57600080fd5b61156685828601611402565b9150509250929050565b8281526040602082015260006111e26040830184610f7f56fea26469706673582212204028952cc54725390cc4fb0575b3742d2c03138cabf020e9d8d9dcd65275b21e64736f6c63430008150033",
    "linkReferences": {}
  },
  "methodIdentifiers": {
    "ACTION_CONFIG()": "69288f83",
    "COLLECT_ACTION()": "6fad6087",
    "getDappTreasuryData(bytes32)": "95197b51",
    "getProtocolTreasuryData()": "3532d0e5",
    "getSubscribeData(bytes32,uint256)": "d9c25967",
    "initializeAction(bytes32,bytes)": "db86aeea",
    "isAccessible(bytes32,address,uint256)": "c0e26b4e",
    "isAccessible(bytes32,uint256,uint256)": "1dfda6ce",
    "isSubscribeModuleRegistered(address)": "17ea5bf9",
    "monetizer()": "79e55936",
    "processAction(bytes32,address,bytes)": "ce79d4bd",
    "registerSubscribeModule(address)": "b0c8e77f",
    "supportsInterface(bytes4)": "01ffc9a7"
  },
  "id": 17
}